:100200000C94C2100C94EC100C94EC100C94BE20C6
:100210000C94EC100C94EC100C94EC100C94EC106E
:100220000C94FD200C94EC100C94EC100C94EC103D
:100230000C94EC100C94EC100C94EC100C94EC104E
:100240000C94EC100C94EC100C94F1240C94EC1025
:100250000C94EC100C94EC100C94EC100C94EC102E
:100260000C94F4200C94EC100C944B210C94EC1096
:100270000C94EC100C94EC100C94F7200C94C62009
:100280000C94EC100C94EC100C94EC100C94EE20EC
:100290000C94EC100C94EC100C94EC100C94EC10EE
:1002A0000C94EC100C94EC100C94C7240C94EC10EF
:1002B0000C94EC100C94FA200C94F1200C94EC109B
:1002C0000C94EC100C94EC100C94EC100C94EC10BE
:1002D0000C94EC100C9450200C944B200C94552052
:1002E0000C94EC100C94EC100C94EC100C94EC109E
:1002F0000C94EC1005A84CCDB2D44EB93836A902F6
:100300000C50B9918688083CA6AAAA2ABE00000013
:10031000803F4E414E494E495459494E46CDCCCC72
:100320003D0AD7233C17B7D13877CC2B329595E6C9
:10033000241FB14F0A000020410000C84200401CA9
:100340004620BCBE4CCA1B0E5AAEC59D74AED580AD
:10035000A83FD300408D142002A1C8DA12817FD9B2
:10036000F1DB40A4A6AF646174616C6F67203D202F
:1003700000693643616C203D2000693543616C2083
:100380003D2000693443616C203D200069334361A6
:100390006C203D2000693243616C203D20006931B2
:1003A00043616C203D200043616C69627261746935
:1003B0006F6E3A002064426D002C20002C204E6F9E
:1003C00064652000204D487A2C2047726F7570209C
:1003D0000042616E64200053657474696E67733AFD
:1003E0000000030C0F30333C3FC0C3CCCFF0F3FC14
:1003F000FF4E6F20454550524F4D20636F6E66692A
:1004000067004C6F6164656420454550524F4D2034
:10041000636F6E666967005265666572656E6365D7
:1004200020766F6C746167652063616C69627261CC
:1004300074696F6E3A20002000204E6F64653A2088
:10044000002047726F75703A20003931354D487A77
:10045000003836384D487A003433334D487A00201E
:10046000467265713A200052464D36394357200096
:100470004F70656E456E657267794D6F6E69746F0A
:10048000722E6F726700656D6F6E50693220434D3A
:100490002063757272656E74206F6E6C79205600E1
:1004A0001E6C0D0E206002010308070A08010303F9
:1004B00005070104010406030606070606060606EC
:1004C0000101060606060D090708080707090701C6
:1004D000050807090709070908070707090D08099B
:1004E00008020402050802060605060604060601BF
:1004F00002060109060606060405040607090607A2
:1005000006030103070700000000FE141E001E0082
:1005100000009090F89690F89690001C00001C0047
:100520000000182422FF4242840810103C100804E6
:100530001C22221CC0308C4240800000100C0000A5
:100540000C10100C805C2262920C80000C101010B9
:10055000100C08101E00F00C021C6080020CF080D1
:10056000601C04140E14040000000000404040F819
:100570004040400000000C0000000070808080803F
:1005800000000000001000C0380618040000FC0243
:10059000020202FC0C101010100C0804FE00001CDB
:1005A0000C020282423C1018141010100C0222227D
:1005B00022DC0C101010100C8040300804FE0004E7
:1005C000040404041C043816121212E20C10101059
:1005D0001804F844222222C40C101010100C02023D
:1005E00002E21A0600001C000000DC22222222DCAB
:1005F0000C101010100C3C42424222FC081010104B
:1006000008040810087040A0A010100800000004A2
:100610000408909090909090000000000000081056
:1006200010A0A0400804040000000C028242221C1A
:10063000000014000000E01804C422121212A2727A
:100640000408F00C30404C909090889C90504C20C6
:100650000080E09C829CE080001804000000000004
:100660000418FE2222222222DC1C10101010100C72
:10067000F804020202020408040810101010080412
:10068000FE020202020204F81C10101010100804EE
:10069000FE2222222222221C101010101010FE22F4
:1006A00022222222021C000000000000F8040202A4
:1006B00002424244C8040810101010100804FE2022
:1006C00020202020FE1C00000000001CFE1C00005A
:1006D0000000FE0C1010100CFE8040205088040218
:1006E0001C00000000040810FE0000000000001CB8
:1006F000101010101010FE0C30C000C0300CFE1C8A
:10070000000004180400001CFE0418608000FE1C99
:1007100000000004081CF804020202020204F804AB
:100720000810101010100804FE42424242423C1CC5
:10073000000000000000F804020202020204F804B3
:100740000810101014081C10FE424242C242423CE3
:100750001C000000000408101C22222242428C0CC3
:1007600010101010100C020202FE02020200000023
:100770001C000000FE0000000000FE040810101025
:100780000804061860800080601806000000041845
:10079000040000000638C000C03C023CC000C03865
:1007A0000600000418040000000418040000020CF5
:1007B000906060900C02100C000000040C10020409
:1007C0001820C020180402000000001C00000000D7
:1007D00000028242221A0602101814101010101083
:1007E000FE02FC800638C0000000041802FE80FCF7
:1007F000201C021C2000000000000000000000007F
:10080000000080808080808080800204000010884A
:10081000484848F00C101010081CFE10080808F09A
:100820001C081010100CF0080808100C101010080C
:10083000F008080810FE0C101010081CF04848487A
:1008400048700C101010100808FC0A0A001C000068
:10085000F008080810F84C909090887CFE1008086A
:1008600008F01C000000001CFA1C00FA807CFE80CE
:1008700040A010081C0000000C10FE1CF810080816
:10088000F0100808F01C0000001C0000001CF8100C
:10089000080808F01C000000001CF008080808F018
:1008A0000C101010100CF810080808F0FC081010BC
:1008B000100CF008080810F80C10101008FCF810C4
:1008C00008081C0000003048484890081010100C20
:1008D00008FE0808001C1010F800000000F80C10BA
:1008E0001010081C186080008060180000041804B4
:1008F000000018E000E018E000E018000418040010
:10090000041804000830C0C03008100C00000C109F
:100910001860800080601800808C700C000008084F
:1009200088681808101814101010807C02007C8051
:10093000FEFC027C80807C00402020604040200043
:10094000000000000000FC0404040404FC1C10105F
:100950001010101C697A151920600703070F0C1678
:10096000100207070B0F0407030A0C0A0C0B0D0CEF
:100970000C0C0C0D03040D0E0E0A14100D0F0F0CB1
:100980000B100E06080E0B100E110C110E0D0F0D94
:100990000F150E0D0E060A060E0F040B0C0B0C0C99
:1009A000070C0B03060C02130B0C0C0C080A080BAB
:1009B0000C110C0C0B0B020B0F00000000000000D0
:1009C0000000000000000000000000000000000027
:1009D00000000000000038F8F8007F7F000C0C00D9
:1009E0000000FCFC000000FCFC0001000000010015
:1009F00000000000000000000000000000000000F7
:100A000080808080F0B8808080F89880804060612D
:100A100061F17F4341E1F97F616161010000000FF5
:100A2000030000080F0100000000000000000000AB
:100A30000000000000000000000080C0E06060FCDA
:100A400060606060E000070F1C1818FF383030E06D
:100A5000E080060E0C0C0CFF0C0C060703010000D6
:100A600000000000000000000000F0F8180C0C1C52
:100A7000F8F000000000C0E03808000000000000AE
:100A8000070F0C08080C0F07C0F03C0F0300F8F824
:100A90000C0C0C1CF8F00000000000000C0F030010
:100AA00000000000070F0C080C0C070300000000FA
:100AB0000000000000000000000000000000000036
:100AC00000000060F8F80C0C0C0CF8F86000000056
:100AD0000000C0F0F90F07060E1B3171E0C0FC3CAE
:100AE00000000003070E0C0C0C0C0C060703030798
:100AF0000E0C0000000000000000000000000000DC
:100B00000000FCFC0001000000000080E0781C0CEC
:100B100004FCFF0700000000010F3F78E0800000A8
:100B2000000000808080040C1C78E0800000000041
:100B30000087FFFC0080E0783F0F0080808000008D
:100B4000000010302060C0FCC060203010020203A2
:100B500001011F0101030206000000000000000067
:100B60000000000000000000000000000000000085
:100B70000000000000E0E00000000000001818186D
:100B800018181818FFFF1818181818180000000077
:100B90000000000F0F000000000000000000000037
:100BA0000000000000000000000000000000000045
:100BB0000000E0FC3E0E000000000000000000000D
:100BC000001818181818181800000000000000007D
:100BD0000000000000000000000000000E0E0E00EB
:100BE0000000000000000000C0F83C04000000C04D
:100BF000F83F07000000E0781F0700000000000039
:100C000000000000000000000000C0F078180C0C8C
:100C10000C1838F0E080FFFF00000000000000E149
:100C2000FF3F0107070C0C0C0C0C0E070100000025
:100C30000000000000000000000000606070F8FC90
:100C40000000000000000000FFFF000000000C0C8E
:100C50000C0C0F0F0C0C0C0C00000000000000002E
:100C600000000018180C0C0C1C1878F0E0000000B4
:100C700080C0E070381C0F0701000E0F0F0D0C0C28
:100C80000C0C0C0C0C0C000000000000000000001C
:100C900000000018181C0C0C0C1C38F8F0000000A8
:100CA00000040E0E0E1BF9F0060E0C0C0C0C0C0CB6
:100CB0000E0703000000000000000000000000001C
:100CC000000080C06030F8F8F8000070786E67634C
:100CD000616060FFFFFF6060000000000000000036
:100CE0000F0F0F00000000000000000000000000D7
:100CF000000000F8F818181818181818180000073D
:100D000007060606060E0CFCF8E0060E0C0C0C0C92
:100D10000C0C0E07030000000000000000000000A3
:100D2000000080E0F0301818080C0C0C0000FFFFE9
:100D30000C06060606060EBCF8F00103070E0C0CA6
:100D40000C0C0E0703010000000000000000000072
:100D50000000181818181818181898F87838000093
:100D60000000C0F0781E0701000000000C0F070112
:100D70000000000000000000000000000000000073
:100D80000000E0F0B81C0C0C0C0C18F8F000F1F3AB
:100D90001F0E060C0C1C1EF3F1C003070E0C0C08F2
:100DA000080C0C0703010000000000000000000018
:100DB000000080E0F018180C0C0C1838F0E0C001AE
:100DC0000F1F18383030301098FFFF0F00000C0C48
:100DD0000C0C0C0E060303000000000000000000D5
:100DE0000000000000008080800303030E0E0E0050
:100DF00000000080808000030303E0FC3E0600004A
:100E00000000000000000000000000808080C0188A
:100E100038386C6CC6C6C383810101000000000035
:100E200000000000010103030600000000000000B4
:100E300000000000000000000000000000000000B2
:100E400000000000C6C6C6C6C6C6C6C6C6C6C6C65A
:100E5000C6C6000000000000000000000000000006
:100E60000000000000000000000000000000C0C002
:100E70008080000000000000000000000000010170
:100E80008383C3C6666C3C38381006030303010134
:100E90000000000000000000000000000000000052
:100EA00000000000000018180C0C0C1C18F8F0E0F2
:100EB00000000078780C0E0703000000000C0C0006
:100EC00000000000000000000000000000000080A2
:100ED000C06030181888888C8C8C8888183070E036
:100EE00080007CFF010000FCFF830101010181FF04
:100EF00000000000FF7C0003070C1830312323633F
:100F0000636361230302020301000000000000008C
:100F100000000000000000000000000000000000D1
:100F2000000000C0F83838F8E08000000000000041
:100F3000C0F87F6F61606060677FFCE00000080EB2
:100F40000F030000000000000000010F0F0C000064
:100F50000000000000000000000000000000F8F8A1
:100F6000F8181818181818B8F0E000FFFFFF0C0C5C
:100F70000C0C0E0E0F1DF8F00F0F0F0C0C0C0C0CC0
:100F80000C0E060703000000000000000000000037
:100F900000000080E0F03818180C0C0C1C181838F1
:100FA000301EFFF380000000000000000000000081
:100FB00000000307070E0C0C0C0C0C0C0E060600B0
:100FC0000000000000000000000000000000F8F831
:100FD000F8181818181818183070E0C000FFFFFF34
:100FE000000000000000000080F3FF3F0F0F0F0C17
:100FF0000C0C0C0C0E0607030300000000000000A0
:1010000000000000000000000000F8F8F8181818B0
:10101000181818181818FFFFFF0606060606060619
:1010200006060F0F0F0C0C0C0C0C0C0C0C0C00001B
:1010300000000000000000000000F8F8F818181880
:101040001818181818FFFFFF0C0C0C0C0C0C0C00D7
:101050000F0F0F0000000000000000000000000063
:101060000000000000000080E0F0301818080C0CB0
:101070000C0C181838301EFFF38000000000001818
:1010800018181838F8F800000303070E0C0C0C0CA5
:101090000C0C0C0E07070000000000000000000010
:1010A000000000000000F8F8F80000000000000058
:1010B00000F8F8F8FFFFFF0606060606060606FF1C
:1010C000FFFF0F0F0F00000000000000000F0F0FC8
:1010D0000000000000000000000000000000080800
:1010E000F8F808080000FFFF00000C0C0F0F0C0CB4
:1010F0000000000000000000080808F8F8F80000F0
:10110000000000FFFFFF0C0C0C0C0C070701000097
:10111000000000000000F8F8F800000080C0E07057
:1011200038180800FFFFFF1C1E1F7FF1E0C0000001
:1011300000000F0F0F00000000000103070E0C0855
:101140000000000000000000000000000000F8F8AF
:10115000F80000000000000000FFFFFF000000009A
:10116000000000000F0F0F0C0C0C0C0C0C0C0C00F2
:1011700000000000000000000000F8F8F878E080AF
:101180000000000080E07838F8F8FFFFFF0001075A
:101190001E78703E07010000FFFF0F0F0F000000D8
:1011A00000000000000000000F0F00000000000021
:1011B00000000000000000000000F8F8F838F0C05F
:1011C0008000000000F8F8F8FFFFFF0000030F3E6A
:1011D000F8E080FFFFFF0F0F0F000000000000038A
:1011E000070F0F0F000000000000000000000000CB
:1011F000000000C0E0F03818180C0C0C181838F07B
:10120000E080001EFFF380000000000000000000EE
:1012100080F3FF3E00000307060E0C0C0C0C0C0EB6
:1012200006070300000000000000000000000000AE
:10123000000000000000F8F8F818181818183870A6
:10124000E0C0FFFFFF10101818181C0E07030F0F47
:101250000F0000000000000000000000000000007F
:1012600000000000000000C0E0F03818180C0C0C62
:10127000181838F0E080001EFFF380000000000026
:101280000000000080E7FF1E00000307060E0C0CA4
:101290000C1C7CFEC6C783C0C0000000000000001C
:1012A00000000000000080808000F8F8F81818188E
:1012B00018181878F0C00000FFFFFF1818183878C9
:1012C000ECC7870100000F0F0F00000000000001B5
:1012D000030F0E08000000000000000000000000E6
:1012E0000000E0F038181C0C0C0C1C181818000337
:1012F00007070E0C0C0C1C1C1878F0E0060E0C0CEA
:101300000C0C0C0C0C0E0703010000000000000088
:10131000000000000000181818181818F8F8F8183D
:101320001818181818000000000000FFFFFF000048
:10133000000000000000000000000F0F0F00000080
:10134000000000000000000000000000000000009D
:101350000000F8F8000000000000000000F8F8FFAE
:10136000FFC00000000000000000FFFF0003070EA8
:101370000C0C0C0C0C0C0707010000000000000016
:1013800000000000000038F8E080000000000000CD
:1013900000C0F878080001073FFCE00000C0F07EC4
:1013A0000F03000000000000010F0F0E0F030000EC
:1013B000000000000000000000000000000000002D
:1013C000000008F8F8800000000000F078F8F00055
:1013D00000000000C0F87800000F7FF88000F07F68
:1013E0000700000FFFF000C0FC7F070000000000B6
:1013F000070F0F070000000000000F0F0F0700008D
:1014000000000000000000000000000000000000DC
:10141000000000000000001838F0E080000000C06C
:10142000E078381800000080E1773F1E7FF3C0802D
:101430000000080C0F0301000000000003070E0C61
:10144000000000000000000000000000000018780C
:10145000F0C08000000080E0F038080000000307C2
:10146000FEFCFE070100000000000000000F0F0F4F
:10147000000000000000000000000000000000006C
:10148000000000181818181818181898F8F83818C4
:10149000000080C0E0703C0E0703010000000C0E4D
:1014A0000F0D0C0C0C0C0C0C0C0C0C0C00000000A8
:1014B00000000000000000000000FCFC0404040424
:1014C000FFFF00000000FFFF808080808080808020
:1014D00080800C3CF8C00000000000000000010704
:1014E0003EF8C0000000000000000000073F78C088
:1014F0000000000000000000000004040404FCFCE4
:1015000000000000FFFF80808080FFFF80808080DF
:101510008080000080C0E038183870E08000000053
:101520000C0E070100000000000003070E08000079
:1015300000000000000000000000000000000000AB
:10154000000000000000000000000000000000009B
:10155000000000000000000000000000000000008B
:101560000000000000000000C0C0C0C0C0C0C0C07B
:10157000C0C0C0C0C0C0C00000000000000000002B
:10158000000000000000030F1C100000000000001D
:1015900000000000000000808080808080808080CB
:1015A0000080E1E1313131111919FFFF03070F0C00
:1015B0000C0C0C0C060F0F000000000000000000D7
:1015C0000000FCFC00008080808080000000FFFFA5
:1015D000030101010101038FFEF80F0F0E0C0C0C2B
:1015E0000C0C0E07030000000000000000000000CB
:1015F00000000000008080808080808000F8FE8FE6
:1016000003010101010101010003070E0C0C0C0C88
:101610000C0C0400000000000000000000000000AE
:101620000080C0C0C0C08080FCFCF8FE8F030100B9
:1016300000010103FFFF0003070E0C0C0C0C060653
:101640000F0F00000000000000000000000000007C
:10165000008080C0C0C08080000078FEFF33313140
:10166000303131333F3C000307060C0C0C0C0C0CE2
:101670000E0600000000000000000000000080E0F6
:10168000F8BC8C8C8C01FFFF01010101000F0F00E1
:1016900000000000000000000000000000808080CA
:1016A00080808080000078FECF03010101010103EA
:1016B000FFFE0003C7868E8C8C86C6F77F0F000066
:1016C00080808080808000000000FCFC0000808022
:1016D0008080808000FFFF03030101010103FFFE02
:1016E0000F0F000000000000000F0F0000000000BE
:1016F0000000000000009C9C00FFFF000F0F000096
:101700000000008080809C9C00010101FFFF808020
:1017100080C0FF7F808080800000FCFC0000000013
:10172000000080808000FFFFE07078FCCE8703011E
:1017300000000F0F000000000103070E0C0800005E
:1017400000000000000000000000FCFCFFFF0F0F85
:101750000000808000008080808080000000808009
:101760008080808000FFFF03030101010107FFFF6C
:10177000030101010103FFFF0F0F00000000000043
:10178000000F0F0000000000000F0F00000000001D
:101790000000000000000000000000000000808049
:1017A000000080808080808000FFFF030301010132
:1017B0000103FFFE0F0F000000000000000F0F00EC
:1017C0000000000000000000000000000080C0C019
:1017D000C0C080000000F8FE8F0301000001010777
:1017E000FFFC0003070E1C18181C0C070701000063
:1017F00000000000000000000000808000008080E9
:10180000808080000000FFFF030101010101038FC0
:10181000FE78FFFF0E0C0C0C0C0C060701008080FC
:101820000000000000000000000000000080808038
:1018300080808080808078FECF0301010101010358
:10184000FFFF0003070E0C0C0C0C0607FFFF000047
:101850000000000000000000808080800000808088
:101860008080FFFF0703010101010F0F000000004E
:101870000000000000000000000000008080808068
:1018800080808080001F3F3131716161E1C3060EAD
:101890000C0C0C0C0C0C07070000000000000000F2
:1018A000000080F8F8808080808001FFFF01010146
:1018B00001010003070F0C0C0C0C000000000000DD
:1018C00000008080000000000000008080FFFF001A
:1018D000000000000000FFFF03070F0C0C0C0C06BB
:1018E000060F0F00000000000000000000008080D4
:1018F0000000000000000000808001073FF8E000C9
:1019000000C0F83E0F0100000000070F0F070100A4
:1019100000000000000000000000000000008080C7
:1019200000000000000080800000000000808001B6
:101930001FFFF00080F83F070F7EF08080F87F07E0
:101940000000000F0F0F0100000000030F0F070041
:101950000000000000000000000000000000000087
:101960000000808080000000000000808080000176
:10197000038FDCF8F8FC8E070100080C0F03010050
:101980000001030F0E08000000000000000000002E
:10199000000080800000000000000000808001073F
:1019A0003FFCE08000E0F83E0F0100000080F37F84
:1019B0001F07000000000000008080000000000001
:1019C0000000808080808080808080800001018194
:1019D000C1E1711D0F0703000C0E0F0D0C0C0C0C58
:1019E0000C0C0C00000000000000000000000000D3
:1019F000000000F8F80C0C040430303078CE870377
:101A00000000000000000000037FFEC08080800016
:101A100000000000000000008080FCFCFFFFFFFFD2
:101A2000808004040C0C3CF8E00000000000000082
:101A3000000087CF58703030808080C0F07F1F005A
:101A40000000000080800000000000000000000096
:101A50000000000000000000000000000060781C92
:101A60000606060C1830606060603E1E0000000034
:101A70000000000000000000000000000000000066
:101A8000000000000000000000004D03198040002D
:101A90000A00202868696464656E292E0020627936
:101AA000746573002C20446174612073697A653A0F
:101AB0002000205369676E61747572653A20004E8C
:101AC0006F206461746120626C6F636B20666F7558
:101AD0006E64202D20454550524F4D206170706539
:101AE00061727320746F20626520666F726D61741D
:101AF00074656420746F204F454D205374616E648B
:101B00006172642062757420756E757365642E0051
:101B10000A002062797465732C206E6F7420666FE2
:101B2000726D617474656420746F204F454D20534D
:101B300074616E646172640053697A653A2000448E
:101B40006F6E652E204E657720636F6E6669672025
:101B5000736176656420746F20454550524F4D0087
:101B6000536176696E672E2E2E00536B6574636821
:101B70002077696C6C206E6F772072657374617268
:101B800074207573696E672064656661756C742076
:101B9000636F6E6669672E00526573657474696E53
:101BA000672E2E2E0020000A417661696C61626CFE
:101BB0006520636F6D6D616E64733A0A6C09092D5F
:101BC000206C697374207468652073657474696E21
:101BD00067730A7209092D20726573746F7265202C
:101BE000736B657463682064656661756C74730AF1
:101BF0007309092D20736176652073657474696EAD
:101C0000677320746F20454550524F4D0A7609097D
:101C10002D2073686F77206669726D776172652019
:101C200076657273696F6E0A7809092D2065786987
:101C3000742C206C6F636B20616E6420636F6E7414
:101C4000696E75650A3F09092D2073686F772074E6
:101C5000686973207465787420616761696E0A0A27
:101C6000773C783E09092D207475726E2052464DDE
:101C700020576972656C6573732064617461206FAD
:101C800066663A2078203D2030206F72206F6E3AD1
:101C90002078203D20310A623C6E3E09092D2073D8
:101CA000657420722E662E2062616E64206E203D67
:101CB00020612073696E676C65206E756D65726159
:101CC0006C3A2034203D203433334D487A2C203870
:101CD000203D203836384D487A2C2039203D203997
:101CE00031354D487A20286D6179207265717569AA
:101CF0007265206861726477617265206368616EE5
:101D00006765290A703C6E6E3E09092D2073657463
:101D10002074686520722E662E20706F7765722E93
:101D2000206E6E202D20616E20696E74656765726D
:101D30002030202D20333120726570726573656EFE
:101D400074696E67202D31382064426D20746F20D5
:101D50002B31332064426D2E2044656661756C74AE
:101D60003A20323520282B372064426D290A673CFF
:101D70006E6E6E3E092D20736574204E6574776F0C
:101D8000726B2047726F757020206E6E6E202D2052
:101D9000616E20696E746567657220284F454D201D
:101DA00064656661756C74203D20323130290A6E9D
:101DB0003C6E6E3E09092D20736574206E6F64655C
:101DC000204944206E3D20616E20696E7465676510
:101DD0007220287374616E64617264206E6F646532
:101DE000206964732061726520312E2E3630290AF5
:101DF0000A643C78782E783E092D2078782E782059
:101E00003D206120666C6F6174696E6720706F6938
:101E10006E74206E756D62657220666F72207468D4
:101E20006520646174616C6F6767696E67207065B7
:101E300072696F640A6A3C6E3E09092D20747572DE
:101E40006E204A534F4E2053657269616C20666F55
:101E5000726D6174206F6E20283129206F72206F9F
:101E60006666202830292E0A663C78783E09092DBE
:101E7000207878203D20746865206C696E65206646
:101E800072657175656E637920696E20487A3A20B3
:101E90006E6F726D616C6C79206569746865722013
:101EA0003530206F722036300A6B3C783E203C790A
:101EB000792E793E203C7A7A2E7A3E0A09092D2025
:101EC00043616C69627261746520616E20616E614C
:101ED0006C6F67756520696E707574206368616EDC
:101EE0006E656C3A0A0909202078203D2061207334
:101EF000696E676C65206E756D6572616C3A203035
:101F0000203D20766F6C746167652063616C696247
:101F1000726174696F6E2C2031203D206374312012
:101F200063616C6962726174696F6E2C2032203D4E
:101F3000206374322063616C6962726174696F6ED0
:101F40002C206574630A0909202079792E79203DB7
:101F5000206120666C6F6174696E6720706F696EB6
:101F600074206E756D62657220666F72207468658C
:101F700020766F6C746167652F63757272656E741D
:101F80002063616C6962726174696F6E20636F6E49
:101F90007374616E740A090920207A7A2E7A203DC2
:101FA000206120666C6F6174696E6720706F696E66
:101FB00074206E756D62657220666F72207468653C
:101FC0002070686173652063616C69627261746915
:101FD0006F6E20666F72207468697320632E742E92
:101FE00020287A206973206E6F74206E65656465A1
:101FF000642C206F722069676E6F72656420696659
:1020000020737570706C6965642C207768656E202C
:1020100078203D2030290A09092020652E672E20CE
:102020006B30203235362E380A0909202020202036
:1020300020206B312039302E3920322E30300A6189
:102040003C78782E783E092D2078782E78203D2017
:102050006120666C6F6174696E6720706F696E7461
:10206000206E756D62657220666F722074686520DF
:10207000617373756D656420766F6C74616765203C
:102080006966206E6F20612E632E2069732064655F
:102090007465637465640A00436F6E74696E756974
:1020A0006E672E2E2E005246206F66660052462026
:1020B0006F6E00456D6F6E54785634205600206464
:1020C000426D0070203D20004E6F646520002000AE
:1020D000200043616C3A206B0047726F75702000DE
:1020E000467265713A2000207300646174616C6F00
:1020F0006720706572696F643A2000204D487A004D
:10210000005EBCE2613FDD83C29C7E20A3FD1F41D7
:10211000009D23BE46DB65F88C11AF32CA57E974C7
:102120002C49363A002C49353A002C49343A002CD7
:1021300049333A002C49323A002C49313A004D5388
:10214000473A007D002C224936223A002C2249359C
:10215000223A002C224934223A002C224933223AD6
:10216000002C224932223A002C224931223A007BAB
:10217000224D5347223A000A0000080A400CFFC0D3
:1021800000C01B2511241FBECFEFCDBFDFE7DEBF90
:1021900011E4A0E0B0E4EEE7F1E800E00BBF02C01C
:1021A00007900D92A43FB107D9F728E4A4EFB1E45A
:1021B00001C01D92AC3CB207E1F710E1C2ECD0E1E6
:1021C00004C02197FE010E948140C13CD107C9F79C
:1021D0000E949B260C94BD400C9400012091031496
:1021E000FC01208320910414218320910514228373
:1021F0002091061423830895E0918346F09184464C
:102200008581837009F443C0838180FF40C0509171
:1022100086465E7F30E020E090E04581842F837029
:102220002F5F3F4F213C6DE5360740F0823049F18A
:10223000813049F184E093E094830895642F6C70B9
:1022400021F08CE0858382E1F6CF813021F4578341
:1022500030E020E0E2CF823001F746FFDECF44FFDE
:1022600004C0992341F383E0E6CF80918746981715
:1022700060F4A92FB0E0A157B94B8C9180879F5F84
:10228000E7CF85E0D8CF81E1D6CF80E0D4CF80E121
:102290000895893260F590E0FC01E65DFE4BE08137
:1022A000EF3F29F18F5F9E4BDC018C9190E0DC01C8
:1022B000AA0FBB1FA556BF4B2D913C91211531058F
:1022C000B1F04E2F50E0440F551F240F351FD90198
:1022D0006D937C93E05FA5E0880F991FAA95E1F7C5
:1022E000E80FF0E0FC5F8081887F82608083089542
:1022F000CF93DF93282F30E09FEF893220F5E9015B
:10230000C852DF4B98819F3FE9F0F901EF5FFE4B28
:10231000A08140E2A49FD0011124BC5FF901E65DD9
:10232000FE4BE081E830C0F5AD01405F5F4FE40F48
:10233000F52FF11D4FB7F89412969C939081977FDB
:1023400090834FBF988190932D46893240F52F5F3F
:102350003E4BF9018081F4E08F9FC00111248093EE
:102360002E4690932F461092384610923A4610927D
:1023700039461092374610923646109235461092E2
:1023800034461092334610923246109231461092E3
:102390003046DF91CF910895F0E0E0E0CBCF8CEFB5
:1023A00093E0DDCF8091B1488D3011F42D9A0895DE
:1023B000873011F40F9A0895813109F44B9A0895EA
:1023C00000009091B548911109C080934409809113
:1023D000430987FFFCCF80914409089580936409E5
:1023E0008091630987FFFCCF8091640908958091F3
:1023F000B1488D3011F42D980895873011F40F985D
:102400000895813109F44B980895CF93DF93D82F25
:10241000C62FEDDF8D2F8068D3DF8C2FD1DFDF91CA
:10242000CF91C0CFCF93C82FE2DF8C2FC9DF80E0E0
:10243000C7DFC82FB7DF8C2FCF910895CF9390912E
:102440008845981791F0C82F81E0ECDF837E682FD4
:102450006C2B81E0DADF80918845811104C087E22E
:10246000E1DF87FFF8CFC0938845CF9108950F93A0
:102470001F93CF93DF93EC0184E0E0DF2097D9F046
:1024800088818823C1F0B3DF8EEB9ADF8E01005F75
:102490001F4F899195DFC017D107D9F783DFC1E0BE
:1024A0008DE3C0DF8E7F682F6C2B8DE3DF91CF91A2
:1024B0001F910F91AACFC0E0F3CF10923345109235
:1024C00031451092324510922F45109230451092AE
:1024D0002E4510922D4588E2A5DF82FF06C08DE3D0
:1024E000A1DF682F64608DE390DF80E1A7CFAF921A
:1024F000BF92CF92DF92EF92FF920F931F93CF93F1
:10250000DF936C017B018B01040F151FEB015E0152
:10251000AE18BF08C017D10759F06991D601ED91E7
:10252000FC910190F081E02DC6010995892B79F786
:10253000C501DF91CF911F910F91FF90EF90DF9038
:10254000CF90BF90AF900895FC0155894689252F03
:1025500030E0842F90E0821B930B541710F0CF963D
:10256000089501970895FC0193898489981761F073
:10257000A489AE0FBF2FB11D57968C9194899F5F90
:102580009F73948B90E008958FEF9FEF0895FC0167
:1025900093898489981731F08489E80FF11D878920
:1025A00090E008958FEF9FEF0895FC0193892489AF
:1025B000892F90E0805C9F4F821B91098F73992730
:1025C0000895CF93DF93EC01E881F9810680F781CC
:1025D000E02D0995EC85FD85868116828581158221
:1025E00080E484838C898B8B1A8ADF91CF91089544
:1025F0008F929F92AF92BF92FF920F931F93CF93B0
:10260000DF938C014A015B01D22FC32FDC0152966C
:102610008C91529780FF07C0ED91FC910288F3895D
:10262000E02DC8010995D11101C0D3E0FD2EE89439
:10263000F2F8DC2FD095D07CB1E68B16B3EE9B067A
:10264000B6E1AB06B10428F0D260B694A794979493
:10265000879460E078ED88EB95E0A50194010E94F5
:10266000293EC9012034310510F480E490E03C2F6C
:102670003B72D7FD30684D2F487C30FD41605FB71D
:10268000F894D8011C96ED91FC911682F782808710
:10269000918735FF8FC04F7781E084878FEF8587E3
:1026A0003F7D3583D683F8012189C089868597854A
:1026B000FC0133E0239FE00DF11D1124659174911D
:1026C0002C1708F059C0272F46FF76C0793288F4BE
:1026D00030E0F901E852FF4BA081AF3F51F02F5F8E
:1026E0003E4BF901308120E2329FF0011124FC5F62
:1026F000A18347FF2AC021E0270F293230F530E0BF
:10270000F901E852FF4BD081DF3FF9F0F901EF5FAB
:10271000FE4BA081F0E2AF9FD0011124BC5F265D8B
:102720003E4BF9011081F0E0E0E0183030F49D01FB
:10273000205F3F4FF901E10FF11D3FB7F89412966A
:10274000DC932081286020833FBF40FF15C023E039
:10275000270F293288F430E0F901E852FF4B40811D
:102760004F3F51F02F5F3E4BD901EC91B0E2EB9F10
:10277000F0011124FC5F4183FC0123E0C29FE00DC6
:10278000F11D1124319625913491F901FF27EE5165
:10279000FA4F9081832F80958923682B60835FBFD8
:1027A000DF91CF911F910F91FF90BF90AF909F90BD
:1027B0008F900895148674CF342F307509F499CF13
:1027C000793208F096CF30E0F901E852FF4BD08122
:1027D000DF3F09F48ECFF901EF5FFE4BA081E0E20D
:1027E000AE9FD0011124BC5F265D3E4BF9011081E4
:1027F000F0E0E0E0183030F49D01205F3F4FF90138
:10280000E10FF11D3FB7F8941296DC932081286008
:1028100020833FBF6ECFFC010FB607FE04C080913E
:1028200011018823A9F0A485B58514968C9114977D
:1028300085FF0EC095898689981739F015968C9179
:1028400015978F7D15968C930895E8940C946020CD
:1028500008950F931F93CF93DF93EC018A89982FEC
:1028600091609A8B2D899E8929130AC0EC85FD857C
:10287000948195FF05C081FD0DC080E4848312C062
:10288000062F1D891F5F1F738E89811315C0CE010E
:10289000C2DFFACF85818F77806490E49483EC85E2
:1028A000FD858583EC85FD85628381E090E0DF9185
:1028B000CF911F910F910895ED89EC0FFD2FF11D20
:1028C000E95AFF4F00831D8BEC85FD858A8981FFC6
:1028D00009C085818F77806690E49483EC85FD85BF
:1028E0008583E3CF85818062FBCFB3CFEF92FF92E8
:1028F0000F931F93CF93DF938C017B01D0E0C0E057
:10290000F701EC0FFD1F6491662331F0C801A1DFD0
:10291000892B11F02196F4CFCE01DF91CF911F9139
:102920000F91FF90EF900895CF93DF93EC018A8988
:1029300080FF0BC0EC85FD85858185FD03C084810A
:1029400086FD03C0CE0167DFF5CFDF91CF910895FB
:1029500081E008950F98079A20E533EC93E0179AE9
:1029600044E1F9013197F1F74150D9F7482F179A0F
:10297000F9013197F1F7179A59E0F9013197F1F719
:102980005150D9F7415099F7915049F7E7CF9FB788
:10299000F894E0912A0BF0912B0B8091260B20915B
:1029A00082443091834440918444509185449FBF38
:1029B00080FF08C0EC3E8CE2F80720F42F5F3F4F09
:1029C0004F4F5F4F0F011694079416940794169477
:1029D000079416940794F00116940794E00DF11DE6
:1029E00016940794102C169401181694010C169442
:1029F00001181694010C1694011816941694010CE3
:102A00001124E019F109A8EEB3E00E94193E6E0FFF
:102A10007F1F811D911D08958F929F92AF92BF924B
:102A2000CF92DF92EF92FF926B017C01B0DF4B01FE
:102A30005C01C114D104E104F104B1F0A8DF68190C
:102A400079098A099B09683E73408105910588F3DD
:102A500021E0C21AD108E108F10888EE880E83E06F
:102A6000981EA11CB11CE5CFFF90EF90DF90CF9096
:102A7000BF90AF909F908F9008952FB7F89460917A
:102A800082447091834480918444909185442FBF07
:102A90000895CF92DF92EF92FF920F931F93CF93FF
:102AA000DF93082F10E096E1899FE0011124C15CBB
:102AB000D94B8E819F81A885B985892B8A2B8B2B39
:102AC00099F1DBDFCA88DB88EC88FD886C197D0909
:102AD0008E099F09CE80DF80E884F984C616D70668
:102AE000E806F90658F48E859F85A889B98901966C
:102AF000A11DB11D8E879F87A88BB98BBEDF26E1F4
:102B0000209FF001219FF00D1124E15CF94B628BB5
:102B1000738B848B958BDF91CF911F910F91FF90D9
:102B2000EF90DF90CF9008958E859F85A889B98911
:102B30000196A11DB11D8E879F87A88BB98BEBCF06
:102B400080E0A7CF81E0A5CF28E030E041E071E050
:102B500090918844E0918644F0918744A92FA095F4
:102B6000582F542370938144552341F151815A23A6
:102B700051835081592B508350E55A95F1F751817B
:102B8000952B918310928144A9E4B1E01197F1F75C
:102B900000C00000440F21503109D1F661110DC071
:102BA000E0918644F091874490818091884480959B
:102BB00098239083918189238183089551815A2399
:102BC00051835081592B5083A7E6B1E01197F1F75B
:102BD00000C000005181952B918310928144B8E28E
:102BE000BA95F1F7D7CF80918844E0918644F0916F
:102BF00087449081282F2095922390833DE7315080
:102C000061F190E19A95F1F792819823C1F3918156
:102C1000922391839081982B9083AFE3BBE011972F
:102C2000F1F700C0000091E09093814490819223DD
:102C30009083A3EAB1E01197F1F700C00000928100
:102C4000982381E009F080E010928144EBE9F9E0FB
:102C50003197F1F700C00000089580E00895CF9209
:102C6000DF92EF92FF920F931F93CF93DF938091A8
:102C7000094090E025E0959587952A95E1F78095A4
:102C8000909583709927C0EFD2E002C0D595C79583
:102C90008A95E2F72091174030911840DE010E949A
:102CA000904028E13CEF4FEF5FEF0E94FD3D8091A7
:102CB0008D4490918E440197280F391F20935D44D5
:102CC00030935E4420E030E04AE754E460911340E2
:102CD0007091144080911540909116400E94463D9D
:102CE0000E942F3F8E01DD0F220B330B6B017C0105
:102CF000C01AD10AE20AF30AA7019601A8EEB3E0CE
:102D00000E94193E68587341810991090E94E53C6F
:102D100020910B4030910C4040910D4050910E405D
:102D20000E94C23E0E942F3F6093614470936244B0
:102D30008093634490936444DF91CF911F910F91EE
:102D4000FF90EF90DF90CF900895CF92DF92EF92B7
:102D5000FF926B017C01C0921340D0921440E0922C
:102D60001540F0921640609117407091184090E025
:102D700080E00E94E53CA70196010E94463D0E942A
:102D80002F3F60938D4470938E4420E034E244E7FB
:102D900059E4C701B6010E94463D20910B40309195
:102DA0000C4040910D4050910E400E94C23E0E9446
:102DB0002F3F6093F5447093F6448093F7449093CB
:102DC000F844FF90EF90DF90CF9049CFEF92FF92C1
:102DD0000F931F93CF93DF93E0918F44CE2FD0E0DA
:102DE0007E01EE0CFF1CEE0CFF1CD701A158BF4B5F
:102DF0004D935D936D937C931397B70169597F4B06
:102E0000DB010D931D932D933C9313979E0123504B
:102E10003B4B91E0D9019C93A82FB0E0AC5CBA4B3E
:102E2000EC93EF5FE0938F44F0E0EE5FFF4B808325
:102E3000DF91CF911F910F91FF90EF9008950F9325
:102E40001F93CF93DF9300D000D0CDB7DEB7209192
:102E500000142F34A1F420910114253481F4209121
:102E600002142D3461F4009799F08C01CE01019683
:102E7000B5D981E02B813C812017310709F080E032
:102E80002496CDBFDEBFDF91CF911F910F910895A2
:102E900081E0F6CFDC01ED91FC91F170FC5E2081C8
:102EA0006217B9F03FB720910210422F427021FD06
:102EB000FACFF8942DE924BF4093001043E124BFDA
:102EC00040930010DC01ED91FC91F170FC5E608399
:102ED0003FBF0895CF92DF92EF92FF920F931F931F
:102EE000CF93DF9300D0CDB7DEB76C017C0103E058
:102EF00010E009831A83F70161917F01CE010196E9
:102F0000C9DF0F5F1F4F0730110599F7C6010F90FA
:102F10000F90DF91CF911F910F91FF90EF90DF9075
:102F2000CF900895CF93DF93EC018D85882329F00E
:102F300081508D87DF91CF9108959C818E81981764
:102F4000C8F788896827E881F9810084F185E02D38
:102F500042E0CE0109958C818F5F8C83EBCFDC0141
:102F6000ED91FC910084F185E02D40E009940F93F0
:102F70001F93CF938C01FC016483C085C60F6C2F17
:102F80006F70EDDF6C2F62956F706061C801CF913B
:102F90001F910F91E4CFFC01278126952695269558
:102FA000621730F465832385620F6770606BD7CF3B
:102FB00008951F93CF93DF93EC01142F8E81681730
:102FC00010F4CE01D4DF612FCE01DF91CF911F919C
:102FD000E2CFCF92DF92EF92FF920F931F93CF93A6
:102FE000DF93EC01F62EC42ED22E1D868F8186959E
:102FF00086958695081710F00FEF080F1D2D011705
:1030000070F0412F6F2DCE01D4DFEF2CCE1428F0BD
:103010006889CE0187DFE394F9CF1F5FF0CF4D2D94
:103020006F2DCE01DF91CF911F910F91FF90EF9007
:10303000DF90CF90BECF0F93CF93DF93C6EBD8E452
:103040001B861A8660E4CE018ADF0F8106950695FD
:10305000069501504E81415020E060E0CE01B9DF7D
:10306000DF91CF910F9108952F923F924F925F92EF
:103070006F927F928F929F92AF92BF92CF92DF9288
:10308000EF92FF920F931F93CF93DF93CDB7DEB7ED
:103090002697CDBFDEBFDC011E962D913C912115F8
:1030A000310509F46CC18D839E83F90132966490D9
:1030B00031964491E42EF12CB7E0EB0EF11C53E075
:1030C000F594E7945A95E1F7E98231965491319657
:1030D000E4916D3009F5FC018681811118C081E011
:1030E00090E02696CDBFDEBFDF91CF911F910F916B
:1030F000FF90EF90DF90CF90BF90AF909F908F9018
:103100007F906F905F904F903F902F90089560E078
:103110008D819E812CDFE3CF6A3009F063C0AD81E1
:10312000BE8116968C911697882319F060E0CD0128
:103130001EDFED81FE8101890E9DE02C1124658149
:103140006E0D8485882349F027812695269526953E
:103150008E2D821B860F181624F08D819E811BDF19
:10316000BECFAD81BE811B969C911B97890F877046
:103170001B968C931B972E1915962C9315971E96BC
:10318000ED91FC91309761F13396E491F0E0379640
:1031900033E0F595E7953A95E1F70E9F002D112460
:1031A000EFEFE20F0E0FED81FE8146814150648109
:1031B000CF010FDFAD81BE811C968C911C978130B1
:1031C00009F08DCF1B966C911B97660F660F660FEB
:1031D0006F731A966C931A976064CD01C0DE7FCF2F
:1031E00000E0DECF651708F4CAC08E2F90E0FC0126
:1031F000E50FF11D6E171F060CF0C1C089010A5FB3
:103200001F4F651BED81FE8171855189759F502D82
:1032100011245C83F90154912F5F3F4FF9012491F0
:10322000352F2230310508F06DC06E9CC0016F9CB7
:10323000900D1124689FF001699FF00D11240E0F6D
:103240001F1F512CAD81BE811496BC91BA83ED81B4
:10325000FE812580F585FB83862C912CAA24A394DE
:10326000B12C312C8981381608F087C0412CAD81F2
:10327000BE8151968C915197481608F077C0EB812A
:103280001D96EC93311002C0442049F0AD81BE81FF
:1032900015964C9115974F5F6A81CD018ADED12C2E
:1032A000C12CC61408F056C0F801EC0DFD1D749039
:1032B000552061F0EA14FB0449F4E72DF0E0052CF9
:1032C00002C0F595E7950A94E2F77E2EED81FE8126
:1032D0008189823079F4442009F438C072948FE0F7
:1032E0007822E72DF0E0EF51FC4F7490672D8D812F
:1032F0009E8118DE672D8D819E8114DE8FEFC81AA6
:10330000D80ACFCF477028E0522E541A411101C07D
:10331000512CF801612C30E020E0661631F0449128
:10332000240F311D63943196F8CF600E712E711CFD
:10333000F3016490E29EF001E39EF00DF29EF00D29
:1033400011248E0F9F1F080F191F7CCFF72DFF70C0
:103350007F2EC7CFD12CAC81DA1631F060E08D81A1
:103360009E81E0DDD394F7CF439481CF3394080D51
:10337000191DBFEFAB1ABB0A75CF622DEECE90E0E0
:1033800080E0AFCEDC011C96ED91FC9193818185AC
:1033900013821186938391E09583818708959C0120
:1033A00026563F4FDC015296EC91529751968C91E4
:1033B000E81730F4E20FF32FF11D808190E00895BB
:1033C0008FEF9FEF0895FC01DC01A656BF4F928955
:1033D0008189981740F4A90FB11D2C919F5F928BA2
:1033E000822F90E008958FEF9FEF0895FC0181896F
:1033F0009289891B990B0895CF92DF92EF92FF92E9
:103400000F931F93CF936C014338510510F042E89E
:1034100050E0C42F7B0110E000E00C1780F4D701CE
:103420006D917D01D601ED91FC910190F081E02D2F
:10343000C601099598012F5F3F4F892B49F4C801B8
:10344000CF911F910F91FF90EF90DF90CF90089553
:103450008901E3CFFC01A089A23858F4A80FB92F45
:10346000B11D58966C9380898F5F808B81E090E0CE
:10347000089590E080E00895DC011A96ED91FC91AA
:103480001B97309731F015968C91882311F090E0BE
:1034900009940895CF93DF93FC01A081B1811B961D
:1034A0008C911B97982F9C7029F01D968C911582FA
:1034B000148229C086FF2AC0EF0180FF1DC081FF52
:1034C00011C01D968C918383CF01D6DF1C821F8291
:1034D000E885F985309709F00995E881F98183E05D
:1034E000828711C01D968C911D9783831582168249
:1034F00083E01A968C9307C080E41B968C93CF01CF
:10350000BBDF1D821E82DF91CF91089587FFFBCF25
:1035100081FF22C084FF09C0828187FF06C08F77A8
:10352000828382E01A968C93C3CF828180688283E3
:10353000C7818481C81770F4CE0FDF2FD11D8C8511
:103540001D968C931D9783E01A968C9387818F5FCD
:103550008783D9CF82E0CDCF1D969C911D97858121
:10356000823868F4DF01A80FB11DA257BF4F9C93AA
:1035700085818F5F85830190F081E02DB0CF86E05B
:103580001A968C9315821682BECFDC01ED91FC91C8
:103590000088F189E02D23E030E00994089590E05F
:1035A00080E008950F931F93CF93DF938091884518
:1035B000803109F071C088E20E94121282FF44C07B
:1035C00084E00E941E120E94F71180E00E94E01128
:1035D00080E00E94E011D82FC82F833408F0C2E4A5
:1035E000C0932E4580E00E94E011082F80E00E94E9
:1035F000E011182F80E00E94E011282F30E0A9018F
:1036000096E0440F551F9A95E1F744275370402BDD
:1036100040932F4550933045322F22272227337075
:10362000212B20933145309332459091AF48941728
:10363000150611F0452B11F4D330B8F410922E4535
:103640000E94D2110E945D1280918845803121F53F
:1036500080912E45882311F184E00E941E1281E0A2
:10366000DF91CF911F910F910895C350C0933345BF
:10367000807880932D45D0E0DC1728F480E00E940C
:10368000E011DF5FF9CF0E94D21180E10E941E128B
:1036900084E20E941212D8CF0E945D1280E0E0CF37
:1036A0000F931F93CF93DF93893208F07CC090E093
:1036B000DC01A852BF4B2C912F3F09F474C08C0140
:1036C0000F5F1E4BE801E881D0E2ED9FF00111246D
:1036D000FC5F611133C0268330812323AC01465D3A
:1036E0005E4B211111C0EA012881309749F1283041
:1036F00038F57096E20FF11D3FB7F8942081611103
:1037000022C0277F20833FBFFA0130813F3F09F469
:103710004AC0E8012881363058F53091E605432F3C
:103720004770241312C0EC91E53008F0EE0F809141
:10373000010AE095E823E093010A35C02583CCCF48
:10374000F0E0E0E0D9CF2860DDCF387169F42130B6
:1037500079F4EC91E53008F0EE0F8091410AE095A4
:10376000E823E093410A1FC0383111F4263089F371
:1037700081559F4BFC01808185FF13C030E1839F01
:10378000F0011124F75F91819770973061F4EC910B
:10379000853270F4803298F48830E1F2803121F281
:1037A00002C08111F4CFDF91CF911F910F91089545
:1037B000803471F08038B9F71092A006F4CF90E110
:1037C000899FF0011124F75F81818F7E8183EBCF88
:1037D0008091920B8E2339F3C0E22C9F900111242B
:1037E0003C5FE83030F5205F3F4FE20FF32FF11DD3
:1037F0004FB7F8949091800B9E7F9093800B90919F
:103800008E0B90FFFCCF2091920B90E080959095CD
:1038100030E08223932328ED24BF8093920B809184
:10382000800B81608093800B80818F7780834FBF76
:10383000BACFF0E0E0E0DCCF0F931F93CF93DF939C
:10384000EC01062F142F8B89813120F4882329F075
:10385000411103C00E94FC101B8A8B8981110DC08D
:103860008A89880F809386461092874660E41111FA
:1038700001C060E087E796E4EDDD602F87E796E41E
:10388000E9DD123041F48B898F5F8B8BDF91CF9113
:103890001F910F9108950E94FC101B8AF7CF0F9380
:1038A0001F93CF93DF93CDB7DEB72C97CDBFDEBF8D
:1038B0008150E1F0082F10E0A80169E475E4CE0121
:1038C00001960E94AE40E1E0F0E0EC0FFD1FE00F3A
:1038D000F11F1082CE0101960E94473B2C96CDBF6E
:1038E000DEBFDF91CF911F910F91089590E080E0AE
:1038F000F5CFFB0101900020E9F73197AF01461B9E
:10390000570BDC01ED91FC910280F381E02D0994CD
:103910006DE871E4EECF0F931F93CF93DF93EC012B
:103920000E9476148C01CE01F3DF800F911FDF918E
:10393000CF911F910F9108958F929F92AF92BF9256
:10394000EF92FF920F931F93CF93DF93CDB7DEB724
:10395000A197CDBFDEBF7C01FA01CB0119A22230B5
:1039600008F42AE08E010F5D1F4F822E912CB12C9E
:10397000A12CBF01A50194010E94293EF901CA01B1
:103980006A30ECF4605DD8016E938D01232B242BFB
:10399000252B79F790E080E0109719F0BD01C70161
:1039A000A8DFA196CDBFDEBFDF91CF911F910F9110
:1039B000FF90EF90BF90AF909F908F900895695CBB
:1039C000E2CFCF92DF92EF92FF920F931F93CF93AC
:1039D000DF936B01770FEE08FF08F7FE1AC0EC01CA
:1039E0006DE20E9475148C0144275527BA014C19C9
:1039F0005D096E097F092AE0CE019EDF800F911FCD
:103A0000DF91CF911F910F91FF90EF90DF90CF90BA
:103A100008952AE0B701A601DF91CF911F910F9180
:103A2000FF90EF90DF90CF9087CF4F925F926F9291
:103A30007F928F929F92AF92BF92CF92DF92EF923E
:103A4000FF920F931F93CF936B017C01742EAC01F7
:103A50009B010E94324060E971E4811126C0460159
:103A60005701E894B7F82FEF3FEF4FE75FE7C50145
:103A7000B4010E94324081110CC02FEF3FEF4FE79D
:103A80005FE7C501B4010E94E13C64E971E41816E6
:103A900064F02FEF3FEF4FE75FE4C701B6010E94EC
:103AA000E63F1816A4F468E971E489E895E4CF913B
:103AB0001F910F91FF90EF90DF90CF90BF90AF904C
:103AC0009F908F907F906F905F904F9012CF2FEFCD
:103AD0003FEF4FE75FECC701B6010E94E13C87FD75
:103AE000E2CF20E030E0A901C701B6010E94E13C2D
:103AF00010E000E087FF0AC06DE289E895E40E94CB
:103B000075148C01F7FAF094F7F8F094C0E060E0D7
:103B100070E080E09FE37C1641F020E030E040E27E
:103B200051E40E94C23ECF5FF6CFA70196010E94EA
:103B30005B3E2B013C010E942F3F4B015C012AE0C0
:103B4000BC01A40189E895E4F7DE7C01E00EF11EDA
:103B5000CC23C9F1C501B4010E94E53C9B01AC0135
:103B6000C301B2010E945A3E4B015C0160EB71E45B
:103B700089E895E4BEDEE80EF91EC15020F120E090
:103B800030E040E251E4C501B4010E94463D2B0102
:103B90003C010E942F3F4B01B12CA12C2AE0B50122
:103BA000A40189E895E4C8DEE80EF91EC501B40158
:103BB0000E94E53C9B01AC01C301B2010E945A3E48
:103BC0004B015C01DACFC701CF911F910F91FF909C
:103BD000EF90DF90CF90BF90AF909F908F907F90AD
:103BE0006F905F904F900895CF93DF931EDFEC01AD
:103BF00089E895E48DDE8C0F9D1FDF91CF910895AC
:103C000067ED73E089E895E486DE8091244088239F
:103C100009F447C061ED73E089E895E40E947614E9
:103C20008091214061EB71E08B3251F064E673E0EA
:103C3000863531F070E060E08B3511F463E973E0B4
:103C400089E895E4BEDE64EC73E089E895E40E94BF
:103C500076144091224050E070E060E02AE089E86C
:103C600095E46ADE6CEB73E089E895E40E947614D3
:103C7000609123406F7370E089E895E4A2DE69EB00
:103C800073E089E895E40E947614609125406251C2
:103C9000770B89E895E495DE64EB73E089E895E4B9
:103CA0003ADE67EA73E089E895E435DE6EE973E0B1
:103CB00089E895E40E947614609132407091334017
:103CC000809134409091354042E050E08DDF65E9CD
:103CD00073E089E895E40E94761460913A4070910F
:103CE0003B4080913C4090913D4042E050E07CDF81
:103CF0006CE873E089E895E40E9476146091424094
:103D000070914340809144409091454042E050E0A2
:103D10006BDF63E873E089E895E40E9476146091B4
:103D20004A4070914B4080914C4090914D4042E010
:103D300050E05ADF6AE773E089E895E40E94761460
:103D40006091524070915340809154409091554001
:103D500042E050E049DF61E773E089E895E40E94C2
:103D6000761460915A4070915B4080915C409091D4
:103D70005D4042E050E038DF66E673E089E895E4B4
:103D80000E9476146091624070916340809164401B
:103D90009091654042E050E027CF47CECF92DF922E
:103DA000EF92FF920F931F93CF93DF937C016B01F0
:103DB000D0E0C0E0CC15DD059CF58E010E0D1F1D79
:103DC00011701C5EF8018081803128F460E389E87D
:103DD00095E40E9475142196F801408150E070E04E
:103DE00060E020E189E895E4A7DD6CE971E489E809
:103DF00095E47FDDCE0187709927892B29F46CE942
:103E000071E489E895E475DDCE018F709927892BDF
:103E100089F667E771E289E895E40E947614CACFD3
:103E2000DF91CF911F910F91FF90EF90DF90CF9096
:103E300008950E949F404F925F926F927F928F925F
:103E40009F92AF92BF92CF92DF92EF92FF92CF9369
:103E5000DF93C82F80900B4090900C40A0900D40B5
:103E6000B0900E40609117407091184090E080E053
:103E70000E94E53C6B017C0160911F4070912040E5
:103E80006F5F7F4F072E000C880B990B0E94E73C59
:103E9000A50194010E94463D2BED3FE049EC50E422
:103EA0000E94463DA70196010E94463D20E034E273
:103EB00044E759E40E94C23E2B013C01D0E0BE0120
:103EC0006F5F7F4F072E000C880B990B0E94E73C19
:103ED000A50194010E94463DA70196010E94463D1E
:103EE00020E034E244E759E40E94C23E6B017C01C9
:103EF000CC0FDD1FCC0FDD1FFE01E959FF4B20E089
:103F000030E044EB53E460817181828193810E94AF
:103F1000C23E9B01AC01C701B6010E945B3E2BED86
:103F20003FE049EC50E40E94463D4B015C010E9499
:103F3000EA3F6B017C01C301B2010E94EA3F9B0191
:103F4000AC01C701B6010E94C23E6B017C01FE01BB
:103F5000EB53FB4BC082D182E282F382C501B401F4
:103F60000E94BF3E4B015C01C301B2010E94BF3EF3
:103F70009B01AC01C352DB4BC701B6010E94463D19
:103F80009B01AC01C501B4010E945A3E688379834C
:103F90008A839B83DF91CF91FF90EF90DF90CF904A
:103FA000BF90AF909F908F907F906F905F904F9059
:103FB00008958F929F92AF92BF92FF920F931F939B
:103FC000CF93DF93282FCB01BA01E22FF0E0EC5C16
:103FD000FA4BF08024E0F29EE00111248E0101589A
:103FE0001F4B2091974030919840409199405091BB
:103FF0009A400E94463D4B015C0160913D467091A4
:104000003E4690E080E00E94E53C9B01AC01C5018A
:10401000B4010E94C23EF80160837183828393835E
:10402000C959DF4B188219821A821B828F2DDF91AA
:10403000CF911F910F91FF90BF90AF909F908F9065
:10404000FACECF938093174090931840BC0190E034
:1040500080E00E94E53C2091134030911440409153
:104060001540509116400E94463D0E942F3F60939C
:104070008D4470938E440E942F16C0E080911F40A3
:1040800090912040C817190624F48C2FD4DECF5FFE
:10409000F5CFCF910895EF93FF93E9E8F5E408C0D9
:1040A000EF93FF93E9E8F5E432C0EF93E0E653C005
:1040B0002F932FB72F938F939F93AF93BF936894B2
:1040C000CF93DF9320E0C485D8E09689DF01A90F64
:1040D000B21FA95ABF4F8C9120E42C838A839F5F23
:1040E0009F738D812589291302C08F7D8D83968BC7
:1040F000DF91CF9116F00C942814BF91AF919F914E
:104100008F912F912FBF2F91FF91EF9118952F93A2
:104110002FB72F938F939F93CF93DF93C485D8E0CE
:104120008981988181FD0DC0C38981E08C0F8F73D7
:104130002489281731F0CE0FDF2F20E0D21F9F8B6C
:10414000838BDF91CF919F918F912F912FBF2F91D3
:10415000FF91EF911895FF938F938FB78F93F8E0AE
:104160008081848187FFFCCF85818F7B80688583F8
:104170008F918FBF8F91FF91EF9118951F920F92A2
:104180000FB60F92112484E00E94AA141F920F927E
:104190000FB60F9211248F939F93AF93BF9380918B
:1041A000824490918344A0918444B09185440196C7
:1041B000A11DB11D8093824490938344A0938444B5
:1041C000B093854481E08093260BBF91AF919F917E
:1041D0008F910F900FBE0F901F9018950F930AE0CC
:1041E0000FC00F9308E00CC00F9306E009C00F93B7
:1041F00004E006C00F9302E003C00F9300E000C08C
:104200000F920FB60F920BB60F921F921124FF92CE
:104210001F932F933F934F935F936F937F938F934E
:104220009F93AF93BF93CF93DF93EF93FF93ABE94C
:10423000B0E4A00FB11DCD91DC91000F0D5FA02F58
:10424000B0E0FC90109761F01F2D169518F041F02A
:104250002296FBCFE991F9913097B9F30995F5CF03
:10426000A02FB0E0FC92FF91EF91DF91CF91BF9131
:10427000AF919F918F917F916F915F914F913F91FE
:104280002F911F91FF901F900F900BBE0F900FBEAC
:104290000F900F9118951F920F920FB60F92112445
:1042A0000BB60F922F923F924F925F926F927F9236
:1042B0008F929F92AF92BF92CF92DF92EF92FF9236
:1042C0000F931F932F933F934F935F936F937F931E
:1042D0008F939F93AF93BF93EF93FF93CF93DF930E
:1042E000CDB7DEB72697CDBFDEBF81E080930D0648
:1042F000409010065090110620918144E091804436
:10430000A2E0AE0F80911F4090912040A81719069F
:1043100021F01CF0A1E0AE0FA81BB0E0AE5FBF4BD8
:104320003C913093080621116FC14091894450910E
:104330008A4460918B4470918C444F5F5F4F6F4F04
:104340007F4F4093894450938A4460938B44709389
:104350008C44E111E2C180917E4490917F4480932E
:104360007C4490937D4480913D4690913E46969545
:104370008795481A590A40927E4450927F44809112
:104380007A4490917B449C013695279536952795E4
:10439000821B930B920157FE04C022273327241956
:1043A0003509820F931F80937A4490937B446091E8
:1043B0003B4670913C4621E06817790708F020E001
:1043C0002093C444141415040CF05AC021E030E0CA
:1043D0002093784430937944E0917844F091794483
:1043E0004091724450917344E417F50709F44DC0AD
:1043F00020915C442F5F20935C4420915C442330E7
:1044000030F010925C44E0937444F0937544209132
:1044100065442111109265448090744490907544D5
:1044200020910040309101406817790708F023C1BE
:1044300081E08816910409F05CC04130510509F40F
:104440005EC080915F4490916044019680935F4488
:104450009093604440910A404423D1F00A97C0F001
:1044600010920A4010925F4410926044C9018C5F20
:104470009E4FF901E817F90759F010823196FACFEB
:104480001092784410927944A7CF10925C44B5CF33
:1044900080915F449091604440915D4450915E44AE
:1044A0008417950739F440910A40411103C041E057
:1044B0004093044540918D4450918E448417950754
:1044C000F0F080910A4081111AC010925F4410925E
:1044D000604480911D4090911E4020931D40309378
:1044E0001E40809300409093014081E080930345FB
:1044F00006C0452B21F01092764410927744E0914B
:104500000040F09101409F0120533F4FD9014D9150
:104510005D916D917C9113974F5F5F4F6F4F7F4F10
:104520004D935D936D937C93139780917644909116
:1045300077440196809376449093774428503109CC
:1045400029833A83D901AC901196BC9011971296A9
:104550003C90129713961C91139714966C90149795
:1045600015967C90159716960C91169717962C9089
:104570009201D2010E948A406B017C01FF0CCC08A1
:10458000DC2C76019B01AC016C2D7C2D8C2D9C2D9F
:10459000C32CD12E7301122D0E949640A981BA819D
:1045A0002C9311963C93119712964C931297139655
:1045B0005C93139714966C93149715967C931597A8
:1045C00016968C93169717969C93A080B180C28004
:1045D000D380E480F58006811781952D990F990B82
:1045E0009201492F592F692F792F892F0E949640C8
:1045F00020833183428353836483758386839783C7
:104600008092724490927344809180448F5F809333
:10461000804420911F40309120408217130619F0EA
:1046200014F0109280442696CDBFDEBFDF91CF916B
:10463000FF91EF91BF91AF919F918F917F916F917A
:104640005F914F913F912F911F910F91FF90EF90AC
:10465000DF90CF90BF90AF909F908F907F906F90A2
:104660005F904F903F902F900F900BBE0F900FBE1A
:104670000F901F9018954091894450918A44609101
:104680008B4470918C448091614490916244A091DC
:104690006344B091644484179507A607B70748F4AC
:1046A00080919144811105C081E0809304458093FD
:1046B00091444091894450918A4460918B44709117
:1046C0008C448091F5449091F644A091F744B091C8
:1046D000F84484179507A607B70708F010CF109283
:1046E000894410928A4410928B4410928C4481E049
:1046F00080930A4010925F441092604440911D40A4
:1047000050911E4020931D4030931E404093004026
:1047100050930140EBCE1C9232C12E2E312C8215CB
:1047200093050CF471CF3101B1E06B1A7108D3011C
:10473000A350BB4BE6E04E1651046CF381E08C9322
:10474000A0910040B0910140A983BA83D30193E0C6
:10475000AA0FBB1F9A95E1F7E981FA81AE0FBF1F3F
:10476000AC52BF4FAC901196BC9011971296CC9062
:1047700012971396DC9013971496EC901497159655
:10478000FC90159716960C91169717961C911797F3
:10479000C301880F991F8A599B4BFC01808091802F
:1047A000992D990F990B9401492F592F692F792F22
:1047B000892F0E9496402C9311963C931197129644
:1047C0004C93129713965C93139714966C931497CB
:1047D00015967C93159716968C93169717969C931F
:1047E00080913D4690913E4696958795881A990A04
:1047F000F10143E0EE0FFF1F4A95E1F7A981BA816D
:10480000EA0FFB1FA080B18032801381B481BD8389
:104810002581298306812780A0917C44B0917D4425
:1048200094010E948A406B017C01FF0CCC08DC2CB7
:1048300076019B01AC016C2D7C2D8C2D9C2DC32C05
:10484000D12EED80F980122D0E9496402083318375
:10485000428353836483758386839783A0A8B1A81A
:1048600032A813A934A93D8345A9498306A927A8DD
:10487000A0917E44B0917F4494010E948A406B01D4
:104880007C01FF0CCC08DC2C76019B01AC016C2D6B
:104890007C2D8C2D9C2DC32CD12EED80F980122DDA
:1048A0000E94964020AB31AB42AB53AB64AB75ABCF
:1048B00086AB97ABCF01805A9F4F8D839E83DC01DF
:1048C000AC901196BC9011971296CC9012971396BB
:1048D000DC9013971496EC9014971596FC9015970E
:1048E00016960C91169717961C919401D4010E946C
:1048F0008A409B01AC01550F220B322FA90129835D
:104900003A834B835C839B01AC016981762F862FB0
:10491000962F0E949640AD81BE812C9311963C93B8
:10492000119712964C93129713965C9313971496C3
:104930006C93149715967C93159716968C931697EF
:1049400017969C93E057FF4FA080B180C280D38020
:10495000E480F58006811781992D990F990B9401B8
:10496000492F592F692F792F892F0E949640208334
:104970003183428353836483758386839783F301F2
:10498000EE0FFF1FEA59FB4B408251823DCE1F9232
:104990000F920FB60F9211240BB60F922F933F93E5
:1049A0004F935F936F937F938F939F93AF93BF9337
:1049B000EF93FF9383E896E40E944A1AFF91EF91E8
:1049C000BF91AF919F918F917F916F915F914F9127
:1049D0003F912F910F900BBE0F900FBE0F901F9025
:1049E00018951F920F920FB60F9211240BB60F92CB
:1049F0002F933F934F935F936F937F938F939F93E7
:104A0000AF93BF93EF93FF938FE997E40E944A1A05
:104A1000FF91EF91BF91AF919F918F917F916F9196
:104A20005F914F913F912F910F900BBE0F900FBE52
:104A30000F901F9018950F931F93CF93DF9300D083
:104A4000CDB7DEB710928B4510928C4588EE93E07F
:104A5000A0E0B0E080938D4590938E45A0938F4564
:104A6000B093904587E591E48093894590938A457A
:104A700080E698E0809395459093964589E791E28A
:104A8000809397459093984582E080939945109242
:104A90009A4510929B4580E040E05BE167EB70E057
:104AA0008F5F863011F487E00BC076956795579538
:104AB0004795413099E059079DE36907710580F7F3
:104AC00094E090932C46482F4095242F217030E09D
:104AD00044E0220F331F4A95E1F731E08162822BD7
:104AE00080932B4640E459E0409320465093214662
:104AF0009093234686E08093244610922646109297
:104B0000274610923F461092404623E020934346AA
:104B1000309344468EE690E0A0E0B0E080934546B6
:104B200090934646A0934746B09348461092494614
:104B300010924A4610924B4610924C4610924D46A7
:104B400010924E4610924F46109250461092554683
:104B5000109256462093594630935A4680935B46AE
:104B600090935C46A0935D46B0935E4610925F467C
:104B7000109260461092614610926246109263460F
:104B800010926446109265461092664681E090E06D
:104B90000090A94002C0880F991F0A94E2F7809301
:104BA0003D4690933E4655E0969587955A95E1F798
:104BB00080933B4690933C4685E00E9478118EEFAF
:104BC00090E080937146909372468DE190E08093DF
:104BD0006D4690936E468DE090E080936B46909387
:104BE0006C4684E890E080937346909374468DEF12
:104BF00091E0809375469093764610926F4610929E
:104C0000704684E890E09C01235E3F4FFC01FC5E0F
:104C100040814F3F69F180936F46909370462D3FDE
:104C200081E0380754F5F901FC5E80818F3FE9F09F
:104C300004E810E0809175469091764608171907B0
:104C4000E4F4C801957189839A836FEFCE010196D0
:104C50000E944A1710926F461092704680916D46DE
:104C600090916E46080F191FE5CF235E3F4FD7CFB7
:104C7000C9018D3F21E0920731F6109295471092BD
:104C8000964748EE53E060E070E0409397475093BA
:104C900098476093994770939A4781E791E480938E
:104CA00093479093944720E039E020939F473093B7
:104CB000A0471092794610927A4640937B465093D3
:104CC0007C4660937D4670937E46809377469093B2
:104CD000784680E299E080938346909384461092D0
:104CE000B8481092B9481092C2481092C348109226
:104CF000C4481092C5481092C64881E08093C748C6
:104D000083E891E48093B6489093B7488AE0809313
:104D1000B1488BE08093B2488CE08093B3488DE03B
:104D20008093B4481092B5480F900F90DF91CF91C7
:104D30001F910F910895CF93DF93CDB7DEB7CA5A75
:104D4000D109CDBFDEBF88ED21E030E084BF2093E4
:104D5000620091E084BF909363009DE284BF9093D2
:104D6000800093E084BF9093600080E090E2209107
:104D7000650020FDE6C021E02093030A8EEF8093BA
:104D8000260A8093270A9BE09093000A32E0309332
:104D9000E6052093430A8093660A8093670A9093FE
:104DA000400A9093E705E0E0FBE027E09EEF85E016
:104DB00021839487158680837096E0343BE0F30767
:104DC000B9F72FEF3FE02093AA0B3093AB0B90E89D
:104DD0009093820B1092810B2EEF30E02093AE0B5C
:104DE0003093AF0B98ED24E194BF2093680091E1DC
:104DF0009093800B809302069EE09093050690E6C8
:104E000090930306809300068091B000887F8560B0
:104E10008093B0008091B200887F85608093B2005B
:104E20008FED9EE280932C0B90932D0B81E080936D
:104E3000250B1092210B83E08093200B789468EE71
:104E400073E080E090E00E940C15E0918346F091C1
:104E50008446E11549E0F40709F079C08091E50541
:104E60008C7F82608093E50580918546807641F550
:104E7000E11569E0F60709F077C08091E5058370D8
:104E8000823009F06DC08CE08093460480918546A5
:104E900080628093854681E08383858390918546F7
:104EA00095FF21C096819C3679F0238113829CE680
:104EB000968390819D7F9083238320FF05C0858307
:104EC0008091854685FF0FC08681853161F0938191
:104ED000138285E1868380818D7F8083938390FF19
:104EE00002C081E085831092C9488CE38093C84852
:104EF0001092BA481092BB48EAE8FAE1E590F490C3
:104F0000ECE8FAE1D490EDE8FAE1E491E093BC48F2
:104F1000EEE8FAE1E491E093BD48EFE8FAE1E491CC
:104F2000E093BE4810E000E00D1580F5F701E00FBA
:104F3000F11F649186EB98E40E94AF170F5F1F4F3B
:104F4000F3CF019709F013CF83E00E94AA14E03257
:104F500059E0F50709F088CF8091E50588E082CF18
:104F60008CE08093060492CFE03279E0F70709F0F5
:104F70008DCF8091E5058C70883021F48CE0809392
:104F8000260484CF8CE08093A60480CF0E941B1857
:104F9000E4E5F9E0E093C448F093C548E491E5E521
:104FA000F9E0E49182E08093BF480E941B1841E041
:104FB0006FE086EB98E40E94D9176EE971E486EB06
:104FC00098E40E94791CE0EAF4E0E093C448F0938E
:104FD000C5488491E1EAF4E0E491F82F319709F0B3
:104FE000EFC11092BF4846E068E286EB98E40E9469
:104FF000D91766EA71E486EB98E40E94791C8091E7
:10500000854685FF0CC0E0918346F091844686FF7B
:1050100013821682809185468F7D8093854680918C
:10502000854686FF0FC0E0918346F091844685FF58
:105030001382148611861686809185468F7B809315
:10504000854611822FB7F89494E0909322048091C2
:105050003204877F809332042FBF2FB7F89488E003
:105060008093220480913304877F809333042FBF81
:105070009093410461E080E10E94501B40E052ECBB
:1050800061E070E089E895E40E94C51A66E874E082
:1050900089E895E40E94761462EB71E489E895E46E
:1050A0000E94791C60E774E089E895E40E948B1CFB
:1050B00088E190E00E941F178823E9F0CE01019655
:1050C0000E94EE1029813A8137FD15C0A9014D5F7C
:1050D0005F4FA1E2B0E487E090E0FC01F170FC5E7C
:1050E00060816D93019684179507B8F362E074E0D0
:1050F0002430310511F461EF73E089E895E40E94F2
:105100008B1C0E94001E8091244064ED71E4882372
:1051100009F452C067E674E089E895E40E947614C9
:105120006FE574E089E895E40E947614809121404F
:105130008B3231F468E574E089E895E40E947614D6
:1051400080912140863531F461E574E089E895E489
:105150000E947614809121408B3531F46AE474E02A
:1051600089E895E40E94761461E474E089E895E4A6
:105170000E9476144091224050E070E060E02AE006
:1051800089E895E40E949C1C69E374E089E895E451
:105190000E9476144091234050E070E060E02AE0E5
:1051A00089E895E40E949C1C67E374E089E895E433
:1051B0000E948B1C6AEB71E489E895E40E94791CDB
:1051C00089E895E40E94881C80912440882309F492
:1051D00046C187E08093B14884E08093B24885E07F
:1051E0008093B34886E08093B4481092B5481091FC
:1051F0002240809123408093AF481092B04880E8CD
:105200008093010480E1809301049FB7F89480E2C9
:105210008093020480911504877F809315049FBFBB
:105220008091B448893288F490E0FC01E852FF4B49
:1052300020812F3F51F08F5F9E4BDC01EC91B0E25B
:10524000EB9FF0011124FC5F21830E94D211809119
:10525000B5488111B9C08091E4058C7F8093E40545
:105260008091410984608093410980914009816265
:10527000809340090E943D156B017C016AEA8FE230
:105280000E9405128FE20E9412128A3A59F00E947F
:105290003D156C197D098E099F09623371058105E1
:1052A000910560F30E943D156C197D098E099F09D7
:1052B000623371058105910508F0B7C00E943D1564
:1052C0006B017C0165E58FE20E9405128FE20E946E
:1052D0001212853559F00E943D156C197D098E0911
:1052E0009F09623371058105910560F30E943D15A8
:1052F0006C197D098E099F0962337105810591053D
:1053000008F093C0FE0133968BE2DF011D928A956F
:10531000E9F781E0898384E08A8322E02B8393E0AC
:105320009D832E838F8380E4888725E029879A8751
:1053300096E09B8793E39C8797E09D8728E02F87E3
:1053400029E0298B29E12B8B32E43C8B25E22D8B44
:105350008E8B26E22F8B988F98E2998F20E12A8FEF
:1053600099E29B8F9CED9C8F9EE29D8F98E89E8F8B
:105370009FE29F8F9DE298A390E399A347E34BA3FD
:1053800040E94CA348E34DA33EA33CE33FA33FE8E1
:1053900038A73DE339A72AA72FE62BA79CA79CE6B1
:1053A0009E87888B1AA38E010F5F1F4FF8018081A3
:1053B0008823D1F061810E9405120E5F1F4FF6CF46
:1053C00081E08093BF480FCE8091E405837F809376
:1053D000E40580916109846080936109809160098E
:1053E00081628093600946CF90E080E00E9437128E
:1053F00069E981E10E94051284E00E941E120E9468
:105400003D156B017C0187E20E94121287FD0BC0E3
:105410000E943D156C197D098E099F096233710543
:105420008105910580F30E943D1583EE91E40E9471
:10543000371220912340F4E12F9F8001112460E076
:1054400070E0CB010115110541F00E94EF3A98017F
:10545000110F440B550B0E94FD3D0E940C158EE070
:105460008093050680910306809303061092B00096
:1054700086E08093020681E080930006809100061A
:105480008093000687E08093080660E070E0CB011F
:1054900050E040E021E020930A0630910D0630FFF5
:1054A000FCCF4A30510544F0E0911006F09111060E
:1054B0006E0F7F1F811D911D4F5F5F4F4A3137E295
:1054C000530749F70E94E53C20E030E44CE156E404
:1054D0000E94C23E20E030EF4FE755E40E94C23EFA
:1054E0009B01AC0166E676E686E69FE30E94C23E3B
:1054F0004B015C0167E174E089E895E40E94761451
:1055000044E050E0C501B4010E94F41D8CE090E03D
:105510008093A9409093AA408EEF94E5ADE1B2E468
:1055200080930B4090930C40A0930D40B0930E409D
:1055300080E090E180933D4690933E4680E890E085
:1055400080933B4690933C4680929740909298403F
:10555000A0929940B0929A40C0902640D0902740A7
:10556000E0902840F090294010920240C0921940EB
:10557000D0921A40E0921B40F0921C4000913640BD
:10558000109137402091384030913940409132405D
:1055900050913340609134407091354083E00E94D7
:1055A000E61600913E4010913F40209140403091DE
:1055B000414040913A4050913B4060913C40709155
:1055C0003D4084E00E94E61600914640109147401D
:1055D0002091484030914940409142405091434091
:1055E000609144407091454085E00E94E61600912C
:1055F0004E4010914F402091504030915140409189
:105600004A4050914B4060914C4070914D4086E033
:105610000E94E61600915640109157402091584044
:1056200030915940409152405091534060915440C4
:105630007091554088E00E94E61600915E401091FE
:105640005F40209160403091614040915A405091BC
:105650005B4060915C4070915D4089E00E94E6167D
:105660006091624070916340809164409091654088
:105670000E94A51680912A4090912B40A0912C4029
:10568000B0912D4080930F4090931040A093114013
:10569000B093124010923F4681E0809340461092B2
:1056A00093441092924480918F44882381F0282F54
:1056B00030E020931F40309320408F5F90E0863091
:1056C00030F4FC01E350FB4B10820196F8CFA501AA
:1056D0009401C701B6010E94463D20E030E040E859
:1056E00059E30E94463D6093194070931A4080939D
:1056F0001B4090931C40FCEACF2EF4E4DF2EAFE772
:10570000EA2EA0E4FA2E10E000E080911F40909174
:105710002040081719072CF5D7012D913D914D9187
:105720005D917D011D01B4E02B1A3108C501B40162
:105730000E94463D20E030E040E859E30E94463DAB
:10574000F1016083718382839383802F0E941B1FEA
:10575000D6011D921D921D921D926D010F5F1F4F6C
:10576000D4CF80EA95E1809341469093424682EA05
:1057700095E1809357469093584681E080930A4084
:105780001092894410928A4410928B4410928C4457
:105790009EE0909305069091030690930306109265
:1057A000B00098E090930206809300069091000666
:1057B00090930006909100069260909300061092DC
:1057C000080690910C06916090930C0680930A064F
:1057D0007894C0901340D0901440E0901540F09021
:1057E0001640609117407091184090E080E00E9450
:1057F000E53CA70196010E94463D0E942F3F609321
:105800008D4470938E441092034520E034E244E7C7
:1058100059E4C701B6010E94463D20910B403091EA
:105820000C4040910D4050910E400E94C23E0E949B
:105830002F3F6093F5447093F6448093F744909320
:10584000F8440FE316E4F12CF80180818823A1F1DC
:105850008481893228F590E0FC01E852FF4B4081B9
:105860004F3FF1F0FC01EF5FFE4B2081F0E22F9FF4
:10587000900111243C5F865D9E4BDC01EC91E83089
:1058800008F07CC0C9014096E80FF92FF11D9FB7C1
:10589000F894D90112964C938081886080839FBFD1
:1058A00062EA75E180915A46F11004C060EA75E140
:1058B000809144460E9449110A5E1F4FB1E0FB12DD
:1058C0005AC010921D4510921E4510921F4510920D
:1058D000204560E070E080E090E40E94A516FE01A3
:1058E0007196E8ABF9AB9E01265F3F4F2AAB3BAB0D
:1058F00089E895E40E94D512892B09F455C089E8FE
:1059000095E40E94B312E09090448A3009F0E1C31C
:10591000EE2DF0E0E85BFA4B1082909148459B3603
:1059200009F4E7C10CF0ADC0953609F4A6C14CF5F9
:10593000923609F44FC1943609F48AC19F3361F558
:10594000FF24F394EF1028C007EA1BE1F801F4905C
:10595000FF2009F4BBC3FAE0FF1205C06DE089E83F
:1059600095E40E9475146F2D89E895E40E947514E2
:105970000F5F1F4FEBCFFF24F39466CFF0E0E0E022
:1059800086CF973609F49EC10CF47FC1993609F48D
:10599000C6C29A3609F44CC180E4A8E4B5E41D926D
:1059A0008A95E9F71092904480910445882381F00C
:1059B0001092044580919344882351F00E94F3157E
:1059C00060E08CEC0E94A41561E084E40E94A415C0
:1059D00080910345882311F40C94B139109203454A
:1059E000F89420911F403091204040911D405091EB
:1059F0001E4090E080E0821793070CF077C3FC0113
:105A0000E350FB4B608161113AC0FC0163E0EE0F93
:105A1000FF1F6A95E1F7E40FF51F108611861286C5
:105A20001386148615861686178610AE11AE12AE32
:105A300013AE14AE15AE16AE17AEDF01A859BF4FA8
:105A40001C9211961C92119712961C921297139603
:105A50001C92139714961C92149715961C921597E6
:105A600016961C92169717961C92E856FF4F1082B6
:105A70001182128213821482158216821782019675
:105A8000BACF923709F47DC27CF49E3609F447C23E
:105A9000903709F45EC29C3609F07ECFB1E0EB127C
:105AA0007BCF0E94001E78CF963709F4EDC20CF030
:105AB00084C0933709F070CFF1E0EF126DCF60E64C
:105AC0007BE189E895E40E948B1C88E190E00E94CC
:105AD0001F17811129C019821A826FE4CE01019625
:105AE0000E944A17CC24C394D12CC982DA8265E47F
:105AF000CE0101960E944A1782E090E089839A8342
:105B00006DE4CE0101960E944A1703E010E009837C
:105B10001A836FEFCE0101960E944A170F5F1F4F45
:105B2000011522E0120799F78AE490E089839A83AD
:105B300088E190E08B839C83CE0101960E946A17D6
:105B400001E210E487E090E0D8016D918D017C01C5
:105B5000BFEFEB1AFB0A8EA79FA7CE018E960E947D
:105B60004A17C7018D34910579F790E080E00E94D3
:105B70001F17811135C268E37BE189E895E40E9433
:105B800076142AE040E052E060E070E089E895E4B5
:105B90000E949C1C62E17BE189E895E40E948B1CD9
:105BA00060E072E090E080E00E94CE1E60E17BE168
:105BB00089E895E40E94761421C2973709F470C2EF
:105BC000983709F0E9CEDD24D39468E970E2ED104E
:105BD000E3CE17C032E0E312DFCE89E495E40E9401
:105BE000473B8430F9F08830B9F0893079F0109271
:105BF000214070E060E089E895E40E94E11C6BEFD1
:105C000070E289E895E40E948B1CC6CE8BE58093F8
:105C1000214063E973E0EFCF86E58093214064E69D
:105C200073E0E9CF8BE28093214061EB71E0E3CF39
:105C300042E0E412B1CE89E495E40E94473B01972B
:105C400021F481E080936640A7CE10926640A4CEF6
:105C500089E495E40E94443B6B017C016AEE70E2AA
:105C600089E895E40E94761442E050E0C701B6014D
:105C70000E94CD1E67EE70E2C4CF808369E475E4B4
:105C800089E895E40E94791C87CE53E0E51284CE22
:105C900089E495E40E94443B0E942A3F6B01CB01BA
:105CA0000E94212060EE70E289E895E40E9476145B
:105CB000B60189E895E40E94E11C89E895E40E9418
:105CC000881C6ACE89E495E40E94473B8093224079
:105CD00069ED70E289E895E40E94761440912240D3
