:10020000B5C40000DDC40000DBC400000C948811FC
:10021000D7C40000D5C40000D3C40000D1C400007E
:100220000C94C711CDC40000CBC40000C9C40000A9
:10023000C7C40000C5C40000C3C40000C1C400009E
:10024000BFC40000BDC40000BBC40000B9C40000AE
:10025000B7C40000B5C40000B3C40000B1C40000BE
:100260000C94BE11ADC400000C941512A9C400007A
:10027000A7C40000A5C400000C94C1110C949011F7
:100280009FC400009DC400009BC400000C94B811E2
:1002900097C4000095C4000093C4000091C40000FE
:1002A0008FC400008DC400008BC4000089C400000E
:1002B00087C400000C94C4110C94BB1181C40000CD
:1002C0007FC400007DC400007BC4000079C400002E
:1002D00077C400000C941A110C9415110C941F1182
:1002E0006FC400006DC400006BC4000069C400004E
:1002F00067C4000005A84CCDB2D44EB93836A90267
:100300000C50B9918688083CA6AAAA2ABE00000013
:10031000803F4E414E494E495459494E46CDCCCC72
:100320003D0AD7233C17B7D13877CC2B329595E6C9
:10033000241FB14F0A000020410000C84200401CA9
:100340004620BCBE4CCA1B0E5AAEC59D7464617477
:10035000616C6F67203D2000693643616C203D2051
:1003600000693543616C203D2000693443616C2095
:100370003D2000693343616C203D200069324361B8
:100380006C203D2000693143616C203D20004361B9
:100390006C6962726174696F6E3A002064426D002C
:1003A0002C20002C204E6F64652000204D487A2CB4
:1003B0002047726F7570200042616E6420005365A3
:1003C0007474696E67733A004E6F20454550524F02
:1003D0004D20636F6E666967004C6F6164656420D1
:1003E000454550524F4D20636F6E666967005265F8
:1003F000666572656E636520766F6C7461676520F3
:1004000063616C6962726174696F6E3A20002000EA
:10041000204E6F64653A20002047726F75703A2055
:10042000003931354D487A003836384D487A003435
:1004300033334D487A0020467265713A20005246A7
:100440004D3639435720004F70656E456E657267B3
:10045000794D6F6E69746F722E6F726700656D6F84
:100460006E50693220434D2063757272656E742040
:100470006F6E6C792056000A0020286869646465F4
:100480006E292E00206279746573002C20446174FB
:10049000612073697A653A2000205369676E617440
:1004A0007572653A20004E6F206461746120626C41
:1004B0006F636B20666F756E64202D20454550522A
:1004C0004F4D206170706561727320746F2062659A
:1004D00020666F726D617474656420746F204F457F
:1004E0004D205374616E646172642062757420756E
:1004F0006E757365642E000A002062797465732C32
:10050000206E6F7420666F726D6174746564207400
:100510006F204F454D205374616E646172640053C7
:10052000697A653A2000446F6E652E204E6577200B
:10053000636F6E66696720736176656420746F20EF
:10054000454550524F4D00536176696E672E2E2EF1
:1005500000536B657463682077696C6C206E6F77ED
:100560002072657374617274207573696E6720649C
:10057000656661756C7420636F6E6669672E0052E4
:100580006573657474696E672E2E2E0020000A4113
:100590007661696C61626C6520636F6D6D616E641C
:1005A000733A0A6C09092D206C69737420746865AC
:1005B0002073657474696E67730A7209092D20725D
:1005C0006573746F726520736B657463682064650E
:1005D0006661756C74730A7309092D207361766501
:1005E0002073657474696E677320746F204545507D
:1005F000524F4D0A7609092D2073686F772066697E
:10060000726D776172652076657273696F6E0A78B4
:1006100009092D20657869742C206C6F636B20614B
:100620006E6420636F6E74696E75650A3F09092DEB
:100630002073686F772074686973207465787420FC
:10064000616761696E0A0A773C783E09092D20745A
:1006500075726E2052464D20576972656C657373D2
:100660002064617461206F66663A2078203D2030F6
:10067000206F72206F6E3A2078203D20310A623C54
:100680006E3E09092D2073657420722E662E20623D
:10069000616E64206E203D20612073696E676C6519
:1006A000206E756D6572616C3A2034203D203433C4
:1006B000334D487A2C2038203D203836384D487A42
:1006C0002C2039203D203931354D487A20286D6164
:1006D00079207265717569726520686172647761ED
:1006E0007265206368616E6765290A703C6E6E3EB4
:1006F00009092D207365742074686520722E662E9A
:1007000020706F7765722E206E6E202D20616E2016
:10071000696E74656765722030202D203331207238
:100720006570726573656E74696E67202D3138204F
:1007300064426D20746F202B31332064426D2E2073
:1007400044656661756C743A20323520282B372059
:1007500064426D290A673C6E6E6E3E092D207365FA
:1007600074204E6574776F726B2047726F757020BE
:10077000206E6E6E202D20616E20696E7465676537
:100780007220284F454D2064656661756C74203D6C
:1007900020323130290A6E3C6E6E3E09092D2073DD
:1007A0006574206E6F6465204944206E3D20616E43
:1007B00020696E746567657220287374616E646168
:1007C0007264206E6F6465206964732061726520B5
:1007D000312E2E3630290A0A643C78782E783E096C
:1007E0002D2078782E78203D206120666C6F617412
:1007F000696E6720706F696E74206E756D626572C8
:1008000020666F722074686520646174616C6F6724
:1008100067696E6720706572696F640A6A3C6E3E34
:1008200009092D207475726E204A534F4E2053656E
:100830007269616C20666F726D6174206F6E202822
:100840003129206F72206F6666202830292E0A66B3
:100850003C78783E09092D207878203D2074686521
:10086000206C696E65206672657175656E637920AE
:10087000696E20487A3A206E6F726D616C6C7920D7
:10088000656974686572203530206F722036300AD1
:100890006B3C783E203C79792E793E203C7A7A2E4A
:1008A0007A3E0A09092D2043616C696272617465A0
:1008B00020616E20616E616C6F67756520696E7076
:1008C0007574206368616E6E656C3A0A09092020B0
:1008D00078203D20612073696E676C65206E756DB0
:1008E0006572616C3A2030203D20766F6C746167D0
:1008F000652063616C6962726174696F6E2C20316E
:10090000203D206374312063616C69627261746997
:100910006F6E2C2032203D206374322063616C693D
:1009200062726174696F6E2C206574630A09092014
:100930002079792E79203D206120666C6F61746981
:100940006E6720706F696E74206E756D62657220BF
:10095000666F722074686520766F6C746167652FAE
:1009600063757272656E742063616C696272617422
:10097000696F6E20636F6E7374616E740A0909206B
:10098000207A7A2E7A203D206120666C6F6174692E
:100990006E6720706F696E74206E756D626572206F
:1009A000666F72207468652070686173652063618A
:1009B0006C6962726174696F6E20666F7220746810
:1009C000697320632E742E20287A206973206E6F3D
:1009D00074206E65656465642C206F722069676E93
:1009E0006F72656420696620737570706C696564E8
:1009F0002C207768656E2078203D2030290A09096F
:100A00002020652E672E206B30203235362E380A96
:100A10000909202020202020206B312039302E3958
:100A200020322E30300A613C78782E783E092D2015
:100A300078782E78203D206120666C6F6174696E35
:100A40006720706F696E74206E756D6265722066C6
:100A50006F722074686520617373756D65642076AC
:100A60006F6C74616765206966206E6F20612E630C
:100A70002E2069732064657465637465640A00439D
:100A80006F6E74696E75696E672E2E2E0052462049
:100A90006F6666005246206F6E00456D6F6E54782B
:100AA00056342056002064426D0070203D20004ED8
:100AB0006F646520002000200043616C3A206B00C9
:100AC00047726F75702000467265713A200020737E
:100AD00000646174616C6F6720706572696F643A5D
:100AE0002000204D487A00005EBCE2613FDD83C2F9
:100AF0009C7E20A3FD1F41009D23BE46DB65F88C34
:100B000011AF32CA57E9742C49363A002C49353AAC
:100B1000002C49343A002C49333A002C49323A002F
:100B20002C49313A004D53473A007D002C2249367A
:100B3000223A002C224935223A002C224934223A0A
:100B4000002C224933223A002C224932223A002C2E
:100B5000224931223A007B224D5347223A000A00B3
:100B600000080A400CFFC000C000911511241FBEF0
:100B7000CFEFCDBFDFE7DEBF11E4A0E0B0E4E0E9F6
:100B8000FEE500E00BBF02C007900D92A23CB1074A
:100B9000D9F726E4A2ECB1E401C01D92AE34B2074D
:100BA000E1F715E0C6EBD5E004C02197FE010E94F5
:100BB0000E2FC53BD107C9F70E94C8160C94462FCB
:100BC0001FCB20910314FC01208320910414218366
:100BD00020910514228320910614238308958932DD
:100BE00060F590E0FC01E65DFE4BE081EF3F29F10E
:100BF0008F5F9E4BDC018C9190E0DC01AA0FBB1F44
:100C0000A556BF4B2D913C9121153105B1F04E2FCA
:100C100050E0440F551F240F351FD9016D937C936D
:100C2000E05FA5E0880F991FAA95E1F7E80FF0E0D3
:100C3000FC5F8081887F826080830895CF93DF93FB
:100C4000282F30E09FEF893220F5E901C852DF4BB1
:100C500098819F3FE9F0F901EF5FFE4BA08140E2F0
:100C6000A49FD0011124BC5FF901E65DFE4BE08139
:100C7000E830C0F5AD01405F5F4FE40FF52FF11D87
:100C80004FB7F89412969C939081977F90834FBFB3
:100C900098819093FB45893240F52F5F3E4BF901D7
:100CA0008081F4E08F9FC00111248093FC459093D4
:100CB000FD45109206461092084610920746109283
:100CC0000546109204461092034610920246109276
:100CD0000146109200461092FF451092FE45DF91AA
:100CE000CF910895F0E0E0E0CBCF8CEF93E0DDCF43
:100CF000809147468D3011F42D9A0895873011F474
:100D00000F9A0895813109F44B9A0895000090914B
:100D10004B46911109C0809344098091430987FF94
:100D2000FCCF809144090895809364098091630900
:100D300087FFFCCF809164090895809147468D30EC
:100D400011F42D980895873011F40F98089581318A
:100D500009F44B980895CF93DF93D82FC62FEDDF7A
:100D60008D2F8068D3DF8C2FD1DFDF91CF91C0CF63
:100D7000CF93C82FE2DF8C2FC9DF80E0C7DFC82FF9
:100D8000B7DF8C2FCF910895CF9390915645981748
:100D900091F0C82F81E0ECDF837E682F6C2B81E01F
:100DA000DADF80915645811104C087E2E1DF87FFD9
:100DB000F8CFC0935645CF9108950F931F93CF93CB
:100DC000DF93EC0184E0E0DF2097D9F0888188236D
:100DD000C1F0B3DF8EEB9ADF8E01005F1F4F899168
:100DE00095DFC017D107D9F783DFC1E08DE3C0DFFE
:100DF0008E7F682F6C2B8DE3DF91CF911F910F9128
:100E0000AACFC0E0F3CF109201451092FF44109298
:100E100000451092FD441092FE441092FC44109242
:100E2000FB4488E2A5DF82FF06C08DE3A1DF682FC7
:100E300064608DE390DF80E1A7CFAF92BF92CF9245
:100E4000DF92EF92FF920F931F93CF93DF936C018A
:100E50007B018B01040F151FEB015E01AE18BF086B
:100E6000C017D10759F06991D601ED91FC9101901D
:100E7000F081E02DC6010995892B79F7C501DF9135
:100E8000CF911F910F91FF90EF90DF90CF90BF9087
:100E9000AF900895FC0155894689252F30E0842FB5
:100EA00090E0821B930B541710F0CF960895019792
:100EB0000895FC0193898489981761F0A489AE0F85
:100EC000BF2FB11D57968C9194899F5F9F73948B10
:100ED00090E008958FEF9FEF0895FC019389848936
:100EE000981731F08489E80FF11D878990E0089503
:100EF0008FEF9FEF0895FC0193892489892F90E05B
:100F0000805C9F4F821B91098F7399270895CF931F
:100F1000DF93EC01E881F9810680F781E02D0995E6
:100F2000EC85FD85868116828581158280E4848327
:100F30008C898B8B1A8ADF91CF9108958F929F9223
:100F4000AF92BF92FF920F931F93CF93DF938C01C9
:100F50004A015B01D22FC32FDC0152968C9152972C
:100F600080FF07C0ED91FC910288F389E02DC80154
:100F70000995D11101C0D3E0FD2EE894F2F8DC2FE1
:100F8000D095D07CB1E68B16B3EE9B06B6E1AB06EE
:100F9000B10428F0D260B694A7949794879460E047
:100FA00078ED88EB95E0A50194010E94B62CC9016B
:100FB0002034310510F480E490E03C2F3B72D7FDE3
:100FC00030684D2F487C30FD41605FB7F894D80100
:100FD0001C96ED91FC911682F7828087918735FFF0
:100FE0008FC04F7781E084878FEF85873F7D358382
:100FF000D683F8012189C08986859785FC0133E075
:10100000239FE00DF11D1124659174912C1708F0B8
:1010100059C0272F46FF76C0793288F430E0F901B5
:10102000E852FF4BA081AF3F51F02F5F3E4BF901DB
:10103000308120E2329FF0011124FC5FA18347FF41
:101040002AC021E0270F293230F530E0F901E852BB
:10105000FF4BD081DF3FF9F0F901EF5FFE4BA0813C
:10106000F0E2AF9FD0011124BC5F265D3E4BF90139
:101070001081F0E0E0E0183030F49D01205F3F4F38
:10108000F901E10FF11D3FB7F8941296DC9320812E
:10109000286020833FBF40FF15C023E0270F29327F
:1010A00088F430E0F901E852FF4B40814F3F51F0A6
:1010B0002F5F3E4BD901EC91B0E2EB9FF001112480
:1010C000FC5F4183FC0123E0C29FE00DF11D112470
:1010D000319625913491F901FF27EE51FA4F908115
:1010E000832F80958923682B60835FBFDF91CF9129
:1010F0001F910F91FF90BF90AF909F908F90089598
:10110000148674CF342F307509F499CF793208F0F2
:1011100096CF30E0F901E852FF4BD081DF3F09F470
:101120008ECFF901EF5FFE4BA081E0E2AE9FD001D0
:101130001124BC5F265D3E4BF9011081F0E0E0E038
:10114000183030F49D01205F3F4FF901E10FF11D90
:101150003FB7F8941296DC932081286020833FBF2C
:101160006ECFFC010FB607FE04C0809111018823E9
:10117000A9F0A485B58514968C91149785FF0EC0AF
:1011800095898689981739F015968C9115978F7DDA
:1011900015968C930895E8940C942A1108950F9352
:1011A0001F93CF93DF93EC018A89982F91609A8BDC
:1011B0002D899E8929130AC0EC85FD85948195FFB0
:1011C00005C081FD0DC080E4848312C0062F1D89F7
:1011D0001F5F1F738E89811315C0CE01C2DFFACF46
:1011E00085818F77806490E49483EC85FD85858389
:1011F000EC85FD85628381E090E0DF91CF911F91C6
:101200000F910895ED89EC0FFD2FF11DE95AFF4F65
:1012100000831D8BEC85FD858A8981FF09C085814E
:101220008F77806690E49483EC85FD858583E3CF9A
:1012300085818062FBCF682F87E595E4B0CF0F935F
:101240001F93CF93DF938C01D0E0C0E0F801EC0F47
:10125000FD1F6491662339F087E595E4A0DF892BB3
:1012600011F02196F3CFCE01DF91CF911F910F9115
:101270000895CF93DF93EC018A8980FF0BC0EC8542
:10128000FD85858185FD03C0848186FD03C0CE0177
:1012900068DFF5CFDF91CF91089581E008950F9831
:1012A000079A20E533EC93E0179A44E1F90131976E
:1012B000F1F74150D9F7482F179AF9013197F1F713
:1012C000179A59E0F9013197F1F75150D9F7415088
:1012D00099F7915049F7E7CF9FB7F894E0912A0B1F
:1012E000F0912B0B8091260B20915044309151446A
:1012F00040915244509153449FBF80FF08C0EC3E40
:101300008CE2F80720F42F5F3F4F4F4F5F4F0F01E4
:1013100016940794169407941694079416940794B9
:10132000F00116940794E00DF11D16940794102C0B
:10133000169401181694010C169401181694010CB9
:101340001694011816941694010C1124E019F10951
:10135000A8EEB3E00E94A62C6E0F7F1F811D911D89
:1013600008958F929F92AF92BF92CF92DF92EF92A9
:10137000FF926B017C01B0DF4B015C01C114D10411
:10138000E104F104B1F0A8DF681979098A099B0921
:10139000683E73408105910588F321E0C21AD108A7
:1013A000E108F10888EE880E83E0981EA11CB11CAC
:1013B000E5CFFF90EF90DF90CF90BF90AF909F90E0
:1013C0008F9008952FB7F8946091504470915144D4
:1013D00080915244909153442FBF0895CF92DF9251
:1013E000EF92FF920F931F93CF93DF93082F10E09C
:1013F00096E1899FE0011124C35FD94B8E819F81C3
:10140000A885B985892B8A2B8B2B99F1DBDFCA88BC
:10141000DB88EC88FD886C197D098E099F09CE80D8
:10142000DF80E884F984C616D706E806F90658F482
:101430008E859F85A889B9890196A11DB11D8E87CA
:101440009F87A88BB98BBEDF26E1209FF001219FEB
:10145000F00D1124E35FF94B628B738B848B958BBA
:10146000DF91CF911F910F91FF90EF90DF90CF9080
:1014700008958E859F85A889B9890196A11DB11D02
:101480008E879F87A88BB98BEBCF80E0A7CF81E0B9
:10149000A5CF28E030E041E071E090915644E09122
:1014A0005444F0915544A92FA095582F542370937C
:1014B0004F44552341F151815A2351835081592B77
:1014C000508350E55A95F1F75181952B91831092F5
:1014D0004F44A9E4B1E01197F1F700C00000440FB8
:1014E00021503109D1F661110DC0E0915444F091C1
:1014F00055449081809156448095982390839181A2
:1015000089238183089551815A2351835081592B16
:101510005083A7E6B1E01197F1F700C000005181B8
:10152000952B918310924F44B8E2BA95F1F7D7CF3B
:1015300080915644E0915444F09155449081282F75
:101540002095922390833DE7315061F190E19A9587
:10155000F1F792819823C1F3918192239183908135
:10156000982B9083AFE3BBE01197F1F700C0000028
:1015700091E090934F44908192239083A3EAB1E04D
:101580001197F1F700C000009281982381E009F0E3
:1015900080E010924F44EBE9F9E03197F1F700C099
:1015A0000000089580E00895CF92DF92EF92FF92BD
:1015B0000F931F93CF93DF938091094090E025E034
:1015C000959587952A95E1F7809590958370992751
:1015D000C0EFD2E002C0D595C7958A95E2F7209179
:1015E000174030911840DE010E941D2F28E13CEF8A
:1015F0004FEF5FEF0E948A2C80915B4490915C4496
:101600000197280F391F20932B4430932C4420E05E
:1016100030E04AE754E460911340709114408091A7
:101620001540909116400E94D32B0E94BC2D8E0134
:10163000DD0F220B330B6B017C01C01AD10AE20AC9
:10164000F30AA7019601A8EEB3E00E94A62C685801
:101650007341810991090E94722B20910B403091B6
:101660000C4040910D4050910E400E944F2D0E9421
:10167000BC2D60932F4470933044809331449093F9
:101680003244DF91CF911F910F91FF90EF90DF9047
:10169000CF900895CF92DF92EF92FF926B017C0181
:1016A000C0921340D0921440E0921540F092164040
:1016B000609117407091184090E080E00E94722B7A
:1016C000A70196010E94D32B0E94BC2D60935B441E
:1016D00070935C4420E034E244E759E4C701B6016A
:1016E0000E94D32B20910B4030910C4040910D4033
:1016F00050910E400E944F2D0E94BC2D6093C34418
:101700007093C4448093C5449093C644FF90EF9077
:10171000DF90CF9049CFEF92FF920F931F93CF931B
:10172000DF93E0915D44CE2FD0E07E01EE0CFF1CF4
:10173000EE0CFF1CD701A158BF4B4D935D936D93E9
:101740007C931397B70169597F4BDB010D931D9370
:101750002D933C9313979E0125533B4B91E0D90168
:101760009C93A82FB0E0AE5FBA4BEC93EF5FE09391
:101770005D44F0E0EE5FFF4B8083DF91CF911F91DE
:101780000F91FF90EF9008950F931F93CF93DF93E6
:1017900000D000D0CDB7DEB7209100142F34A1F4D3
:1017A00020910114253481F4209102142D3461F428
:1017B000009799F08C01CE01019603DA81E02B812C
:1017C0003C812017310709F080E02496CDBFDEBFB1
:1017D000DF91CF911F910F91089581E0F6CFDC0149
:1017E000ED91FC91F170FC5E20816217B9F03FB77A
:1017F00020910210422F427021FDFACFF8942DE97A
:1018000024BF4093001043E124BF40930010DC014B
:10181000ED91FC91F170FC5E60833FBF0895CF9223
:10182000DF92EF92FF920F931F93CF93DF9300D03D
:10183000CDB7DEB76C017C0103E010E009831A83A9
:10184000F70161917F01CE010196C9DF0F5F1F4F44
:101850000730110599F7C6010F900F90DF91CF91D6
:101860001F910F91FF90EF90DF90CF900895DC01D2
:10187000ED91FC910088F189E02D23E030E009949E
:10188000FC0101900020E9F73197AF01481B590B8B
:10189000BC0187E595E4D1CA8DE691E4F1CFCF9301
:1018A000DF93CDDCEC01F8DF8C0F9D1FDF91CF9132
:1018B00008958F929F92AF92BF920F931F93CF93F1
:1018C000DF93CDB7DEB7A197CDBFDEBF19A24230FF
:1018D00008F44AE08E010F5D1F4F842E912CB12C2D
:1018E000A12CA50194010E94B62CE62FB901CA01D2
:1018F000EA30D4F4E05DD801EE938D01232B242B44
:10190000252B79F790E080E0109711F0CD01B8DF3A
:10191000A196CDBFDEBFDF91CF911F910F91BF90F8
:10192000AF909F908F900895E95CE5CF4F925F92C2
:101930006F927F928F929F92AF92BF92CF92DF92DF
:10194000EF92FF920F931F93CF936B017C01742E44
:10195000AC019B010E94BF2E882391F080E791E4A7
:10196000CF911F910F91FF90EF90DF90CF90BF909C
:10197000AF909F908F907F906F905F904F9080CFAF
:1019800046015701E894B7F82FEF3FEF4FE75FE7C5
:10199000C501B4010E94BF2E81110DC02FEF3FEF92
:1019A0004FE75FE7C501B4010E946E2B18161CF4C7
:1019B00084E791E4D5CF2FEF3FEF4FE75FE4C70116
:1019C000B6010E94732E18161CF488E791E4C8CF64
:1019D0002FEF3FEF4FE75FECC701B6010E946E2B80
:1019E00087FDF3CF20E030E0A901C701B6010E94D6
:1019F0006E2B10E000E087FF07C08DE21CDC8C013D
:101A0000F7FAF094F7F8F094C0E060E070E080E05E
:101A10009FE37C1641F020E030E040E251E40E9478
:101A20004F2DCF5FF6CFA70196010E94E82C2B0126
:101A30003C010E94BC2D4B015C014AE03ADF7C0175
:101A4000E00EF11ECC23A9F1C501B4010E94722B56
:101A50009B01AC01C301B2010E94E72C4B015C0168
:101A60008CE791E40DDFE80EF91EC15010F120E083
:101A700030E040E251E4C501B4010E94D32B2B01B8
:101A80003C010E94BC2D4B01B12CA12C4AE0C501A8
:101A9000B4010FDFE80EF91EC501B4010E94722BDC
:101AA0009B01AC01C301B2010E94E72C4B015C0118
:101AB000DCCFC701CF911F910F91FF90EF90DF9086
:101AC000CF90BF90AF909F908F907F906F905F90DE
:101AD0004F900895CF93DF9329DFEC01DDDE8C0F6B
:101AE0009D1FDF91CF91089521CFCF92DF92EF928A
:101AF000FF92CF93DF936C01990FEE08FF08F7FE7A
:101B000015C08DE298DBEC0166277727CB016C19B5
:101B10007D098E099F094AE0CCDE8C0F9D1FDF9165
:101B2000CF91FF90EF90DF90CF9008954AE0C701EA
:101B3000B601DF91CF91FF90EF90DF90CF90B9CEBB
:101B4000CF92DF92EF92FF920F931F93CF93DF9389
:101B50007C016B01D0E0C0E0CC15DD053CF58E01C9
:101B60000E0D1F1D11701C5EF8018081803110F474
:101B700080E361DB2196F801608170E090E080E015
:101B800040E197DE8EE791E47BDECE0187709927F6
:101B9000892B19F48EE791E473DECE018F709927BB
:101BA000892BD1F68EE59BE04ADBD6CFDF91CF9132
:101BB0001F910F91FF90EF90DF90CF9008950F93BA
:101BC0001F93CF93DF9380915645803109F062C017
:101BD00088E2CED882FF3BC084E0D6D8AED880E081
:101BE00095D880E093D8D82FC82F833408F0C2E46A
:101BF000C093FC4480E08AD8082F80E087D8182F53
:101C000080E084D8282F30E0A90196E0440F551FCA
:101C10009A95E1F744275370402B4093FD4450932D
:101C2000FE44322F222722273370212B2093FF449A
:101C300030930045909145469417150611F0452BB9
:101C400011F4D330A0F41092FC4452D8DCD8809127
:101C500056458031F9F48091FC448823E1F084E01A
:101C600093D881E0DF91CF911F910F910895C350D8
:101C7000C093014580788093FB44D0E0DC1720F4CA
:101C800080E044D8DF5FFACF33D880E17DD884E2AA
:101C90006FD8DDCFB8D880E0E5CF8EEB93E0FFDDE5
:101CA00080912440882371F188EB93E0C8DA809119
:101CB00021408B3209F48BC0863509F48BC08B35FB
:101CC00009F48BC090E080E010DF8BEA93E0B7DA94
:101CD0006091224070E090E080E04AE0EADD83EA33
:101CE00093E0ADDA809123408F7390E0FEDE80EACE
:101CF00093E0A5DA809125408251990BF6DE8BE9BD
:101D000093E0CDDD8EE893E0CADD85E893E097DAD5
:101D100060913240709133408091344090913540D1
:101D200042E050E0D7DE8CE793E089DA60913A40F8
:101D300070913B4080913C4090913D4042E050E0AA
:101D4000C9DE83E793E07BDA6091424070914340C3
:101D5000809144409091454042E050E0BBDE8AE6ED
:101D600093E06DDA60914A4070914B4080914C4015
:101D700090914D4042E050E0ADDE81E693E05FDAC5
:101D800060915240709153408091544090915540E1
:101D900042E050E09FDE88E593E051DA60915A40DE
:101DA00070915B4080915C4090915D4042E050E0DA
:101DB00091DE8DE493E043DA60916240709163407C
:101DC000809164409091654042E050E083CE81EB89
:101DD00091E07ACF84E693E077CF83E993E074CF04
:101DE0000F931F93CF93DF93893208F07CC090E06C
:101DF000DC01A852BF4B2C912F3F09F474C08C0119
:101E00000F5F1E4BE801E881D0E2ED9FF001112445
:101E1000FC5F611133C0268330812323AC01465D12
:101E20005E4B211111C0EA012881309749F1283019
:101E300038F57096E20FF11D3FB7F89420816111DB
:101E400022C0277F20833FBFFA0130813F3F09F442
:101E50004AC0E8012881363058F53091E605432F15
:101E60004770241312C0EC91E53008F0EE0F80911A
:101E7000010AE095E823E093010A35C02583CCCF21
:101E8000F0E0E0E0D9CF2860DDCF387169F421308F
:101E900079F4EC91E53008F0EE0F8091410AE0957D
:101EA000E823E093410A1FC0383111F4263089F34A
:101EB00081559F4BFC01808185FF13C030E1839FDA
:101EC000F0011124F75F91819770973061F4EC91E4
:101ED000853270F4803298F48830E1F2803121F25A
:101EE00002C08111F4CFDF91CF911F910F9108951E
:101EF000803471F08038B9F71092A006F4CF90E1E9
:101F0000899FF0011124F75F81818F7E8183EBCF60
:101F10008091920B8E2339F3C0E22C9F9001112403
:101F20003C5FE83030F5205F3F4FE20FF32FF11DAB
:101F30004FB7F8949091800B9E7F9093800B909177
:101F40008E0B90FFFCCF2091920B90E080959095A6
:101F500030E08223932328ED24BF8093920B80915D
:101F6000800B81608093800B80818F7780834FBF4F
:101F7000BACFF0E0E0E0DCCF0F931F93CF93DF9375
:101F8000CDB7DEB72C97CDBFDEBF8150E1F0082F73
:101F900010E0A80167E175E4CE0101960E94372F99
:101FA000E1E0F0E0EC0FFD1FE00FF11F1082CE0129
:101FB00001960E94D4292C96CDBFDEBFDF91CF9130
:101FC0001F910F91089590E080E0F5CF4F925F92BE
:101FD0006F927F928F929F92AF92BF92CF92DF9239
:101FE000EF92FF92CF93DF93C82F80900B40909099
:101FF0000C40A0900D40B0900E4060911740709141
:10200000184090E080E00E94722B6B017C0160918F
:102010001F40709120406F5F7F4F072E000C880B90
:10202000990B0E94742BA50194010E94D32B2BEDD8
:102030003FE049EC50E40E94D32BA70196010E9497
:10204000D32B20E034E244E759E40E944F2D2B01CA
:102050003C01D0E0BE016F5F7F4F072E000C880B64
:10206000990B0E94742BA50194010E94D32BA70108
:1020700096010E94D32B20E034E244E759E40E9409
:102080004F2D6B017C01CC0FDD1FCC0FDD1FFE013E
:10209000E959FF4B20E030E044EB53E4608171816B
:1020A000828193810E944F2D9B01AC01C701B60133
:1020B0000E94E82C2BED3FE049EC50E40E94D32B2A
:1020C0004B015C010E94772E6B017C01C301B201C0
:1020D0000E94772E9B01AC01C701B6010E944F2DD3
:1020E0006B017C01FE01ED56FB4BC082D182E28286
:1020F000F382C501B4010E944C2D4B015C01C30168
:10210000B2010E944C2D9B01AC01C555DB4BC701B0
:10211000B6010E94D32B9B01AC01C501B4010E9402
:10212000E72C688379838A839B83DF91CF91FF902B
:10213000EF90DF90CF90BF90AF909F908F907F9067
:102140006F905F904F9008958F929F92AF92BF9241
:10215000FF920F931F93CF93DF93282FCB01BA01E8
:10216000E22FF0E0EE5FFA4BF08024E0F29EE00117
:1021700011248E0101581F4B2091974030919840B7
:102180004091994050919A400E94D32B4B015C01A1
:1021900060910B4670910C4690E080E00E94722B9B
:1021A0009B01AC01C501B4010E944F2DF801608371
:1021B000718382839383C959DF4B188219821A82F3
:1021C0001B828F2DDF91CF911F910F91FF90BF90B8
:1021D000AF909F908F90FACECF93809317409093BB
:1021E0001840BC0190E080E00E94722B20911340C7
:1021F0003091144040911540509116400E94D32BCD
:102200000E94BC2D60935B4470935C44CDD9C0E0C8
:1022100080911F4090912040C817190624F48C2FFC
:10222000D5DECF5FF5CFCF910895EF93FF93E7E52C
:10223000F5E408C0EF93FF93E7E5F5E432C0EF93D0
:10224000E0E653C02F932FB72F938F939F93AF93B5
:10225000BF936894CF93DF9320E0C485D8E096893C
:10226000DF01A90FB21FA95ABF4F8C9120E42C8324
:102270008A839F5F9F738D812589291302C08F7D7B
:102280008D83968BDF91CF9116F00C94CE08BF9181
:10229000AF919F918F912F912FBF2F91FF91EF9130
:1022A00018952F932FB72F938F939F93CF93DF93EF
:1022B000C485D8E08981988181FD0DC0C38981E002
:1022C0008C0F8F732489281731F0CE0FDF2F20E079
:1022D000D21F9F8B838BDF91CF919F918F912F91F5
:1022E0002FBF2F91FF91EF911895FF938F938FB789
:1022F0008F93F8E08081848187FFFCCF85818F7B7D
:10230000806885838F918FBF8F91FF91EF91189592
:102310001F920F920FB60F92112484E00E944F0972
:102320001F920F920FB60F9211248F939F93AF932A
:10233000BF938091504490915144A0915244B091E8
:1023400053440196A11DB11D809350449093514474
:10235000A0935244B093534481E08093260BBF91E5
:10236000AF919F918F910F900FBE0F901F90189576
:102370000F930AE00FC00F9308E00CC00F9306E024
:1023800009C00F9304E006C00F9302E003C00F934F
:1023900000E000C00F920FB60F920BB60F921F9283
:1023A0001124FF921F932F933F934F935F936F934B
:1023B0007F938F939F93AF93BF93CF93DF93EF93CD
:1023C000FF93ABE9B0E4A00FB11DCD91DC91000FFC
:1023D0000D5FA02FB0E0FC90109761F01F2D1695B7
:1023E00018F041F02296FBCFE991F9913097B9F3BB
:1023F0000995F5CFA02FB0E0FC92FF91EF91DF910E
:10240000CF91BF91AF919F918F917F916F915F918C
:102410004F913F912F911F91FF901F900F900BBEF6
:102420000F900FBE0F900F9118951F920F920FB63D
:102430000F9211240BB60F922F923F924F925F9200
:102440006F927F928F929F92AF92BF92CF92DF92C4
:10245000EF92FF920F931F932F933F934F935F93AE
:102460006F937F938F939F93AF93BF93EF93FF935C
:10247000CF93DF93CDB7DEB72697CDBFDEBF81E028
:1024800080930D06409010065090110620914F4405
:10249000E0914E44A2E0AE0F80911F409091204009
:1024A000A817190621F01CF0A1E0AE0FA81BB0E0A0
:1024B000AE5FBF4B3C913093080621116FC1409134
:1024C0005744509158446091594470915A444F5F19
:1024D0005F4F6F4F7F4F40935744509358446093E2
:1024E000594470935A44E111E2C180914C44909157
:1024F0004D4480934A4490934B4480910B46909175
:102500000C4696958795481A590A40924C44509229
:102510004D4480914844909149449C0136952795BB
:1025200036952795821B930B920157FE04C02227F4
:10253000332724193509820F931F809348449093C1
:1025400049446091094670910A4621E0681779076D
:1025500008F020E020939244141415040CF05AC0A3
:1025600021E030E02093464430934744E0914644D4
:10257000F09147444091404450914144E417F5079D
:1025800009F44DC020912A442F5F20932A442091C2
:102590002A44233030F010922A44E0934244F093CE
:1025A000434420913344211110923344809042449B
:1025B0009090434420910040309101406817790782
:1025C00008F023C181E08816910409F05CC0413015
:1025D000510509F45EC080912D4490912E440196DE
:1025E00080932D4490932E4440910A404423D1F08F
:1025F0000A97C0F010920A4010922D4410922E4477
:10260000C9018C5F9E4FF901E817F90759F0108254
:102610003196FACF1092464410924744A7CF1092B9
:102620002A44B5CF80912D4490912E4440912B4463
:1026300050912C448417950739F440910A40411178
:1026400003C041E04093D24440915B4450915C44CC
:1026500084179507F0F080910A4081111AC01092FA
:102660002D4410922E4480911D4090911E40209345
:102670001D4030931E40809300409093014081E0C4
:102680008093D14406C0452B21F01092444410920F
:102690004544E0910040F09101409F0120533F4F9D
:1026A000D9014D915D916D917C9113974F5F5F4F73
:1026B0006F4F7F4F4D935D936D937C9313978091F4
:1026C00044449091454401968093444490934544FA
:1026D0002850310929833A83D901AC901196BC90D6
:1026E000119712963C90129713961C91139714967B
:1026F0006C90149715967C90159716960C911697DA
:1027000017962C909201D2010E94172F6B017C0129
:10271000FF0CCC08DC2C76019B01AC016C2D7C2DD0
:102720008C2D9C2DC32CD12E7301122D0E94232F92
:10273000A981BA812C9311963C93119712964C93D0
:10274000129713965C93139714966C93149715969F
:102750007C93159716968C93169717969C93A0804A
:10276000B180C280D380E480F58006811781952DE9
:10277000990F990B9201492F592F692F792F892F82
:102780000E94232F20833183428353836483758384
:1027900086839783809240449092414480914E4436
:1027A0008F5F80934E4420911F40309120408217CC
:1027B000130619F014F010924E442696CDBFDEBFDA
:1027C000DF91CF91FF91EF91BF91AF919F918F9149
:1027D0007F916F915F914F913F912F911F910F9139
:1027E000FF90EF90DF90CF90BF90AF909F908F9031
:1027F0007F906F905F904F903F902F900F900BBE07
:102800000F900FBE0F901F90189540915744509114
:1028100058446091594470915A4480912F4490914A
:102820003044A0913144B091324484179507A607F3
:10283000B70748F480915F44811105C081E080931F
:10284000D24480935F4440915744509158446091E2
:10285000594470915A448091C3449091C444A091CA
:10286000C544B091C64484179507A607B70708F07A
:1028700010CF10925744109258441092594410921D
:102880005A4481E080930A4010922D4410922E44C5
:1028900040911D4050911E4020931D4030931E409A
:1028A0004093004050930140EBCE1C9232C12E2E3B
:1028B000312C821593050CF471CF3101B1E06B1A04
:1028C0007108D301A553BB4BE6E04E1651046CF3DF
:1028D00081E08C93A0910040B0910140A983BA831C
:1028E000D30193E0AA0FBB1F9A95E1F7E981FA8122
:1028F000AE0FBF1FAC52BF4FAC901196BC9011975A
:102900001296CC9012971396DC9013971496EC9035
:1029100014971596FC90159716960C911697179686
:102920001C911797C301880F991F8C5C9B4BFC016E
:1029300080809180992D990F990B9401492F592FDF
:10294000692F792F892F0E94232F2C9311963C9366
:10295000119712964C93129713965C9313971496B3
:102960006C93149715967C93159716968C931697DF
:1029700017969C9380910B4690910C46969587955F
:10298000881A990AF10143E0EE0FFF1F4A95E1F71B
:10299000A981BA81EA0FFB1FA080B1803280138128
:1029A000B481BD832581298306812780A0914A4473
:1029B000B0914B4494010E94172F6B017C01FF0CD6
:1029C000CC08DC2C76019B01AC016C2D7C2D8C2D70
:1029D0009C2DC32CD12EED80F980122D0E94232F27
:1029E00020833183428353836483758386839783F3
:1029F000A0A8B1A832A813A934A93D8345A9498349
:102A000006A927A8A0914C44B0914D4494010E947E
:102A1000172F6B017C01FF0CCC08DC2C76019B018D
:102A2000AC016C2D7C2D8C2D9C2DC32CD12EED80DA
:102A3000F980122D0E94232F20AB31AB42AB53AB58
:102A400064AB75AB86AB97ABCF01805A9F4F8D833C
:102A50009E83DC01AC901196BC9011971296CC909D
:102A600012971396DC9013971496EC901497159682
:102A7000FC90159716960C91169717961C91940139
:102A8000D4010E94172F9B01AC01550F220B322F4E
:102A9000A90129833A834B835C839B01AC01698143
:102AA000762F862F962F0E94232FAD81BE812C93E7
:102AB00011963C93119712964C93129713965C9330
:102AC000139714966C93149715967C9315971696F6
:102AD0008C93169717969C93E057FF4FA080B18078
:102AE000C280D380E480F58006811781992D990FEB
:102AF000990B9401492F592F692F792F892F0E9403
:102B0000232F208331834283538364837583868399
:102B10009783F301EE0FFF1FEC5CFB4B4082518269
:102B20003DCE0F931F93CF93DF9300D0CDB7DEB789
:102B30001092594510925A4588EE93E0A0E0B0E01B
:102B400080935B4590935C45A0935D45B0935E4553
:102B500087E591E4809357459093584580E698E047
:102B6000809363459093644580E69BE08093654540
:102B70009093664582E08093674510926845109275
:102B8000694580E040E05BE167EB70E08F5F863095
:102B900011F487E00BC076956795579547954130BE
:102BA00099E059079DE36907710580F794E09093D8
:102BB000FA45482F4095242F217030E044E0220F41
:102BC000331F4A95E1F731E08162822B8093F9450A
:102BD00040E459E04093EE455093EF459093F14522
:102BE00086E08093F2451092F4451092F5451092DC
:102BF0000D4610920E4623E0209311463093124664
:102C00008EE690E0A0E0B0E08093134690931446E7
:102C1000A0931546B0931646109217461092184688
:102C20001092194610921A4610921B4610921C469A
:102C300010921D4610921E46109223461092244672
:102C400020932746309328468093294690932A461E
:102C5000A0932B46B0932C4610922D4610922E46F0
:102C600010922F4610923046109231461092324602
:102C7000109233461092344681E090E00090A940D3
:102C800002C0880F991F0A94E2F780930B46909335
:102C90000C4655E0969587955A95E1F7809309463D
:102CA00090930A4685E00E941E068EEF90E0809386
:102CB0003F46909340468DE190E080933B46909351
:102CC0003C468DE090E08093394690933A4684E804
:102CD00090E080934146909342468DEF91E080933F
:102CE00043469093444610923D4610923E4684E8F7
:102CF00090E09C01235E3F4FFC01FC5E40814F3F12
:102D000069F180933D4690933E462D3F81E0380720
:102D100054F5F901FC5E80818F3FE9F004E810E092
:102D2000809143469091444608171907E4F4C8017E
:102D3000957189839A836FEFCE0101960E94EF0B04
:102D400010923D4610923E4680913B4690913C4603
:102D5000080F191FE5CF235E3F4FD7CFC9018D3F25
:102D600021E0920731F68AE0809347468BE080931A
:102D700048468CE0809349468DE080934A46109205
:102D80004B460F900F90DF91CF911F910F910895B7
:102D9000CF93DF93CDB7DEB7CA5AD109CDBFDEBF1F
:102DA00088ED21E030E084BF2093620091E084BF91
:102DB000909363009DE284BF9093800093E084BF72
:102DC0009093600080E090E22091650020FDEBC1CF
:102DD00021E02093030A8EEF8093260A8093270A2E
:102DE0009BE09093000A32E03093E6052093430A7B
:102DF0008093660A8093670A9093400A9093E70550
:102E0000E0E0FBE027E09EEF85E0218394871586D4
:102E100080837096E0343BE0F307B9F72FEF3FE093
:102E20002093AA0B3093AB0B90E89093820B1092F7
:102E3000810B2EEF30E02093AE0B3093AF0B98ED6B
:102E400024E194BF2093680091E19093800B8093DC
:102E500002069EE09093050690E690930306809309
:102E600000068091B000887F85608093B0008091DB
:102E7000B200887F85608093B2008FED9EE28093E0
:102E80002C0B90932D0B81E08093250B1092210B3E
:102E900083E08093200B789484E08093410461E088
:102EA00080E10E94F00E40E052EC61E070E087E5C6
:102EB00095E40E94370C8DE594E00E941F0980E89C
:102EC00091E40E94400C87E494E00E944F0C88E15A
:102ED00090E00E94C40B8823E9F0CE0101960E9485
:102EE000E10529813A8137FD15C0A9014D5F5F4F8A
:102EF000A1E2B0E487E090E0FC01F170FC5E60814B
:102F00006D93019684179507B8F389ED93E024300B
:102F1000310511F488EC93E00E944F0C0E944D0E95
:102F200080912440882309F444C18EE394E00E94F8
:102F30001F0986E394E00E941F09809121408B3293
:102F400021F48FE294E00E941F0980912140863590
:102F500021F488E294E00E941F09809121408B3582
:102F600021F481E294E00E941F0988E194E00E942C
:102F70001F096091224070E090E080E04AE00E94EA
:102F8000590C80E194E00E941F096091234070E099
:102F900090E080E04AE00E94590C8EE094E00E94AC
:102FA0004F0C88E891E40E94400C0E944C0C8091E8
:102FB0002440882309F44BC187E08093474684E08E
:102FC0008093484685E08093494686E080934A4650
:102FD00010924B46109122408091234080934546A9
:102FE0001092464680E88093010480E180930104BA
:102FF0009FB7F89480E28093020480911504877F44
:10300000809315049FBF80914A46893288F490E0EE
:10301000FC01E852FF4B20812F3F51F08F5F9E4B08
:10302000DC01EC91B0E2EB9FF0011124FC5F218305
:103030000E94780680914B468111BEC08091E405C4
:103040008C7F8093E40580914109846080934109DD
:10305000809140098162809340090E94E2096B01DE
:103060007C016AEA8FE20E94AB068FE20E94B806FA
:103070008A3A59F00E94E2096C197D098E099F096C
:10308000623371058105910560F30E94E2096C19B4
:103090007D098E099F09623371058105910508F04C
:1030A000BCC00E94E2096B017C0165E58FE20E94D1
:1030B000AB068FE20E94B806853559F00E94E209FE
:1030C0006C197D098E099F0962337105810591058F
:1030D00060F30E94E2096C197D098E099F09623331
:1030E00071058105910508F098C0FE0133968BE2C9
:1030F000DF011D928A95E9F781E0898384E08A8364
:1031000022E02B8393E09D832E838F8380E4888746
:1031100025E029879A8796E09B8793E39C8797E031
:103120009D8728E02F8729E0298B29E12B8B32E42A
:103130003C8B25E22D8B8E8B26E22F8B988F98E28D
:10314000998F20E12A8F99E29B8F9CED9C8F9EE2C4
:103150009D8F98E89E8F9FE29F8F9DE298A390E3BA
:1031600099A347E34BA340E94CA348E34DA33EA3F7
:103170003CE33FA33FE838A73DE339A72AA72FE662
:103180002BA79CA79CE69E87888B1AA38E010F5FB6
:103190001F4FF80180818823F9F061810E94AB06FE
:1031A0000E5F1F4FF6CF019709F00ECE83E00E940D
:1031B0004F0982EA91E4F7CE8091E405837F809302
:1031C000E4058091610984608093610980916009C0
:1031D00081628093600941CF90E080E00E94DD062B
:1031E00069E981E10E94AB0684E00E94C4060E9466
:1031F000E2096B017C0187E20E94B80687FD0BC0E3
:103200000E94E2096C197D098E099F0962337105DC
:103210008105910580F30E94E20981EB91E40E940F
:10322000DD0620912340F4E12F9F8001112460E00E
:1032300070E0CB010115110541F00E947C29980135
:10324000110F440B550B0E948A2C0E94B1098EE08D
:103250008093050680910306809303061092B000C8
:1032600086E08093020681E080930006809100064C
:103270008093000687E08093080660E070E0CB0151
:1032800050E040E021E020930A0630910D0630FF27
:10329000FCCF4A30510544F0E0911006F091110640
:1032A0006E0F7F1F811D911D4F5F5F4F4A3137E2C7
:1032B000530749F70E94722B20E030E44CE156E4BA
:1032C0000E944F2D20E030EF4FE755E40E944F2D34
:1032D0009B01AC0166E676E686E69FE30E944F2DF1
:1032E0004B015C018EEE93E00E941F0944E050E028
:1032F000C501B4010E946A0D8CE090E08093A94062
:103300009093AA408EEF94E5ADE1B2E480930B4038
:1033100090930C40A0930D40B0930E4080E090E15C
:1033200080930B4690930C4680E890E0809309468A
:1033300090930A468092974090929840A09299402C
:10334000B0929A40C0902640D0902740E09028400C
:10335000F090294010920240C0921940D0921A4039
:10336000E0921B40F0921C40009136401091374093
:103370002091384030913940409132405091334053
:10338000609134407091354083E00E948B0B009136
:103390003E4010913F40209140403091414040914B
:1033A0003A4050913B4060913C4070913D4084E0F8
:1033B0000E948B0B0091464010914740209148405D
:1033C0003091494040914240509143406091444087
:1033D0007091454085E00E948B0B00914E4010910A
:1033E0004F40209150403091514040914A4050917F
:1033F0004B4060914C4070914D4086E00E948B0B99
:1034000000915640109157402091584030915940BA
:1034100040915240509153406091544070915540BA
:1034200088E00E948B0B00915E4010915F402091DC
:1034300060403091614040915A4050915B406091B2
:103440005C4070915D4089E00E948B0B609162400E
:103450007091634080916440909165400E944A0B56
:1034600080912A4090912B40A0912C40B0912D400A
:1034700080930F4090931040A0931140B09312405E
:1034800010920D4681E080930E4610926144109296
:10349000604480915D44882381F0282F30E02093A0
:1034A0001F40309320408F5F90E0863030F4FC0165
:1034B000E553FB4B10820196F8CFA5019401C7019B
:1034C000B6010E94D32B20E030E040E859E30E948F
:1034D000D32B6093194070931A4080931B409093B4
:1034E0001C40FAE7CF2EF4E4DF2EAFE7EA2EA0E48B
:1034F000FA2E10E000E080911F40909120400817C4
:1035000019072CF5D7012D913D914D915D917D01CC
:103510001D01B4E02B1A3108C501B4010E94D32B60
:1035200020E030E040E859E30E94D32BF1016083B2
:10353000718382839383802F0E94E60FD6011D92B0
:103540001D921D921D926D010F5F1F4FD4CF85E418
:103550009AE080930F469093104687E49AE0809318
:1035600025469093264681E080930A401092574466
:10357000109258441092594410925A449EE09093ED
:10358000050690910306909303061092B00098E010
:103590009093020680930006909100069093000697
:1035A0009091000692609093000610920806909108
:1035B0000C06916090930C0680930A067894C09054
:1035C0001340D0901440E0901540F0901640609168
:1035D00017407091184090E080E00E94722BA70184
:1035E00096010E94D32B0E94BC2D60935B44709384
:1035F0005C441092D14420E034E244E759E4C7012E
:10360000B6010E94D32B20910B4030910C40409189
:103610000D4050910E400E944F2D0E94BC2D609392
:10362000C3447093C4448093C5449093C6440DE052
:1036300016E4F12CF80180818823A1F1848189327C
:1036400028F590E0FC01E852FF4B40814F3FF1F03C
:10365000FC01EF5FFE4B2081F0E22F9F90011124CF
:103660003C5F865D9E4BDC01EC91E83008F078C051
:10367000C9014096E80FF92FF11D9FB7F894D901C1
:1036800012964C938081886080839FBF67E47AE0C4
:1036900080912846F11004C065E47AE080911246DA
:1036A0000E94EF050A5E1F4FB1E0FB1256C0109258
:1036B000EB441092EC441092ED441092EE4460E022
:1036C00070E080E090E40E944A0BFE017196E8AB46
:1036D000F9AB9E01265F3F4F2AAB3BAB87E595E4F4
:1036E0000E947B07892B09F451C087E595E40E946D
:1036F0005907E0905E448A3009F09CC3EE2DF0E05B
:10370000EA5EFA4B1082909116459B3609F4C7C1C8
:103710000CF0A9C0953609F492C12CF5923609F443
:1037200041C1943609F478C19F3341F5FF24F394E5
:10373000EF1024C00EE815E0F801F490FF2009F422
:1037400076C3FAE0FF1203C08DE00E941B098F2DA3
:103750000E941B090F5F1F4FEFCFFF24F3946ACF26
:10376000F0E0E0E08ACF973609F486C10CF46DC131
:10377000993609F4A2C29A3609F43EC180E4A6E162
:10378000B5E41D928A95E9F710925E448091D24487
:10379000882381F01092D24480916144882351F0B3
:1037A0000E94980A60E08CEC0E94490A61E084E47F
:1037B0000E94490A8091D144882311F40C94502826
:1037C0001092D144F89420911F40309120404091B4
:1037D0001D4050911E4090E080E0821793070CF04E
:1037E00036C3FC01E553FB4B608161113AC0FC011B
:1037F00063E0EE0FFF1F6A95E1F7E40FF51F1086F7
:10380000118612861386148615861686178610AEC4
:1038100011AE12AE13AE14AE15AE16AE17AEDF017A
:10382000A859BF4F1C9211961C92119712961C9288
:10383000129713961C92139714961C921497159630
:103840001C92159716961C92169717961C92E8567E
:10385000FF4F108211821282138214821582168207
:1038600017820196BACF923709F453C27CF49E3680
:1038700009F423C2903709F438C29C3609F07ECF90
:10388000B1E0EB127BCF0E944D0E78CF963709F452
:10389000ADC20CF07AC0933709F070CFF1E0EF12AF
:1038A0006DCF87E495E00E944F0C88E190E00E9484
:1038B000C40B811129C019821A826FE4CE010196CE
:1038C0000E94EF0BCC24C394D12CC982DA8265E428
:1038D000CE0101960E94EF0B82E090E089839A83EB
:1038E0006DE4CE0101960E94EF0B03E010E0098326
:1038F0001A836FEFCE0101960E94EF0B0F5F1F4FEF
:10390000011522E0120799F78AE490E089839A83EF
:1039100088E190E08B839C83CE0101960E940F0C7E
:1039200001E210E487E090E0D8016D918D017C0107
:10393000BFEFEB1AFB0A8EA79FA7CE018E960E94BF
:10394000EF0BC7018D34910579F790E080E00E947C
:10395000C40B811109C28FE195E00E941F094AE062
:1039600060E072E080E090E00E94590C89EF94E002
:103970000E944F0C60E072E090E080E00E94A00D99
:1039800087EF94E00E941F09FBC1973709F438C202
:10399000983709F0F3CEDD24D3948FE79AE0ED1049
:1039A000EDCE15C032E0E312E9CE87E195E40E9446
:1039B000D4298430D9F0883099F0893059F01092A8
:1039C000214090E080E00E94750D82EE9AE00E9416
:1039D0004F0CD4CE8BE58093214083E993E0F3CF65
:1039E00086E58093214084E693E0EDCF8BE28093DF
:1039F000214081EB91E0E7CF42E0E412BFCE87E1C6
:103A000095E40E94D429019721F481E080936640D7
:103A1000B5CE10926640B2CE87E195E40E94D129DE
:103A20006B017C0181ED9AE00E941F0942E050E0A9
:103A3000C701B6010E94740D8EEC9AE0C8CF808356
:103A400087E195E40E94400C99CE53E0E51296CEB2
:103A500087E195E40E94D1290E94B72D6B01CB012B
:103A60000E94EC1087EC9AE00E941F09C6010E9498
:103A7000750D0E944C0C82CE87E195E40E94D429FA
:103A80008093224080EC9AE00E941F0960912240BE
:103A900070E090E080E04AE00E94590CEACF60E2DA
:103AA00070E086E195E40E942C2F009711F40C94AD
:103AB00002298C0106511544C801992760E270E083
:103AC000895E9A4B0E942C2F6C01BB24B394B00EDC
:103AD000802FC114D10411F40C9407290E94BC0F4B
:103AE0008C01B601665175446B01CB1829F4412C49
:103AF000512C32010C942329D12C6B2D70E06A5E7D
:103B00007A4BA601CE0101960E94372F81E090E00A
:103B10008C0F9D1FC80ED91ED6011C920C94202913
:103B200020919740309198404091994050919A400F
:103B3000C301B2010E94D32B6B017C0160910B4643
:103B400070910C4690E080E00E94722B9B01AC01CA
:103B5000C701B6010E944F2D6093194070931A401F
:103B600080931B4090931C404092264050922740E7
:103B7000609228407092294089EB9AE00E941F09C8
:103B8000C8010E94750D87EB9AE00E941F0942E070
:103B900050E0C301B2010E94740D85EB9AE00E94CF
:103BA0001F0942E050E060E070E0CB010E946A0D26
:103BB000E5CDB301A20183E00E94A41040923240FF
:103BC00050923340609234407092354010923640AB
:103BD000109237401092384010923940CDCFB30147
:103BE000A20184E00E94A41040923A4050923B40CF
:103BF00060923C4070923D4010923E4010923F4097
:103C00001092404010924140B7CFB301A20185E02D
:103C10000E94A4104092424050924340609244401F
:103C20007092454010924640109247401092484092
:103C300010924940A1CFB301A20186E00E94A410D6
:103C400040924A4050924B4060924C4070924D409E
:103C500010924E4010924F4010925040109251409E
:103C60008BCFB301A20188E00E94A4104092524081
:103C7000509253406092544070925540109256407A
:103C800010925740109258401092594075CFB3018E
:103C9000A20189E00E94A41040925A4050925B40D9
:103CA00060925C4070925D4010925E4010925F4066
:103CB00010926040109261405FCF87E195E40E94CE
:103CC000D429882379F099278034910514F08FE363
:103CD00090E0809323408FEA9AE00E941F09609150
:103CE0002340D6CE81E090E0F4CF87E195E40E94B6
:103CF000D4298F71809325408AEA9AE00E941F0997
:103D0000809125408251990B0E94750D85EA9AE0B9
:103D10005ECEE1E0EE1232CD8FE795E00E944F0CCF
:103D200088E190E00E94C40B882389F0CE010196BF
:103D30000E94E10589819A8197FD09C0919581953D
:103D4000910989839A83CE0101960E940F0C81E527
:103D500095E00E944F0C68EC70E080E090E00E94DB
:103D6000B1090C9400000ACDCE0101960E94E10534
:103D70008B819C81019649F486EA94E00E944F0C65
:103D80000E944C0C86E295E022CE89E994E00E94E4
:103D90001F096B817C8190E080E04AE00E94590C11
:103DA00009811A8117FF03C011950195110904506B
:103DB00011098BE894E00E941F09C8010E94750D4B
:103DC00084E894E00E941F0989819A8197FF04C0CA
:103DD00089E794E00E941F090E944C0CB80187E01B
:103DE00090E00E94A00D87E794E0CCCDF1E0EF12C7
:103DF000C5CC8AE99AE00E941F0980E891E422CEAE
:103E000072E0C72EEC10BACC109224408091174576
:103E1000813319F481E080932440809124408823E9
:103E200019F084E99AE0D3CD8DE89AE0D0CD8CE802
:103E300095E0CDCDBFE3BE1508F4A8CCEE2DF0E0A3
:103E4000EA5EFA4B8083E394E0925E449FCC9DE06F
:103E5000E92E96E4F92E10E000E026E1D22EF701DB
:103E60008181882309F477C080818823C9F1848106
:103E7000893228F590E0FC01E852FF4B40814F3F2A
:103E8000F1F0FC01EF5FFE4B2081F0E22F9F9001EB
:103E900011243C5F865D9E4BDC018C91F0E0E0E0FC
:103EA000883020F4F9017096E80FF11D9FB7F8945F
:103EB000D90112964C938081886080839FBF65E40E
:103EC0007AE0809112460115110521F067E47AE04D
:103ED000809128460E94EF053EC001E010E0BFCF70
:103EE00085818932A8F590E0FC01E65DFE4B2081DA
:103EF0002F3F71F18F5F9E4BDC018C91E82FE29593
:103F0000EE0FE07EE20FF0E0E05FFB4F9081917FEB
:103F1000908390E0FC01A4E0EE0FFF1FAA95E1F76B
:103F2000422F50E061E070E002C0660F771F2A95D3
:103F3000E2F76383880F991FFC01E556FF4B440F9E
:103F4000551F0190F081E02DE40FF51F10821182C2
:103F5000D70111961C92D09EF001D19EF00D112434
:103F6000E35FF94B86859785A089B189892B8A2BD8
:103F70008B2BC9F04685578560897189D7011A96C0
:103F80008D909D90AD90BC901D97480D591D6A1D58
:103F90007B1D1A964D935D936D937C931D971686AA
:103FA0001786108A118AB6E1EB0EF11C013011055B
:103FB00009F093CF789400911D4010911E40F801B4
:103FC000E853FF4F208131814281538164817581A3
:103FD000868197811801E0ED2E0E311CD1018D9064
:103FE0009D90AD90BC90F801F0812196FFAF219794
:103FF000D8011196BC912396BFAF2397F801F281A7
:104000002596FFAF2597D8011396BC912796BFAF91
:104010002797F801F4812996FFAF2997D8011596C3
:10402000BC912B96BFAF2B97F801F6812F96FFAF6F
:104030002F97D8011796BC916196BFAF6197F80191
:10404000F0816596FFAF6597D8011196BC9169968E
:10405000BFAF6997F801F2816D96FFAF6D97D801F8
:104060001396BC91B8AFF801F4816F96FFAF6F97CC
:10407000D8011596BC91A396BFAFA397F801F6811E
:10408000A796FFAFA797D8011796BC91AB96BFAF85
:10409000AB97D101CD90DD90ED90FC901397CCAA19
:1040A000DDAAEEAAFFAACD90DD90ED90FC90CCAEFB
:1040B000DDAEEEAEFFAE0E94EC2D6B017C01C501C2
:1040C000B4010E94742B9B01AC01C701B6010E9490
:1040D0004F2D6B017C0121962FAD219723963FAD8B
:1040E000239725964FAD259727965FAD279729965D
:1040F0006FAD29972B967FAD2B972F968FAD2F976E
:1041000061969FAD61970E94E82D4B015C01659619
:104110002FAD659769963FAD69976D964FAD6D97D9
:1041200058AD6F966FAD6F97A3967FADA397A79687
:104130008FADA797AB969FADAB970E94E82D9B01E3
:10414000AC01C501B4010E94D32B4B015C016CA9E9
:104150007DA98EA99FA90E94742B9B01AC01C5016A
:10416000B4010E944F2D4B015C016CAD7DAD8EAD55
:104170009FAD0E94742B9B01AC01C501B4010E944C
:104180004F2D9B01AC01C701B6010E94E72C0E9494
:10419000812EC0901940D0901A40E0901B40F090C2
:1041A0001C402E96CCAEDDAEEEAEFFAE2E97A70134
:1041B00096010E94D32B6093C7447093C8448093A8
:1041C000C9449093CA44D101CD90DD90ED90FC900C
:1041D000E0911F40F09120406096EEAFFFAF6097F6
:1041E0006091C3447091C4448091C5449091C64489
:1041F0000E94722B4B015C016096AEADBFAD609723
:104200001196A70196010E94B02C0E94742B9B016D
:10421000AC01C501B4010E944F2D64966CAF7DAF17
:104220008EAF9FAF6497C0909244E796CFAEE7976A
:10423000C0900F40D0901040E0901140F09012409C
:10424000EB96CCAEDDAEEEAEFFAEEB97C09013407A
:10425000D0901440E0901540F09016406C96CCAE93
:10426000DDAEEEAEFFAE6C9722E634E422962EAFC2
:104270003FAF22974BEA54E426964EAF5FAF2697A6
:1042800063E974E42A966EAF7FAF2A9783ED94E4D6
:104290006E968EAF9FAF6E97AFE7B0E42896AEAF45
:1042A000BFAF2897EAE7F4E42496EEAFFFAF249778
:1042B0001CAE1DAE2CAA3DAA6096CEACDFAC6097BA
:1042C000ECACFDACEC14FD0464F0C8018C5F9E4FB7
:1042D0008017910709F429C4D8011C920F5F1F4F62
:1042E000F7CF2CAC3DACF3E0220C331CFA95E1F790
:1042F000200E311ED1011896BC91EC96BFAFEC9701
:10430000F101F185ED96FFAFED97D1011A96BC91C1
:10431000EE96BFAFEE97F101F385EF96FFAFEF9703
:10432000D1011C96BC91C158DF4FB883CF57D04004
:10433000F101F585C058DF4FF883C058D040D10156
:104340001E96BC91CF57DF4FB883C158D040F101C2
:10435000F785CE57DF4FF883C258D0402696AEADD2
:10436000BFAD2697CD90DD90ED90FD902696AEAF37
:10437000BFAF2697C8AED9AEEAAEFBAEF101F0AD45
:10438000CD57DF4FF883C358D040D101D996BC91A7
:10439000CC57DF4FB883C458D040F101F2ADCB57B2
:1043A000DF4FF883C558D040D101DB96BC91CA5786
:1043B000DF4FB883C658D040F101F4ADC957DF4F85
:1043C000F883C758D040D101DD96BC91C857DF4F64
:1043D000B883C858D040F101F6ADC757DF4FF88316
:1043E000C958D040D101DF96BC91C657DF4FB88382
:1043F000CA58D0402A96AEADBFAD2A97CD90DD9079
:10440000ED90FD902A96AEAFBFAF2A97A296CCAEA4
:10441000DDAEEEAEFFAEA297ACA9BDA9CD90DD900A
:10442000ED90FC90A696CCAEDDAEEEAEFFAEA697BC
:10443000F801F081C557DF4FF883CB58D040D80141
:104440001196BC91C457DF4FB883CC58D040F801C7
:10445000F281C357DF4FF883CD58D040D80113966F
:10446000BC91C257DF4FB883CE58D040F801F481D9
:10447000C157DF4FF883CF58D040D8011596BC9173
:10448000C057DF4FB883C059D040F801F681CF56EE
:10449000DF4FF883C159D040D8011796BC91CE5652
:1044A000DF4FB883C259D0407101E8E9EE0EF11C2C
:1044B000D701BC91CD56DF4FB883C359D040F70127
:1044C000F181CC56DF4FF883C459D040D701129602
:1044D000BC91CB56DF4FB883C559D040F701F3816B
:1044E000CA56DF4FF883C659D040D7011496BC9105
:1044F000C956DF4FB883C759D040F701F581C85678
:10450000DF4FF883C859D040D7011696BC91C756E3
:10451000DF4FB883C959D040F701F781C656DF4F46
:10452000F883CA59D040ACA9BDA92D913D914D91B8
:104530005C911397AA962CAF3DAF4EAF5FAFAA9791
:104540002D913D914D915C91AE962CAF3DAF4EAF0C
:104550005FAFAE972896AEADBFAD28972D913D9138
:104560004D915D912896AEAFBFAF289768962CAF5E
:104570003DAF4EAF5FAF6897D101A859BF4F2C91A7
:1045800011963C91119712964C91129713965C914B
:10459000139714966C91149715967C91159716960F
:1045A0008C91169717969C91ECA9FDA9808091801B
:1045B000A280B380D701BC91C556DF4FB883CB59D9
:1045C000D040F701F181C456DF4FF883CC59D04079
:1045D000D7011296BC91C356DF4FB883CD59D04056
:1045E000F701F381C256DF4FF883CE59D040D7018F
:1045F0001496BC91C156DF4FB883CF59D040F70114
:10460000F581C056DF4FF883C05AD040D7011696C7
:10461000BC91CF55DF4FB883C15AD040F701F78125
:10462000CE55DF4FF883C25AD040D701BC91CD554B
:10463000DF4FB883C35AD040F701F181CC55DF4F2B
:10464000F883C45AD040D7011296BC91CB55DF4FA6
:10465000B883C55AD040F701F381CA55DF4FF883BC
:10466000C65AD040D7011496BC91C955DF4FB883C4
:10467000C75AD040F701F581C855DF4FF883C85AB3
:10468000D040D7011696BC91C755DF4FB883C95AA1
:10469000D040F701F781C655DF4FF883CA5AD040A2
:1046A000ACA9BDA9CD90DD90ED90FC901397E2965A
:1046B000CCAEDDAEEEAEFFAEE297CD90DD90ED90EC
:1046C000FC90E696CCAEDDAEEEAEFFAEE6970E9475
:1046D000EC2D6B017C01C501B4010E94742B9B0180
:1046E000AC01C701B6010E944F2D6B017C01C5567C
:1046F000DF4F2881CB59D040C456DF4F3881CC5989
:10470000D040C356DF4F4881CD59D040C256DF4F0D
:104710005881CE59D040C156DF4F6881CF59D04023
:10472000C056DF4F7881C05AD040CF55DF4F8881C7
:10473000C15AD040CE55DF4F9881C25AD0400E9416
:10474000E82D4B015C01CD55DF4F2881C35AD04085
:10475000CC55DF4F3881C45AD040CB55DF4F48810C
:10476000C55AD040CA55DF4F5881C65AD040C955A6
:10477000DF4F6881C75AD040C855DF4F7881C85A8B
:10478000D040C755DF4F8881C95AD040C655DF4F4A
:104790009881CA5AD0400E94E82D9B01AC01C50106
:1047A000B4010E94D32B4B015C01E2966CAD7DAD50
:1047B0008EAD9FADE29798D79B01AC01C501B401C6
:1047C0000E944F2D4B015C01E6966CAD7DAD8EAD28
:1047D0009FADE69789D79B01AC01C501B4010E944A
:1047E0004F2D9B01AC01C701B6010E94E72C0E942E
:1047F000812E9B01AC01F101EC52FF4F8081818140
:10480000828183818481858186818781ECA9FDA94C
:1048100080819181A281B38168966CAD7DAD8EADB2
:104820009FAD6897C0D76E96AEADBFAD6E976D93D6
:104830007D938D939D936E96AEAFBFAF6E9724968A
:10484000EEADFFAD2497C080D180E280F380E79683
:10485000FFADE797FF2309F461C1EC962FADEC970C
:10486000ED963FADED97EE964FADEE97EF965FADBF
:10487000EF97C158DF4F6881CF57D040C058DF4F06
:104880007881C058D040CF57DF4F8881C158D04081
:10489000CE57DF4F9881C258D0400E94E82D28ADF6
:1048A00039AD4AAD5BAD7FD74B015C01CD57DF4FD2
:1048B0002881C358D040CC57DF4F3881C458D040EE
:1048C000CB57DF4F4881C558D040CA57DF4F58817A
:1048D000C658D040C957DF4F6881C758D040C85725
:1048E000DF4F7881C858D040C757DF4F8881C958FB
:1048F000D040C657DF4F9881CA58D0400E94E82D5B
:10490000A2962CAD3DAD4EAD5FADA2974CD79B01AD
:10491000AC01C501B4010E94E82C4B015C01A696D4
:104920006CAD7DAD8EAD9FADA697DED69B01AC0183
:10493000C501B4010E944F2D4B015C01C557DF4FEB
:104940002881CB58D040C457DF4F3881CC58D04055
:10495000C357DF4F4881CD58D040C257DF4F5881F1
:10496000CE58D040C157DF4F6881CF58D040C05794
:10497000DF4F7881C059D040CF56DF4F8881C15971
:10498000D040CE56DF4F9881C259D0400E94E82DCA
:1049900068AF79AF8AAF9BAFCD56DF4F2881C3593F
:1049A000D040CC56DF4F3881C459D040CB56DF4F72
:1049B0004881C559D040CA56DF4F5881C659D040AA
:1049C000C956DF4F6881C759D040C856DF4F78813C
:1049D000C859D040C756DF4F8881C959D040C65604
:1049E000DF4F9881CA59D0400E94E82D9B01AC014D
:1049F00068AD79AD8AAD9BADD6D668AF79AF8AAFD9
:104A00009BAFAA966CAD7DAD8EAD9FADAA976CD6CF
:104A10009B01AC0168AD79AD8AAD9BAD0E944F2D75
:104A200068AF79AF8AAF9BAFAE966CAD7DAD8EAD02
:104A30009FADAE9759D69B01AC0168AD79AD8AADFB
:104A40009BAD0E944F2D9B01AC01C501B401BFD7A6
:104A50002E962CAD3DAD4EAD5FAD2E97A4D668968B
:104A60002CAD3DAD4EAD5FAD68979DD66C962CAD2F
:104A70003DAD4EAD5FAD6C9796D664962CAD3DAD19
:104A80004EAD5FAD64970E944F2DA7019601A0D750
:104A90006B017C0120E030E041E655E40E944F2D9F
:104AA0000E94B72D2296AEADBFAD22978D909D90FE
:104AB000AD90BD902296AEAFBFAF2297FD01349767
:104AC000AB01770F660B770BDB01CA01880D991DCF
:104AD000AA1DBB1D80839183A283B383CB01BA013E
:104AE00003D620E030E041E655E45DD69B01AC0101
:104AF000C701B6016CD72496EEADFFAD2497619344
:104B00007193819391932496EEAFFFAF24972CADD0
:104B10003DAD2F5F3F4F2CAF3DAFCECBEB962CADD5
:104B20003DAD4EAD5FADEB97A0CF80916144882342
:104B300009F4D9C0B12CE6E0AE2E80916044B816DD
:104B400008F0C5C02DEC3CEC4CE45EE360911340F2
:104B5000709114408091154090911640BFD50B2D57
:104B600010E087FF0BC0F801EE0FFF1F70ECC72E9F
:104B700076E7D72EC082D182B394DFCF0E94980A05
:104B8000882389F3780153E0EE0CFF1C5A95E1F776
:104B9000D7018C91882339F360E085E50E94490AAA
:104BA0006701B8E0CB0ED11C60E0F70181917F0175
:104BB0000E94490AEC14FD04B9F760E08EEB0E94F4
:104BC000490ADE011196CD0128E030E050E061E0B5
:104BD0004091FB45E091FC45F091FD45F8947081D2
:104BE000742B7083F180E42EE094FE20F18278E152
:104BF0007A95F1F770817E21708370E57A95F1F7EF
:104C000072817894EDE3F1E03197F1F700C0000094
:104C1000472309F0562B660F21503109C9F6FC01D4
:104C20005193CF01CAA8DBA8CE16DF0669F629E0AA
:104C3000E0E0215089F08D918E27E82FEF70F0E0B1
:104C4000E951F54F949182958F70E82FF0E0E9508B
:104C5000F54FE491E927EDCF89858E132FC0298187
:104C60003A81A29EC001A39E900D112435952795EF
:104C700035952795820F931F2D81211102C080EC5D
:104C800096E72F812C3021F4843321E29207C9F07A
:104C9000803C36E7930731F09C0124583A4E213589
:104CA000364490F4F801EE0FFF1F8083918361E09A
:104CB00070E080E090E00E94B1095ECF80EC96E762
:104CC000DBCF80EC96E7EECF88EF95E7EBCF811155
:104CD00004C080E395E780B991B960E08FEF0E944E
:104CE000F00E10925F448091EB449091EC44A091BF
:104CF000ED44B091EE44892B8A2B8B2B71F460E04C
:104D000080E10E94F00E609162407091634080915A
:104D10006440909165400E944A0B65E070E080E03D
:104D200090E00E94B1098091EB449091EC44A091F5
:104D3000ED44B091EE440196A11DB11D8093EB446A
:104D40009093EC44A093ED44B093EE4420E030E027
:104D50004AE754E46091D3447091D4448091D5449F
:104D60009091D64420D503D76093EF447093F044DC
:104D700020E030E04AE754E46091D7447091D84491
:104D80008091D9449091DA440ED5F1D66093F144E4
:104D90007093F24420E030E04AE754E46091DB4451
:104DA0007091DC448091DD449091DE44FCD4DFD6E8
:104DB0006093F3447093F44420E030E04AE754E415
:104DC0006091DF447091E0448091E1449091E2442D
:104DD000EAD4CDD66093F5447093F64420E030E0F9
:104DE0004AE754E46091E3447091E4448091E544DF
:104DF0009091E644D8D4BBD66093F7447093F844BE
:104E000020E030E04AE754E46091E7447091E844E0
:104E10008091E9449091EA44C6D4A9D66093F944BC
:104E20007093FA4480912440882309F487C080E17C
:104E3000EBEEF4E4DE01119601900D928A95E1F714
:104E4000F12CF09246468DE30E94B806682F64600C
:104E50008DE30E94AB060E94E2094B015C01809148
:104E60005645803109F025C18091FC44811121C152
:104E700084E20E94B80690E09195819591098C3466
:104E80009F4F0CF016C184E00E94C40684E00E948B
:104E9000C40687E20E94B80687FFFBCF0E949D06EA
:104EA00080E80E94860683E10E94860685E00E94D3
:104EB0008606809145460E94860680E40E9486060A
:104EC0008E010F5F1F4FF80181918F010E948606AE
:104ED000C8A8D9A8C016D106B1F70E9478068CE000
:104EE0000E94C40688E20E94B80683FFFBCF84E0DC
:104EF0000E94C4060E94E2094B015C010E94E20983
:104F0000681979098A099B096E3171058105910536
:104F100008F0DEC00E94DF0D882381F38091FF44FA
:104F200090910045059751F78091FB44882331F318
:104F300062E370E080E090E00E94B109C090EB4431
:104F4000D090EC44E090ED44F090EE4480916640C7
:104F5000882309F4C3C086E59BE00E941F094AE04C
:104F6000C701B6010E94590C8FE49BE00E941F0903
:104F70006091EF447091F044072E000C880B990B60
:104F8000B3D32FE632E143E85AE30DD443E050E0D7
:104F90000E94740D88E49BE00E941F096091F14417
:104FA0007091F244072E000C880B990B9DD32FE6CD
:104FB00032E143E85AE3F7D343E050E00E94740D36
:104FC00081E49BE00E941F096091F3447091F444D6
:104FD000072E000C880B990B87D32FE632E143E8AC
:104FE0005AE3E1D343E050E00E94740D8AE39BE072
:104FF0000E941F096091F5447091F644072E000C41
:10500000880B990B71D32FE632E143E85AE3CBD3F7
:1050100043E050E00E94740D83E39BE00E941F096F
:105020006091F7447091F844072E000C880B990B9F
:105030005BD32FE632E143E85AE3B5D343E050E0D7
:105040000E94740D8CE29BE00E941F096091F9445C
:105050007091FA44072E000C880B990B45D32FE66C
:1050600032E143E85AE39FD343E050E00E94740DDD
:105070008AE29BE00E944F0C6CE370E080E090E0DD
:105080000E94B10961E080E10E94F00E62E370E0ED
:1050900080E090E00E94B10960E080E10E94F00EA3
:1050A000A89564E170E080E090E00E94B1090C9462
:1050B0006E1B0E94E209681979098A099B09683EFA
:1050C00073408105910508F0E1CE0E94DF0DC7CE47
:1050D000F39483E0D82EFD10B4CE2ACF85E29BE076
:1050E0000E941F094AE0C701B6010E94590C80E2E4
:1050F0009BE00E941F096091EF447091F044072EDD
:10510000000C880B990BF0D22FE632E143E85AE30A
:105110004AD343E050E00E94740D8BE19BE00E9473
:105120001F096091F1447091F244072E000C880B26
:10513000990BDAD22FE632E143E85AE334D343E065
:1051400050E00E94740D86E19BE00E941F0960916F
:10515000F3447091F444072E000C880B990BC4D2D1
:105160002FE632E143E85AE31ED343E050E00E94C9
:10517000740D81E19BE00E941F096091F5447091DC
:10518000F644072E000C880B990BAED22FE632E1C5
:1051900043E85AE308D343E050E00E94740D8CE0EA
:1051A0009BE00E941F096091F7447091F844072E1C
:1051B000000C880B990B98D22FE632E143E85AE3B2
:1051C000F2D243E050E00E94740D87E09BE00E9421
:1051D0001F096091F9447091FA44072E000C880B66
:1051E000990B82D22FE632E143E85AE3DCD243E066
:1051F00050E00E94740D0E944C0C68E270E080E068
:1052000090E03ECF8E2D0E94BC0F8C011CC00E94EE
:10521000BC0F8C01EB1811F40C94771DF12C6B2D45
:1052200070E06A5E7A4BA701CE01019620D6E1E0DC
:10523000F0E0EC0FFD1FEE0DFF1D1082CE01019678
:10524000B0D02B013C010730110510F00C94BC1DAF
:10525000F801E45DF64DE2C5901DD91DEF1D051E58
:105260001B1E311E471E8F929F92AF92BF92CF920C
:10527000DF92EF92FF92CF93DF93EC016881798107
:105280008A819B81611571058105910521F464E294
:1052900079ED8BE597E02DE133EF41E050E03AD333
:1052A00049015A019B01AC01A7EAB1E44FD36B015C
:1052B0007C01ACEEB4EFA501940154D3C60ED71E09
:1052C000E81EF91EF7FE06C081E0C81AD108E10801
:1052D00080E8F80AC882D982EA82FB82C701B60157
:1052E0009F77DF91CF91FF90EF90DF90CF90BF90AD
:1052F000AF909F908F9008958F929F92AF92BF92A0
:10530000CF92DF92EF92FF926091AB407091AC40F0
:105310008091AD409091AE40611571058105910578
:1053200021F464E279ED8BE597E02DE133EF41E084
:1053300050E0F0D249015A019B01AC01A7EAB1E467
:1053400005D36B017C01ACEEB4EFA50194010AD347
:10535000C60ED71EE81EF91EF7FE06C081E0C81A69
:10536000D108E10880E8F80AC092AB40D092AC4086
:10537000E092AD40F092AE40C701B6019F77FF903A
:10538000EF90DF90CF90BF90AF909F908F90089557
:105390006093AB407093AC408093AD409093AE402F
:1053A00008956627772725C0FC0188279927E89468
:1053B00021912032E9F3293010F02E30C8F32B323E
:1053C00039F02D3231F4689403C00BD0820F911D57
:1053D000219120532A30C8F31EF4909581959F4F58
:1053E00008957AE0979F902D879F802D910D11242D
:1053F00008958F929F92AF92BF92CF92DF92EF92D9
:10540000FF920F931F93CF93DF935C017B01611594
:10541000710519F0DB018D939C9385010F5F1F4F80
:10542000F501D0818D2F90E039D16C01892BA9F540
:10543000DD32A9F50F5F1F4FD5011196DC91C1E058
:105440005801F1E0AF1AB10843E050E06AE173E0BF
:10545000C5012CD1892B61F5680182E0C80ED11CF1
:1054600045E050E065E173E0C60120D1892B21F4CD
:10547000680197E0C90ED11CE114F10419F0D701BD
:10548000CD92DC9260E070E080E89FEFC111F9C03E
:1054900060E070E080E89FE7F4C05801BECFDB32E7
:1054A00029F485010E5F1F4FF501D181C0E0C8CFFF
:1054B00043E050E062E173E0C501F8D0892BE9F0E8
:1054C000F80110E000E020E030E0A9015F01B0ED5C
:1054D0008B2E8D0E89E08815C0F19C2E689491F872
:1054E0008C2F8870C2FF16C0811102C00F5F1F4F42
:1054F0003196D501DC91C92DE9CFE114F10429F0F1
:105500000E5F1F4FF7010083118360E070E080ECB5
:105510009FE7B7C0882311F001501109A5E0B0E062
:1055200015D29B01AC01220F331F441F551F280DBC
:10553000311D411D511D283999E93907490799E164
:105540005907B0F2C6609C2ED3CFAEEF8A1206C0C8
:10555000C3FD3CC09C2E689493F8CACFDF7DD53440
:10556000A9F580818D3239F4C061DF011296818105
:1055700062E070E006C0DF018B32C1F3119661E09A
:1055800070E080535D01A61AB70A8A30F8F4E0E8AB
:10559000CE16ECE0DE065CF4B601660F771F660FF0
:1055A000771FC60ED71ECC0CDD1CC80ED11C5D01AA
:1055B000FFEFAF1ABF0A8C9180538A3098F1C4FF75
:1055C00003C0D194C194D1080C0D1D1DC1FF09C0A9
:1055D000E114F10431F081E0A81AB108D701AD92CD
:1055E000BC92CA01B9017ED0C370C33009F490588F
:1055F0004B015C0120E030E0A90170D0882309F460
:105600003EC0C9E4D3E017FF05C01195019511090B
:10561000C1E3D3E06E01B8E1CB1AD10880E2E82EF5
:10562000F12C0EC0D501B3CFFE01259135914591E6
:1056300054910E191F09C501B401B5D04B015C018D
:10564000D501C4010E151F057CF72497F594E79446
:10565000CC16DD06A9F78A2F880F8B2F881F8F3F66
:1056600041F020E030E0A901C501B40137D081113B
:1056700006C082E290E080934C4690934D46C5016F
:10568000B401DF91CF911F910F91FF90EF90DF90C8
:10569000CF90BF90AF909F908F9008959111E6C0EA
:1056A000803219F089508550D0F70895FB01DC0154
:1056B0004150504088F08D9181341CF08B350CF4B2
:1056C000805E659161341CF06B350CF4605E861B66
:1056D000611171F3990B0895881BFCCF40D008F439
:1056E00081E00895E89409C097FB3EF49095809579
:1056F000709561957F4F8F4F9F4F9923A9F0F92F98
:1057000096E9BB279395F695879577956795B79515
:10571000F111F8CFFAF4BB0F11F460FF1BC06F5FFB
:105720007F4F8F4F9F4F16C0882311F096E911C00D
:10573000772321F09EE8872F762F05C0662371F02E
:1057400096E8862F70E060E02AF09A95660F771F42
:10575000881FDAF7880F9695879597F90895990F1E
:105760000008550FAA0BE0E8FEEF16161706E8072B
:10577000F907C0F012161306E407F50798F0621B4C
:10578000730B840B950B39F40A2661F0232B242B21
:10579000252B21F408950A2609F4A140A6958FEF40
:1057A000811D811D08950BD07BC06CD028F071D075
:1057B00018F0952309F05DC062C01124A5C081D006
:1057C000A0F3959FD1F3950F50E0551F629FF00114
:1057D000729FBB27F00DB11D639FAA27F00DB11D6D
:1057E000AA1F649F6627B00DA11D661F829F2227F6
:1057F000B00DA11D621F739FB00DA11D621F839F7D
:10580000A00D611D221F749F3327A00D611D231F52
:10581000849F600D211D822F762F6A2F11249F57A0
:1058200050408AF0E1F088234AF0EE0FFF1FBB1FC3
:10583000661F771F881F91505040A9F79E3F510562
:1058400070F017C061C05F3FECF3983EDCF38695C3
:1058500077956795B795F795E7959F5FC1F7FE2B0D
:10586000880F911D9695879597F908959927882710
:10587000089597F99F6780E870E060E008959FEFD2
:1058800080EC089500240A941616170618060906D7
:10589000089500240A9412161306140605060895A6
:1058A000092E0394000C11F4882352F0BB0F40F42E
:1058B000BF2B11F460FF04C06F5F7F4F8F4F9F4F6E
:1058C000089557FD9058440F551F59F05F3F71F0F0
:1058D0004795880F97FB991F61F09F3F79F0879557
:1058E0000895121613061406551FF2CF4695F1DFE0
:1058F00008C0161617061806991FF1CF8695710570
:10590000610508940895E894BB2766277727CB01A3
:1059100097F90895052E97FB16F400940FD057FDC4
:1059200005D024D007FC02D046F408C0509540951D
:10593000309521953F4F4F4F5F4F0895909580953B
:10594000709561957F4F8F4F9F4F089531D0A59FE0
:10595000900DB49F900DA49F800D911D112408956A
:10596000B7FFF4CFF3DF821B930B0895A1E21A2E49
:10597000AA1BBB1BFD010DC0AA1FBB1FEE1FFF1FF3
:10598000A217B307E407F50720F0A21BB30BE40B43
:10599000F50B661F771F881F991F1A9469F760958A
:1059A0007095809590959B01AC01BD01CF01089544
:1059B000A29FB001B39FC001A39F700D811D112450
:1059C000911DB29F700D811D1124911D0895505895
:1059D000BB27AA270ED064CF55DF30F05ADF20F066
:1059E00031F49F3F11F41EF44ACF0EF4E095E7FB2B
:1059F00040CFE92F66DF80F3BA1762077307840789
:105A0000950718F071F49EF57ECF0EF4E0950B2EFD
:105A1000BA2FA02D0B01B90190010C01CA01A00100
:105A20001124FF27591B99F0593F50F4503E68F15B
:105A30001A16F040A22F232F342F4427585FF3CF9C
:105A4000469537952795A795F0405395C9F77EF46D
:105A50001F16BA0B620B730B840BBAF09150A1F0B6
:105A6000FF0FBB1F661F771F881FC2F70EC0BA0F3C
:105A7000621F731F841F48F4879577956795B795C4
:105A8000F7959E3F08F0B3CF9395880F08F09927BC
:105A9000EE0F979587950895EED0E39513C10CD03E
:105AA000FFCEF7DE40F0EEDE30F021F45F3F19F07C
:105AB000E0CE511129CFE3CE04DF98F39923C9F347
:105AC0005523B1F3951B550BBB27AA276217730704
:105AD000840738F09F5F5F4F220F331F441FAA1FB8
:105AE000A9F333D00E2E3AF0E0E830D09150504078
:105AF000E695001CCAF729D0FE2F27D0660F771F26
:105B0000881FBB1F261737074807AB07B0E809F007
:105B1000BB0B802DBF01FF2793585F4F2AF09E3F9C
:105B2000510568F0A6CEF0CE5F3FECF3983EDCF373
:105B3000869577956795B795F7959F5FC9F7880F15
:105B4000911D9695879597F90895E1E0660F771F67
:105B5000881FBB1F621773078407BA0720F0621BF8
:105B6000730B840BBA0BEE1F88F7E095089504D0F1
:105B70006894B111C9CE0895ACDE88F09F5790F0BB
:105B8000B92F9927B751A0F0D1F0660F771F881F62
:105B9000991F1AF0BA95C9F712C0B13081F0B3DE7F
:105BA000B1E00895B0CE672F782F8827B85F39F01D
:105BB000B93FCCF3869577956795B395D9F73EF4C1
:105BC00090958095709561957F4F8F4F9F4F089569
:105BD00097FB0EF43FD001C0E894F92F96EBFF231A
:105BE00081F0121613061406440B9395F6958795CB
:105BF0007795679557954040FF23B9F71BC09927C4
:105C00000895882351F49850D2F7872B762F652F6B
:105C1000542F432F322F20E0B1F31216130614062F
:105C2000440B88233AF09A95440F551F661F771F3F
:105C3000881FCAF755234AF4440F551F11F460FF1B
:105C400004C06F5F7F4F8F4F9F4F880F969587954A
:105C500097F9089590958095709560955095409529
:105C6000309521953F4F4F4F5F4F6F4F7F4F8F4F75
:105C70009F4F089504CE2DDEE8F3E894E0E0BB27C3
:105C80009F57F0F02AED3FE049EC06C0EE0FBB0F46
:105C9000661F771F881F28F0B23A620773078407D0
:105CA00028F0B25A620B730B840BE3959A9572F746
:105CB000803830F49A95BB0F661F771F881FD2F784
:105CC000904863C0EF93E0FF06C0A2EA2AED3FE0F0
:105CD00049EC5FEB8EDEE4DD0F90039401FC9058FD
