:100200000C945D110C9487110C9487110C94DA26D0
:100210000C9487110C9487110C9487110C948711FE
:100220000C941C270C9487110C9487110C94871143
:100230000C9487110C9487110C9487110C948711DE
:100240000C9487110C9487110C94B42B0C94871187
:100250000C9487110C9487110C9487110C948711BE
:100260000C9487110C9487110C9438270C948711E7
:100270000C9487110C9487110C9487110C94E2262E
:100280000C9487110C9487110C9487110C940A27F5
:100290000C9487110C9487110C9487110C9487117E
:1002A0000C9487110C9487110C948A2B0C94871151
:1002B0000C9487110C9487110C9487110C9487115E
:1002C0000C9487110C9487110C9487110C9487114E
:1002D0000C9487110C946C260C9467260C94712650
:1002E0000C9487110C9487110C9487110C9487112E
:1002F0000C9487114E414E494E495459494E46CDB2
:10030000CCCC3D0AD7233C17B7D13877CC2B3295CC
:1003100095E6241FB14F0A000020410000C84200AA
:10032000401C4620BCBE4CCA1B0E5AAEC59D74AEC6
:10033000D580A83FD300408D142002A1C8DA1281D5
:100340007FD9F1DB40A4A6AF4E6F20454550524FF8
:100350004D20636F6E666967004C6F616465642051
:10036000454550524F4D20636F6E66696700526578
:10037000666572656E636520766F6C746167652073
:1003800063616C6962726174696F6E3A200020006B
:10039000204E6F64653A20002047726F75703A20D6
:1003A000003931354D487A003836384D487A0034B6
:1003B00033334D487A0020467265713A2000524628
:1003C0004D3639435720004F70656E456E65726734
:1003D000794D6F6E69746F722E6F726700456D6F25
:1003E0006E5069325F44425F3643545F33706861D8
:1003F00073655F70756C73655F6F6E5F616E616C66
:100400006F672056001E6C0D0E2060020103080766
:100410000A08010303050701040104060306060791
:1004200006060606060101060606060D0907080867
:10043000070709070105080709070907090807074A
:1004400007090D0809080204020508020606050648
:10045000060406060102060109060606060405044E
:10046000060709060706030103070700000000FE50
:10047000141E001E0000009090F89690F8969000D0
:100480001C00001C000000182422FF4242840810B7
:10049000103C1008041C22221CC0308C42408000FA
:1004A00000100C00000C10100C805C2262920C807A
:1004B000000C101010100C08101E00F00C021C6034
:1004C00080020CF080601C04140E14040000000074
:1004D00000404040F84040400000000C0000000098
:1004E000708080808000000000001000C038061876
:1004F000040000FC02020202FC0C101010100C0898
:1005000004FE00001C0C020282423C101814101061
:10051000100C02222222DC0C101010100C80403033
:100520000804FE0004040404041C04381612121209
:10053000E20C1010101804F844222222C40C1010EF
:1005400010100C020202E21A0600001C000000DC7F
:1005500022222222DC0C101010100C3C42424222BB
:10056000FC0810101008040810087040A0A010101B
:100570000800000004040890909090909000000003
:10058000000000081010A0A0400804040000000CA7
:10059000028242221C000014000000E01804C42261
:1005A000121212A2720408F00C30404C9090908805
:1005B0009C90504C200080E09C829CE080001804BD
:1005C00000000000000418FE2222222222DC1C105F
:1005D000101010100CF804020202020408040810A3
:1005E0001010100804FE020202020204F81C10108F
:1005F0001010100804FE2222222222221C101010A9
:10060000101010FE2222222222021C0000000000F4
:1006100000F804020202424244C8040810101010FC
:10062000100804FE2020202020FE1C0000000000F6
:100630001CFE1C00000000FE0C1010100CFE804080
:1006400020508804021C00000000040810FE000076
:10065000000000001C101010101010FE0C30C00024
:10066000C0300CFE1C000004180400001CFE04181E
:10067000608000FE1C00000004081CF80402020256
:10068000020204F8040810101010100804FE424280
:100690004242423C1C000000000000F8040202023A
:1006A000020204F8040810101014081C10FE424244
:1006B00042C242423C1C000000000408101C2222DE
:1006C0002242428C0C10101010100C020202FE028A
:1006D00002020000001C000000FE0000000000FEFE
:1006E00004081010100804061860800080601806C6
:1006F0000000000418040000000638C000C03C02DE
:100700003CC000C0380600000418040000000418B3
:10071000040000020C906060900C02100C000000BD
:10072000040C1002041820C020180402000000006D
:100730001C0000000000028242221A060210181457
:100740001010101010FE02FC800638C000000004DB
:100750001802FE80FC201C021C200000000000008B
:100760000000000000000080808080808080800287
:100770000400001088484848F00C101010081CFEB7
:1007800010080808F01C081010100CF008080810D9
:100790000C10101008F008080810FE0C10101008BB
:1007A0001CF048484848700C101010100808FC0A4B
:1007B0000A001C0000F008080810F84C909090887F
:1007C0007CFE10080808F01C000000001CFA1C0049
:1007D000FA807CFE8040A010081C0000000C10FE77
:1007E0001CF8100808F0100808F01C0000001C009D
:1007F00000001CF810080808F01C000000001CF0A5
:1008000008080808F00C101010100CF81008080860
:10081000F0FC081010100CF008080810F80C10106C
:100820001008FCF81008081C0000003048484890E8
:10083000081010100C08FE0808001C1010F800002A
:100840000000F80C101010081C1860800080601860
:100850000000041804000018E000E018E000E018B0
:100860000004180400041804000830C0C030081048
:100870000C00000C101860800080601800808C70E4
:100880000C00000808886818081018141010108050
:100890007C02007C80FEFC027C80807C004020206A
:1008A0006040402000000000000000FC040404043C
:1008B00004FC1C10101010101C697A151920600718
:1008C00003070F0C16100207070B0F0407030A0C8F
:1008D0000A0C0B0D0C0C0C0C0D03040D0E0E0A145F
:1008E000100D0F0F0C0B100E06080E0B100E110C36
:1008F000110E0D0F0D0F150E0D0E060A060E0F042C
:100900000B0C0B0C0C070C0B03060C02130B0C0C42
:100910000C080A080B0C110C0C0B0B020B0F00003F
:1009200000000000000000000000000000000000C7
:10093000000000000000000000000038F8F8007F10
:100940007F000C0C000000FCFC000000FCFC00011F
:100950000000000100000000000000000000000096
:10096000000000000080808080F0B8808080F898CF
:10097000808040606161F17F4341E1F97F616161A5
:10098000010000000F030000080F0100000000003C
:1009900000000000000000000000000000000080D7
:1009A000C0E06060FC60606060E000070F1C181829
:1009B000FF383030E0E080060E0C0C0CFF0C0C060B
:1009C000070301000000000000000000000000F02C
:1009D000F8180C0C1CF8F000000000C0E03808000B
:1009E0000000000000070F0C08080C0F07C0F03CC7
:1009F0000F0300F8F80C0C0C1CF8F00000000000CD
:100A0000000C0F030000000000070F0C080C0C077F
:100A100003000000000000000000000000000000D3
:100A2000000000000000000060F8F80C0C0C0CF84E
:100A3000F8600000000000C0F0F90F07060E1B313F
:100A400071E0C0FC3C00000003070E0C0C0C0C0C09
:100A500006070303070E0C00000000000000000062
:100A600000000000000000FCFC000100000000008D
:100A700080E0781C0C04FCFF0700000000010F3F21
:100A800078E0800000000000808080040C1C78E08A
:100A900080000000000087FFFC0080E0783F0F002E
:100AA0008080800000000010302060C0FCC060200A
:100AB000301002020301011F0101030206000000C1
:100AC0000000000000000000000000000000000026
:100AD00000000000000000000000E0E00000000056
:100AE000000018181818181818FFFF1818181818E8
:100AF00018000000000000000F0F000000000000C0
:100B000000000000000000000000000000000000E5
:100B100000000000000000E0FC3E0E0000000000AD
:100B2000000000000000181818181818180000001D
:100B300000000000000000000000000000000000B5
:100B4000000E0E0E000000000000000000C0F83C87
:100B500004000000C0F83F07000000E0781F070015
:100B6000000000000000000000000000000000C0C5
:100B7000F078180C0C0C1838F0E080FFFF00000033
:100B800000000000E1FF3F0107070C0C0C0C0C0EED
:100B9000070100000000000000000000000000004D
:100BA000606070F8FC0000000000000000FFFF0023
:100BB0000000000C0C0C0C0F0F0C0C0C0C000000B7
:100BC000000000000000000018180C0C0C1C187825
:100BD000F0E000000080C0E070381C0F0701000E3C
:100BE0000F0F0D0C0C0C0C0C0C0C0C00000000007A
:100BF000000000000000000018181C0C0C0C1C3831
:100C0000F8F000000000040E0E0E1BF9F0060E0CAA
:100C10000C0C0C0C0C0E0703000000000000000080
:100C20000000000000000080C06030F8F8F800000C
:100C300070786E6763616060FFFFFF6060000000B6
:100C400000000000000F0F0F000000000000000077
:100C50000000000000000000F8F818181818181814
:100C6000181800000707060606060E0CFCF8E0063A
:100C70000E0C0C0C0C0C0C0E070300000000000006
:100C80000000000000000080E0F0301818080C0C94
:100C90000C0000FFFF0C06060606060EBCF8F0016D
:100CA00003070E0C0C0C0C0E0703010000000000E3
:100CB00000000000000000181818181818181898DC
:100CC000F8783800000000C0F0781E07010000002E
:100CD000000C0F07010000000000000000000000F1
:100CE00000000000000000E0F0B81C0C0C0C0C1818
:100CF000F8F000F1F31F0E060C0C1C1EF3F1C003FC
:100D0000070E0C0C08080C0C070301000000000083
:100D10000000000000000080E0F018180C0C0C1817
:100D200038F0E0C0010F1F18383030301098FFFF46
:100D30000F00000C0C0C0C0C0E060303000000004E
:100D4000000000000000000000000080808003031D
:100D5000030E0E0E0000000080808000030303E0FD
:100D6000FC3E060000000000000000000000000043
:100D7000808080C01838386C6CC6C6C3838101017E
:100D80000000000000000000000101030306000055
:100D90000000000000000000000000000000000053
:100DA000000000000000000000C6C6C6C6C6C6C6D9
:100DB000C6C6C6C6C6C6C6000000000000000000C9
:100DC0000000000000000000000000000000000023
:100DD000000000C0C0808000000000000000000093
:100DE00000000001018383C3C6666C3C38381006DE
:100DF00003030301010000000000000000000000E8
:100E0000000000000000000000000018180C0C0C8E
:100E10001C18F8F0E000000078780C0E07030000C2
:100E200000000C0C000000000000000000000000AA
:100E30000000000080C06030181888888C8C8C8876
:100E400088183070E080007CFF010000FCFF830107
:100E500001010181FF00000000FF7C0003070C1866
:100E60003031232363636361230302020301000023
:100E70000000000000000000000000000000000072
:100E80000000000000000000C0F83838F8E08000E2
:100E90000000000000C0F87F6F61606060677FFC49
:100EA000E00000080E0F0300000000000000000139
:100EB0000F0F0C0000000000000000000000000008
:100EC000000000F8F8F8181818181818B8F0E00022
:100ED000FFFFFF0C0C0C0C0E0E0F1DF8F00F0F0F88
:100EE0000C0C0C0C0C0C0E0607030000000000009C
:100EF000000000000000000080E0F03818180C0C22
:100F00000C1C181838301EFFF38000000000000091
:100F1000000000000000000307070E0C0C0C0C0C76
:100F20000C0E06060000000000000000000000009B
:100F3000000000F8F8F8181818181818183070E0A1
:100F4000C000FFFFFF000000000000000080F3FF72
:100F50003F0F0F0F0C0C0C0C0C0E060703030000C8
:100F6000000000000000000000000000000000F889
:100F7000F8F8181818181818181818FFFFFF0606A0
:100F8000060606060606060F0F0F0C0C0C0C0C0CC2
:100F90000C0C0C000000000000000000000000F835
:100FA000F8F81818181818181818FFFFFF0C0C0C70
:100FB0000C0C0C0C000F0F0F0000000000000000D4
:100FC00000000000000000000000000080E0F030A1
:100FD0001818080C0C0C0C181838301EFFF3800081
:100FE000000000001818181838F8F800000303076C
:100FF0000E0C0C0C0C0C0C0C0E0707000000000073
:101000000000000000000000000000F8F8F80000F8
:10101000000000000000F8F8F8FFFFFF06060606D3
:1010200006060606FFFFFF0F0F0F0000000000007E
:1010300000000F0F0F000000000000000000000083
:101040000000000808F8F808080000FFFF00000C86
:101050000C0F0F0C0C000000000000000008080836
:10106000F8F8F80000000000FFFFFF0C0C0C0C0C5F
:101070000707010000000000000000F8F8F8000079
:101080000080C0E07038180800FFFFFF1C1E1F7FA3
:10109000F1E0C0000000000F0F0F00000000000191
:1010A00003070E0C08000000000000000000000014
:1010B000000000F8F8F80000000000000000FFFF4A
:1010C000FF00000000000000000F0F0F0C0C0C0CC4
:1010D0000C0C0C0C0000000000000000000000F8E8
:1010E000F8F878E0800000000080E07838F8F8FF39
:1010F000FFFF0001071E78703E07010000FFFF0F91
:101100000F0F00000000000000000000000F0F00A3
:10111000000000000000000000000000000000F8D7
:10112000F8F838F0C08000000000F8F8F8FFFFFF82
:101130000000030F3EF8E080FFFFFF0F0F0F0000DD
:101140000000000003070F0F0F0000000000000068
:101150000000000000000000C0E0F03818180C0C7F
:101160000C181838F0E080001EFFF380000000002B
:10117000000000000080F3FF3E00000307060E0C95
:101180000C0C0C0C0E060703000000000000000011
:101190000000000000000000000000F8F8F8181837
:1011A0001818183870E0C0FFFFFF10101818181C2E
:1011B0000E07030F0F0F00000000000000000000EA
:1011C000000000000000000000000000C0E0F03857
:1011D00018180C0C0C181838F0E080001EFFF38073
:1011E00000000000000000000080E7FF1E00000378
:1011F00007060E0C0C0C1C7CFEC6C783C0C000008A
:10120000000000000000000000000080808000F866
:10121000F8F818181818181878F0C00000FFFFFF29
:101220001818183878ECC7870100000F0F0F00005E
:101230000000000001030F0E080000000000000085
:1012400000000000000000E0F038181C0C0C0C1C22
:10125000181818000307070E0C0C0C1C1C1878F04B
:10126000E0060E0C0C0C0C0C0C0C0E07030100001D
:1012700000000000000000000000001818181818F6
:1012800018F8F8F8181818181818000000000000CE
:10129000FFFFFF0000000000000000000000000F42
:1012A0000F0F000000000000000000000000000020
:1012B00000000000000000F8F8000000000000003E
:1012C0000000F8F8FFFFC00000000000000000FF71
:1012D000FF0003070E0C0C0C0C0C0C0707010000A0
:1012E000000000000000000000000038F8E080006E
:1012F000000000000000C0F878080001073FFCE093
:101300000000C0F07E0F03000000000000010F0F7E
:101310000E0F0300000000000000000000000000AD
:101320000000000000000008F8F880000000000045
:10133000F078F8F00000000000C0F87800000F7F9F
:10134000F88000F07F0700000FFFF000C0FC7F076F
:101350000000000000070F0F070000000000000F52
:101360000F0F070000000000000000000000000058
:101370000000000000000000000000001838F0E04D
:1013800080000000C0E078381800000080E1773F5E
:101390001E7FF3C0800000080C0F03010000000056
:1013A0000003070E0C000000000000000000000019
:1013B0000000001878F0C08000000080E0F03808DD
:1013C0000000000307FEFCFE070100000000000013
:1013D00000000F0F0F0000000000000000000000E0
:1013E000000000000000000018181818181818183D
:1013F00098F8F83818000080C0E0703C0E07030130
:101400000000000C0E0F0D0C0C0C0C0C0C0C0C0C3A
:101410000C0000000000000000000000000000FCC4
:10142000FC04040404FFFF00000000FFFF80808034
:10143000808080808080800C3CF8C000000000002C
:1014400000000001073EF8C000000000000000009E
:1014500000073F78C000000000000000000000040A
:10146000040404FCFC00000000FFFF80808080FF7B
:10147000FF808080808080000080C0E03818387055
:10148000E0800000000C0E070100000000000003D7
:10149000070E08000000000000000000000000002F
:1014A000000000000000000000000000000000003C
:1014B000000000000000000000000000000000002C
:1014C00000000000000000000000000000C0C0C0DC
:1014D000C0C0C0C0C0C0C0C0C0C0C0C0000000000C
:1014E0000000000000000000000000030F1C1000BE
:1014F00000000000000000000000000080808080EC
:1015000080808080800080E1E1313131111919FF44
:10151000FF03070F0C0C0C0C0C060F0F0000000053
:1015200000000000000000FCFC0000808080808043
:10153000000000FFFF030101010101038FFEF80F0E
:101540000F0E0C0C0C0C0C0E07030000000000002A
:10155000000000000000000000008080808080808B
:101560008000F8FE8F030101010101010100030762
:101570000E0C0C0C0C0C0C04000000000000000011
:1015800000000000000080C0C0C0C08080FCFCF8EB
:10159000FE8F03010000010103FFFF0003070E0C93
:1015A0000C0C0C06060F0F000000000000000000ED
:1015B0000000000000008080C0C0C0808000007873
:1015C000FEFF333131303131333F3C000307060C2D
:1015D0000C0C0C0C0C0E06000000000000000000BB
:1015E00000000080E0F8BC8C8C8C01FFFF01010141
:1015F00001000F0F000000000000000000000000CC
:10160000000080808080808080000078FECF030111
:101610000101010103FFFE0003C7868E8C8C86C684
:10162000F77F0F000080808080808000000000FC39
:10163000FC000080808080808000FFFF03030101A8
:10164000010103FFFE0F0F000000000000000F0F5C
:1016500000000000000000000000009C9C00FFFF54
:10166000000F0F00000000008080809C9C000101A2
:1016700001FFFF808080C0FF7F808080800000FCB1
:10168000FC00000000000080808000FFFFE0707818
:10169000FCCE87030100000F0F00000000010307CC
:1016A0000E0C08000000000000000000000000FC1C
:1016B000FCFFFF0F0F000080800000808080808092
:1016C00000000080808080808000FFFF0303010114
:1016D000010107FFFF030101010103FFFF0F0F00DD
:1016E0000000000000000F0F0000000000000F0FBE
:1016F00000000000000000000000000000000000EA
:101700000000008080000080808080808000FFFFDB
:1017100003030101010103FFFE0F0F0000000000A1
:1017200000000F0F0000000000000000000000009B
:10173000000080C0C0C0C080000000F8FE8F030120
:101740000000010107FFFC0003070E1C18181C0C09
:1017500007070100000000000000000000000080FA
:101760008000008080808080000000FFFF03010176
:10177000010101038FFE78FFFF0E0C0C0C0C0C0610
:101780000701008080000000000000000000000051
:10179000000080808080808080808078FECF030180
:1017A0000101010103FFFF0003070E0C0C0C0C06E6
:1017B00007FFFF00000000000000000000808080A4
:1017C00080000080808080FFFF0703010101010F7E
:1017D0000F000000000000000000000000000000FA
:1017E000008080808080808080001F3F3131716167
:1017F00061E1C3060E0C0C0C0C0C0C07070000007A
:101800000000000000000080F8F8808080808001E7
:10181000FFFF01010101010003070F0C0C0C0C007C
:1018200000000000000000808000000000000000B8
:101830008080FFFF00000000000000FFFF03070F93
:101840000C0C0C0C06060F0F00000000000000003E
:101850000000008080000000000000000080800187
:10186000073FF8E00000C0F83E0F0100000000074D
:101870000F0F070100000000000000000000000042
:101880000000008080000000000000808000000058
:1018900000008080011FFFF00080F83F070F7EF0FE
:1018A0008080F87F070000000F0F0F01000000008C
:1018B000030F0F0700000000000000000000000000
:1018C0000000000000000080808000000000000098
:1018D0008080800001038FDCF8F8FC8E070100088F
:1018E0000C0F0301000001030F0E080000000000B0
:1018F00000000000000000808000000000000000E8
:1019000000808001073FFCE08000E0F83E0F01000E
:10191000000080F37F1F07000000000000008080AF
:101920000000000000000080808080808080808037
:101930008000010181C1E1711D0F0703000C0E0F32
:101940000D0C0C0C0C0C0C0C000000000000000036
:101950000000000000000000F8F80C0C0404303017
:101960003078CE87030000000000000000037FFEF7
:10197000C08080800000000000000000008080FC2B
:10198000FCFFFFFFFF808004040C0C3CF8E000002B
:101990000000000000000087CF5870303080808049
:1019A000C0F07F1F000000000080800000000000E9
:1019B0000000000000000000000000000000000027
:1019C000000060781C0606060C1830606060603EFF
:1019D0001E000000000000000000000000000000E9
:1019E0000000000000000000000000000000002FC8
:1019F00003198040004A534F4E20466F726D617448
:101A0000204F6666004A534F4E20466F726D6174D8
:101A1000206F6E005246206F6666005246206F6E41
:101A20000070756C736520706572696F64203D206D
:101A30000070756C736573203D2000646174616C87
:101A40006F67203D2000694C656164006943616CEB
:101A5000007643616C203D200043616C69627261D5
:101A600074696F6E3A002064426D002C20002C20B7
:101A70004E6F64652000204D487A2C2047726F75A8
:101A800070200042616E64200053657474696E6753
:101A9000733A0000030C0F30333C3FC0C3CCCFF08F
:101AA000F3FCFF0A00202868696464656E292E0033
:101AB000206279746573002C20446174612073691D
:101AC0007A653A2000205369676E61747572653AD1
:101AD00020004E6F206461746120626C6F636B2024
:101AE000666F756E64202D20454550524F4D206124
:101AF00070706561727320746F20626520666F720A
:101B00006D617474656420746F204F454D2053746B
:101B1000616E646172642062757420756E757365A0
:101B2000642E000A002062797465732C206E6F7435
:101B300020666F726D617474656420746F204F4508
:101B40004D205374616E646172640053697A653A22
:101B50002000446F6E652E204E657720636F6E66A1
:101B6000696720736176656420746F204545505223
:101B70004F4D00536176696E672E2E2E00536B65B4
:101B80007463682077696C6C206E6F772072657360
:101B900074617274207573696E672064656661751F
:101BA0006C7420636F6E6669672E0052657365748E
:101BB00074696E672E2E2E0020000A417661696CD2
:101BC00061626C6520636F6D6D616E64733A0A6C5F
:101BD00009092D206C69737420746865207365741D
:101BE00074696E67730A7209092D20726573746FC8
:101BF000726520736B657463682064656661756CDB
:101C000074730A7309092D207361766520736574F6
:101C100074696E677320746F20454550524F4D0AAA
:101C20007609092D2073686F77206669726D776178
:101C300072652076657273696F6E0A7A09092D20C4
:101C40007A65726F20656E657267792076616C7552
:101C500065730A7809092D20657869742C206C6FEA
:101C6000636B20616E6420636F6E74696E75650AC4
:101C70003F09092D2073686F772074686973207499
:101C800065787420616761696E0A0A773C783E095D
:101C9000092D207475726E2052464D205769726569
:101CA0006C6573732064617461206F66663A207896
:101CB000203D2030206F72206F6E3A2078203D202A
:101CC000310A623C6E3E09092D2073657420722E24
:101CD000662E2062616E64206E203D206120736953
:101CE0006E676C65206E756D6572616C3A2034208C
:101CF0003D203433334D487A2C2038203D2038366F
:101D0000384D487A2C2039203D203931354D487ADC
:101D100020286D617920726571756972652068612E
:101D2000726477617265206368616E6765290A7005
:101D30003C6E6E3E09092D20736574207468652021
:101D4000722E662E20706F7765722E206E6E202D9B
:101D500020616E20696E74656765722030202D20C9
:101D6000333120726570726573656E74696E6720B9
:101D70002D31382064426D20746F202B3133206464
:101D8000426D2E2044656661756C743A20323520B0
:101D9000282B372064426D290A673C6E6E6E3E091F
:101DA0002D20736574204E6574776F726B204772B7
:101DB0006F757020206E6E6E202D20616E20696E12
:101DC000746567657220284F454D206465666175AE
:101DD0006C74203D20323130290A6E3C6E6E3E0913
:101DE000092D20736574206E6F6465204944206E50
:101DF0003D20616E20696E7465676572202873747A
:101E0000616E64617264206E6F6465206964732022
:101E100061726520312E2E3630290A0A643C7878AA
:101E20002E783E092D2078782E78203D206120667E
:101E30006C6F6174696E6720706F696E74206E7567
:101E40006D62657220666F722074686520646174CB
:101E5000616C6F6767696E6720706572696F640A8D
:101E6000633C6E3E09092D206E203D203020666FB8
:101E700072204F46462C206E203D203120666F7226
:101E8000204F4E2C20656E61626C6520766F6C74FD
:101E90006167652C2063757272656E7420262070F0
:101EA0006F77657220666163746F722076616C75FE
:101EB000657320746F2073657269616C206F75742F
:101EC00070757420666F722063616C6962726174F0
:101ED000696F6E2E200A6A3C6E3E09092D207475CA
:101EE000726E204A534F4E2053657269616C2066B2
:101EF0006F726D6174206F6E20283129206F7220FF
:101F00006F6666202830292E0A663C78783E0909DB
:101F10002D207878203D20746865206C696E6520DE
:101F20006672657175656E637920696E20487A3ACC
:101F3000206E6F726D616C6C792065697468657272
:101F4000203530206F722036300A6B3C783E203CC2
:101F500079792E793E203C7A7A2E7A3E0A09092D2B
:101F60002043616C69627261746520616E20616EEC
:101F7000616C6F67756520696E7075742063686148
:101F80006E6E656C3A0A0909202078203D20612098
:101F900073696E676C65206E756D6572616C3A2051
:101FA00030203D20766F6C746167652063616C69D9
:101FB00062726174696F6E2C2031203D2063743130
:101FC0002063616C6962726174696F6E2C203220CB
:101FD0003D206374322063616C6962726174696F61
:101FE0006E2C206574630A0909202079792E7920E6
:101FF0003D206120666C6F6174696E6720706F6947
:102000006E74206E756D62657220666F72207468E2
:102010006520766F6C746167652F63757272656E8B
:10202000742063616C6962726174696F6E20636FA2
:102030006E7374616E740A090920207A7A2E7A20F0
:102040003D206120666C6F6174696E6720706F69F6
:102050006E74206E756D62657220666F7220746892
:10206000652070686173652063616C696272617478
:10207000696F6E20666F72207468697320632E74B6
:102080002E20287A206973206E6F74206E65656437
:1020900065642C206F722069676E6F7265642069B9
:1020A0006620737570706C6965642C207768656E46
:1020B0002078203D2030290A09092020652E672E2E
:1020C000206B30203235362E380A09092020202096
:1020D0002020206B312039302E3920322E30300A2A
:1020E000613C78782E783E092D2078782E78203D36
:1020F000206120666C6F6174696E6720706F696E15
:1021000074206E756D62657220666F7220746865EA
:1021100020617373756D656420766F6C746167659B
:10212000206966206E6F20612E632E206973206403
:10213000657465637465640A6D3C783E203C79790A
:102140003E092D206D657465722070756C73652075
:10215000636F756E74696E673A0A090920202078EA
:10216000203D203020666F72204F46462C2078207C
:102170003D203120666F72204F4E2C203C79793EF5
:10218000203D20616E20696E746567657220666F00
:1021900072207468652070756C7365206D696E6956
:1021A0006D756D20706572696F6420696E206D7346
:1021B0002E202879206973206E6F74206E65656407
:1021C00065642C206F722069676E6F72656420777A
:1021D00068656E2078203D2030290A00456E6572C2
:1021E00067792076616C7565732073657420746FF0
:1021F000207A65726F00436F6E74696E75696E67E1
:102200002E2E2E005246206F6666005246206F6EBC
:1022100000456D6F6E547856342056002064426D30
:102220000070203D20004E6F646520006F666600E0
:10223000206D730050756C7365733A200020002088
:102240000043616C3A206B0047726F757020004646
:102250007265713A2000207300646174616C6F676D
:1022600020706572696F643A2000204D487A002C16
:102270007066002C49002C70756C73653A002C4513
:10228000002C50002C56004D53473A007D002C2264
:1022900070756C7365223A002C2245002C22500088
:1022A0002C2256007B224D5347223A000A00000898
:1022B0000A400CFFC000C000DE2B11241FBECFEF70
:1022C000CDBFDFE7DEBF11E4A0E0B0E4E0E2F9E873
:1022D00000E00BBF02C007900D92A436B107D9F7FA
:1022E00021E6A4E6B1E401C01D92A730B207E1F7F0
:1022F00011E1CDE5D1E104C02197FE010E945E44C9
:10230000CC35D107C9F70E94682D0C948E440C94EB
:102310000001E091785EF091795E8581837009F427
:1023200043C0838180FF40C050917B5E5E7F30E080
:1023300020E090E04581842F83702F5F3F4F213C48
:102340006DE5360740F0823049F1813049F184E093
:1023500093E094830895642F6C7021F08CE0858362
:1023600082E1F6CF813021F4578330E020E0E2CFE4
:10237000823001F746FFDECF44FF04C0992341F3CA
:1023800083E0E6CF80917C5E981760F4A92FB0E0DF
:10239000AC57B14A8C9180879F5FE7CF85E0D8CF5B
:1023A00081E1D6CF80E0D4CF80E10895CF92DF9253
:1023B000EF92FF92CF93DF936A01815096E1899F5C
:1023C000E0011124CE5FD14A888323EA33E240E062
:1023D00051E4CB01B6010E94564120914940309111
:1023E0004A4040914B4050914C400E9456416B01F5
:1023F0007C0160915C5870915D5890E080E00E9493
:10240000F5409B01AC01C701B6010E94CF42698330
:102410007A838B839C831D828AE097EDA3E2BEE3DF
:102420008E839F83A887B9871A861B861C861D8684
:102430001E86DF91CF91FF90EF90DF90CF900895AF
:102440008091EC608D3011F42D9A0895873011F44D
:102450000F9A0895813109F44B9A089500009091E4
:10246000F060911109C0809344098091430987FF6E
:10247000FCCF809144090895809364098091630999
:1024800087FFFCCF8091640908958091EC608D30C6
:1024900011F42D980895873011F40F980895813123
:1024A00009F44B980895CF93DF93D82FC62FEDDF13
:1024B0008D2F8068D3DF8C2FD1DFDF91CF91C0CFFC
:1024C000CF93C82FE2DF8C2FC9DF80E0C7DFC82F92
:1024D000B7DF8C2FCF910895CF939091C257981763
:1024E00091F0C82F81E0ECDF837E682F6C2B81E0B8
:1024F000DADF8091C257811104C087E2E1DF87FFF4
:10250000F8CFC093C257CF9108950F931F93CF93E5
:10251000DF93EC0184E0E0DF2097D9F08881882305
:10252000C1F0B3DF8EEB9ADF8E01005F1F4F899100
:1025300095DFC017D107D9F783DFC1E08DE3C0DF96
:102540008E7F682F6C2B8DE3DF91CF911F910F91C0
:10255000AACFC0E0F3CF1092815710927F5710920C
:10256000805710927D5710927E5710927C57109290
:102570007B5788E2A5DF82FF06C08DE3A1DF682FCD
:1025800064608DE390DF80E1A7CFAF92BF92CF92DE
:10259000DF92EF92FF920F931F93CF93DF936C0123
:1025A0007B018B01040F151FEB015E01AE18BF0804
:1025B000C017D10759F06991D601ED91FC910190B6
:1025C000F081E02DC6010995892B79F7C501DF91CE
:1025D000CF911F910F91FF90EF90DF90CF90BF9020
:1025E000AF900895FC0155894689252F30E0842F4E
:1025F00090E0821B930B541710F0CF96089501972B
:102600000895FC0193898489981761F0A489AE0F1D
:10261000BF2FB11D57968C9194899F5F9F73948BA8
:1026200090E008958FEF9FEF0895FC0193898489CE
:10263000981731F08489E80FF11D878990E008959B
:102640008FEF9FEF0895FC0193892489892F90E0F3
:10265000805C9F4F821B91098F7399270895CF93B8
:10266000DF93EC01E881F9810680F781E02D09957F
:10267000EC85FD85868116828581158280E48483C0
:102680008C898B8B1A8ADF91CF9108958F929F92BC
:10269000AF92BF92FF920F931F93CF93DF938C0162
:1026A0004A015B01D22FC32FDC0152968C915297C5
:1026B00080FF07C0ED91FC910288F389E02DC801ED
:1026C0000995D11101C0D3E0FD2EE894F2F8DC2F7A
:1026D000D095D07CB1E68B16B3EE9B06B6E1AB0687
:1026E000B10428F0D260B694A7949794879460E0E0
:1026F00078ED88EB95E0A50194010E943942C9016B
:102700002034310510F480E490E03C2F3B72D7FD7B
:1027100030684D2F487C30FD41605FB7F894D80198
:102720001C96ED91FC911682F7828087918735FF88
:102730008FC04F7781E084878FEF85873F7D35831A
:10274000D683F8012189C08986859785FC0133E00D
:10275000239FE00DF11D1124659174912C1708F051
:1027600059C0272F46FF76C0793288F430E0F9014E
:10277000EF5AFF4BA081AF3F51F026583F4BF90174
:10278000308120E2329FF0011124FC5FA18347FFDA
:102790002AC021E0270F293230F530E0F901EF5A45
:1027A000FF4BD081DF3FF9F0F901E658FF4BA081E4
:1027B000F0E2AF9FD0011124BC5F2D553F4BF901D2
:1027C0001081F0E0E0E0183030F49D01205F3F4FD1
:1027D000F901E10FF11D3FB7F8941296DC932081C7
:1027E000286020833FBF40FF15C023E0270F293218
:1027F00088F430E0F901EF5AFF4B40814F3F51F030
:1028000026583F4BD901EC91B0E2EB9FF001112427
:10281000FC5F4183FC0123E0C29FE00DF11D112408
:10282000319625913491F901FF27EE51FA4F9081AD
:10283000832F80958923682B60835FBFDF91CF91C1
:102840001F910F91FF90BF90AF909F908F90089530
:10285000148674CF342F307509F499CF793208F08B
:1028600096CF30E0F901EF5AFF4BD081DF3F09F4FA
:102870008ECFF901E658FF4BA081E0E2AE9FD00178
:102880001124BC5F2D553F4BF9011081F0E0E0E0D1
:10289000183030F49D01205F3F4FF901E10FF11D29
:1028A0003FB7F8941296DC932081286020833FBFC5
:1028B0006ECFFC010FB607FE04C080911101882382
:1028C000A9F0A485B58514968C91149785FF0EC048
:1028D00095898689981739F015968C9115978F7D73
:1028E00015968C930895E8940C947C2608950F9384
:1028F0001F93CF93DF93EC018A89982F91609A8B75
:102900002D899E8929130AC0EC85FD85948195FF48
:1029100005C081FD0DC080E4848312C0062F1D898F
:102920001F5F1F738E89811315C0CE01C2DFFACFDE
:1029300085818F77806490E49483EC85FD85858321
:10294000EC85FD85628381E090E0DF91CF911F915E
:102950000F910895ED89EC0FFD2FF11DE95AFF4FFE
:1029600000831D8BEC85FD858A8981FF09C08581E7
:102970008F77806690E49483EC85FD858583E3CF33
:1029800085818062FBCFEF92FF920F931F93CF93CD
:10299000DF938C017B01D0E0C0E0F701EC0FFD1F5D
:1029A0006491662331F0C801A2DF892B11F02196D2
:1029B000F4CFCE01DF91CF911F910F91FF90EF9057
:1029C000089595CFCF93DF93EC018A8980FF0BC0E8
:1029D000EC85FD85858185FD03C0848186FD03C06E
:1029E000CE0167DFF5CFDF91CF91089581E00895A3
:1029F0000F98079A20E533EC93E0179A44E1F90128
:102A00003197F1F74150D9F7482F179AF9013197CB
:102A1000F1F7179A59E0F9013197F1F75150D9F7C9
:102A2000415099F7915049F7E7CF9FB7F894E0915B
:102A30002A0BF0912B0B8091260B20912F57309170
:102A4000305740913157509132579FBF80FF08C097
:102A5000EC3E8CE2F80720F42F5F3F4F4F4F5F4F63
:102A60000F011694079416940794169407941694DD
:102A70000794F00116940794E00DF11D1694079445
:102A8000102C169401181694010C16940118169423
:102A9000010C1694011816941694010C1124E019D7
:102AA000F109A8EEB3E00E9429426E0F7F1F811D3D
:102AB000911D08958F929F92AF92BF92CF92DF9215
:102AC000EF92FF926B017C01B0DF4B015C01C114FE
:102AD000D104E104F104B1F0A8DF681979098A0989
:102AE0009B09683E73408105910588F321E0C21A75
:102AF000D108E108F10888EE880E83E0981EA11C39
:102B0000B11CE5CFFF90EF90DF90CF90BF90AF90DA
:102B10009F908F9008952FB7F89460912F577091E0
:102B2000305780913157909132572FBF089581507F
:102B300090913A572FE5929FF0011124EE56F74AF3
:102B400045E1849F900111242A5F324A208331831A
:102B5000615026E1629FB00111246E5F714A628369
:102B6000738364837583E25AFF4F21E02083E82F4B
:102B7000F0E0E35CF84A90839F5F90933A570895A2
:102B80008F929F92AF92BF92CF92DF92EF92FF927D
:102B90000F93CF936B017C0120E030E040E05FE3D6
:102BA0000E94F14087FF05C0C12CD12CE12C8FE39E
:102BB000F82EC0921140D0921240E0921340F09251
:102BC00014408090375790903857C091395720E87B
:102BD00036E948E15BE4C701B6010E9456416B014A
:102BE0007C01B12CA12CC501B4010E94F5409B01D0
:102BF000AC01C701B6010E94CF420E943C436B0169
:102C00007C0160E876E988E990E0A50194010E94E2
:102C10003942CA01B90100914640202F30E050E00E
:102C200040E00E94394244275527C701B601621B84
:102C3000730B840B950B2C2F30E050E040E00E948A
:102C4000394220931E4F30931F4F4093204F509393
:102C5000214FCF910F91FF90EF90DF90CF90BF90D9
:102C6000AF909F908F900895DC01ED91FC91F170F1
:102C7000FC5E80810895CF92DF92EF92FF920F93D6
:102C80001F93CF93DF9300D0CDB7DEB76C017C01EB
:102C900003E010E009831A83CE010196E5DFF70116
:102CA00081937F010F5F1F4F0730110599F7C60110
:102CB0000F900F90DF91CF911F910F91FF90EF90A8
:102CC000DF90CF9008950F931F93CF93DF9300D0A1
:102CD00000D0CDB7DEB78C0119821A82CE010196E1
:102CE000C3DF8F34F9F481E090E089839A83CE01C9
:102CF0000196BADF8534B1F482E090E089839A834B
:102D0000CE010196B1DF8D3469F481E00115110522
:102D100051F0CE010196AFDF81E02B813C8120177D
:102D2000310709F080E02496CDBFDEBFDF91CF915F
:102D30001F910F9108951F93CF93DF93EC01162FEE
:102D400093DF8117B1F09FB780910210282F227076
:102D500081FDFACFF8948DE984BF2093001023E120
:102D600084BF20930010E881F981F170FC5E10832C
:102D70009FBFCE01DF91CF911F910895CF92DF9237
:102D8000EF92FF920F931F93CF93DF9300D0CDB7B5
:102D9000DEB76C017C0103E010E009831A83F701C0
:102DA00061917F01CE010196C6DF0F5F1F4F073093
:102DB000110599F7C6010F900F90DF91CF911F91E8
:102DC0000F91FF90EF90DF90CF9008950F931F9396
:102DD000CF93DF9300D0CDB7DEB70091685E10913E
:102DE000695E80916A5E90916B5E081719079CF48A
:102DF000C801957189839A836FEFCE0101969BDF9D
:102E00001092645E1092655E8091625E9091635E46
:102E1000080F191FE6CF0F900F90DF91CF911F91F0
:102E20000F910895CF93DF93EC018D85882329F0CE
:102E300081508D87DF91CF9108959C818E81981765
:102E4000C8F788896827E881F9810084F185E02D39
:102E500042E0CE0109958C818F5F8C83EBCFDC0142
:102E6000ED91FC910084F185E02D40E009940F93F1
:102E70001F93CF938C01FC016483C085C60F6C2F18
:102E80006F70EDDF6C2F62956F706061C801CF913C
:102E90001F910F91E4CFFC01278126952695269559
:102EA000621730F465832385620F6770606BD7CF3C
:102EB00008951F93CF93DF93EC01142F8E81681731
:102EC00010F4CE01D4DF612FCE01DF91CF911F919D
:102ED000E2CFCF92DF92EF92FF920F931F93CF93A7
:102EE000DF93EC01F62EC42ED22E1D868F8186959F
:102EF00086958695081710F00FEF080F1D2D011706
:102F000070F0412F6F2DCE01D4DFEF2CCE1428F0BE
:102F10006889CE0187DFE394F9CF1F5FF0CF4D2D95
:102F20006F2DCE01DF91CF911F910F91FF90EF9008
:102F3000DF90CF90BECF0F93CF93DF93C1EFD0E65A
:102F40001B861A8660E4CE018ADF0F8106950695FE
:102F5000069501504E81415020E060E0CE01B9DF7E
:102F6000DF91CF910F9108952F923F924F925F92F0
:102F70006F927F928F929F92AF92BF92CF92DF9289
:102F8000EF92FF920F931F93CF93DF93CDB7DEB7EE
:102F90002697CDBFDEBFDC011E962D913C912115F9
:102FA000310509F46CC18D839E83F90132966490DA
:102FB00031964491E42EF12CB7E0EB0EF11C53E076
:102FC000F594E7945A95E1F7E98231965491319658
:102FD000E4916D3009F5FC018681811118C081E012
:102FE00090E02696CDBFDEBFDF91CF911F910F916C
:102FF000FF90EF90DF90CF90BF90AF909F908F9019
:103000007F906F905F904F903F902F90089560E079
:103010008D819E812CDFE3CF6A3009F063C0AD81E2
:10302000BE8116968C911697882319F060E0CD0129
:103030001EDFED81FE8101890E9DE02C112465814A
:103040006E0D8485882349F027812695269526953F
:103050008E2D821B860F181624F08D819E811BDF1A
:10306000BECFAD81BE811B969C911B97890F877047
:103070001B968C931B972E1915962C9315971E96BD
:10308000ED91FC91309761F13396E491F0E0379641
:1030900033E0F595E7953A95E1F70E9F002D112461
:1030A000EFEFE20F0E0FED81FE814681415064810A
:1030B000CF010FDFAD81BE811C968C911C978130B2
:1030C00009F08DCF1B966C911B97660F660F660FEC
:1030D0006F731A966C931A976064CD01C0DE7FCF30
:1030E00000E0DECF651708F4CAC08E2F90E0FC0127
:1030F000E50FF11D6E171F060CF0C1C089010A5FB4
:103100001F4F651BED81FE8171855189759F502D83
:1031100011245C83F90154912F5F3F4FF9012491F1
:10312000352F2230310508F06DC06E9CC0016F9CB8
:10313000900D1124689FF001699FF00D11240E0F6E
:103140001F1F512CAD81BE811496BC91BA83ED81B5
:10315000FE812580F585FB83862C912CAA24A394DF
:10316000B12C312C8981381608F087C0412CAD81F3
:10317000BE8151968C915197481608F077C0EB812B
:103180001D96EC93311002C0442049F0AD81BE8100
:1031900015964C9115974F5F6A81CD018ADED12C2F
:1031A000C12CC61408F056C0F801EC0DFD1D74903A
:1031B000552061F0EA14FB0449F4E72DF0E0052CFA
:1031C00002C0F595E7950A94E2F77E2EED81FE8127
:1031D0008189823079F4442009F438C072948FE0F8
:1031E0007822E72DF0E0ED56F54E7490672D8D8135
:1031F0009E8118DE672D8D819E8114DE8FEFC81AA7
:10320000D80ACFCF477028E0522E541A411101C07E
:10321000512CF801612C30E020E0661631F0449129
:10322000240F311D63943196F8CF600E712E711CFE
:10323000F3016490E29EF001E39EF00DF29EF00D2A
:1032400011248E0F9F1F080F191F7CCFF72DFF70C1
:103250007F2EC7CFD12CAC81DA1631F060E08D81A2
:103260009E81E0DDD394F7CF439481CF3394080D52
:10327000191DBFEFAB1ABB0A75CF622DEECE90E0E1
:1032800080E0AFCEDC011C96ED91FC9193818185AD
:1032900013821186938391E09583818708959C0121
:1032A00026563F4FDC015296EC91529751968C91E5
:1032B000E81730F4E20FF32FF11D808190E00895BC
:1032C0008FEF9FEF0895FC01DC01A656BF4F928956
:1032D0008189981740F4A90FB11D2C919F5F928BA3
:1032E000822F90E008958FEF9FEF0895FC01818970
:1032F0009289891B990B0895CF92DF92EF92FF92EA
:103300000F931F93CF936C014338510510F042E89F
:1033100050E0C42F7B0110E000E00C1780F4D701CF
:103320006D917D01D601ED91FC910190F081E02D30
:10333000C601099598012F5F3F4F892B49F4C801B9
:10334000CF911F910F91FF90EF90DF90CF90089554
:103350008901E3CFFC01A089A23858F4A80FB92F46
:10336000B11D58966C9380898F5F808B81E090E0CF
:10337000089590E080E00895DC011A96ED91FC91AB
:103380001B97309731F015968C91882311F090E0BF
:1033900009940895CF93DF93FC01A081B1811B961E
:1033A0008C911B97982F9C7029F01D968C911582FB
:1033B000148229C086FF2AC0EF0180FF1DC081FF53
:1033C00011C01D968C918383CF01D6DF1C821F8292
:1033D000E885F985309709F00995E881F98183E05E
:1033E000828711C01D968C911D978383158216824A
:1033F00083E01A968C9307C080E41B968C93CF01D0
:10340000BBDF1D821E82DF91CF91089587FFFBCF26
:1034100081FF22C084FF09C0828187FF06C08F77A9
:10342000828382E01A968C93C3CF828180688283E4
:10343000C7818481C81770F4CE0FDF2FD11D8C8512
:103440001D968C931D9783E01A968C9387818F5FCE
:103450008783D9CF82E0CDCF1D969C911D97858122
:10346000823868F4DF01A80FB11DA257BF4F9C93AB
:1034700085818F5F85830190F081E02DB0CF86E05C
:103480001A968C9315821682BECFDC01ED91FC91C9
:103490000088F189E02D23E030E00994089590E060
:1034A00080E008950F931F93CF93DF938091C257CD
:1034B000803109F06EC088E203D882FF42C084E008
:1034C0000BD80E94451280E00E942E1280E00E94DC
:1034D0002E12D82FC82F833408F0C2E4C0937C5733
:1034E00080E00E942E12082F80E00E942E12182FDA
:1034F00080E00E942E12282F30E0A90196E0440FB0
:10350000551F9A95E1F744275370402B40937D5700
:1035100050937E57322F222722273370212B20935E
:103520007F57309380579091EA609417150611F0F9
:10353000452B11F4D330B0F410927C570E94201226
:103540000AD88091C257803121F580917C57882319
:1035500011F184E00E946C1281E0DF91CF911F9104
:103560000F910895C350C0938157807880937B5703
:10357000D0E0DC1728F480E00E942E12DF5FF9CF44
:103580000E94201280E10E946C1284E20E9460126C
:10359000D8CF0E94AB1280E0E0CF94E081111BC035
:1035A000909346049091400492FD0AC09FB7F8940E
:1035B000811114C080915204877F809352049FBF71
:1035C0008091E6058770823029F48091010A8B7F13
:1035D0008093010A089590934504E4CF80915204AA
:1035E0008860EBCF0F931F93CF93DF93EC01062FEF
:1035F000142F8B89813120F4882329F0411103C0D5
:103600000E9489111B8A8B8981110DC08A89880FBC
:1036100080937B5E10927C5E60E4111101C060E0DB
:103620008CE69EE597DE602F8CE69EE593DE1230F9
:1036300041F48B898F5F8B8BDF91CF911F910F911D
:1036400008950E9489111B8AF7CF0F931F93CF9380
:10365000DF93CDB7DEB72C97CDBFDEBF681BF1F08F
:10366000062F10E0682F70E06E57784AA801CE014F
:1036700001960E947F44E1E0F0E0EC0FFD1FE00FB7
:10368000F11F1082CE0101960E94573F2C96CDBFAC
:10369000DEBFDF91CF911F910F91089590E080E000
:1036A000F5CF0F931F93CF93DF93CDB7DEB72C9752
:1036B000CDBFDEBF681BF1F0062F10E0682F70E071
:1036C0006E57784AA801CE0101960E947F44E1E03E
:1036D000F0E0EC0FFD1FE00FF11F1082CE0101960C
:1036E0000E94543F2C96CDBFDEBFDF91CF911F913A
:1036F0000F91089560E070E0CB01F4CFFB010190E1
:103700000020E9F73197AF01461B570BDC01ED9123
:10371000FC910280F381E02D099466E071E4EECF24
:103720000F931F93CF93DF93EC012DD98C01CE0122
:10373000F4DF800F911FDF91CF911F910F910895BA
:103740006115710509F0DACF90E080E008958F925D
:103750009F92AF92BF92EF92FF920F931F93CF93DE
:10376000DF93CDB7DEB7A197CDBFDEBF7C01FA01F5
:10377000CB0119A2223008F42AE08E010F5D1F4F01
:10378000822E912CB12CA12CBF01A50194010E9485
:103790003942F901CA016A30CCF4605DD8016E93F8
:1037A0008D01232B242B252B79F7BD01C701C8DF01
:1037B000A196CDBFDEBFDF91CF911F910F91FF90FA
:1037C000EF90BF90AF909F908F900895695CE6CF87
:1037D000CF92DF92EF92FF920F931F93CF93DF93DD
:1037E00077FF1BC06A017B01EC016DE2EAD88C0116
:1037F00044275527BA014C195D096E097F092AE053
:10380000CE01A5DF800F911FDF91CF911F910F9106
:10381000FF90EF90DF90CF9008952AE0DF91CF9155
:103820001F910F91FF90EF90DF90CF9090CFAB0161
:10383000770F660B770BCCCFCF93DF93BC0183EC74
:1038400097E5F5DFEC0183EC97E567DF8C0F9D1FB3
:10385000DF91CF91089574CFAF92BF92CF92DF9254
:10386000EF92FF920F931F93CF93DF9300D0CDB7CA
:10387000DEB76C015B0110E000E00A151B050CF0DF
:1038800039C07801EC0CFD1C85E1F822E982FA824E
:10389000CE010196E9D9803120F460E383EC97E50D
:1038A00090D80F5F1F4FE982FA82CE010196DCD9D2
:1038B000482F50E070E060E020E183EC97E547DFBF
:1038C00067E171E483EC97E5C6DFC801877099274B
:1038D000892B29F467E171E483EC97E5BCDFC8012B
:1038E0008F709927892B49F66CEA72E283EC97E591
:1038F0004AD8C3CF0F900F90DF91CF911F910F91B6
:10390000FF90EF90DF90CF90BF90AF9008954F92CF
:103910005F926F927F928F929F92AF92BF92CF925F
:10392000DF92EF92FF920F931F93CF936B017C0175
:10393000742EAC019B010E94534469E071E4811133
:1039400026C046015701E894B7F82FEF3FEF4FE745
:103950005FE7C501B4010E94534481110CC02FEFF1
:103960003FEF4FE75FE7C501B4010E94F1406DE012
:1039700071E4181664F02FEF3FEF4FE75FE4C701E3
:10398000B6010E940D441816A4F461E171E483ECC1
:1039900097E5CF911F910F91FF90EF90DF90CF901F
:1039A000BF90AF909F908F907F906F905F904F905F
:1039B000A5CE2FEF3FEF4FE75FECC701B6010E94A6
:1039C000F14087FDE2CF20E030E0A901C701B60158
:1039D0000E94F14010E000E087FF0AC06DE283EC36
:1039E00097E50E94E1148C01F7FAF094F7F8F0944F
:1039F000C0E060E070E080E09FE37C1641F020E0F2
:103A000030E040E251E40E94CF42CF5FF6CFA70101
:103A100096010E946B422B013C010E943C434B01EA
:103A20005C012AE0BC01A40183EC97E590DE7C01F7
:103A3000E00EF11ECC23C9F1C501B4010E94F5408E
:103A40009B01AC01C301B2010E946A424B015C01BF
:103A50006BE271E483EC97E551DEE80EF91EC1508C
:103A600020F120E030E040E251E4C501B4010E94C1
:103A700056412B013C010E943C434B01B12CA12C2F
:103A80002AE0B501A40183EC97E561DEE80EF91E9A
:103A9000C501B4010E94F5409B01AC01C301B20114
:103AA0000E946A424B015C01DACFC701CF911F919E
:103AB0000F91FF90EF90DF90CF90BF90AF909F90CD
:103AC0008F907F906F905F904F900895CF93DF938A
:103AD0001EDFEC0183EC97E520DE8C0F9D1FDF914C
:103AE000CF9108950F931F93CF93DF9369E87AE105
:103AF00083EC97E515DE63E87AE183EC97E50E94B5
:103B0000C3148091A46061EB71E08B3251F064E6E4
:103B100073E0863531F070E060E08B3511F463E9D5
:103B200073E083EC97E583DE66E77AE183EC97E563
:103B30000E94C3144091A56050E070E060E02AE06C
:103B400083EC97E504DE6EE67AE183EC97E50E946C
:103B5000C3146091A6606F7370E083EC97E567DE35
:103B60006BE67AE183EC97E50E94C3146091A8604C
:103B70006251770B83EC97E55ADE66E67AE183ECD7
:103B800097E5CEDD69E57AE183EC97E5C9DD61E58E
:103B90007AE183EC97E50E94C3146091A96070916B
:103BA000AA608091AB609091AC6042E050E08EDF03
:103BB00001EB10E6C1E0D0E06CE47AE183EC97E53C
:103BC0000E94C314BE0183EC97E531DE65E171E428
:103BD00083EC97E540DEF8016191719181919191BB
:103BE0008F0142E050E072DF66E47AE183EC97E512
:103BF0000E94C314BE0183EC97E519DE65E171E410
:103C000083EC97E528DEF8016489758986899789B0
:103C100042E050E05BDF2196C730D10569F66BE3E7
:103C20007AE183EC97E50E94C3146091E1607091A2
:103C3000E2608091E3609091E46042E050E046DF12
:103C400061E37AE183EC97E50E94C3148091E5601B
:103C500090E0F2DD61E27AE183EC97E50E94C31423
:103C60008091E6609091E760E7DD8091A76064E174
:103C70007AE1882311F06BE17AE183EC97E550DD7E
:103C80008091E96065EF79E1882311F065E07AE1E0
:103C900083EC97E5DF91CF911F910F9141CD0E9469
:103CA00070442F923F924F925F926F927F928F92C9
:103CB0009F92AF92BF92CF92DF92EF92FF920F93BB
:103CC0001F93CF93DF93CDB7DEB72A97CDBFDEBF6B
:103CD00089879A87162F7A01222E312CB101032C65
:103CE000000C880B990B0E94F7404B015C01612F7F
:103CF00070E090E080E00E94F74020E030E044EB8C
:103D000053E40E9456412B013C01B70190E080E052
:103D10000E94F5409B01AC01C301B2010E945641D3
:103D2000A50194010E94564120E836E948E15BE490
:103D30000E94CF422B013C01E985FA8505818081F3
:103D4000081B110B21813281438154816681778167
:103D5000808591850E946A42A30192010E94CF4210
:103D60006B017C01B801012E000C880B990B0E949D
:103D7000F740A50194010E94CF429B01AC01C7010D
:103D8000B6010E946B426D837E838F8398870E9469
:103D9000AA4369837A838B839C8320E030E040E8E8
:103DA0005FE30E946B426B017C0120E030E0A901DF
:103DB00069817A818B819C810E940D4487FDA2C01C
:103DC000A7019601C501B4010E9456410E943743E4
:103DD000E985FA856287738716861786E985FA85ED
:103DE00026853785020F131F06871787020D131DBF
:103DF0000487158720E030E044EB53E4C301B201AF
:103E00000E94CF422BED3FE049EC50E40E94564126
:103E10006B017C0129813A814B815C816D817E81BE
:103E20008F8198850E946A42A30192010E945641A7
:103E300020E030E044EB53E40E94CF422BED3FE022
:103E400049EC50E40E9456414B015C01A7019601E8
:103E50000E94CF422B013C01E985FA85448A558AAC
:103E6000668A778AA5019401C501B4010E94564172
:103E700020E030E040E05FE30E9456419B01AC014E
:103E800060E070E080E89FE30E946A424B015C01C1
:103E9000A7019601C701B6010E94564120E030E01B
:103EA00040E05FE30E9456419B01AC0160E070E09E
:103EB00080E89FE30E946A42A30192010E9456415A
:103EC0009B01AC01C501B4010E946A42E985FA85F3
:103ED000608B718B828B938B2A96CDBFDEBFDF9177
:103EE000CF911F910F91FF90EF90DF90CF90BF90F7
:103EF000AF909F908F907F906F905F904F903F908A
:103F00002F900895E985FA8512861386C701B601B8
:103F10009058A50194010E9456410E943743E985BB
:103F2000FA85668777875ACFCF92DF92FF920F93F9
:103F30001F93CF93DF930FE5089FF0011124EF014A
:103F4000CE56D74AAA81BB811F962C911F972A8BE8
:103F500016964D915D916D917C9119974B8B5C8B71
:103F60006D8B7E8BA881B9811F962C911F972F8B0B
:103F700016964D915D916D917C911997488F598F4F
:103F80006A8F7B8F20913957C0903757D090385720
:103F9000F09046408F01A6016F2DCF018C55974AB6
:103FA00080DEEC81FD818A819B818E179F0729F13C
:103FB00087858AA786819781A085B1858BA79CA7D5
:103FC000ADA7BEA7E881F98187858FA786819781F4
:103FD000A085B18588AB99ABAAABBBAB2091395713
:103FE000A6016F2DC8018454974ADF91CF911F918C
:103FF0000F91FF90DF90CF9054CEDF91CF911F9122
:104000000F91FF90DF90CF9008952F923F924F92A3
:104010005F926F927F928F929F92AF92BF92CF9258
:10402000DF92EF92FF920F931F93CF93DF93CDB761
:10403000DEB7E897CDBFDEBF68EE73E080E090E0CA
:104040000E945A15E091785EF091795EE11529E0C1
:10405000F20709F073C08091E5058C7F8260809340
:10406000E50580917A5E807641F5E11549E0F40737
:1040700009F071C08091E5058370823009F067C056
:104080008CE08093460480917A5E806280937A5EB1
:1040900081E08383858390917A5E95FF21C096812C
:1040A0009C3679F0238113829CE6968390819D7FD4
:1040B0009083238320FF05C0858380917A5E85FFEE
:1040C0000FC08681853161F09381138285E18683FB
:1040D00080818D7F8083938390FF02C081E0858300
:1040E000109204618CE3809303611092F56010924A
:1040F000F660EFEEF9E1C590D490E1EFF9E1F490CC
:10410000E2EFF9E1E491E093F760E3EFF9E1E491A4
:10411000E093F860E4EFF9E1E491E093F96010E0F6
:1041200000E00F1550F5F601E00FF11F649181EFEB
:1041300090E60E942F170F5F1F4FF3CFE03239E058
:10414000F30709F08ECF8091E50588E088CF8CE0F9
:104150008093060498CFE03289E0F80709F093CF06
:104160008091E5058C70883021F48CE080932604E2
:104170008ACF8CE08093A60486CF0E949B17E9EB40
:10418000F8E0E093FF60F0930061E491EAEBF8E07F
:10419000E49182E08093FA600E949B1741E06FE017
:1041A00081EF90E60E94591769E171E481EF90E692
:1041B00052DBE5E0F4E0E093FF60F093006184916E
:1041C000E6E0F4E0E491F82F319709F005C210928F
:1041D000FA6046E068E281EF90E60E94591761E2DA
:1041E00071E481EF90E637DB80917A5E85FF0CC049
:1041F000E091785EF091795E86FF1382168280915D
:104200007A5E8F7D80937A5E80917A5E86FF0FC0A2
:10421000E091785EF091795E85FF138214861186B5
:10422000168680917A5E8F7B80937A5E11822FB79B
:10423000F89494E09093220480913204877F8093D5
:1042400032042FBF2FB7F89488E080932204809126
:104250003304877F809333042FBF9093410481E020
:104260009CD940E052EC61E070E083EC97E50DD919
:104270006DED73E083EC97E50E94C3146DE271E489
:1042800083EC97E55DDA67EC73E083EC97E548DA59
:1042900091EB292E90E6392E24EAE22E20E6F22E2A
:1042A00089EC90E6F10100E010E020EA31E44DEC09
:1042B0005CEC6CE470E40193119321933193448B93
:1042C000558B668B778B8E179F07A9F780E190E05F
:1042D0000E946316882321F1CE0101960E943B16AD
:1042E00009811A8117FD1CC0680193E0C90ED11C19
:1042F00087E090E05C01AFEFAA1ABA0A8EA79FA7E9
:10430000CE018E960E943416F70181937F01C5017C
:10431000AC14BD0478F369E573E00430110511F4C1
:1043200068E473E083EC97E5FBD9DCDB8091A76060
:10433000882309F455C06EEB73E083EC97E50E9487
:10434000C31466EB73E083EC97E50E94C31480917D
:10435000A4608B3231F46FEA73E083EC97E50E943E
:10436000C3148091A460863531F468EA73E083EC6D
:1043700097E50E94C3148091A4608B3531F461EA03
:1043800073E083EC97E50E94C31468E973E083EC63
:1043900097E50E94C3144091A56050E070E060E092
:1043A0002AE083EC97E5D3D960E973E083EC97E5E5
:1043B0000E94C3144091A66050E070E060E02AE0E3
:1043C00083EC97E5C4D96EE873E083EC97E5A8D950
:1043D00065E371E483EC97E591D983EC97E59DD98A
:1043E0008091A760882309F446C187E08093EC6040
:1043F00084E08093ED6085E08093EE6086E08093BA
:10440000EF601092F0601091A5608091A66080939B
:10441000EA601092EB6080E88093010480E1809371
:1044200001049FB7F89480E2809302048091150400
:10443000877F809315049FBF8091EF60893288F455
:1044400090E0FC01EF5AFF4B20812F3F51F086583E
:104450009F4BDC01EC91B0E2EB9FF0011124FC5F7B
:1044600021830E9420128091F0608111B9C0809157
:10447000E4058C7F8093E4058091410984608093FA
:104480004109809140098162809340090E948B1507
:104490006B017C016AEA8FE20E9453128FE20E9454
:1044A00060128A3A59F00E948B156C197D098E09A9
:1044B0009F09623371058105910560F30E948B1598
:1044C0006C197D098E099F0962337105810591057B
:1044D00008F0B7C00E948B156B017C0165E58FE287
:1044E0000E9453128FE20E946012853559F00E949B
:1044F0008B156C197D098E099F0962337105810541
:10450000910560F30E948B156C197D098E099F0936
:10451000623371058105910508F093C0FE01339661
:104520008BE2DF011D928A95E9F781E0898384E0BF
:104530008A8322E02B8393E09D832E838F8380E404
:10454000888725E029879A8796E09B8793E39C8755
:1045500097E09D8728E02F8729E0298B29E12B8B85
:1045600032E43C8B25E22D8B8E8B26E22F8B988FAD
:1045700098E2998F20E12A8F99E29B8F9CED9C8F86
:104580009EE29D8F98E89E8F9FE29F8F9DE298A369
:1045900090E399A347E34BA340E94CA348E34DA321
:1045A0003EA33CE33FA33FE838A73DE339A72AA752
:1045B0002FE62BA79CA79CE69E87888B1AA38E01CB
:1045C0000F5F1F4FF80180818823D1F061810E9425
:1045D00053120E5F1F4FF6CF81E08093FA60F9CD42
:1045E0008091E405837F8093E40580916109846074
:1045F000809361098091600981628093600946CF50
:1046000090E080E00E94851269E981E10E945312E6
:1046100084E00E946C120E948B156B017C0187E282
:104620000E94601287FD0BC00E948B156C197D09DA
:104630008E099F09623371058105910580F30E94FF
:104640008B158FE491E40E9485122091A660F4E11D
:104650002F9F8001112460E070E0CB01011511054E
:1046600041F00E94FF3E9801110F440B550B0E9430
:104670000D420E945A158EE0809305068091030634
:10468000809303061092B00086E08093020681E0DA
:1046900080930006809100068093000687E0809357
:1046A000080660E070E0CB0150E040E021E020939C
:1046B0000A0630910D0630FFFCCF4A30510544F018
:1046C000E0911006F09111066E0F7F1F811D911D64
:1046D0004F5F5F4F4A3137E2530749F70E94F54079
:1046E00020E030E44CE156E40E94CF4220E030EF7D
:1046F0004FE755E40E94CF429B01AC0166E676E6A7
:1047000086E69FE30E94CF426B017C016EE673E078
:1047100083EC97E50E94C31444E050E0C701B60162
:10472000D5D94091A9605091AA606091AB60709119
:10473000AC6081E00E94D6114091A9605091AA60BE
:104740006091AB607091AC6082E00E94D6114091A4
:10475000A9605091AA606091AB607091AC6083E0F9
:104760000E94D6114090494050904A4060904B4082
:1047700070904C4060915C5870915D5890E080E082
:104780000E94F5404B015C0106E01DE520E0D101EF
:1047900058968D919D910D90BC91A02D88AB99ABB1
:1047A000AAABBBABF10161917191819191911F0114
:1047B000F1E0F20FFCABD8012C9320E030E040E4B4
:1047C00050E40E945641A30192010E945641A50166
:1047D00094010E94CF42F8016183728383839483A2
:1047E000158288A999A9AAA9BBA986839783A087BE
:1047F000B187128613861486158616860B5E1F4FA8
:104800002CA9263021F661E081E00E94971562E034
:1048100082E00E94971563E083E00E94971561E0B3
:1048200084E00E94971562E085E00E94971563E09E
:1048300086E00E94971582E3809346408AE0809349
:1048400015406091E1607091E2608091E360909129
:10485000E4600E94C015C0924940D0924A40E09264
:104860004B40F0924C4010926B581092160484E129
:1048700090E0809362589093635892E090936458CC
:1048800081E080936C5810927B58109217048093AB
:104890008B5829E02093B30425E030E02093825820
:1048A000309383589093845880938C58E090645E42
:1048B000F090655EE114F10409F47CC187010F5F9B
:1048C0001F4F84E4C82E8EE5D82E8091625E9091B1
:1048D000635E8E0D9F1D0817190774F4C80195714A
:1048E00089839A83CE0101960E943416F601819342
:1048F0006F010F5F1F4FE9CF4090445E5090455EBF
:104900006090465E7090475E8090485E9090495EF1
:10491000A0904A5EB0904B5EC0904C5ED0904D5ED1
:10492000E0904E5EF0904F5E0091505E1091515EAF
:104930002091525E3091535E4091545E5091555E8D
:104940006091565E7091575E8091585E9091595E6D
:10495000A0915A5EB0915B5E8DAB9EABAFABB8AF32
:1049600080915C5E90915D5EA0915E5EB0915F5EB5
:1049700088AB99ABAAABBBAB409289B750928AB7D0
:1049800060928BB770928CB78092E8589092E958F9
:10499000A092EA58B092EB58C0924759D092485929
:1049A000E0924959F0924A590093A6591093A75999
:1049B0002093A8593093A9594093055A5093065A09
:1049C0006093075A7093085A8DA99EA9AFA9B8ADF4
:1049D0008093645A9093655AA093665AB093675A2D
:1049E00088A999A9AAA9BBA98093655890936658EC
:1049F000A0936758B093685885E180931C4F88E076
:104A000090E080931A4F90931B4F88EE91E0809333
:104A10003757909338571092194F90913B5722E98E
:104A200038E5F90180E061E0DF01A25ABF4F4C9107
:104A3000442309F451C0482F50E0DA01AA0FBB1FEC
:104A4000A40FB51F8D01075E1F4BD8014C914F3F3E
:104A5000C1F442815381DA0154967C9154977111CB
:104A600010C01F968C931F9754966C9354974C913B
:104A700050E04F5F5F4BDA014C91D8014C938F5F50
:104A80009F5F44815581A281B3814A175B0721F161
:104A9000082F10E0D801AA0FBB1FA00FB11F8D0176
:104AA000075E1F4BD8017C917F3FB1F4DA01549629
:104AB0007C915497711110C01F968C931F97549638
:104AC0006C9354974C9150E04F5F5F4BDA014C91DF
:104AD0008F5FD8014C939F5FE15AFF4FBDE5E630F1
:104AE000FB0709F0A1CF8093194F90933B5790910A
:104AF000184F61E0D901A25ABF4F4C91442359F19C
:104B0000482F50E0DA01AA0FBB1FA40FB51F8D017B
:104B1000075E1F4BD8014C914F3FE9F4D9014D91ED
:104B20005C91DA0154967C915497711114C01F96D0
:104B30008C931F9754966C9354974C9150E04C5F14
:104B40005F4BDA014C91D8014C938F5F11962D93F6
:104B50003C9312979F5F215A3F4FE217F30751F69C
:104B60008093194F9093184F90915E589923A9F014
:104B7000809361582091104091E0980F9093194FC5
:104B800090E0FC01EE0FFF1FE80FF91FE75EFF4BFF
:104B9000208310925F58109260588091194F809333
:104BA000395710E080913A571817E0F4812FBCD99B
:104BB0001F5FF8CF412C512C3201812C912C5401D4
:104BC000C12CD12C760100E010E0980140E050E0CB
:104BD000BA011DAA1EAA1FAA18AE18AA19AA1AAAB3
:104BE0001BAACACE1091395720E836E948E15BE4A8
:104BF0006091114070911240809113409091144047
:104C00000E94564120E030E044EF53E40E94CF423E
:104C10000E943C436959714081099109212F30E07C
:104C200050E040E00E94394220931E4F30931F4FC6
:104C30004093204F5093214F10923C5781E0809336
:104C4000164095E190930506909103069093030614
:104C50001092B00090911A4F909302068093000634
:104C600090910006909300069091000692609093B8
:104C700000061092080690910C06916090930C0625
:104C800080930A0678941092495710924A571092CE
:104C90004B5710924C5760E070E080E090E40E9427
:104CA000C015E896CDBFDEBFDF91CF911F910F9168
:104CB000FF90EF90DF90CF90BF90AF909F908F903C
:104CC0007F906F905F904F903F902F900895EF935B
:104CD000FF93E3ECF7E508C0EF93FF93E3ECF7E510
:104CE00032C0EF93E0E653C02F932FB72F938F93EB
:104CF0009F93AF93BF936894CF93DF9320E0C485D5
:104D0000D8E09689DF01A90FB21FA95ABF4F8C9135
:104D100020E42C838A839F5F9F738D8125892913CB
:104D200002C08F7D8D83968BDF91CF9116F00C940E
:104D30007614BF91AF919F918F912F912FBF2F919B
:104D4000FF91EF9118952F932FB72F938F939F93E8
:104D5000CF93DF93C485D8E08981988181FD0DC010
:104D6000C38981E08C0F8F732489281731F0CE0F0F
:104D7000DF2F20E0D21F9F8B838BDF91CF919F91FC
:104D80008F912F912FBF2F91FF91EF911895FF9346
:104D90008F938FB78F93F8E08081848187FFFCCF5A
:104DA00085818F7B806885838F918FBF8F91FF91E5
:104DB000EF9118951F920F920FB60F92112484E075
:104DC0000E94F8141F920F920FB60F9211248F9326
:104DD0009F93AF93BF9380912F5790913057A0919D
:104DE0003157B09132570196A11DB11D80932F57B5
:104DF00090933057A0933157B093325781E080930E
:104E0000260BBF91AF919F918F910F900FBE0F9086
:104E10001F9018951F920F920FB60F9211248F9327
:104E200088E08093A90481E0809334578F910F909C
:104E30000FBE0F901F9018951F920F920FB60F92F2
:104E400011248F939F93809109048093090486FF16
:104E500003C091E09093365787FF03C081E08093B1
:104E600035579F918F910F900FBE0F901F901895FF
:104E70001F920F920FB60F9211240BB60F922F9222
:104E80003F924F925F926F927F928F929F92AF92DA
:104E9000BF92CF92DF92EF92FF920F931F932F93C7
:104EA0003F934F935F936F937F938F939F93AF93B2
:104EB000BF93EF93FF93CF93DF93CDB7DEB72A97DE
:104EC000CDBFDEBF81E080930D06809110069091EA
:104ED00011068D839E8380912E578E5F9091395756
:104EE000891718F090913957891B90E0FC01EE0F5B
:104EF000FF1FE80FF91FE75EFF4B808180930806D4
:104F00008D819E8120915C5830915D583695279512
:104F1000821B930B8D839E838D819E81E0912C5704
:104F2000F0912D57EE0FFF1FE45DF04B80839183CE
:104F300019821A821B821C822D813E810D811E8165
:104F400022241302B001029FA00112037209500D26
:104F5000611D721D30037209500D611D721D1124F7
:104F600049835A836B837C8389809A80AB80BC8021
:104F7000A0911740B0911840E0912E5708E0E09FB3
:104F8000F0011124EA0FFB1FE058FF4F2080318011
:104F90004280538064807580068117819401A50149
:104FA00060E070E080E090E05101620173010E94D6
:104FB000674420833183428353836483758386836C
:104FC00097834D815E81E0912E5718E0E19FF001BB
:104FD0001124EA0FFB1FA084B184C284D384E4842B
:104FE000F58406851785952F990F990B9A01492FFE
:104FF000592F692F792F892F0E9467442087318785
:10500000428753876487758786879787E0912E57F5
:105010008E2F90E0FC01EE0FFF1FE80FF91FE75EF7
:10502000FF4B80818111CFC080912A4F90912B4FEF
:105030009C013695279536952795AC01421B530B5D
:105040009A018D819E81181619060CF478C08D8105
:105050009E81919581959109820F931F80932A4F8C
:1050600090932B4F21E040915A5850915B5848172C
:10507000590708F020E02093175E8D819E81181655
:1050800019060CF05FC081E090E08093284F909368
:10509000294F2091284F3091294F8091244F909192
:1050A000254F2817390709F452C080911D4F8F5F93
:1050B00080931D4F80911D4F882351F010921D4FFA
:1050C0008091284F9091294F8093264F9093274F9E
:1050D0008091264F9091274F019709F016C3809138
:1050E000244F9091254F019709F465C08091224F7C
:1050F0009091234F01968093224F9093234F2091BC
:105100001640222339F1209115402817190609F07D
:1051100008F5109216401092224F1092234F1496C9
:105120001D921D921D921C921797CD0188529D4F82
:10513000FD01E817F90771F010823196FACF8D81E1
:105140009E818ACF1092284F1092294FA2CF1092A1
:105150001D4FB0CF14964D915D916D917C91179735
:105160004F5F5F4F6F4F7F4F14964D935D936D93DD
:105170007C9317970D911D912D913C911397409120
:105180001E4F50911F4F6091204F7091214F041777
:1051900015072607370778F08091474090914840DF
:1051A000A0934740B0934840809317409093184095
:1051B00081E080933C578091264F9091274F8093B8
:1051C000244F9093254F90912E5780913B579817DD
:1051D00008F445C280902C5790902D57E0912E579F
:1051E0008E2F90E0FC01EE0FFF1FE80FF91FE75E26
:1051F000FF4B0180F281E02D848D958D881A990AEC
:1052000053E09522E0912C57F0912D57A0912E5705
:105210008A2F90E0DC01AA0FBB1FA80FB91FA75E61
:10522000BF4B11960D90BC91A02D5E968D919C91D7
:10523000E81BF90BF37020912C5730912D57A0915A
:105240002E578A2F90E0DC01AA0FBB1FA80FB91FB1
:10525000A75EBF4B11960D90BC91A02D90968D919D
:105260009C91281B390BD901B370AF83B887880C88
:10527000991C8401045D104B4801D8016D917C910B
:10528000EE0FFF1FE45DF04B408151812224570255
:105290009001469F800156033209100D211D321DD9
:1052A00074033209100D211D321D1124280139010A
:1052B000E0911740F0911840A0912E5718E0A19F5F
:1052C000D0011124AE0FBF1FA850BF4FAC90119654
:1052D000BC90119712962C90129713963C901397AE
:1052E00014960C911497098715961C9115971A8797
:1052F00016960C91169717961C91179773016201D9
:10530000FF0CCC08DC2C76019201A3016C2D7C2DC6
:105310008C2D9C2D6101E984FA840E9467442C93B2
:1053200011963C93119712964C93129713965C9397
:10533000139714966C93149715967C93159716965D
:105340008C93169717969C93D4016D917C91AF81A5
:10535000B885AA0FBB1FA45DB04B4D915C91222470
:1053600057029001469F800156033209100D211DFE
:10537000321D74033209100D211D321D1124480104
:105380005901A0912E5718E0A19FD0011124AE0F12
:10539000BF1FA059BE4F2C9011963C9011971296AA
:1053A000CC9012971396DC9013971496EC90149768
:1053B0001596FC90159716960C91169717961C91BA
:1053C000179724013501770C4408542C32019401BD
:1053D000A501642D742D842D942D51010E946744E4
:1053E0002C9311963C93119712964C931297139607
:1053F0005C93139714966C93149715967C9315975A
:1054000016968C93169717969C93A0912E57809181
:105410002E572A2F30E0D901AA0FBB1FA20FB31FAE
:10542000A75EBF4B11962D913C9190E0DC01AA0F35
:10543000BB1FA80FB91FA75EBF4B11968D919C9102
:10544000D90112962D913C91DC0114968D919C917D
:105450002817390709F403C180902C5790902D57D5
:10546000A0912E578A2F90E0DC01AA0FBB1FA80F36
:10547000B91FA75EBF4B11960D90BC91A02DD4967D
:105480008D919C91881A990AB3E09B2220912C5708
:1054900030912D5780912E5790E0DC01AA0FBB1F51
:1054A000A80FB91FA75EBF4B11960D90BC91A02D00
:1054B000D6968D919C91D901A81BB90BBD01737033
:1054C00040912C5750912D5780912E57282F30E026
:1054D000C901880F991F820F931F875E9F4BDC01C4
:1054E00011968D919C91DC01D8968D919C91481BD1
:1054F000590BDA01B370AF83B887880C991C84010B
:10550000045D104B4801D8018D919C91DB01AA0FDD
:10551000BB1FA45DB04B4D915C91BC01222457028E
:105520009001469F800156033209100D211D321D46
:1055300074033209100D211D321D11242801390177
:10554000A0912E5778E0A79FD0011124AE0FBF1F66
:10555000A851BE4FAC901196BC90119712962C900A
:10556000129713963C90139714960C9114970987F1
:1055700015961C9115971A8716960C9116971796E3
:105580001C91179779016201FF0CCC08DC2C760185
:105590009201A3016C2D7C2D8C2D9C2D6101E98441
:1055A000FA840E9467442C9311963C9311971296AB
:1055B0004C93129713965C93139714966C931497CD
:1055C00015967C93159716968C93169717969C9321
:1055D000D4016D917C91AF81B885AA0FBB1FA45DEA
:1055E000B04B4D915C91222457029001469F80015F
:1055F00056033209100D211D321D74033209100D9E
:10560000211D321D11242801390180912E5718E0E7
:10561000819FC0011124E80FF91FE05AFD4FB081AE
:10562000A181C280D380E480F58006811781530177
:105630004201BB0C8808982C54019201A301682DEB
:10564000782D882D982DAB2EBA2E0E94674420838A
:1056500031834283538364837583868397838091E8
:105660002E578F5F80932E5780912C5790912D57F6
:10567000019680932C5790932D5790912E5780919F
:105680003957981788F010922E57E0911740F091F3
:10569000184080819181A281B3810196A11DB11D25
:1056A00080839183A283B38380912C5790912D574F
:1056B000937080932C5790932D572A96CDBFDEBFC1
:1056C000DF91CF91FF91EF91BF91AF919F918F911A
:1056D0007F916F915F914F913F912F911F910F910A
:1056E000FF90EF90DF90CF90BF90AF909F908F9002
:1056F0007F906F905F904F903F902F900F900BBED8
:105700000F900FBE0F901F9018958091244F90918D
:10571000254F51CD1F920F920FB60F9211240BB649
:105720000F922F933F934F935F936F937F938F933A
:105730009F93AF93BF93EF93FF9388E79EE50E94FB
:10574000CA19FF91EF91BF91AF919F918F917F9176
:105750006F915F914F913F912F910F900BBE0F90E2
:105760000FBE0F901F9018951F920F920FB60F92B9
:1057700011240BB60F922F933F934F935F936F9328
:105780007F938F939F93AF93BF93EF93FF9384E99E
:105790009FE50E94CA19FF91EF91BF91AF919F9130
:1057A0008F917F916F915F914F913F912F910F90CA
:1057B0000BBE0F900FBE0F901F901895EF92FF92A7
:1057C0000F931F93CF93DF9300D0CDB7DEB7109226
:1057D000C5571092C65788EE93E0A0E0B0E08093E2
:1057E000C7579093C857A093C957B093CA5780ED35
:1057F00090E48093C3579093C45780E698E08093D9
:10580000CF579093D0578EEA92E28093D1579093DE
:10581000D25782E08093D3571092D4571092D55725
:1058200080E090E0A8ECB2E48093035E9093045E85
:10583000A093055EB093065E1092165E1092175EFE
:105840008093195E90931A5EA0931B5EB0931C5ECA
:1058500010922C5E10922D5E80932F5E9093305E9E
:10586000A093315EB093325E1092425E1092435E1E
:10587000E6E0FDE581839283A383B483148A759661
:105880002EE5E230F207B1F782E998E5FC01E25A31
:10589000FF4F1082815A9F4F4DE586309407B1F734
:1058A000E2E6F8E524E130E092E081E02083318314
:1058B00092831382148215821682178210861186B3
:1058C00082871386709648E5E239F40779F71092DB
:1058D0005E5810925F581092605880E090E180937B
:1058E0005C5890935D5880E091E080935A58909373
:1058F0005B588EEF90E08093665E9093675E8DE1DB
:1059000090E08093625E9093635E8DE090E0809380
:10591000605E9093615E84E890E08093685E90930F
:10592000695E8DEF91E080936A5E90936B5E10925A
:10593000645E1092655E04E810E009831A83CE016C
:1059400001960E94341678019DE1E90EF11C8F3F0B
:1059500009F4B6C00093645E1093655E2DEFE21605
:1059600021E0F2065CF4E982FA82CE0101960E94FF
:1059700034168F3F09F4A0C00E94E61610928A5F89
:1059800010928B5F48EE53E060E070E040938C5FD4
:1059900050938D5F60938E5F70938F5F8AEE90E47B
:1059A0008093885F9093895F20E039E02093945F33
:1059B0003093955F10926E5E10926F5E4093705EB2
:1059C0005093715E6093725E7093735E80936C5EB1
:1059D00090936D5E80E299E08093785E9093795E1B
:1059E0001092F3601092F4601092FD601092FE60CD
:1059F0001092FF60109200611092016181E080932B
:105A000002612CEF30E42093F1603093F2609AE071
:105A10009093EC609BE09093ED609CE09093EE603F
:105A20009DE09093EF601092F0609BE29093A460F1
:105A300092ED9093A5609BE19093A6601092A76071
:105A400099E19093A8604AE959E96AEC72E44093BD
:105A5000A9605093AA606093AB607093AC6040E023
:105A600050E068E472E44093AD605093AE606093A0
:105A7000AF607093B0604DEC5CEC6CE171E440930E
:105A8000E1605093E2606093E3607093E460809320
:105A9000E56084E690E08093E6609093E760109282
:105AA000E8601092E9600F900F90DF91CF911F9105
:105AB0000F91FF90EF9008954DE1E40EF11C4ECF51
:105AC00087018DEFE81681E0F80609F036CF56CF52
:105AD000CF93DF93CDB7DEB7C857D109CDBFDEBFB7
:105AE00088ED21E030E084BF2093620091E084BF24
:105AF000909363009DE284BF9093800093E084BF05
:105B00009093600080E090E22091650020FDC9C084
:105B100021E02093030A8EEF8093260A8093270AC0
:105B20009BE09093000A32E03093E6052093430A0D
:105B30008093660A8093670A9093400A9093E705E2
:105B4000E0E0FBE027E09EEF85E021839487158667
:105B500080837096E0340BE0F007B9F72FEF3FE059
:105B60002093AA0B3093AB0B90E89093820B10928A
:105B7000810B2EEF30E02093AE0B3093AF0B98EDFE
:105B800024E194BF2093680091E19093800B80936F
:105B900002069EE09093050690E69093030680939C
:105BA00000068091B000887F85608093B00080916E
:105BB000B200887F85608093B2008FED9EE2809373
:105BC0002C0B90932D0B81E08093250B1092210BD1
:105BD00083E08093200B78940E9405208E010D5C59
:105BE0001F4F0DAB1EAB83EC97E50E942313892B4F
:105BF00009F4A0C083EC97E50E940113F09033579D
:105C00008A3009F04FC5AF2DB0E0AE57B84A1C92AC
:105C1000E0918257EF53EC3308F084C00E2E000C55
:105C2000FF0BEB5EF14D0C945E443633922E922EB8
:105C3000922E922E922E922E922E922E922E922E64
:105C4000922E922E922E922E922E922E922E922E54
:105C5000922E922E922E922E922E922E922E922E44
:105C6000922E922E922E922E922E922E922E922E34
:105C7000572E852E4E2F622F6B2F832F922EB631EB
:105C80003E2F9E2F4A315131B631922ED031922E75
:105C9000E8311732922E922EEB32FB321033922ED5
:105CA0001633019709F030CF83E00E94F81412E018
:105CB000F11238C083E897E50E94573F843081F4A1
:105CC0008BE28093A46061EB71E083EC97E50E9426
:105CD000171C6AE672E283EC97E50E94901B22C0D3
