:100200000C945A110C9484110C9484110C94D726DC
:100210000C9484110C9484110C9484110C9484110A
:100220000C9419270C9484110C9484110C9484114F
:100230000C9484110C9484110C9484110C948411EA
:100240000C9484110C9484110C94B12B0C94841193
:100250000C9484110C9484110C9484110C948411CA
:100260000C9484110C9484110C9435270C948411F3
:100270000C9484110C9484110C9484110C94DF263A
:100280000C9484110C9484110C9484110C94072701
:100290000C9484110C9484110C9484110C9484118A
:1002A0000C9484110C9484110C94872B0C9484115D
:1002B0000C9484110C9484110C9484110C9484116A
:1002C0000C9484110C9484110C9484110C9484115A
:1002D0000C9484110C9469260C9464260C946E265C
:1002E0000C9484110C9484110C9484110C9484113A
:1002F0000C9484114E414E494E495459494E46CDB5
:10030000CCCC3D0AD7233C17B7D13877CC2B3295CC
:1003100095E6241FB14F0A000020410000C84200AA
:10032000401C4620BCBE4CCA1B0E5AAEC59D74AEC6
:10033000D580A83FD300408D142002A1C8DA1281D5
:100340007FD9F1DB40A4A6AF4E6F20454550524FF8
:100350004D20636F6E666967004C6F616465642051
:10036000454550524F4D20636F6E66696700526578
:10037000666572656E636520766F6C746167652073
:1003800063616C6962726174696F6E3A200020006B
:10039000204E6F64653A20002047726F75703A20D6
:1003A000003931354D487A003836384D487A0034B6
:1003B00033334D487A0020467265713A2000524628
:1003C0004D3639435720004F70656E456E65726734
:1003D000794D6F6E69746F722E6F726700656D6F05
:1003E0006E50693220444220436F6E74696E756F9F
:1003F0007573204D6F6E69746F72696E6720560059
:100400001E6C0D0E206002010308070A0801030399
:10041000050701040104060306060706060606068C
:100420000101060606060D09070808070709070166
:10043000050807090709070908070707090D08093B
:10044000080204020508020606050606040606015F
:100450000206010906060606040504060709060742
:1004600006030103070700000000FE141E001E0023
:1004700000009090F89690F89690001C00001C00E8
:100480000000182422FF4242840810103C10080487
:100490001C22221CC0308C4240800000100C000046
:1004A0000C10100C805C2262920C80000C1010105A
:1004B000100C08101E00F00C021C6080020CF08072
:1004C000601C04140E14040000000000404040F8BA
:1004D0004040400000000C000000007080808080E0
:1004E00000000000001000C0380618040000FC02E4
:1004F000020202FC0C101010100C0804FE00001C7C
:100500000C020282423C1018141010100C0222221D
:1005100022DC0C101010100C8040300804FE000487
:10052000040404041C043816121212E20C101010F9
:100530001804F844222222C40C101010100C0202DD
:1005400002E21A0600001C000000DC22222222DC4B
:100550000C101010100C3C42424222FC08101010EB
:1005600008040810087040A0A01010080000000443
:1005700004089090909090900000000000000810F7
:1005800010A0A0400804040000000C028242221CBB
:10059000000014000000E01804C422121212A2721B
:1005A0000408F00C30404C909090889C90504C2067
:1005B0000080E09C829CE0800018040000000000A5
:1005C0000418FE2222222222DC1C10101010100C13
:1005D000F8040202020204080408101010100804B3
:1005E000FE020202020204F81C101010101008048F
:1005F000FE2222222222221C101010101010FE2295
:1006000022222222021C000000000000F804020244
:1006100002424244C8040810101010100804FE20C2
:1006200020202020FE1C00000000001CFE1C0000FA
:100630000000FE0C1010100CFE80402050880402B8
:100640001C00000000040810FE0000000000001C58
:10065000101010101010FE0C30C000C0300CFE1C2A
:10066000000004180400001CFE0418608000FE1C3A
:1006700000000004081CF804020202020204F8044C
:100680000810101010100804FE42424242423C1C66
:10069000000000000000F804020202020204F80454
:1006A0000810101014081C10FE424242C242423C84
:1006B0001C000000000408101C22222242428C0C64
:1006C00010101010100C020202FE020202000000C4
:1006D0001C000000FE0000000000FE0408101010C6
:1006E00008040618608000806018060000000418E6
:1006F000040000000638C000C03C023CC000C03806
:100700000600000418040000000418040000020C95
:10071000906060900C02100C000000040C100204A9
:100720001820C020180402000000001C0000000077
:1007300000028242221A0602101814101010101023
:10074000FE02FC800638C0000000041802FE80FC97
:10075000201C021C2000000000000000000000001F
:1007600000008080808080808080020400001088EB
:10077000484848F00C101010081CFE10080808F03B
:100780001C081010100CF0080808100C10101008AD
:10079000F008080810FE0C101010081CF04848481B
:1007A00048700C101010100808FC0A0A001C000009
:1007B000F008080810F84C909090887CFE1008080B
:1007C00008F01C000000001CFA1C00FA807CFE806F
:1007D00040A010081C0000000C10FE1CF8100808B7
:1007E000F0100808F01C0000001C0000001CF810AD
:1007F000080808F01C000000001CF008080808F0B9
:100800000C101010100CF810080808F0FC0810105C
:10081000100CF008080810F80C10101008FCF81064
:1008200008081C0000003048484890081010100CC0
:1008300008FE0808001C1010F800000000F80C105A
:100840001010081C18608000806018000004180454
:10085000000018E000E018E000E0180004180400B0
:10086000041804000830C0C03008100C00000C1040
:100870001860800080601800808C700C00000808F0
:1008800088681808101814101010807C02007C80F2
:10089000FEFC027C80807C004020206040402000E4
:1008A000000000000000FC0404040404FC1C101000
:1008B0001010101C697A151920600703070F0C1619
:1008C000100207070B0F0407030A0C0A0C0B0D0C90
:1008D0000C0C0C0D03040D0E0E0A14100D0F0F0C52
:1008E0000B100E06080E0B100E110C110E0D0F0D35
:1008F0000F150E0D0E060A060E0F040B0C0B0C0C3A
:10090000070C0B03060C02130B0C0C0C080A080B4B
:100910000C110C0C0B0B020B0F0000000000000070
:1009200000000000000000000000000000000000C7
:1009300000000000000038F8F8007F7F000C0C0079
:100940000000FCFC000000FCFC00010000000100B5
:100950000000000000000000000000000000000097
:1009600080808080F0B8808080F8988080406061CE
:1009700061F17F4341E1F97F616161010000000F96
:10098000030000080F01000000000000000000004C
:100990000000000000000000000080C0E06060FC7B
:1009A00060606060E000070F1C1818FF383030E00E
:1009B000E080060E0C0C0CFF0C0C06070301000077
:1009C00000000000000000000000F0F8180C0C1CF3
:1009D000F8F000000000C0E038080000000000004F
:1009E000070F0C08080C0F07C0F03C0F0300F8F8C5
:1009F0000C0C0C1CF8F00000000000000C0F0300B1
:100A000000000000070F0C080C0C0703000000009A
:100A100000000000000000000000000000000000D6
:100A200000000060F8F80C0C0C0CF8F860000000F6
:100A30000000C0F0F90F07060E1B3171E0C0FC3C4E
:100A400000000003070E0C0C0C0C0C060703030738
:100A50000E0C00000000000000000000000000007C
:100A60000000FCFC0001000000000080E0781C0C8D
:100A700004FCFF0700000000010F3F78E080000049
:100A8000000000808080040C1C78E08000000000E2
:100A90000087FFFC0080E0783F0F0080808000002E
:100AA000000010302060C0FCC06020301002020343
:100AB00001011F0101030206000000000000000008
:100AC0000000000000000000000000000000000026
:100AD0000000000000E0E00000000000001818180E
:100AE00018181818FFFF1818181818180000000018
:100AF0000000000F0F0000000000000000000000D8
:100B000000000000000000000000000000000000E5
:100B10000000E0FC3E0E00000000000000000000AD
:100B2000001818181818181800000000000000001D
:100B30000000000000000000000000000E0E0E008B
:100B40000000000000000000C0F83C04000000C0ED
:100B5000F83F07000000E0781F07000000000000D9
:100B600000000000000000000000C0F078180C0C2D
:100B70000C1838F0E080FFFF00000000000000E1EA
:100B8000FF3F0107070C0C0C0C0C0E0701000000C6
:100B90000000000000000000000000606070F8FC31
:100BA0000000000000000000FFFF000000000C0C2F
:100BB0000C0C0F0F0C0C0C0C0000000000000000CF
:100BC00000000018180C0C0C1C1878F0E000000055
:100BD00080C0E070381C0F0701000E0F0F0D0C0CC9
:100BE0000C0C0C0C0C0C00000000000000000000BD
:100BF00000000018181C0C0C0C1C38F8F000000049
:100C000000040E0E0E1BF9F0060E0C0C0C0C0C0C56
:100C10000E070300000000000000000000000000BC
:100C2000000080C06030F8F8F8000070786E6763EC
:100C3000616060FFFFFF60600000000000000000D6
:100C40000F0F0F0000000000000000000000000077
:100C5000000000F8F81818181818181818000007DD
:100C600007060606060E0CFCF8E0060E0C0C0C0C33
:100C70000C0C0E0703000000000000000000000044
:100C8000000080E0F0301818080C0C0C0000FFFF8A
:100C90000C06060606060EBCF8F00103070E0C0C47
:100CA0000C0C0E0703010000000000000000000013
:100CB0000000181818181818181898F87838000034
:100CC0000000C0F0781E0701000000000C0F0701B3
:100CD0000000000000000000000000000000000014
:100CE0000000E0F0B81C0C0C0C0C18F8F000F1F34C
:100CF0001F0E060C0C1C1EF3F1C003070E0C0C0893
:100D0000080C0C07030100000000000000000000B8
:100D1000000080E0F018180C0C0C1838F0E0C0014E
:100D20000F1F18383030301098FFFF0F00000C0CE8
:100D30000C0C0C0E06030300000000000000000075
:100D40000000000000008080800303030E0E0E00F0
:100D500000000080808000030303E0FC3E060000EA
:100D60000000000000000000000000808080C0182B
:100D700038386C6CC6C6C3838101010000000000D6
:100D80000000000001010303060000000000000055
:100D90000000000000000000000000000000000053
:100DA00000000000C6C6C6C6C6C6C6C6C6C6C6C6FB
:100DB000C6C60000000000000000000000000000A7
:100DC0000000000000000000000000000000C0C0A3
:100DD0008080000000000000000000000000010111
:100DE0008383C3C6666C3C383810060303030101D5
:100DF00000000000000000000000000000000000F3
:100E000000000000000018180C0C0C1C18F8F0E092
:100E100000000078780C0E0703000000000C0C00A6
:100E20000000000000000000000000000000008042
:100E3000C06030181888888C8C8C8888183070E0D6
:100E400080007CFF010000FCFF830101010181FFA4
:100E500000000000FF7C0003070C183031232363DF
:100E6000636361230302020301000000000000002D
:100E70000000000000000000000000000000000072
:100E8000000000C0F83838F8E080000000000000E2
:100E9000C0F87F6F61606060677FFCE00000080E53
:100EA0000F030000000000000000010F0F0C000005
:100EB0000000000000000000000000000000F8F842
:100EC000F8181818181818B8F0E000FFFFFF0C0CFD
:100ED0000C0C0E0E0F1DF8F00F0F0F0C0C0C0C0C61
:100EE0000C0E0607030000000000000000000000D8
:100EF00000000080E0F03818180C0C0C1C18183892
:100F0000301EFFF380000000000000000000000021
:100F100000000307070E0C0C0C0C0C0C0E06060050
:100F20000000000000000000000000000000F8F8D1
:100F3000F8181818181818183070E0C000FFFFFFD4
:100F4000000000000000000080F3FF3F0F0F0F0CB7
:100F50000C0C0C0C0E060703030000000000000040
:100F600000000000000000000000F8F8F818181851
:100F7000181818181818FFFFFF06060606060606BA
:100F800006060F0F0F0C0C0C0C0C0C0C0C0C0000BC
:100F900000000000000000000000F8F8F818181821
:100FA0001818181818FFFFFF0C0C0C0C0C0C0C0078
:100FB0000F0F0F0000000000000000000000000004
:100FC0000000000000000080E0F0301818080C0C51
:100FD0000C0C181838301EFFF380000000000018B9
:100FE00018181838F8F800000303070E0C0C0C0C46
:100FF0000C0C0C0E070700000000000000000000B1
:10100000000000000000F8F8F800000000000000F8
:1010100000F8F8F8FFFFFF0606060606060606FFBC
:10102000FFFF0F0F0F00000000000000000F0F0F68
:1010300000000000000000000000000000000808A0
:10104000F8F808080000FFFF00000C0C0F0F0C0C54
:101050000000000000000000080808F8F8F8000090
:10106000000000FFFFFF0C0C0C0C0C070701000038
:10107000000000000000F8F8F800000080C0E070F8
:1010800038180800FFFFFF1C1E1F7FF1E0C00000A2
:1010900000000F0F0F00000000000103070E0C08F6
:1010A0000000000000000000000000000000F8F850
:1010B000F80000000000000000FFFFFF000000003B
:1010C000000000000F0F0F0C0C0C0C0C0C0C0C0093
:1010D00000000000000000000000F8F8F878E08050
:1010E0000000000080E07838F8F8FFFFFF000107FB
:1010F0001E78703E07010000FFFF0F0F0F00000079
:1011000000000000000000000F0F000000000000C1
:1011100000000000000000000000F8F8F838F0C0FF
:101120008000000000F8F8F8FFFFFF0000030F3E0A
:10113000F8E080FFFFFF0F0F0F000000000000032A
:10114000070F0F0F0000000000000000000000006B
:10115000000000C0E0F03818180C0C0C181838F01B
:10116000E080001EFFF3800000000000000000008F
:1011700080F3FF3E00000307060E0C0C0C0C0C0E57
:10118000060703000000000000000000000000004F
:10119000000000000000F8F8F81818181818387047
:1011A000E0C0FFFFFF10101818181C0E07030F0FE8
:1011B0000F00000000000000000000000000000020
:1011C00000000000000000C0E0F03818180C0C0C03
:1011D000181838F0E080001EFFF3800000000000C7
:1011E0000000000080E7FF1E00000307060E0C0C45
:1011F0000C1C7CFEC6C783C0C000000000000000BD
:1012000000000000000080808000F8F8F81818182E
:1012100018181878F0C00000FFFFFF181818387869
:10122000ECC7870100000F0F0F0000000000000155
:10123000030F0E0800000000000000000000000086
:101240000000E0F038181C0C0C0C1C1818180003D7
:1012500007070E0C0C0C1C1C1878F0E0060E0C0C8A
:101260000C0C0C0C0C0E0703010000000000000029
:10127000000000000000181818181818F8F8F818DE
:101280001818181818000000000000FFFFFF0000E9
:10129000000000000000000000000F0F0F00000021
:1012A000000000000000000000000000000000003E
:1012B0000000F8F8000000000000000000F8F8FF4F
:1012C000FFC00000000000000000FFFF0003070E49
:1012D0000C0C0C0C0C0C07070100000000000000B7
:1012E00000000000000038F8E0800000000000006E
:1012F00000C0F878080001073FFCE00000C0F07E65
:101300000F03000000000000010F0F0E0F0300008C
:1013100000000000000000000000000000000000CD
:10132000000008F8F8800000000000F078F8F000F5
:1013300000000000C0F87800000F7FF88000F07F08
:101340000700000FFFF000C0FC7F07000000000056
:10135000070F0F070000000000000F0F0F0700002D
:10136000000000000000000000000000000000007D
:10137000000000000000001838F0E080000000C00D
:10138000E078381800000080E1773F1E7FF3C080CE
:101390000000080C0F0301000000000003070E0C02
:1013A00000000000000000000000000000001878AD
:1013B000F0C08000000080E0F03808000000030763
:1013C000FEFCFE070100000000000000000F0F0FF0
:1013D000000000000000000000000000000000000D
:1013E000000000181818181818181898F8F8381865
:1013F000000080C0E0703C0E0703010000000C0EEE
:101400000F0D0C0C0C0C0C0C0C0C0C0C0000000048
:1014100000000000000000000000FCFC04040404C4
:10142000FFFF00000000FFFF8080808080808080C0
:1014300080800C3CF8C000000000000000000107A4
:101440003EF8C0000000000000000000073F78C028
:101450000000000000000000000004040404FCFC84
:1014600000000000FFFF80808080FFFF8080808080
:101470008080000080C0E038183870E080000000F4
:101480000C0E070100000000000003070E0800001A
:10149000000000000000000000000000000000004C
:1014A000000000000000000000000000000000003C
:1014B000000000000000000000000000000000002C
:1014C0000000000000000000C0C0C0C0C0C0C0C01C
:1014D000C0C0C0C0C0C0C0000000000000000000CC
:1014E000000000000000030F1C10000000000000BE
:1014F000000000000000008080808080808080806C
:101500000080E1E1313131111919FFFF03070F0CA0
:101510000C0C0C0C060F0F00000000000000000077
:101520000000FCFC00008080808080000000FFFF45
:10153000030101010101038FFEF80F0F0E0C0C0CCB
:101540000C0C0E070300000000000000000000006B
:1015500000000000008080808080808000F8FE8F86
:1015600003010101010101010003070E0C0C0C0C29
:101570000C0C04000000000000000000000000004F
:101580000080C0C0C0C08080FCFCF8FE8F0301005A
:1015900000010103FFFF0003070E0C0C0C0C0606F4
:1015A0000F0F00000000000000000000000000001D
:1015B000008080C0C0C08080000078FEFF333131E1
:1015C000303131333F3C000307060C0C0C0C0C0C83
:1015D0000E0600000000000000000000000080E097
:1015E000F8BC8C8C8C01FFFF01010101000F0F0082
:1015F000000000000000000000000000008080806B
:1016000080808080000078FECF030101010101038A
:10161000FFFE0003C7868E8C8C86C6F77F0F000006
:1016200080808080808000000000FCFC00008080C2
:101630008080808000FFFF03030101010103FFFEA2
:101640000F0F000000000000000F0F00000000005E
:101650000000000000009C9C00FFFF000F0F000036
:101660000000008080809C9C00010101FFFF8080C1
:1016700080C0FF7F808080800000FCFC00000000B4
:10168000000080808000FFFFE07078FCCE870301BF
:1016900000000F0F000000000103070E0C080000FF
:1016A00000000000000000000000FCFCFFFF0F0F26
:1016B00000008080000080808080800000008080AA
:1016C0008080808000FFFF03030101010107FFFF0D
:1016D000030101010103FFFF0F0F000000000000E4
:1016E000000F0F0000000000000F0F0000000000BE
:1016F00000000000000000000000000000008080EA
:10170000000080808080808000FFFF0303010101D2
:101710000103FFFE0F0F000000000000000F0F008C
:101720000000000000000000000000000080C0C0B9
:10173000C0C080000000F8FE8F0301000001010717
:10174000FFFC0003070E1C18181C0C070701000003
:101750000000000000000000000080800000808089
:10176000808080000000FFFF030101010101038F61
:10177000FE78FFFF0E0C0C0C0C0C0607010080809D
:1017800000000000000000000000000000808080D9
:1017900080808080808078FECF03010101010103F9
:1017A000FFFF0003070E0C0C0C0C0607FFFF0000E8
:1017B0000000000000000000808080800000808029
:1017C0008080FFFF0703010101010F0F00000000EF
:1017D0000000000000000000000000008080808009
:1017E00080808080001F3F3131716161E1C3060E4E
:1017F0000C0C0C0C0C0C0707000000000000000093
:10180000000080F8F8808080808001FFFF010101E6
:1018100001010003070F0C0C0C0C0000000000007D
:1018200000008080000000000000008080FFFF00BA
:10183000000000000000FFFF03070F0C0C0C0C065B
:10184000060F0F0000000000000000000000808074
:101850000000000000000000808001073FF8E00069
:1018600000C0F83E0F0100000000070F0F07010045
:101870000000000000000000000000000000808068
:101880000000000000008080000000000080800157
:101890001FFFF00080F83F070F7EF08080F87F0781
:1018A0000000000F0F0F0100000000030F0F0700E2
:1018B0000000000000000000000000000000000028
:1018C0000000808080000000000000808080000117
:1018D000038FDCF8F8FC8E070100080C0F030100F1
:1018E0000001030F0E0800000000000000000000CF
:1018F00000008080000000000000000080800107E0
:101900003FFCE08000E0F83E0F0100000080F37F24
:101910001F070000000000000080800000000000A1
:101920000000808080808080808080800001018134
:10193000C1E1711D0F0703000C0E0F0D0C0C0C0CF8
:101940000C0C0C0000000000000000000000000073
:10195000000000F8F80C0C040430303078CE870317
:101960000000000000000000037FFEC080808000B7
:1019700000000000000000008080FCFCFFFFFFFF73
:10198000808004040C0C3CF8E00000000000000023
:10199000000087CF58703030808080C0F07F1F00FB
:1019A0000000000080800000000000000000000037
:1019B0000000000000000000000000000060781C33
:1019C0000606060C1830606060603E1E00000000D5
:1019D0000000000000000000000000000000000007
:1019E000000000000000000000002F0319804000EC
:1019F0004A534F4E20466F726D6174204F666600E9
:101A00004A534F4E20466F726D6174206F6E0052C4
:101A100046206F6666005246206F6E0070756C73CC
:101A20006520706572696F64203D200070756C736D
:101A30006573203D2000646174616C6F67203D20F8
:101A400000694C656164006943616C007643616CB8
:101A5000203D200043616C6962726174696F6E3A67
:101A6000002064426D002C20002C204E6F64652005
:101A700000204D487A2C2047726F7570200042611B
:101A80006E64200053657474696E67733A000003D6
:101A90000C0F30333C3FC0C3CCCFF0F3FCFF0A0047
:101AA000202868696464656E292E00206279746557
:101AB00073002C20446174612073697A653A2000B8
:101AC000205369676E61747572653A20004E6F200D
:101AD0006461746120626C6F636B20666F756E6405
:101AE000202D20454550524F4D2061707065617228
:101AF0007320746F20626520666F726D6174746507
:101B00006420746F204F454D205374616E64617280
:101B1000642062757420756E757365642E000A000A
:101B20002062797465732C206E6F7420666F726DFD
:101B3000617474656420746F204F454D2053746147
:101B40006E646172640053697A653A2000446F6E76
:101B5000652E204E657720636F6E6669672073611E
:101B600076656420746F20454550524F4D00536197
:101B700076696E672E2E2E00536B6574636820772E
:101B8000696C6C206E6F772072657374617274205B
:101B90007573696E672064656661756C7420636F28
:101BA0006E6669672E00526573657474696E672E80
:101BB0002E2E0020000A417661696C61626C6520FE
:101BC000636F6D6D616E64733A0A6C09092D206C48
:101BD000697374207468652073657474696E6773C3
:101BE0000A7209092D20726573746F726520736B18
:101BF000657463682064656661756C74730A730943
:101C0000092D20736176652073657474696E67733E
:101C100020746F20454550524F4D0A7609092D20FA
:101C200073686F77206669726D776172652076657B
:101C30007273696F6E0A7A09092D207A65726F20B6
:101C4000656E657267792076616C7565730A7809CF
:101C5000092D20657869742C206C6F636B20616E90
:101C60006420636F6E74696E75650A3F09092D20E3
:101C700073686F7720746869732074657874206165
:101C80006761696E0A0A773C783E09092D207475F0
:101C9000726E2052464D20576972656C65737320D1
:101CA00064617461206F66663A2078203D203020A0
:101CB0006F72206F6E3A2078203D20310A623C6EB0
:101CC0003E09092D2073657420722E662E206261F4
:101CD0006E64206E203D20612073696E676C652004
:101CE0006E756D6572616C3A2034203D203433335B
:101CF0004D487A2C2038203D203836384D487A2CF3
:101D00002039203D203931354D487A20286D6179C0
:101D1000207265717569726520686172647761729D
:101D200065206368616E6765290A703C6E6E3E09C6
:101D3000092D207365742074686520722E662E202C
:101D4000706F7765722E206E6E202D20616E206977
:101D50006E74656765722030202D203331207265E6
:101D600070726573656E74696E67202D31382064FA
:101D7000426D20746F202B31332064426D2E20443D
:101D8000656661756C743A20323520282B372064E3
:101D9000426D290A673C6E6E6E3E092D2073657494
:101DA000204E6574776F726B2047726F75702020BC
:101DB0006E6E6E202D20616E20696E74656765728F
:101DC00020284F454D2064656661756C74203D2068
:101DD000323130290A6E3C6E6E3E09092D20736542
:101DE00074206E6F6465204944206E3D20616E2032
:101DF000696E746567657220287374616E646172C0
:101E000064206E6F6465206964732061726520319F
:101E10002E2E3630290A0A643C78782E783E092D19
:101E20002078782E78203D206120666C6F6174697F
:101E30006E6720706F696E74206E756D62657220BA
:101E4000666F722074686520646174616C6F676787
:101E5000696E6720706572696F640A633C6E3E0943
:101E6000092D206E203D203020666F72204F46469F
:101E70002C206E203D203120666F72204F4E2C208A
:101E8000656E61626C6520766F6C746167652C208D
:101E900063757272656E74202620706F776572208C
:101EA000666163746F722076616C75657320746F00
:101EB0002073657269616C206F757470757420662B
:101EC0006F722063616C6962726174696F6E2E203B
:101ED0000A6A3C6E3E09092D207475726E204A53C1
:101EE0004F4E2053657269616C20666F726D61742C
:101EF000206F6E20283129206F72206F666620289F
:101F000030292E0A663C78783E09092D2078782001
:101F10003D20746865206C696E6520667265717518
:101F2000656E637920696E20487A3A206E6F726D13
:101F3000616C6C7920656974686572203530206F3A
:101F4000722036300A6B3C783E203C79792E793EFF
:101F5000203C7A7A2E7A3E0A09092D2043616C6969
:101F6000627261746520616E20616E616C6F67756D
:101F70006520696E707574206368616E6E656C3A79
:101F80000A0909202078203D20612073696E676C62
:101F900065206E756D6572616C3A2030203D20764B
:101FA0006F6C746167652063616C696272617469EA
:101FB0006F6E2C2031203D206374312063616C6989
:101FC00062726174696F6E2C2032203D206374321E
:101FD0002063616C6962726174696F6E2C20657434
:101FE000630A0909202079792E79203D2061206635
:101FF0006C6F6174696E6720706F696E74206E75A6
:102000006D62657220666F722074686520766F6CF1
:10201000746167652F63757272656E742063616C9D
:102020006962726174696F6E20636F6E7374616E42
:10203000740A090920207A7A2E7A203D20612066D0
:102040006C6F6174696E6720706F696E74206E7555
:102050006D62657220666F722074686520706861B9
:1020600073652063616C6962726174696F6E20666A
:102070006F72207468697320632E742E20287A2072
:102080006973206E6F74206E65656465642C206FC3
:10209000722069676E6F726564206966207375705F
:1020A000706C6965642C207768656E2078203D200F
:1020B00030290A09092020652E672E206B30203236
:1020C00035362E380A0909202020202020206B31A7
:1020D0002039302E3920322E30300A613C78782E6B
:1020E000783E092D2078782E78203D206120666C7E
:1020F0006F6174696E6720706F696E74206E756DA4
:1021000062657220666F72207468652061737375F2
:102110006D656420766F6C74616765206966206EFA
:102120006F20612E632E206973206465746563746B
:1021300065640A6D3C783E203C79793E092D206D1E
:10214000657465722070756C736520636F756E744D
:10215000696E673A0A090920202078203D20302046
:10216000666F72204F46462C2078203D2031206635
:102170006F72204F4E2C203C79793E203D20616EBD
:1021800020696E746567657220666F722074686579
:102190002070756C7365206D696E696D756D20704A
:1021A0006572696F6420696E206D732E2028792016
:1021B0006973206E6F74206E65656465642C206F92
:1021C000722069676E6F726564207768656E20782B
:1021D000203D2030290A00456E65726779207661BE
:1021E0006C7565732073657420746F207A65726FE7
:1021F00000436F6E74696E75696E672E2E2E0052E5
:1022000046206F6666005246206F6E00456D6F6E09
:10221000547856342056002064426D0070203D20D2
:10222000004E6F646520006F666600206D7300507D
:10223000756C7365733A20002000200043616C3A8E
:10224000206B0047726F75702000467265713A20EE
:1022500000207300646174616C6F6720706572693F
:102260006F643A2000204D487A002C7066002C499B
:10227000002C70756C73653A002C45002C50002CB6
:1022800056004D53473A007D002C2270756C7365E3
:10229000223A002C2245002C2250002C2256007B92
:1022A000224D5347223A000A0000080A400CFFC0A2
:1022B00000C0DB2B11241FBECFEFCDBFDFE7DEBF99
:1022C00011E4A0E0B0E4EAE1F9E800E00BBF02C0ED
:1022D00007900D92A436B107D9F721E6A4E6B1E440
:1022E00001C01D92A730B207E1F711E1CAE5D1E1C3
:1022F00004C02197FE010E945B44C935D107C9F78C
:102300000E94652D0C948B440C940001E091785E42
:10231000F091795E8581837009F443C0838180FFE9
:1023200040C050917B5E5E7F30E020E090E04581D0
:10233000842F83702F5F3F4F213C6DE5360740F0BF
:10234000823049F1813049F184E093E0948308952B
:10235000642F6C7021F08CE0858382E1F6CF8130B0
:1023600021F4578330E020E0E2CF823001F746FFCE
:10237000DECF44FF04C0992341F383E0E6CF809190
:102380007C5E981760F4A92FB0E0AC57B14A8C91ED
:1023900080879F5FE7CF85E0D8CF81E1D6CF80E00F
:1023A000D4CF80E10895CF92DF92EF92FF92CF9346
:1023B000DF936A01815096E1899FE0011124CE5F8D
:1023C000D14A888323EA33E240E051E4CB01B601ED
:1023D0000E9453412091494030914A4040914B40E6
:1023E00050914C400E9453416B017C0160915C58BC
:1023F00070915D5890E080E00E94F2409B01AC013A
:10240000C701B6010E94CC4269837A838B839C8387
:102410001D828AE097EDA3E2BEE38E839F83A887A7
:10242000B9871A861B861C861D861E86DF91CF9172
:10243000FF90EF90DF90CF9008958091EC608D3009
:1024400011F42D9A0895873011F40F9A089581316F
:1024500009F44B9A089500009091F060911109C021
:10246000809344098091430987FFFCCF8091440900
:102470000895809364098091630987FFFCCF809160
:10248000640908958091EC608D3011F42D980895C1
:10249000873011F40F980895813109F44B9808950D
:1024A000CF93DF93D82FC62FEDDF8D2F8068D3DF3A
:1024B0008C2FD1DFDF91CF91C0CFCF93C82FE2DF38
:1024C0008C2FC9DF80E0C7DFC82FB7DF8C2FCF91FB
:1024D0000895CF939091C257981791F0C82F81E03B
:1024E000ECDF837E682F6C2B81E0DADF8091C257AE
:1024F000811104C087E2E1DF87FFF8CFC093C257A4
:10250000CF9108950F931F93CF93DF93EC0184E055
:10251000E0DF2097D9F088818823C1F0B3DF8EEB0C
:102520009ADF8E01005F1F4F899195DFC017D10799
:10253000D9F783DFC1E08DE3C0DF8E7F682F6C2B7E
:102540008DE3DF91CF911F910F91AACFC0E0F3CF20
:102550001092815710927F571092805710927D579A
:1025600010927E5710927C5710927B5788E2A5DF1D
:1025700082FF06C08DE3A1DF682F64608DE390DFEA
:1025800080E1A7CFAF92BF92CF92DF92EF92FF92FE
:102590000F931F93CF93DF936C017B018B01040F8B
:1025A000151FEB015E01AE18BF08C017D10759F027
:1025B0006991D601ED91FC910190F081E02DC60169
:1025C0000995892B79F7C501DF91CF911F910F9163
:1025D000FF90EF90DF90CF90BF90AF900895FC01F7
:1025E00055894689252F30E0842F90E0821B930B7C
:1025F000541710F0CF96089501970895FC01938920
:102600008489981761F0A489AE0FBF2FB11D57962A
:102610008C9194899F5F9F73948B90E008958FEFC6
:102620009FEF0895FC0193898489981731F084897C
:10263000E80FF11D878990E008958FEF9FEF0895CF
:10264000FC0193892489892F90E0805C9F4F821B35
:1026500091098F7399270895CF93DF93EC01E88157
:10266000F9810680F781E02D0995EC85FD8586814D
:1026700016828581158280E484838C898B8B1A8AEB
:10268000DF91CF9108958F929F92AF92BF92FF9268
:102690000F931F93CF93DF938C014A015B01D22FDD
:1026A000C32FDC0152968C91529780FF07C0ED91A9
:1026B000FC910288F389E02DC8010995D11101C070
:1026C000D3E0FD2EE894F2F8DC2FD095D07CB1E673
:1026D0008B16B3EE9B06B6E1AB06B10428F0D260D0
:1026E000B694A7949794879460E078ED88EB95E092
:1026F000A50194010E943642C9012034310510F42D
:1027000080E490E03C2F3B72D7FD30684D2F487C31
:1027100030FD41605FB7F894D8011C96ED91FC91B3
:102720001682F7828087918735FF8FC04F7781E0CF
:1027300084878FEF85873F7D3583D683F801218994
:10274000C08986859785FC0133E0239FE00DF11D4C
:102750001124659174912C1708F059C0272F46FF5A
:1027600076C0793288F430E0F901EF5AFF4BA0814E
:10277000AF3F51F026583F4BF901308120E2329FA4
:10278000F0011124FC5FA18347FF2AC021E0270F3D
:10279000293230F530E0F901EF5AFF4BD081DF3FAD
:1027A000F9F0F901E658FF4BA081F0E2AF9FD001AC
:1027B0001124BC5F2D553F4BF9011081F0E0E0E0A2
:1027C000183030F49D01205F3F4FF901E10FF11DFA
:1027D0003FB7F8941296DC932081286020833FBF96
:1027E00040FF15C023E0270F293288F430E0F901BB
:1027F000EF5AFF4B40814F3F51F026583F4BD901D4
:10280000EC91B0E2EB9FF0011124FC5F4183FC01ED
:1028100023E0C29FE00DF11D1124319625913491E2
:10282000F901FF27EE51FA4F9081832F809589237C
:10283000682B60835FBFDF91CF911F910F91FF9055
:10284000BF90AF909F908F900895148674CF342FCF
:10285000307509F499CF793208F096CF30E0F9015C
:10286000EF5AFF4BD081DF3F09F48ECFF901E658D4
:10287000FF4BA081E0E2AE9FD0011124BC5F2D553B
:102880003F4BF9011081F0E0E0E0183030F49D0199
:10289000205F3F4FF901E10FF11D3FB7F894129609
:1028A000DC932081286020833FBF6ECFFC010FB6F0
:1028B00007FE04C0809111018823A9F0A485B58585
:1028C00014968C91149785FF0EC095898689981768
:1028D00039F015968C9115978F7D15968C930895E8
:1028E000E8940C94792608950F931F93CF93DF9368
:1028F000EC018A89982F91609A8B2D899E892913E2
:102900000AC0EC85FD85948195FF05C081FD0DC051
:1029100080E4848312C0062F1D891F5F1F738E8978
:10292000811315C0CE01C2DFFACF85818F77806415
:1029300090E49483EC85FD858583EC85FD85628339
:1029400081E090E0DF91CF911F910F910895ED8983
:10295000EC0FFD2FF11DE95AFF4F00831D8BEC8515
:10296000FD858A8981FF09C085818F77806690E423
:102970009483EC85FD858583E3CF85818062FBCFE1
:10298000EF92FF920F931F93CF93DF938C017B0104
:10299000D0E0C0E0F701EC0FFD1F6491662331F039
:1029A000C801A2DF892B11F02196F4CFCE01DF916F
:1029B000CF911F910F91FF90EF90089595CFCF93F6
:1029C000DF93EC018A8980FF0BC0EC85FD85858152
:1029D00085FD03C0848186FD03C0CE0167DFF5CF8E
:1029E000DF91CF91089581E008950F98079A20E52F
:1029F00033EC93E0179A44E1F9013197F1F7415034
:102A0000D9F7482F179AF9013197F1F7179A59E03A
:102A1000F9013197F1F75150D9F7415099F7915099
:102A200049F7E7CF9FB7F894E0912A0BF0912B0B71
:102A30008091260B20912F5730913057409131577C
:102A4000509132579FBF80FF08C0EC3E8CE2F807E0
:102A500020F42F5F3F4F4F4F5F4F0F0116940794A5
:102A6000169407941694079416940794F0011694FC
:102A70000794E00DF11D16940794102C169401187C
:102A80001694010C169401181694010C1694011852
:102A900016941694010C1124E019F109A8EEB3E084
:102AA0000E9426426E0F7F1F811D911D08958F92F7
:102AB0009F92AF92BF92CF92DF92EF92FF926B0103
:102AC0007C01B0DF4B015C01C114D104E104F104CD
:102AD000B1F0A8DF681979098A099B09683E73403B
:102AE0008105910588F321E0C21AD108E108F108B7
:102AF00088EE880E83E0981EA11CB11CE5CFFF90E4
:102B0000EF90DF90CF90BF90AF909F908F900895FF
:102B10002FB7F89460912F577091305780913157AB
:102B2000909132572FBF0895815090913A572FE5D9
:102B3000929FF0011124EE56F74A45E1849F9001DF
:102B400011242A5F324A20833183615026E1629F3B
:102B5000B00111246E5F714A62837383648375834D
:102B6000E25AFF4F21E02083E82FF0E0E35CF84ACF
:102B700090839F5F90933A5708958F929F92AF9260
:102B8000BF92CF92DF92EF92FF920F93CF936B01A0
:102B90007C0120E030E040E05FE30E94EE4087FFF0
:102BA00005C0C12CD12CE12C8FE3F82EC09211402E
:102BB000D0921240E0921340F09214408090375728
:102BC00090903857C091395720E836E948E15BE4E6
:102BD000C701B6010E9453416B017C01B12CA12CAD
:102BE000C501B4010E94F2409B01AC01C701B601CE
:102BF0000E94CC420E9439436B017C0160E876E977
:102C000088E990E0A50194010E943642CA01B90109
:102C100000914640202F30E050E040E00E943642D4
:102C200044275527C701B601621B730B840B950B14
:102C30002C2F30E050E040E00E94364220931E4F9F
:102C400030931F4F4093204F5093214FCF910F91BE
:102C5000FF90EF90DF90CF90BF90AF909F908F90BC
:102C60000895DC01ED91FC91F170FC5E8081089586
:102C7000CF92DF92EF92FF920F931F93CF93DF9348
:102C800000D0CDB7DEB76C017C0103E010E0098312
:102C90001A83CE010196E5DFF70181937F010F5F73
:102CA0001F4F0730110599F7C6010F900F90DF9164
:102CB000CF911F910F91FF90EF90DF90CF900895EB
:102CC0000F931F93CF93DF9300D000D0CDB7DEB723
:102CD0008C0119821A82CE010196C3DF8F34F9F478
:102CE00081E090E089839A83CE010196BADF853432
:102CF000B1F482E090E089839A83CE010196B1DF3E
:102D00008D3469F481E00115110551F0CE01019671
:102D1000AFDF81E02B813C812017310709F080E093
:102D20002496CDBFDEBFDF91CF911F910F91089503
:102D30001F93CF93DF93EC01162F93DF8117B1F030
:102D40009FB780910210282F227081FDFACFF8944E
:102D50008DE984BF2093001023E184BF20930010ED
:102D6000E881F981F170FC5E10839FBFCE01DF9195
:102D7000CF911F910895CF92DF92EF92FF920F9320
:102D80001F93CF93DF9300D0CDB7DEB76C017C01EA
:102D900003E010E009831A83F70161917F01CE01FE
:102DA0000196C6DF0F5F1F4F0730110599F7C60167
:102DB0000F900F90DF91CF911F910F91FF90EF90A7
:102DC000DF90CF9008950F931F93CF93DF9300D0A0
:102DD000CDB7DEB70091685E1091695E80916A5E42
:102DE00090916B5E081719079CF4C801957189834F
:102DF0009A836FEFCE0101969BDF1092645E109272
:102E0000655E8091625E9091635E080F191FE6CF48
:102E10000F900F90DF91CF911F910F910895CF9355
:102E2000DF93EC018D85882329F081508D87DF9118
:102E3000CF9108959C818E819817C8F7888968275B
:102E4000E881F9810084F185E02D42E0CE01099509
:102E50008C818F5F8C83EBCFDC01ED91FC91008442
:102E6000F185E02D40E009940F931F93CF938C01DF
:102E7000FC016483C085C60F6C2F6F70EDDF6C2F73
:102E800062956F706061C801CF911F910F91E4CF7F
:102E9000FC012781269526952695621730F46583D7
:102EA0002385620F6770606BD7CF08951F93CF9310
:102EB000DF93EC01142F8E81681710F4CE01D4DF5C
:102EC000612FCE01DF91CF911F91E2CFCF92DF92A0
:102ED000EF92FF920F931F93CF93DF93EC01F62EA7
:102EE000C42ED22E1D868F818695869586950817CD
:102EF00010F00FEF080F1D2D011770F0412F6F2DEF
:102F0000CE01D4DFEF2CCE1428F06889CE0187DF04
:102F1000E394F9CF1F5FF0CF4D2D6F2DCE01DF91E0
:102F2000CF911F910F91FF90EF90DF90CF90BECF88
:102F30000F93CF93DF93C1EFD0E61B861A8660E430
:102F4000CE018ADF0F8106950695069501504E81C8
:102F5000415020E060E0CE01B9DFDF91CF910F91C9
:102F600008952F923F924F925F926F927F928F922D
:102F70009F92AF92BF92CF92DF92EF92FF920F9308
:102F80001F93CF93DF93CDB7DEB72697CDBFDEBFBC
:102F9000DC011E962D913C912115310509F46CC17F
:102FA0008D839E83F9013296649031964491E42E8C
:102FB000F12CB7E0EB0EF11C53E0F594E7945A9531
:102FC000E1F7E982319654913196E4916D3009F53B
:102FD000FC018681811118C081E090E02696CDBF6A
:102FE000DEBFDF91CF911F910F91FF90EF90DF90A7
:102FF000CF90BF90AF909F908F907F906F905F9099
:103000004F903F902F90089560E08D819E812CDF3E
:10301000E3CF6A3009F063C0AD81BE8116968C9112
:103020001697882319F060E0CD011EDFED81FE8147
:1030300001890E9DE02C112465816E0D8485882305
:1030400049F027812695269526958E2D821B860F81
:10305000181624F08D819E811BDFBECFAD81BE810D
:103060001B969C911B97890F87701B968C931B97BF
:103070002E1915962C9315971E96ED91FC9130976D
:1030800061F13396E491F0E0379633E0F595E795FA
:103090003A95E1F70E9F002D1124EFEFE20F0E0F8E
:1030A000ED81FE81468141506481CF010FDFAD810A
:1030B000BE811C968C911C97813009F08DCF1B9698
:1030C0006C911B97660F660F660F6F731A966C9361
:1030D0001A976064CD01C0DE7FCF00E0DECF6517B8
:1030E00008F4CAC08E2F90E0FC01E50FF11D6E17A9
:1030F0001F060CF0C1C089010A5F1F4F651BED81DF
:10310000FE8171855189759F502D11245C83F901D1
:1031100054912F5F3F4FF9012491352F2230310513
:1031200008F06DC06E9CC0016F9C900D1124689FCB
:10313000F001699FF00D11240E0F1F1F512CAD815E
:10314000BE811496BC91BA83ED81FE812580F58500
:10315000FB83862C912CAA24A394B12C312C898139
:10316000381608F087C0412CAD81BE8151968C91F4
:103170005197481608F077C0EB811D96EC933110FB
:1031800002C0442049F0AD81BE8115964C9115973F
:103190004F5F6A81CD018ADED12CC12CC61408F0A4
:1031A00056C0F801EC0DFD1D7490552061F0EA1435
:1031B000FB0449F4E72DF0E0052C02C0F595E795F6
:1031C0000A94E2F77E2EED81FE818189823079F4C6
:1031D000442009F438C072948FE07822E72DF0E0A3
:1031E000E257F54E7490672D8D819E8118DE672D14
:1031F0008D819E8114DE8FEFC81AD80ACFCF477019
:1032000028E0522E541A411101C0512CF801612CB2
:1032100030E020E0661631F04491240F311D6394B4
:103220003196F8CF600E712E711CF3016490E29E0E
:10323000F001E39EF00DF29EF00D11248E0F9F1F02
:10324000080F191F7CCFF72DFF707F2EC7CFD12C11
:10325000AC81DA1631F060E08D819E81E0DDD3949F
:10326000F7CF439481CF3394080D191DBFEFAB1AEC
:10327000BB0A75CF622DEECE90E080E0AFCEDC01D0
:103280001C96ED91FC919381818513821186938325
:1032900091E09583818708959C0126563F4FDC017C
:1032A0005296EC91529751968C91E81730F4E20FB8
:1032B000F32FF11D808190E008958FEF9FEF089527
:1032C000FC01DC01A656BF4F92898189981740F412
:1032D000A90FB11D2C919F5F928B822F90E00895D2
:1032E0008FEF9FEF0895FC0181899289891B990BCB
:1032F0000895CF92DF92EF92FF920F931F93CF9397
:103300006C014338510510F042E850E0C42F7B01B6
:1033100010E000E00C1780F4D7016D917D01D6011B
:10332000ED91FC910190F081E02DC6010995980185
:103330002F5F3F4F892B49F4C801CF911F910F9107
:10334000FF90EF90DF90CF9008958901E3CFFC01CB
:10335000A089A23858F4A80FB92FB11D58966C93C4
:1033600080898F5F808B81E090E0089590E080E01D
:103370000895DC011A96ED91FC911B97309731F07E
:1033800015968C91882311F090E009940895CF93BD
:10339000DF93FC01A081B1811B968C911B97982F24
:1033A0009C7029F01D968C911582148229C086FF8D
:1033B0002AC0EF0180FF1DC081FF11C01D968C91B6
:1033C0008383CF01D6DF1C821F82E885F985309781
:1033D00009F00995E881F98183E0828711C01D9683
:1033E0008C911D9783831582168283E01A968C93A5
:1033F00007C080E41B968C93CF01BBDF1D821E8229
:10340000DF91CF91089587FFFBCF81FF22C084FF1A
:1034100009C0828187FF06C08F77828382E01A9677
:103420008C93C3CF828180688283C7818481C817CF
:1034300070F4CE0FDF2FD11D8C851D968C931D97B8
:1034400083E01A968C9387818F5F8783D9CF82E040
:10345000CDCF1D969C911D978581823868F4DF0140
:10346000A80FB11DA257BF4F9C9385818F5F8583A5
:103470000190F081E02DB0CF86E01A968C931582F2
:103480001682BECFDC01ED91FC910088F189E02D20
:1034900023E030E00994089590E080E008950F93D0
:1034A0001F93CF93DF938091C257803109F06EC094
:1034B00088E203D882FF42C084E00BD80E94421207
:1034C00080E00E942B1280E00E942B12D82FC82F80
:1034D000833408F0C2E4C0937C5780E00E942B1232
:1034E000082F80E00E942B12182F80E00E942B12E0
:1034F000282F30E0A90196E0440F551F9A95E1F777
:1035000044275370402B40937D5750937E57322F62
:10351000222722273370212B20937F573093805707
:103520009091EA609417150611F0452B11F4D330F1
:10353000B0F410927C570E941D120AD88091C25795
:10354000803121F580917C57882311F184E00E941D
:10355000691281E0DF91CF911F910F910895C350BF
:10356000C0938157807880937B57D0E0DC1728F494
:1035700080E00E942B12DF5FF9CF0E941D1280E1D4
:103580000E94691284E20E945D12D8CF0E94A812A4
:1035900080E0E0CF94E081111BC0909346049091AD
:1035A000400492FD0AC09FB7F894811114C0809125
:1035B0005204877F809352049FBF8091E6058770F5
:1035C000823029F48091010A8B7F8093010A08954B
:1035D00090934504E4CF809152048860EBCF0F9321
:1035E0001F93CF93DF93EC01062F142F8B8981312A
:1035F00020F4882329F0411103C00E9486111B8A00
:103600008B8981110DC08A89880F80937B5E10920F
:103610007C5E60E4111101C060E08CE69EE597DEFF
:10362000602F8CE69EE593DE123041F48B898F5F2C
:103630008B8BDF91CF911F910F9108950E9486117E
:103640001B8AF7CF0F931F93CF93DF93CDB7DEB7CE
:103650002C97CDBFDEBF681BF1F0062F10E0682F5E
:1036600070E06E57784AA801CE0101960E947C4412
:10367000E1E0F0E0EC0FFD1FE00FF11F1082CE0142
:1036800001960E94543F2C96CDBFDEBFDF91CF91B3
:103690001F910F91089590E080E0F5CF0F931F9355
:1036A000CF93DF93CDB7DEB72C97CDBFDEBF681BBE
:1036B000F1F0062F10E0682F70E06E57784AA801ED
:1036C000CE0101960E947C44E1E0F0E0EC0FFD1F8A
:1036D000E00FF11F1082CE0101960E94513F2C96FF
:1036E000CDBFDEBFDF91CF911F910F91089560E0B4
:1036F00070E0CB01F4CFFB0101900020E9F7319796
:10370000AF01461B570BDC01ED91FC910280F38168
:10371000E02D099466E071E4EECF0F931F93CF93F1
:10372000DF93EC012DD98C01CE01F4DF800F911FC6
:10373000DF91CF911F910F9108956115710509F0E7
:10374000DACF90E080E008958F929F92AF92BF927F
:10375000EF92FF920F931F93CF93DF93CDB7DEB716
:10376000A197CDBFDEBF7C01FA01CB0119A22230A7
:1037700008F42AE08E010F5D1F4F822E912CB12C90
:10378000A12CBF01A50194010E943642F901CA0192
:103790006A30CCF4605DD8016E938D01232B242B0D
:1037A000252B79F7BD01C701C8DFA196CDBFDEBFCC
:1037B000DF91CF911F910F91FF90EF90BF90AF904D
:1037C0009F908F900895695CE6CFCF92DF92EF9241
:1037D000FF920F931F93CF93DF9377FF1BC06A0174
:1037E0007B01EC016DE2EAD88C0144275527BA0130
:1037F0004C195D096E097F092AE0CE01A5DF800F13
:10380000911FDF91CF911F910F91FF90EF90DF906B
:10381000CF9008952AE0DF91CF911F910F91FF90F3
:10382000EF90DF90CF9090CFAB01770F660B770BC7
:10383000CCCFCF93DF93BC0183EC97E5F5DFEC01B0
:1038400083EC97E567DF8C0F9D1FDF91CF91089583
:1038500074CFAF92BF92CF92DF92EF92FF920F930D
:103860001F93CF93DF9300D0CDB7DEB76C015B0120
:1038700010E000E00A151B050CF039C07801EC0CD3
:10388000FD1C85E1F822E982FA82CE010196E9D990
:10389000803120F460E383EC97E590D80F5F1F4FF1
:1038A000E982FA82CE010196DCD9482F50E070E01F
:1038B00060E020E183EC97E547DF67E171E483ECAA
:1038C00097E5C6DFC80187709927892B29F467E13E
:1038D00071E483EC97E5BCDFC8018F709927892BD1
:1038E00049F667EA72E283EC97E54AD8C3CF0F90B6
:1038F0000F90DF91CF911F910F91FF90EF90DF908C
:10390000CF90BF90AF9008954F925F926F927F9249
:103910008F929F92AF92BF92CF92DF92EF92FF92DF
:103920000F931F93CF936B017C01742EAC019B010D
:103930000E94504469E071E4811126C0460157019C
:10394000E894B7F82FEF3FEF4FE75FE7C501B40109
:103950000E94504481110CC02FEF3FEF4FE75FE70B
:10396000C501B4010E94EE406DE071E4181664F0E8
:103970002FEF3FEF4FE75FE4C701B6010E940A4413
:103980001816A4F461E171E483EC97E5CF911F91DF
:103990000F91FF90EF90DF90CF90BF90AF909F90EE
:1039A0008F907F906F905F904F90A5CE2FEF3FEF5D
:1039B0004FE75FECC701B6010E94EE4087FDE2CF02
:1039C00020E030E0A901C701B6010E94EE4010E0FE
:1039D00000E087FF0AC06DE283EC97E50E94DE14E9
:1039E0008C01F7FAF094F7F8F094C0E060E070E032
:1039F00080E09FE37C1641F020E030E040E251E4BB
:103A00000E94CC42CF5FF6CFA70196010E94684288
:103A10002B013C010E9439434B015C012AE0BC01AF
:103A2000A40183EC97E590DE7C01E00EF11ECC232F
:103A3000C9F1C501B4010E94F2409B01AC01C30170
:103A4000B2010E9467424B015C016BE271E483ECBE
:103A500097E551DEE80EF91EC15020F120E030E07C
:103A600040E251E4C501B4010E9453412B013C01E5
:103A70000E9439434B01B12CA12C2AE0B501A401CD
:103A800083EC97E561DEE80EF91EC501B4010E94E2
:103A9000F2409B01AC01C301B2010E9467424B019D
:103AA0005C01DACFC701CF911F910F91FF90EF908A
:103AB000DF90CF90BF90AF909F908F907F906F904E
:103AC0005F904F900895CF93DF931EDFEC0183EC5E
:103AD00097E520DE8C0F9D1FDF91CF9108950F9306
:103AE0001F93CF93DF9364E87AE183EC97E515DECB
:103AF0006EE77AE183EC97E50E94C0148091A460A0
:103B000061EB71E08B3251F064E673E0863531F0A1
:103B100070E060E08B3511F463E973E083EC97E5C6
:103B200083DE61E77AE183EC97E50E94C01440915F
:103B3000A56050E070E060E02AE083EC97E504DEE9
:103B400069E67AE183EC97E50E94C0146091A66073
:103B50006F7370E083EC97E567DE66E67AE183ECED
:103B600097E50E94C0146091A8606251770B83ECC6
:103B700097E55ADE61E67AE183EC97E5CEDD64E510
:103B80007AE183EC97E5C9DD6CE47AE183EC97E5B3
:103B90000E94C0146091A9607091AA608091AB608E
:103BA0009091AC6042E050E08EDF01EB10E6C1E0A6
:103BB000D0E067E47AE183EC97E50E94C014BE018F
:103BC00083EC97E531DE65E171E483EC97E540DE57
:103BD000F80161917191819191918F0142E050E0E2
:103BE00072DF61E47AE183EC97E50E94C014BE01C4
:103BF00083EC97E519DE65E171E483EC97E528DE57
:103C0000F801648975898689978942E050E05BDF15
:103C10002196C730D10569F666E37AE183EC97E532
:103C20000E94C0146091E1607091E2608091E36055
:103C30009091E46042E050E046DF6CE27AE183EC90
:103C400097E50E94C0148091E56090E0F2DD6CE1A0
:103C50007AE183EC97E50E94C0148091E660909130
:103C6000E760E7DD8091A7606FE07AE1882311F0DB
:103C700066E17AE183EC97E550DD8091E96060EFE1
:103C800079E1882311F060E07AE183EC97E5DF9138
:103C9000CF911F910F9141CD0E946D442F923F9281
:103CA0004F925F926F927F928F929F92AF92BF924C
:103CB000CF92DF92EF92FF920F931F93CF93DF93F8
:103CC000CDB7DEB72A97CDBFDEBF89879A87162F7B
:103CD0007A01222E312CB101032C000C880B990B98
:103CE0000E94F4404B015C01612F70E090E080E0A5
:103CF0000E94F44020E030E044EB53E40E94534142
:103D00002B013C01B70190E080E00E94F2409B0152
:103D1000AC01C301B2010E945341A50194010E946C
:103D2000534120E836E948E15BE40E94CC422B0194
:103D30003C01E985FA8505818081081B110B2181F1
:103D400032814381548166817781808591850E948B
:103D50006742A30192010E94CC426B017C01B80131
:103D6000012E000C880B990B0E94F440A5019401D0
:103D70000E94CC429B01AC01C701B6010E9468427F
:103D80006D837E838F8398870E94A74369837A839C
:103D90008B839C8320E030E040E85FE30E94684230
:103DA0006B017C0120E030E0A90169817A818B817F
:103DB0009C810E940A4487FDA2C0A7019601C5010B
:103DC000B4010E9453410E943443E985FA85628719
:103DD000738716861786E985FA8526853785020F4B
:103DE000131F06871787020D131D0487158720E010
:103DF00030E044EB53E4C301B2010E94CC422BED0E
:103E00003FE049EC50E40E9453416B017C01298161
:103E10003A814B815C816D817E818F8198850E9482
:103E20006742A30192010E94534120E030E044EB3D
:103E300053E40E94CC422BED3FE049EC50E40E9459
:103E400053414B015C01A70196010E94CC422B011A
:103E50003C01E985FA85448A558A668A778AA501F4
:103E60009401C501B4010E94534120E030E040E0DC
:103E70005FE30E9453419B01AC0160E070E080E889
:103E80009FE30E9467424B015C01A7019601C701B5
:103E9000B6010E94534120E030E040E05FE30E9421
:103EA00053419B01AC0160E070E080E89FE30E9419
:103EB0006742A30192010E9453419B01AC01C501DD
:103EC000B4010E946742E985FA85608B718B828B11
:103ED000938B2A96CDBFDEBFDF91CF911F910F91BB
:103EE000FF90EF90DF90CF90BF90AF909F908F901A
:103EF0007F906F905F904F903F902F900895E9854D
:103F0000FA8512861386C701B6019058A50194015F
:103F10000E9453410E943443E985FA85668777877A
:103F20005ACFCF92DF92FF920F931F93CF93DF93DD
:103F30000FE5089FF0011124EF01CE56D74AAA8160
:103F4000BB811F962C911F972A8B16964D915D91E0
:103F50006D917C9119974B8B5C8B6D8B7E8BA881BF
:103F6000B9811F962C911F972F8B16964D915D91BD
:103F70006D917C911997488F598F6A8F7B8F209113
:103F80003957C0903757D0903857F09046408F013E
:103F9000A6016F2DCF018C55974A80DEEC81FD8103
:103FA0008A819B818E179F0729F187858AA7868141
:103FB0009781A085B1858BA79CA7ADA7BEA7E881F7
:103FC000F98187858FA786819781A085B18588AB88
:103FD00099ABAAABBBAB20913957A6016F2DC80195
:103FE0008454974ADF91CF911F910F91FF90DF90FA
:103FF000CF9054CEDF91CF911F910F91FF90DF9022
:10400000CF9008952F923F924F925F926F927F923E
:104010008F929F92AF92BF92CF92DF92EF92FF92D8
:104020000F931F93CF93DF93CDB7DEB7E897CDBF44
:10403000DEBF68EE73E080E090E00E945715E091EB
:10404000785EF091795EE11529E0F20709F073C01E
:104050008091E5058C7F82608093E50580917A5E92
:10406000807641F5E11549E0F40709F071C08091CF
:10407000E5058370823009F067C08CE080934604C8
:1040800080917A5E806280937A5E81E0838385830B
:1040900090917A5E95FF21C096819C3679F02381BC
:1040A00013829CE6968390819D7F9083238320FFDB
:1040B00005C0858380917A5E85FF0FC0868185313A
:1040C00061F09381138285E1868380818D7F808377
:1040D000938390FF02C081E08583109204618CE39A
:1040E000809303611092F5601092F660EAEEF9E1B8
:1040F000C590D490ECEEF9E1F490EDEEF9E1E491A5
:10410000E093F760EEEEF9E1E491E093F860EFEE12
:10411000F9E1E491E093F96010E000E00F1550F54B
:10412000F601E00FF11F649181EF90E60E942C17D9
:104130000F5F1F4FF3CFE03239E0F30709F08ECF66
:104140008091E50588E088CF8CE08093060498CFC5
:10415000E03289E0F80709F093CF8091E5058C7093
:10416000883021F48CE0809326048ACF8CE0809301
:10417000A60486CF0E949817E4EBF8E0E093FF6076
:10418000F0930061E491E5EBF8E0E49182E0809344
:10419000FA600E94981741E06FE081EF90E60E947C
:1041A000561769E171E481EF90E652DBE0E0F4E05C
:1041B000E093FF60F09300618491E1E0F4E0E4912A
:1041C000F82F319709F005C21092FA6046E068E2D4
:1041D00081EF90E60E94561761E271E481EF90E66C
:1041E00037DB80917A5E85FF0CC0E091785EF091BC
:1041F000795E86FF1382168280917A5E8F7D80932E
:104200007A5E80917A5E86FF0FC0E091785EF091D1
:10421000795E85FF138214861186168680917A5EF8
:104220008F7B80937A5E11822FB7F89494E09093FD
:10423000220480913204877F809332042FBF2FB7EE
:10424000F89488E08093220480913304877F8093E0
:1042500033042FBF9093410481E09CD940E052EC9D
:1042600061E070E083EC97E50DD96DED73E083ECD0
:1042700097E50E94C0146DE271E483EC97E55DDA86
:1042800067EC73E083EC97E548DA91EB292E90E632
:10429000392E24EAE22E20E6F22E89EC90E6F10196
:1042A00000E010E020EA31E44DEC5CEC6CE470E4FA
:1042B0000193119321933193448B558B668B778BAC
:1042C0008E179F07A9F780E190E00E94601688236F
:1042D00021F1CE0101960E94381609811A8117FD3D
:1042E0001CC0680193E0C90ED11C87E090E05C011E
:1042F000AFEFAA1ABA0A8EA79FA7CE018E960E9488
:104300003116F70181937F01C501AC14BD0478F328
:1043100069E573E00430110511F468E473E083EC9F
:1043200097E5FBD9DCDB8091A760882309F455C0B1
:104330006EEB73E083EC97E50E94C01466EB73E0CC
:1043400083EC97E50E94C0148091A4608B3231F415
:104350006FEA73E083EC97E50E94C0148091A4603B
:10436000863531F468EA73E083EC97E50E94C01467
:104370008091A4608B3531F461EA73E083EC97E5BA
:104380000E94C01468E973E083EC97E50E94C014B2
:104390004091A56050E070E060E02AE083EC97E592
:1043A000D3D960E973E083EC97E50E94C014409193
:1043B000A66050E070E060E02AE083EC97E5C4D9A5
:1043C0006EE873E083EC97E5A8D965E371E483ECCC
:1043D00097E591D983EC97E59DD98091A7608823D3
:1043E00009F446C187E08093EC6084E08093ED603F
:1043F00085E08093EE6086E08093EF601092F0603D
:104400001091A5608091A6608093EA601092EB60A5
:1044100080E88093010480E1809301049FB7F894C1
:1044200080E28093020480911504877F80931504B5
:104430009FBF8091EF60893288F490E0FC01EF5AD1
:10444000FF4B20812F3F51F086589F4BDC01EC91B0
:10445000B0E2EB9FF0011124FC5F21830E941D124A
:104460008091F0608111B9C08091E4058C7F8093C8
:10447000E40580914109846080934109809140095D
:104480008162809340090E9488156B017C016AEA71
:104490008FE20E9450128FE20E945D128A3A59F018
:1044A0000E9488156C197D098E099F096233710578
:1044B0008105910560F30E9488156C197D098E09AC
:1044C0009F09623371058105910508F0B7C00E940C
:1044D00088156B017C0165E58FE20E9450128FE226
:1044E0000E945D12853559F00E9488156C197D096E
:1044F0008E099F09623371058105910560F30E9461
:1045000088156C197D098E099F0962337105810533
:10451000910508F093C0FE0133968BE2DF011D92F6
:104520008A95E9F781E0898384E08A8322E02B83FE
:1045300093E09D832E838F8380E4888725E02987FD
:104540009A8796E09B8793E39C8797E09D8728E076
:104550002F8729E0298B29E12B8B32E43C8B25E244
:104560002D8B8E8B26E22F8B988F98E2998F20E1EE
:104570002A8F99E29B8F9CED9C8F9EE29D8F98E8FD
:104580009E8F9FE29F8F9DE298A390E399A347E3BC
:104590004BA340E94CA348E34DA33EA33CE33FA318
:1045A0003FE838A73DE339A72AA72FE62BA79CA70A
:1045B0009CE69E87888B1AA38E010F5F1F4FF80120
:1045C00080818823D1F061810E9450120E5F1F4FBD
:1045D000F6CF81E08093FA60F9CD8091E405837F86
:1045E0008093E405809161098460809361098091E2
:1045F000600981628093600946CF90E080E00E946C
:10460000821269E981E10E94501284E00E946912DD
:104610000E9488156B017C0187E20E945D1287FD74
:104620000BC00E9488156C197D098E099F096233A1
:1046300071058105910580F30E9488158FE491E44E
:104640000E9482122091A660F4E12F9F8001112424
:1046500060E070E0CB010115110541F00E94FC3EC5
:104660009801110F440B550B0E940A420E945715E6
:104670008EE08093050680910306809303061092D6
:10468000B00086E08093020681E08093000680916E
:1046900000068093000687E08093080660E070E0E3
:1046A000CB0150E040E021E020930A0630910D0656
:1046B00030FFFCCF4A30510544F0E0911006F091F4
:1046C00011066E0F7F1F811D911D4F5F5F4F4A3195
:1046D00037E2530749F70E94F24020E030E44CE112
:1046E00056E40E94CC4220E030EF4FE755E40E94B0
:1046F000CC429B01AC0166E676E686E69FE30E942B
:10470000CC426B017C016EE673E083EC97E50E947E
:10471000C01444E050E0C701B601D5D94091A9606A
:104720005091AA606091AB607091AC6081E00E9492
:10473000D3114091A9605091AA606091AB607091D3
:10474000AC6082E00E94D3114091A9605091AA60B0
:104750006091AB607091AC6083E00E94D311409097
:10476000494050904A4060904B4070904C4060915E
:104770005C5870915D5890E080E00E94F2404B01DF
:104780005C0106E01DE520E0D10158968D919D91D8
:104790000D90BC91A02D88AB99ABAAABBBABF1013E
:1047A00061917191819191911F01F1E0F20FFCAB48
:1047B000D8012C9320E030E040E450E40E945341C3
:1047C000A30192010E945341A50194010E94CC4291
:1047D000F8016183728383839483158288A999A9E0
:1047E000AAA9BBA986839783A087B187128613865F
:1047F0001486158616860B5E1F4F2CA9263021F6CF
:1048000061E081E00E94941562E082E00E949415CC
:1048100063E083E00E94941561E084E00E949415B7
:1048200062E085E00E94941563E086E00E949415A2
:1048300082E3809346408AE0809315406091E16076
:104840007091E2608091E3609091E4600E94BD15F8
:10485000C0924940D0924A40E0924B40F0924C4086
:1048600010926B581092160484E190E08093625885
:104870009093635892E09093645881E080936C58D1
:1048800010927B581092170480938B5829E0209344
:10489000B30425E030E020938258309383589093FE
:1048A000845880938C58E090645EF090655EE114CB
:1048B000F10409F47CC187010F5F1F4F84E4C82E07
:1048C0008EE5D82E8091625E9091635E8E0D9F1D65
:1048D0000817190774F4C801957189839A83CE016A
:1048E00001960E943116F60181936F010F5F1F4FF1
:1048F000E9CF4090445E5090455E6090465E709077
:10490000475E8090485E9090495EA0904A5EB0906D
:104910004B5EC0904C5ED0904D5EE0904E5EF0904D
:104920004F5E0091505E1091515E2091525E309129
:10493000535E4091545E5091555E6091565E709109
:10494000575E8091585E9091595EA0915A5EB091E9
:104950005B5E8DAB9EABAFABB8AF80915C5E909170
:104960005D5EA0915E5EB0915F5E88AB99ABAAABD5
:10497000BBAB409289B750928AB760928BB7709266
:104980008CB78092E8589092E958A092EA58B09279
:10499000EB58C0924759D0924859E0924959F09249
:1049A0004A590093A6591093A7592093A8593093B8
:1049B000A9594093055A5093065A6093075A709329
:1049C000085A8DA99EA9AFA9B8AD8093645A909357
:1049D000655AA093665AB093675A88A999A9AAA95B
:1049E000BBA98093655890936658A0936758B0937D
:1049F000685885E180931C4F88E090E080931A4FBF
:104A000090931B4F88EE91E08093375790933857DF
:104A10001092194F90913B5722E938E5F90180E057
:104A200061E0DF01A25ABF4F4C91442309F451C009
:104A3000482F50E0DA01AA0FBB1FA40FB51F8D014C
:104A4000075E1F4BD8014C914F3FC1F44281538107
:104A5000DA0154967C915497711110C01F968C9373
:104A60001F9754966C9354974C9150E04F5F5F4B57
:104A7000DA014C91D8014C938F5F9F5F448155813F
:104A8000A281B3814A175B0721F1082F10E0D801FA
:104A9000AA0FBB1FA00FB11F8D01075E1F4BD801CE
:104AA0007C917F3FB1F4DA0154967C915497711157
:104AB00010C01F968C931F9754966C9354974C91EB
:104AC00050E04F5F5F4BDA014C918F5FD8014C9300
:104AD0009F5FE15AFF4FBDE5E630FB0709F0A1CF2C
:104AE0008093194F90933B579091184F61E0D901F3
:104AF000A25ABF4F4C91442359F1482F50E0DA019C
:104B0000AA0FBB1FA40FB51F8D01075E1F4BD80155
:104B10004C914F3FE9F4D9014D915C91DA015496E3
:104B20007C915497711114C01F968C931F975496C3
:104B30006C9354974C9150E04C5F5F4BDA014C9171
:104B4000D8014C938F5F11962D933C9312979F5FE2
:104B5000215A3F4FE217F30751F68093194F909374
:104B6000184F90915E589923A9F080936158209135
:104B7000104091E0980F9093194F90E0FC01EE0FD8
:104B8000FF1FE80FF91FE75EFF4B208310925F586D
:104B9000109260588091194F8093395710E080919E
:104BA0003A571817E0F4812FBCD91F5FF8CF412C7A
:104BB000512C3201812C912C5401C12CD12C760125
:104BC00000E010E0980140E050E0BA011DAA1EAAE2
:104BD0001FAA18AE18AA19AA1AAA1BAACACE1091FF
:104BE000395720E836E948E15BE460911140709163
:104BF000124080911340909114400E94534120E054
:104C000030E044EF53E40E94CC420E94394369599A
:104C1000714081099109212F30E050E040E00E946D
:104C2000364220931E4F30931F4F4093204F509396
:104C3000214F10923C5781E08093164095E190936C
:104C4000050690910306909303061092B000909190
:104C50001A4F90930206809300069091000690935D
:104C6000000690910006926090930006109208064C
:104C700090910C06916090930C0680930A067894AC
:104C80001092495710924A5710924B5710924C5716
:104C900060E070E080E090E40E94BD15E896CDBF32
:104CA000DEBFDF91CF911F910F91FF90EF90DF90CA
:104CB000CF90BF90AF909F908F907F906F905F90BC
:104CC0004F903F902F900895EF93FF93E3ECF7E51B
:104CD00008C0EF93FF93E3ECF7E532C0EF93E0E613
:104CE00053C02F932FB72F938F939F93AF93BF935F
:104CF0006894CF93DF9320E0C485D8E09689DF01E4
:104D0000A90FB21FA95ABF4F8C9120E42C838A832C
:104D10009F5F9F738D812589291302C08F7D8D83AD
:104D2000968BDF91CF9116F00C947314BF91AF91D5
:104D30009F918F912F912FBF2F91FF91EF911895F8
:104D40002F932FB72F938F939F93CF93DF93C48588
:104D5000D8E08981988181FD0DC0C38981E08C0FE5
:104D60008F732489281731F0CE0FDF2F20E0D21F58
:104D70009F8B838BDF91CF919F918F912F912FBF2D
:104D80002F91FF91EF911895FF938F938FB78F938A
:104D9000F8E08081848187FFFCCF85818F7B8068EC
:104DA00085838F918FBF8F91FF91EF9118951F92FF
:104DB0000F920FB60F92112484E00E94F5141F92F7
:104DC0000F920FB60F9211248F939F93AF93BF93BF
:104DD00080912F5790913057A0913157B091325711
:104DE0000196A11DB11D80932F5790933057A0932A
:104DF0003157B093325781E08093260BBF91AF912A
:104E00009F918F910F900FBE0F901F9018951F923A
:104E10000F920FB60F9211248F9388E08093A9040C
:104E200081E0809334578F910F900FBE0F901F90A9
:104E300018951F920F920FB60F9211248F939F9384
:104E4000809109048093090486FF03C091E0909348
:104E5000365787FF03C081E0809335579F918F912C
:104E60000F900FBE0F901F9018951F920F920FB6C4
:104E70000F9211240BB60F922F923F924F925F9296
:104E80006F927F928F929F92AF92BF92CF92DF925A
:104E9000EF92FF920F931F932F933F934F935F9344
:104EA0006F937F938F939F93AF93BF93EF93FF93F2
:104EB000CF93DF93CDB7DEB72A97CDBFDEBF81E0BA
:104EC00080930D0680911006909111068D839E832C
:104ED00080912E578E5F90913957891718F09091D5
:104EE0003957891B90E0FC01EE0FFF1FE80FF91FF7
:104EF000E75EFF4B8081809308068D819E81209123
:104F00005C5830915D5836952795821B930B8D83A5
:104F10009E838D819E81E0912C57F0912D57EE0F4D
:104F2000FF1FE45DF04B8083918319821A821B82FC
:104F30001C822D813E810D811E8122241302B0012D
:104F4000029FA00112037209500D611D721D3003F2
:104F50007209500D611D721D112449835A836B83A0
:104F60007C8389809A80AB80BC80A0911740B091EF
:104F70001840E0912E5708E0E09FF0011124EA0F5D
:104F8000FB1FE058FF4F20803180428053806480B7
:104F90007580068117819401A50160E070E080E0D2
:104FA00090E05101620173010E94644420833183C7
:104FB0004283538364837583868397834D815E81A7
:104FC000E0912E5718E0E19FF0011124EA0FFB1F3A
:104FD000A084B184C284D384E484F58406851785D3
:104FE000952F990F990B9A01492F592F692F792FD6
:104FF000892F0E94644420873187428753876487C2
:10500000758786879787E0912E578E2F90E0FC0159
:10501000EE0FFF1FE80FF91FE75EFF4B8081811144
:10502000CFC080912A4F90912B4F9C0136952795A8
:1050300036952795AC01421B530B9A018D819E81B9
:10504000181619060CF478C08D819E819195819572
:105050009109820F931F80932A4F90932B4F21E049
:1050600040915A5850915B584817590708F020E072
:105070002093175E8D819E81181619060CF05FC073
:1050800081E090E08093284F9093294F2091284F02
:105090003091294F8091244F9091254F281739073F
:1050A00009F452C080911D4F8F5F80931D4F8091F6
:1050B0001D4F882351F010921D4F8091284F9091E1
:1050C000294F8093264F9093274F8091264F9091A0
:1050D000274F019709F016C38091244F9091254FD7
:1050E000019709F465C08091224F9091234F01965A
:1050F0008093224F9093234F20911640222339F121
:10510000209115402817190609F008F5109216404D
:105110001092224F1092234F14961D921D921D92B1
:105120001C921797CD0188529D4FFD01E817F90792
:1051300071F010823196FACF8D819E818ACF1092C4
:10514000284F1092294FA2CF10921D4FB0CF149626
:105150004D915D916D917C9117974F5F5F4F6F4FB0
:105160007F4F14964D935D936D937C9317970D919C
:105170001D912D913C91139740911E4F50911F4FBF
:105180006091204F7091214F0417150726073707AC
:1051900078F08091474090914840A0934740B09369
:1051A0004840809317409093184081E080933C578B
:1051B0008091264F9091274F8093244F9093254FB5
:1051C00090912E5780913B57981708F445C28090D4
:1051D0002C5790902D57E0912E578E2F90E0FC0188
:1051E000EE0FFF1FE80FF91FE75EFF4B0180F28112
:1051F000E02D848D958D881A990A53E09522E091CF
:105200002C57F0912D57A0912E578A2F90E0DC015A
:10521000AA0FBB1FA80FB91FA75EBF4B11960D9019
:10522000BC91A02D5E968D919C91E81BF90BF370BB
:1052300020912C5730912D57A0912E578A2F90E016
:10524000DC01AA0FBB1FA80FB91FA75EBF4B1196A9
:105250000D90BC91A02D90968D919C91281B390B9F
:10526000D901B370AF83B887880C991C8401045DA1
:10527000104B4801D8016D917C91EE0FFF1FE45D4A
:10528000F04B40815181222457029001469F8001BA
:1052900056033209100D211D321D74033209100D01
:1052A000211D321D112428013901E0911740F09190
:1052B0001840A0912E5718E0A19FD0011124AE0FE5
:1052C000BF1FA850BF4FAC901196BC90119712967B
:1052D0002C90129713963C90139714960C91149758
:1052E000098715961C9115971A8716960C91169793
:1052F00017961C91179773016201FF0CCC08DC2CE8
:1053000076019201A3016C2D7C2D8C2D9C2D6101C9
:10531000E984FA840E9464442C9311963C9311977B
:1053200012964C93129713965C93139714966C9362
:10533000149715967C93159716968C931697179637
:105340009C93D4016D917C91AF81B885AA0FBB1F4E
:10535000A45DB04B4D915C91222457029001469F71
:10536000800156033209100D211D321D74033209CC
:10537000100D211D321D112448015901A0912E57F5
:1053800018E0A19FD0011124AE0FBF1FA059BE4F3E
:105390002C9011963C9011971296CC9012971396E0
:1053A000DC9013971496EC9014971596FC90159733
:1053B00016960C91169717961C9117972401350194
:1053C000770C4408542C32019401A501642D742DEE
:1053D000842D942D51010E9464442C9311963C938A
:1053E000119712964C93129713965C9313971496F9
:1053F0006C93149715967C93159716968C93169725
:1054000017969C93A0912E5780912E572A2F30E00B
:10541000D901AA0FBB1FA20FB31FA75EBF4B1196E6
:105420002D913C9190E0DC01AA0FBB1FA80FB91F82
:10543000A75EBF4B11968D919C91D90112962D912B
:105440003C91DC0114968D919C912817390709F441
:1054500003C180902C5790902D57A0912E578A2FE2
:1054600090E0DC01AA0FBB1FA80FB91FA75EBF4BBE
:1054700011960D90BC91A02DD4968D919C91881A77
:10548000990AB3E09B2220912C5730912D5780919F
:105490002E5790E0DC01AA0FBB1FA80FB91FA75E13
:1054A000BF4B11960D90BC91A02DD6968D919C91DD
:1054B000D901A81BB90BBD01737040912C575091B5
:1054C0002D5780912E57282F30E0C901880F991F42
:1054D000820F931F875E9F4BDC0111968D919C91EB
:1054E000DC01D8968D919C91481B590BDA01B37061
:1054F000AF83B887880C991C8401045D104B480168
:10550000D8018D919C91DB01AA0FBB1FA45DB04B0C
:105510004D915C91BC01222457029001469F80016D
:1055200056033209100D211D321D74033209100D6E
:10553000211D321D112428013901A0912E5778E038
:10554000A79FD0011124AE0FBF1FA851BE4FAC9032
:105550001196BC90119712962C90129713963C902E
:10556000139714960C911497098715961C9115970B
:105570001A8716960C91169717961C911797790112
:105580006201FF0CCC08DC2C76019201A3016C2D8A
:105590007C2D8C2D9C2D6101E984FA840E94644449
:1055A0002C9311963C93119712964C931297139645
:1055B0005C93139714966C93149715967C93159798
:1055C00016968C93169717969C93D4016D917C91A7
:1055D000AF81B885AA0FBB1FA45DB04B4D915C9104
:1055E000222457029001469F800156033209100D74
:1055F000211D321D74033209100D211D321D11248D
:105600002801390180912E5718E0819FC001112493
:10561000E80FF91FE05AFD4FB081A181C280D3800D
:10562000E480F5800681178153014201BB0C880894
:10563000982C54019201A301682D782D882D982D66
:10564000AB2EBA2E0E94644420833183428353835D
:10565000648375838683978380912E578F5F8093B1
:105660002E5780912C5790912D57019680932C574F
:1056700090932D5790912E5780913957981788F015
:1056800010922E57E0911740F0911840808191813F
:10569000A281B3810196A11DB11D80839183A28354
:1056A000B38380912C5790912D57937080932C57F2
:1056B00090932D572A96CDBFDEBFDF91CF91FF91FA
:1056C000EF91BF91AF919F918F917F916F915F917A
:1056D0004F913F912F911F910F91FF90EF90DF908D
:1056E000CF90BF90AF909F908F907F906F905F9082
:1056F0004F903F902F900F900BBE0F900FBE0F90CA
:105700001F9018958091244F9091254F51CD1F9255
:105710000F920FB60F9211240BB60F922F933F9357
:105720004F935F936F937F938F939F93AF93BF93A9
:10573000EF93FF9388E79EE50E94C719FF91EF91D1
:10574000BF91AF919F918F917F916F915F914F9199
:105750003F912F910F900BBE0F900FBE0F901F9097
:1057600018951F920F920FB60F9211240BB60F923D
:105770002F933F934F935F936F937F938F939F9359
:10578000AF93BF93EF93FF9384E99FE50E94C719FE
:10579000FF91EF91BF91AF919F918F917F916F9109
:1057A0005F914F913F912F910F900BBE0F900FBEC5
:1057B0000F901F901895EF92FF920F931F93CF9326
:1057C000DF9300D0CDB7DEB71092C5571092C65701
:1057D00088EE93E0A0E0B0E08093C7579093C8575D
:1057E000A093C957B093CA5780ED90E48093C357F4
:1057F0009093C45780E698E08093CF579093D0570A
:1058000089EA92E28093D1579093D25782E08093B5
:10581000D3571092D4571092D55780E090E0A8EC5F
:10582000B2E48093035E9093045EA093055EB09310
:10583000065E1092165E1092175E8093195E90932A
:105840001A5EA0931B5EB0931C5E10922C5E1092A9
:105850002D5E80932F5E9093305EA093315EB09367
:10586000325E1092425E1092435EE6E0FDE5818377
:105870009283A383B483148A75962EE5E230F207EF
:10588000B1F782E998E5FC01E25AFF4F1082815A94
:105890009F4F4DE586309407B1F7E2E6F8E524E145
:1058A00030E092E081E0208331839283138214827E
:1058B000158216821782108611868287138670964B
:1058C00048E5E239F40779F710925E5810925F5874
:1058D0001092605880E090E180935C5890935D58FE
:1058E00080E091E080935A5890935B588EEF90E05F
:1058F0008093665E9093675E8DE190E08093625E38
:105900009093635E8DE090E08093605E9093615E23
:1059100084E890E08093685E9093695E8DEF91E0FB
:1059200080936A5E90936B5E1092645E1092655EE7
:1059300004E810E009831A83CE0101960E94311613
:1059400078019DE1E90EF11C8F3F09F4B6C0009388
:10595000645E1093655E2DEFE21621E0F2065CF4C2
:10596000E982FA82CE0101960E9431168F3F09F436
:10597000A0C00E94E31610928A5F10928B5F48EEDF
:1059800053E060E070E040938C5F50938D5F6093D4
:105990008E5F70938F5F8AEE90E48093885F909320
:1059A000895F20E039E02093945F3093955F1092F7
:1059B0006E5E10926F5E4093705E5093715E609366
:1059C000725E7093735E80936C5E90936D5E80E206
:1059D00099E08093785E9093795E1092F3601092D4
:1059E000F4601092FD601092FE601092FF601092C1
:1059F00000611092016181E0809302612CEF30E43C
:105A00002093F1603093F2609AE09093EC609BE019
:105A10009093ED609CE09093EE609DE09093EF603A
:105A20001092F0609BE29093A46092ED9093A56039
:105A30009BE19093A6601092A76099E19093A86073
:105A40004AE959E96AEC72E44093A9605093AA606C
:105A50006093AB607093AC6040E050E068E472E447
:105A60004093AD605093AE606093AF607093B06050
:105A70004DEC5CEC6CE171E44093E1605093E260CA
:105A80006093E3607093E4608093E56084E690E067
:105A90008093E6609093E7601092E8601092E9606E
:105AA0000F900F90DF91CF911F910F91FF90EF908A
:105AB00008954DE1E40EF11C4ECF87018DEFE816FD
:105AC00081E0F80609F036CF56CFCF93DF93CDB7FC
:105AD000DEB7C857D109CDBFDEBF88ED21E030E089
:105AE00084BF2093620091E084BF909363009DE2A5
:105AF00084BF9093800093E084BF9093600080E027
:105B000090E22091650020FDC9C021E02093030AA6
:105B10008EEF8093260A8093270A9BE09093000AD9
:105B200032E03093E6052093430A8093660A80931F
:105B3000670A9093400A9093E705E0E0FBE027E0D6
:105B40009EEF85E021839487158680837096E034EC
:105B50000BE0F007B9F72FEF3FE02093AA0B30934B
:105B6000AB0B90E89093820B1092810B2EEF30E0FC
:105B70002093AE0B3093AF0B98ED24E194BF2093AC
:105B8000680091E19093800B809302069EE09093D1
:105B9000050690E690930306809300068091B0007E
:105BA000887F85608093B0008091B200887F856097
:105BB0008093B2008FED9EE280932C0B90932D0B7F
:105BC00081E08093250B1092210B83E08093200BC2
:105BD00078940E9402208E010D5C1F4F0DAB1EAB0E
:105BE00083EC97E50E942013892B09F4A0C083EC75
:105BF00097E50E94FE12F09033578A3009F04FC5A6
:105C0000AF2DB0E0AE57B84A1C92E0918257EF53E7
:105C1000EC3308F084C00E2E000CFF0BEE5EF14D4D
:105C20000C945B4433338F2E8F2E8F2E8F2E8F2E1E
:105C30008F2E8F2E8F2E8F2E8F2E8F2E8F2E8F2E7C
:105C40008F2E8F2E8F2E8F2E8F2E8F2E8F2E8F2E6C
:105C50008F2E8F2E8F2E8F2E8F2E8F2E8F2E8F2E5C
:105C60008F2E8F2E8F2E8F2E8F2E542E822E4B2FD7
:105C70005F2F682F802F8F2EB3313B2F9B2F473103
:105C80004E31B3318F2ECD318F2EE53114328F2E20
:105C90008F2EE832F8320D338F2E1333019709F02F
:105CA00030CF83E00E94F51412E0F11238C083E88F
:105CB00097E50E94543F843081F48BE28093A46086
:105CC00061EB71E083EC97E50E94141C65E672E2DB
:105CD00083EC97E50E948D1B22C0883069F08930E3
