:100200000C945A110C9484110C9484110C94841144
:100210000C9484110C9484110C9484110C9484110A
:100220000C940E200C9484110C9484110C94841161
:100230000C9484110C9484110C9484110C948411EA
:100240000C9484110C9484110C94A6240C948411A5
:100250000C9484110C9484110C9484110C948411CA
:100260000C9484110C9484110C942A200C94841105
:100270000C9484110C9484110C9484110C94D41F4C
:100280000C9484110C9484110C9484110C94FC1F14
:100290000C9484110C9484110C9484110C9484118A
:1002A0000C9484110C9484110C947C240C9484116F
:1002B0000C9484110C9484110C9484110C9484116A
:1002C0000C9484110C9484110C9484110C9484115A
:1002D0000C9484110C94661F0C94611F0C946B1F7A
:1002E0000C9484110C9484110C9484110C9484113A
:1002F0000C9484114E414E494E495459494E46CDB5
:10030000CCCC3D0AD7233C17B7D13877CC2B3295CC
:1003100095E6241FB14F0A000020410000C84200AA
:10032000401C4620BCBE4CCA1B0E5AAEC59D74AEC6
:10033000D580A83FD300408D142002A1C8DA1281D5
:100340007FD9F1DB40A4A6AF4A534F4E20466F72CF
:100350006D6174204F6666004A534F4E20466F729F
:100360006D6174206F6E005246206F6666005246C3
:10037000206F6E0070756C736520706572696F64B4
:10038000203D200070756C736573203D2000646112
:1003900074616C6F67203D2000694C656164006981
:1003A00043616C007643616C203D200043616C69C1
:1003B00062726174696F6E3A002064426D002C2095
:1003C000002C204E6F64652000204D487A2C204779
:1003D000726F7570200042616E6420005365747402
:1003E000696E67733A0000030C0F30333C3FC0C3A3
:1003F000CCCFF0F3FCFF4E6F20454550524F4D20BF
:10040000636F6E666967004C6F6164656420454583
:1004100050524F4D20636F6E666967005265666586
:1004200072656E636520766F6C74616765206361C9
:100430006C6962726174696F6E3A20002000204E10
:100440006F64653A20002047726F75703A2000395A
:1004500031354D487A003836384D487A00343333D8
:100460004D487A0020467265713A200052464D365A
:1004700039435720004F70656E456E657267794D40
:100480006F6E69746F722E6F726700656D6F6E505C
:10049000693220444220436F6E74696E756F7573C4
:1004A000204D6F6E69746F72696E672056001E6C06
:1004B0000D0E206002010308070A08010303050767
:1004C00001040104060306060706060606060101E6
:1004D000060606060D0907080807070907010508AB
:1004E00007090709070908070707090D080908028E
:1004F00004020508020606050606040606010206B1
:100500000109060606060405040607090607060390
:100510000103070700000000FE141E001E0000007B
:100520009090F89690F89690001C00001C00000037
:10053000182422FF4242840810103C1008041C2298
:10054000221CC0308C4240800000100C00000C10B7
:10055000100C805C2262920C80000C101010100CA9
:1005600008101E00F00C021C6080020CF080601C61
:1005700004140E14040000000000404040F8404005
:10058000400000000C0000000070808080800000AF
:100590000000001000C0380618040000FC0202022F
:1005A00002FC0C101010100C0804FE00001C0C02C1
:1005B0000282423C1018141010100C02222222DC7D
:1005C0000C101010100C8040300804FE00040404CD
:1005D00004041C043816121212E20C101010180435
:1005E000F844222222C40C101010100C020202E265
:1005F0001A0600001C000000DC22222222DC0C1063
:100600001010100C3C42424222FC0810101008044A
:100610000810087040A0A010100800000004040892
:10062000909090909090000000000000081010A0A2
:10063000A0400804040000000C028242221C0000BA
:1006400014000000E01804C422121212A27204085E
:10065000F00C30404C909090889C90504C20008042
:10066000E09C829CE0800018040000000000041858
:10067000FE2222222222DC1C10101010100CF80482
:100680000202020204080408101010100804FE02FE
:100690000202020204F81C10101010100804FE22BE
:1006A00022222222221C101010101010FE222222C0
:1006B0002222021C000000000000F8040202024294
:1006C0004244C8040810101010100804FE20202016
:1006D0002020FE1C00000000001CFE1C000000008A
:1006E000FE0C1010100CFE804020508804021C00EC
:1006F000000000040810FE0000000000001C1010A4
:1007000010101010FE0C30C000C0300CFE1C000099
:1007100004180400001CFE0418608000FE1C000089
:100720000004081CF804020202020204F804081083
:10073000101010100804FE42424242423C1C0000CD
:1007400000000000F804020202020204F80408108B
:10075000101014081C10FE424242C242423C1C00CF
:100760000000000408101C22222242428C0C1010AF
:100770001010100C020202FE0202020000001C0017
:100780000000FE0000000000FE0408101010080425
:10079000061860800080601806000000041804003D
:1007A00000000638C000C03C023CC000C038060053
:1007B000000418040000000418040000020C9060FB
:1007C00060900C02100C000000040C1002041820B1
:1007D000C020180402000000001C000000000002FD
:1007E0008242221A06021018141010101010FE0275
:1007F000FC800638C0000000041802FE80FC201CAB
:10080000021C2000000000000000000000000000AA
:1008100080808080808080800204000010884848AA
:1008200048F00C101010081CFE10080808F01C08F6
:100830001010100CF0080808100C10101008F00828
:10084000080810FE0C101010081CF04848484870AA
:100850000C101010100808FC0A0A001C0000F00818
:10086000080810F84C909090887CFE10080808F05A
:100870001C000000001CFA1C00FA807CFE8040A0D6
:1008800010081C0000000C10FE1CF8100808F010E6
:100890000808F01C0000001C0000001CF8100808EC
:1008A00008F01C000000001CF008080808F00C10FC
:1008B0001010100CF810080808F0FC081010100CAC
:1008C000F008080810F80C10101008FCF8100808C0
:1008D0001C0000003048484890081010100C08FE1A
:1008E0000808001C1010F800000000F80C10101090
:1008F000081C1860800080601800000418040000C4
:1009000018E000E018E000E01800041804000418E3
:1009100004000830C0C03008100C00000C10186033
:10092000800080601800808C700C000008088868C7
:100930001808101814101010807C02007C80FEFC37
:10094000027C80807C00402020604040200000002D
:1009500000000000FC0404040404FC1C101010102F
:10096000101C697A151920600703070F0C16100276
:1009700007070B0F0407030A0C0A0C0B0D0C0C0CD9
:100980000C0D03040D0E0E0A14100D0F0F0C0B109E
:100990000E06080E0B100E110C110E0D0F0D0F157B
:1009A0000E0D0E060A060E0F040B0C0B0C0C070C9A
:1009B0000B03060C02130B0C0C0C080A080B0C1191
:1009C0000C0C0B0B020B0F000000000000000000DD
:1009D0000000000000000000000000000000000017
:1009E0000000000038F8F8007F7F000C0C000000C9
:1009F000FCFC000000FCFC00010000000100000005
:100A000000000000000000000000000000008080E6
:100A10008080F0B8808080F898808040606161F1CB
:100A20007F4341E1F97F616161010000000F030034
:100A300000080F010000000000000000000000009E
:100A4000000000000000000080C0E06060FC60600A
:100A50006060E000070F1C1818FF383030E0E080BD
:100A6000060E0C0C0CFF0C0C060703010000000026
:100A70000000000000000000F0F8180C0C1CF8F05A
:100A800000000000C0E03808000000000000070F70
:100A90000C08080C0F07C0F03C0F0300F8F80C0C12
:100AA0000C1CF8F00000000000000C0F0300000018
:100AB0000000070F0C080C0C0703000000000000EA
:100AC0000000000000000000000000000000000026
:100AD0000060F8F80C0C0C0CF8F860000000000046
:100AE000C0F0F90F07060E1B3171E0C0FC3C00009E
:100AF0000003070E0C0C0C0C0C06070303070E0C6E
:100B000000000000000000000000000000000000E5
:100B1000FCFC0001000000000080E0781C0C04FCDC
:100B2000FF0700000000010F3F78E0800000000098
:100B300000808080040C1C78E080000000000087AA
:100B4000FFFC0080E0783F0F008080800000000004
:100B500010302060C0FCC060203010020203010190
:100B60001F01010302060000000000000000000059
:100B70000000000000000000000000000000000075
:100B8000000000E0E000000000000018181818182D
:100B90001818FFFF18181818181800000000000097
:100BA000000F0F0000000000000000000000000027
:100BB0000000000000000000000000000000000035
:100BC000E0FC3E0E000000000000000000000018E5
:100BD0001818181818180000000000000000000085
:100BE000000000000000000000000E0E0E000000DB
:100BF000000000000000C0F83C04000000C0F83F06
:100C000007000000E0781F0700000000000000005F
:100C10000000000000000000C0F078180C0C0C1858
:100C200038F0E080FFFF00000000000000E1FF3F1F
:100C30000107070C0C0C0C0C0E0701000000000053
:100C4000000000000000000000606070F8FC000080
:100C5000000000000000FFFF000000000C0C0C0C66
:100C60000F0F0C0C0C0C0000000000000000000036
:100C70000018180C0C0C1C1878F0E000000080C064
:100C8000E070381C0F0701000E0F0F0D0C0C0C0C40
:100C90000C0C0C0C00000000000000000000000024
:100CA0000018181C0C0C0C1C38F8F0000000000494
:100CB0000E0E0E1BF9F0060E0C0C0C0C0C0C0E0795
:100CC0000300000000000000000000000000000021
:100CD00080C06030F8F8F8000070786E676361607B
:100CE00060FFFFFF606000000000000000000F0FC9
:100CF0000F000000000000000000000000000000E5
:100D000000F8F8181818181818181800000707061F
:100D10000606060E0CFCF8E0060E0C0C0C0C0C0C77
:100D20000E070300000000000000000000000000AB
:100D300080E0F0301818080C0C0C0000FFFF0C06C7
:100D4000060606060EBCF8F00103070E0C0C0C0C90
:100D50000E0703010000000000000000000000007A
:100D6000181818181818181898F878380000000083
:100D7000C0F0781E0701000000000C0F0701000002
:100D80000000000000000000000000000000000063
:100D9000E0F0B81C0C0C0C0C18F8F000F1F31F0E6E
:100DA000060C0C1C1EF3F1C003070E0C0C08080CFB
:100DB0000C0703010000000000000000000000001C
:100DC00080E0F018180C0C0C1838F0E0C0010F1F70
:100DD00018383030301098FFFF0F00000C0C0C0C4E
:100DE0000C0E0603030000000000000000000000DD
:100DF000000000008080800303030E0E0E00000040
:100E00000080808000030303E0FC3E060000000039
:100E1000000000000000000000808080C01838380A
:100E20006C6CC6C6C3838101010000000000000095
:100E300000000101030306000000000000000000A4
:100E400000000000000000000000000000000000A2
:100E50000000C6C6C6C6C6C6C6C6C6C6C6C6C6C6BE
:100E60000000000000000000000000000000000082
:100E7000000000000000000000000000C0C08080F2
:100E8000000000000000000000000000010183835A
:100E9000C3C6666C3C38381006030303010100002A
:100EA0000000000000000000000000000000000042
:100EB0000000000018180C0C0C1C18F8F0E00000E2
:100EC0000078780C0E0703000000000C0C000000F6
:100ED0000000000000000000000000000080C06072
:100EE00030181888888C8C8C8888183070E08000C6
:100EF0007CFF010000FCFF830101010181FF000074
:100F00000000FF7C0003070C183031232363636368
:100F10006123030202030100000000000000000042
:100F200000000000000000000000000000000000C1
:100F300000C0F83838F8E080000000000000C0F879
:100F40007F6F61606060677FFCE00000080E0F0348
:100F50000000000000000000010F0F0C0000000066
:100F6000000000000000000000000000F8F8F81881
:100F70001818181818B8F0E000FFFFFF0C0C0C0C44
:100F80000E0E0F1DF8F00F0F0F0C0C0C0C0C0C0EAE
:100F90000607030000000000000000000000000041
:100FA0000080E0F03818180C0C0C1C181838301E93
:100FB000FFF38000000000000000000000000000BF
:100FC0000307070E0C0C0C0C0C0C0E0606000000A0
:100FD000000000000000000000000000F8F8F81811
:100FE0001818181818183070E0C000FFFFFF000034
:100FF00000000000000080F3FF3F0F0F0F0C0C0CEF
:101000000C0C0E06070303000000000000000000A7
:101010000000000000000000F8F8F8181818181870
:1010200018181818FFFFFF0606060606060606062D
:101030000F0F0F0C0C0C0C0C0C0C0C0C0000000017
:101040000000000000000000F8F8F8181818181840
:10105000181818FFFFFF0C0C0C0C0C0C0C000F0FD9
:101060000F00000000000000000000000000000071
:10107000000000000080E0F0301818080C0C0C0C88
:10108000181838301EFFF3800000000000181818F0
:101090001838F8F800000303070E0C0C0C0C0C0CAD
:1010A0000C0E070700000000000000000000000018
:1010B00000000000F8F8F80000000000000000F850
:1010C000F8F8FFFFFF0606060606060606FFFFFF06
:1010D0000F0F0F00000000000000000F0F0F0000B6
:1010E0000000000000000000000000000808F8F800
:1010F00008080000FFFF00000C0C0F0F0C0C000094
:10110000000000000000080808F8F8F800000000DF
:1011100000FFFFFF0C0C0C0C0C0707010000000087
:1011200000000000F8F8F800000080C0E0703818F7
:101130000800FFFFFF1C1E1F7FF1E0C00000000041
:101140000F0F0F00000000000103070E0C08000045
:10115000000000000000000000000000F8F8F800A7
:1011600000000000000000FFFFFF00000000000082
:1011700000000F0F0F0C0C0C0C0C0C0C0C000000E2
:101180000000000000000000F8F8F878E08000009F
:10119000000080E07838F8F8FFFFFF0001071E78B4
:1011A000703E07010000FFFF0F0F0F00000000005E
:1011B0000000000000000F0F000000000000000011
:1011C0000000000000000000F8F8F838F0C08000CF
:1011D000000000F8F8F8FFFFFF0000030F3EF8E002
:1011E00080FFFFFF0F0F0F00000000000003070F3C
:1011F0000F0F0000000000000000000000000000D1
:1012000000C0E0F03818180C0C0C181838F0E0800A
:10121000001EFFF38000000000000000000080F3CB
:10122000FF3E00000307060E0C0C0C0C0C0E06070C
:1012300003000000000000000000000000000000AB
:1012400000000000F8F8F818181818183870E0C0F6
:10125000FFFFFF10101818181C0E07030F0F0F00C8
:10126000000000000000000000000000000000007E
:101270000000000000C0E0F03818180C0C0C181822
:1012800038F0E080001EFFF3800000000000000046
:10129000000080E7FF1E00000307060E0C0C0C1C6C
:1012A0007CFEC6C783C0C000000000000000000034
:1012B0000000000080808000F8F8F818181818184E
:1012C0001878F0C00000FFFFFF1818183878ECC736
:1012D000870100000F0F0F00000000000001030F46
:1012E0000E080000000000000000000000000000E8
:1012F000E0F038181C0C0C0C1C1818180003070719
:101300000E0C0C0C1C1C1878F0E0060E0C0C0C0CCF
:101310000C0C0C0E07030100000000000000000090
:1013200000000000181818181818F8F8F8181818FD
:10133000181818000000000000FFFFFF0000000068
:1013400000000000000000000F0F0F000000000070
:10135000000000000000000000000000000000008D
:10136000F8F8000000000000000000F8F8FFFFC0DF
:101370000000000000000000FFFF0003070E0C0C3F
:101380000C0C0C0C0707010000000000000000001E
:101390000000000038F8E08000000000000000C0FD
:1013A000F878080001073FFCE00000C0F07E0F0362
:1013B000000000000000010F0F0E0F0300000000EE
:1013C000000000000000000000000000000000001D
:1013D00008F8F8800000000000F078F8F000000045
:1013E0000000C0F87800000F7FF88000F07F070051
:1013F000000FFFF000C0FC7F070000000000070F97
:101400000F070000000000000F0F0F070000000092
:1014100000000000000000000000000000000000CC
:1014200000000000001838F0E080000000C0E07804
:10143000381800000080E1773F1E7FF3C080000075
:10144000080C0F0301000000000003070E0C000051
:101450000000000000000000000000001878F0C04C
:101460008000000080E0F038080000000307FEFC68
:10147000FE070100000000000000000F0F0F000039
:10148000000000000000000000000000000000005C
:1014900000181818181818181898F8F838180000B4
:1014A00080C0E0703C0E0703010000000C0E0F0D21
:1014B0000C0C0C0C0C0C0C0C0C0C000000000000B4
:1014C0000000000000000000FCFC04040404FFFF16
:1014D00000000000FFFF808080808080808080800E
:1014E0000C3CF8C0000000000000000001073EF8BE
:1014F000C0000000000000000000073F78C00000AE
:10150000000000000000000004040404FCFC0000D3
:101510000000FFFF80808080FFFF808080808080CF
:10152000000080C0E038183870E0800000000C0E29
:10153000070100000000000003070E080000000083
:10154000000000000000000000000000000000009B
:10155000000000000000000000000000000000008B
:10156000000000000000000000000000000000007B
:10157000000000000000C0C0C0C0C0C0C0C0C0C0EB
:10158000C0C0C0C0C000000000000000000000009B
:1015900000000000030F1C1000000000000000000D
:1015A000000000000080808080808080808000803B
:1015B000E1E1313131111919FFFF03070F0C0C0C58
:1015C0000C0C060F0F0000000000000000000000DF
:1015D000FCFC00008080808080000000FFFF030191
:1015E00001010101038FFEF80F0F0E0C0C0C0C0C07
:1015F0000E070300000000000000000000000000D3
:101600000000008080808080808000F8FE8F0301D1
:101610000101010101010003070E0C0C0C0C0C0C64
:101620000400000000000000000000000000008036
:10163000C0C0C0C08080FCFCF8FE8F030100000128
:101640000103FFFF0003070E0C0C0C0C06060F0F26
:10165000000000000000000000000000000000800A
:1016600080C0C0C08080000078FEFF33313130314F
:1016700031333F3C000307060C0C0C0C0C0C0E061F
:1016800000000000000000000000000080E0F8BC46
:101690008C8C8C01FFFF01010101000F0F00000085
:1016A00000000000000000000000008080808080BA
:1016B0008080000078FECF03010101010103FFFEDD
:1016C0000003C7868E8C8C86C6F77F0F0000808053
:1016D0008080808000000000FCFC00008080808012
:1016E000808000FFFF03030101010103FFFE0F0FD4
:1016F000000000000000000F0F00000000000000CC
:10170000000000009C9C00FFFF000F0F0000000085
:10171000008080809C9C00010101FFFF808080C0D0
:10172000FF7F808080800000FCFC00000000000043
:1017300080808000FFFFE07078FCCE87030100000E
:101740000F0F000000000103070E0C08000000004E
:101750000000000000000000FCFCFFFF0F0F000075
:1017600080800000808080808000000080808080F9
:10177000808000FFFF03030101010107FFFF030158
:1017800001010103FFFF0F0F000000000000000F28
:101790000F0000000000000F0F000000000000001C
:1017A0000000000000000000000000008080000039
:1017B00080808080808000FFFF030301010101031E
:1017C000FFFE0F0F000000000000000F0F000000E0
:1017D000000000000000000000000080C0C0C0C089
:1017E00080000000F8FE8F03010000010107FFFCEC
:1017F0000003070E1C18181C0C070701000000004E
:1018000000000000000000008080000080808080D8
:1018100080000000FFFF030101010101038FFE783A
:10182000FFFF0E0C0C0C0C0C060701008080000062
:101830000000000000000000000000808080808028
:101840008080808078FECF03010101010103FFFF4A
:101850000003070E0C0C0C0C0607FFFF0000000035
:101860000000000000008080808000008080808078
:10187000FFFF0703010101010F0F0000000000003E
:101880000000000000000000000080808080808058
:101890008080001F3F3131716161E1C3060E0C0C85
:1018A0000C0C0C0C070700000000000000000000FA
:1018B00080F8F8808080808001FFFF010101010134
:1018C0000003070F0C0C0C0C0000000000000000CF
:1018D0008080000000000000008080FFFF0000000A
:1018E00000000000FFFF03070F0C0C0C0C06060F96
:1018F0000F000000000000000000000080800000D9
:10190000000000000000808001073FF8E00000C0F8
:10191000F83E0F0100000000070F0F070100000054
:1019200000000000000000000000000080800000B7
:1019300000000000808000000000008080011FFF88
:10194000F00080F83F070F7EF08080F87F070000EE
:10195000000F0F0F0100000000030F0F0700000031
:101960000000000000000000000000000000000077
:101970008080800000000000008080800001038FD4
:10198000DCF8F8FC8E070100080C0F0301000001D1
:10199000030F0E080000000000000000000000001F
:1019A00080800000000000000000808001073FFCF4
:1019B000E08000E0F83E0F0100000080F37F1F0789
:1019C0000000000000000080800000000000000017
:1019D0008080808080808080808000010181C1E1E2
:1019E000711D0F0703000C0E0F0D0C0C0C0C0C0CD2
:1019F0000C000000000000000000000000000000DB
:101A000000F8F80C0C040430303078CE8703000066
:101A1000000000000000037FFEC080808000000006
:101A20000000000000008080FCFCFFFFFFFF8080C2
:101A300004040C0C3CF8E000000000000000000072
:101A400087CF58703030808080C0F07F1F0000004A
:101A50000000808000000000000000000000000086
:101A6000000000000000000000000060781C060676
:101A7000060C1830606060603E1E00000000000030
:101A80000000000000000000000000000000000056
:101A900000000000000000002F03198040000A0031
:101AA000202868696464656E292E00206279746557
:101AB00073002C20446174612073697A653A2000B8
:101AC000205369676E61747572653A20004E6F200D
:101AD0006461746120626C6F636B20666F756E6405
:101AE000202D20454550524F4D2061707065617228
:101AF0007320746F20626520666F726D6174746507
:101B00006420746F204F454D205374616E64617280
:101B1000642062757420756E757365642E000A000A
:101B20002062797465732C206E6F7420666F726DFD
:101B3000617474656420746F204F454D2053746147
:101B40006E646172640053697A653A2000446F6E76
:101B5000652E204E657720636F6E6669672073611E
:101B600076656420746F20454550524F4D00536197
:101B700076696E672E2E2E00536B6574636820772E
:101B8000696C6C206E6F772072657374617274205B
:101B90007573696E672064656661756C7420636F28
:101BA0006E6669672E00526573657474696E672E80
:101BB0002E2E0020000A417661696C61626C6520FE
:101BC000636F6D6D616E64733A0A6C09092D206C48
:101BD000697374207468652073657474696E6773C3
:101BE0000A7209092D20726573746F726520736B18
:101BF000657463682064656661756C74730A730943
:101C0000092D20736176652073657474696E67733E
:101C100020746F20454550524F4D0A7609092D20FA
:101C200073686F77206669726D776172652076657B
:101C30007273696F6E0A7A09092D207A65726F20B6
:101C4000656E657267792076616C7565730A7809CF
:101C5000092D20657869742C206C6F636B20616E90
:101C60006420636F6E74696E75650A3F09092D20E3
:101C700073686F7720746869732074657874206165
:101C80006761696E0A0A773C783E09092D207475F0
:101C9000726E2052464D20576972656C65737320D1
:101CA00064617461206F66663A2078203D203020A0
:101CB0006F72206F6E3A2078203D20310A623C6EB0
:101CC0003E09092D2073657420722E662E206261F4
:101CD0006E64206E203D20612073696E676C652004
:101CE0006E756D6572616C3A2034203D203433335B
:101CF0004D487A2C2038203D203836384D487A2CF3
:101D00002039203D203931354D487A20286D6179C0
:101D1000207265717569726520686172647761729D
:101D200065206368616E6765290A703C6E6E3E09C6
:101D3000092D207365742074686520722E662E202C
:101D4000706F7765722E206E6E202D20616E206977
:101D50006E74656765722030202D203331207265E6
:101D600070726573656E74696E67202D31382064FA
:101D7000426D20746F202B31332064426D2E20443D
:101D8000656661756C743A20323520282B372064E3
:101D9000426D290A673C6E6E6E3E092D2073657494
:101DA000204E6574776F726B2047726F75702020BC
:101DB0006E6E6E202D20616E20696E74656765728F
:101DC00020284F454D2064656661756C74203D2068
:101DD000323130290A6E3C6E6E3E09092D20736542
:101DE00074206E6F6465204944206E3D20616E2032
:101DF000696E746567657220287374616E646172C0
:101E000064206E6F6465206964732061726520319F
:101E10002E2E3630290A0A643C78782E783E092D19
:101E20002078782E78203D206120666C6F6174697F
:101E30006E6720706F696E74206E756D62657220BA
:101E4000666F722074686520646174616C6F676787
:101E5000696E6720706572696F640A633C6E3E0943
:101E6000092D206E203D203020666F72204F46469F
:101E70002C206E203D203120666F72204F4E2C208A
:101E8000656E61626C6520766F6C746167652C208D
:101E900063757272656E74202620706F776572208C
:101EA000666163746F722076616C75657320746F00
:101EB0002073657269616C206F757470757420662B
:101EC0006F722063616C6962726174696F6E2E203B
:101ED0000A6A3C6E3E09092D207475726E204A53C1
:101EE0004F4E2053657269616C20666F726D61742C
:101EF000206F6E20283129206F72206F666620289F
:101F000030292E0A663C78783E09092D2078782001
:101F10003D20746865206C696E6520667265717518
:101F2000656E637920696E20487A3A206E6F726D13
:101F3000616C6C7920656974686572203530206F3A
:101F4000722036300A6B3C783E203C79792E793EFF
:101F5000203C7A7A2E7A3E0A09092D2043616C6969
:101F6000627261746520616E20616E616C6F67756D
:101F70006520696E707574206368616E6E656C3A79
:101F80000A0909202078203D20612073696E676C62
:101F900065206E756D6572616C3A2030203D20764B
:101FA0006F6C746167652063616C696272617469EA
:101FB0006F6E2C2031203D206374312063616C6989
:101FC00062726174696F6E2C2032203D206374321E
:101FD0002063616C6962726174696F6E2C20657434
:101FE000630A0909202079792E79203D2061206635
:101FF0006C6F6174696E6720706F696E74206E75A6
:102000006D62657220666F722074686520766F6CF1
:10201000746167652F63757272656E742063616C9D
:102020006962726174696F6E20636F6E7374616E42
:10203000740A090920207A7A2E7A203D20612066D0
:102040006C6F6174696E6720706F696E74206E7555
:102050006D62657220666F722074686520706861B9
:1020600073652063616C6962726174696F6E20666A
:102070006F72207468697320632E742E20287A2072
:102080006973206E6F74206E65656465642C206FC3
:10209000722069676E6F726564206966207375705F
:1020A000706C6965642C207768656E2078203D200F
:1020B00030290A09092020652E672E206B30203236
:1020C00035362E380A0909202020202020206B31A7
:1020D0002039302E3920322E30300A613C78782E6B
:1020E000783E092D2078782E78203D206120666C7E
:1020F0006F6174696E6720706F696E74206E756DA4
:1021000062657220666F72207468652061737375F2
:102110006D656420766F6C74616765206966206EFA
:102120006F20612E632E206973206465746563746B
:1021300065640A6D3C783E203C79793E092D206D1E
:10214000657465722070756C736520636F756E744D
:10215000696E673A0A090920202078203D20302046
:10216000666F72204F46462C2078203D2031206635
:102170006F72204F4E2C203C79793E203D20616EBD
:1021800020696E746567657220666F722074686579
:102190002070756C7365206D696E696D756D20704A
:1021A0006572696F6420696E206D732E2028792016
:1021B0006973206E6F74206E65656465642C206F92
:1021C000722069676E6F726564207768656E20782B
:1021D000203D2030290A00456E65726779207661BE
:1021E0006C7565732073657420746F207A65726FE7
:1021F00000436F6E74696E75696E672E2E2E0052E5
:1022000046206F6666005246206F6E00456D6F6E09
:10221000547856342056002064426D0070203D20D2
:10222000004E6F646520006F666600206D7300507D
:10223000756C7365733A20002000200043616C3A8E
:10224000206B0047726F75702000467265713A20EE
:1022500000207300646174616C6F6720706572693F
:102260006F643A2000204D487A002C7066002C499B
:10227000002C70756C73653A002C45002C50002CB6
:1022800056004D53473A007D002C2270756C7365E3
:10229000223A002C2245002C2250002C2256007B92
:1022A000224D5347223A000A0000080A400CFFC0A2
:1022B00000C0D02411241FBECFEFCDBFDFE7DEBFAB
:1022C00011E4A0E0B0E4EAE4F7E800E00BBF02C0EC
:1022D00007900D92A436B107D9F721E6A4E6B1E440
:1022E00001C01D92A330B207E1F711E1CAE5D1E1C7
:1022F00004C02197FE010E947343C935D107C9F775
:102300000E945A260C94A3430C940001E091745E41
:10231000F091755E8581837009F443C0838180FFED
:1023200040C05091775E5E7F30E020E090E04581D4
:10233000842F83702F5F3F4F213C6DE5360740F0BF
:10234000823049F1813049F184E093E0948308952B
:10235000642F6C7021F08CE0858382E1F6CF8130B0
:1023600021F4578330E020E0E2CF823001F746FFCE
:10237000DECF44FF04C0992341F383E0E6CF809190
:10238000785E981760F4A92FB0E0A058B14A8C91FC
:1023900080879F5FE7CF85E0D8CF81E1D6CF80E00F
:1023A000D4CF80E108958091E8608D3011F42D9AAA
:1023B0000895873009F40F9A089500009091EC6019
:1023C000911109C0809344098091430987FFFCCF94
:1023D000809144090895809364098091630987FF7F
:1023E000FCCF8091640908958091E8608D3011F4EC
:1023F0002D980895873009F40F980895CF93DF93AF
:10240000D82FC62FF1DF8D2F8068D7DF8C2FD5DF37
:10241000DF91CF91C8CFCF93C82FE6DF8C2FCDDFD0
:1024200080E0CBDFC82FBFDF8C2FCF910895CF93F3
:102430009091BE57981791F0C82F81E0ECDF837E12
:10244000682F6C2B81E0DADF8091BE57811104C0C8
:1024500087E2E1DF87FFF8CFC093BE57CF910895A1
:102460000F931F93CF93DF93EC0184E0E0DF20977D
:10247000D9F088818823C1F0B7DF8EEB9EDF8E0113
:10248000005F1F4F899199DFC017D107D9F78BDF04
:10249000C1E08DE3C0DF8E7F682F6C2B8DE3DF9171
:1024A000CF911F910F91AACFC0E0F3CF10927D572B
:1024B00010927B5710927C571092795710927A574E
:1024C000109278571092775788E2A5DF82FF06C0F6
:1024D0008DE3A1DF682F64608DE390DF80E1A7CFFB
:1024E000AF92BF92CF92DF92EF92FF920F931F9322
:1024F000CF93DF936C017B018B01040F151FEB0160
:102500005E01AE18BF08C017D10759F06991D60116
:10251000ED91FC910190F081E02DC6010995892B88
:1025200079F7C501DF91CF911F910F91FF90EF9047
:10253000DF90CF90BF90AF900895FC0155894689F8
:10254000252F30E0842F90E0821B930B541710F05E
:10255000CF96089501970895FC019389848998176F
:1025600061F0A489AE0FBF2FB11D57968C9194894D
:102570009F5F9F73948B90E008958FEF9FEF089576
:10258000FC0193898489981731F08489E80FF11D43
:10259000878990E008958FEF9FEF0895FC0193895C
:1025A0002489892F90E0805C9F4F821B91098F7353
:1025B00099270895CF93DF93EC01E881F981068094
:1025C000F781E02D0995EC85FD8586811682858150
:1025D000158280E484838C898B8B1A8ADF91CF915A
:1025E00008958F929F92AF92BF92FF920F931F9385
:1025F000CF93DF938C014A015B01D22FC32FDC0103
:1026000052968C91529780FF07C0ED91FC91028801
:10261000F389E02DC8010995D11101C0D3E0FD2E49
:10262000E894F2F8DC2FD095D07CB1E68B16B3EEAF
:102630009B06B6E1AB06B10428F0D260B694A7942D
:102640009794879460E078ED88EB95E0A50194017C
:102650000E944E41C9012034310510F480E490E01D
:102660003C2F3B72D7FD30684D2F487C30FD4160D8
:102670005FB7F894D8011C96ED91FC911682F78211
:102680008087918735FF8FC04F7781E084878FEFF8
:1026900085873F7D3583D683F8012189C08986856A
:1026A0009785FC0133E0239FE00DF11D1124659116
:1026B00074912C1708F059C0272F46FF76C0793245
:1026C00088F430E0F901EF5AFF4BA081AF3F51F0A1
:1026D00026583F4BF901308120E2329FF00111244E
:1026E000FC5FA18347FF2AC021E0270F293230F584
:1026F00030E0F901EF5AFF4BD081DF3FF9F0F901EB
:10270000E658FF4BA081F0E2AF9FD0011124BC5FDF
:102710002D553F4BF9011081F0E0E0E0183030F426
:102720009D01205F3F4FF901E10FF11D3FB7F89484
:102730001296DC932081286020833FBF40FF15C0A4
:1027400023E0270F293288F430E0F901EF5AFF4BDC
:1027500040814F3F51F026583F4BD901EC91B0E2F8
:10276000EB9FF0011124FC5F4183FC0123E0C29F39
:10277000E00DF11D1124319625913491F901FF27C7
:10278000EE51FA4F9081832F80958923682B6083C7
:102790005FBFDF91CF911F910F91FF90BF90AF90DE
:1027A0009F908F900895148674CF342F307509F45C
:1027B00099CF793208F096CF30E0F901EF5AFF4B0C
:1027C000D081DF3F09F48ECFF901E658FF4BA0819D
:1027D000E0E2AE9FD0011124BC5F2D553F4BF901C3
:1027E0001081F0E0E0E0183030F49D01205F3F4FB1
:1027F000F901E10FF11D3FB7F8941296DC932081A7
:10280000286020833FBF6ECFFC010FB607FE04C0D7
:10281000809111018823A9F0A485B58514968C9127
:10282000149785FF0EC095898689981739F01596FB
:102830008C9115978F7D15968C930895E8940C9440
:10284000761F08950F931F93CF93DF93EC018A892E
:10285000982F91609A8B2D899E8929130AC0EC8547
:10286000FD85948195FF05C081FD0DC080E48483C2
:1028700012C0062F1D891F5F1F738E89811315C01B
:10288000CE01C2DFFACF85818F77806490E4948394
:10289000EC85FD858583EC85FD85628381E090E094
:1028A000DF91CF911F910F910895ED89EC0FFD2FCE
:1028B000F11DE95AFF4F00831D8BEC85FD858A8948
:1028C00081FF09C085818F77806690E49483EC85D1
:1028D000FD858583E3CF85818062FBCFEF92FF92F8
:1028E0000F931F93CF93DF938C017B01D0E0C0E067
:1028F000F701EC0FFD1F6491662331F0C801A2DFE0
:10290000892B11F02196F4CFCE01DF91CF911F9149
:102910000F91FF90EF90089595CFCF93DF93EC0147
:102920008A8980FF0BC0EC85FD85858185FD03C00C
:10293000848186FD03C0CE0167DFF5CFDF91CF91A3
:10294000089581E008959FB7F894E0912A0BF091E3
:102950002B0B8091260B20912657309127574091C1
:102960002857509129579FBF80FF08C0EC3E8CE24A
:10297000F80720F42F5F3F4F4F4F5F4F0F01169422
:102980000794169407941694079416940794F001EC
:1029900016940794E00DF11D16940794102C1694CC
:1029A00001181694010C169401181694010C169433
:1029B000011816941694010C1124E019F109A8EEDF
:1029C000B3E00E943E416E0F7F1F811D911D08954F
:1029D0008F929F92AF92BF92CF92DF92EF92FF922F
:1029E0006B017C01B0DF4B015C01C114D104E10437
:1029F000F104B1F0A8DF681979098A099B09683EDA
:102A000073408105910588F321E0C21AD108E108DD
:102A1000F10888EE880E83E0981EA11CB11CE5CF5A
:102A2000FF90EF90DF90CF90BF90AF909F908F90EE
:102A300008952FB7F8946091265770912757809189
:102A40002857909129572FBF08958F929F92AF9248
:102A5000BF92CF92DF92EF92FF920F93CF936B01D1
:102A60007C0120E030E040E05FE30E94064087FF09
:102A700005C0C12CD12CE12C8FE3F82EC09205406B
:102A8000D0920640E0920740F0920840809037577D
:102A900090903857C091395720E836E948E15BE417
:102AA000C701B6010E946B406B017C01B12CA12CC7
:102AB000C501B4010E940A409B01AC01C701B601E7
:102AC0000E94E4410E9451426B017C0160E876E97A
:102AD00088E990E0A50194010E944E41CA01B90124
:102AE00000914A40202F30E050E040E00E944E41EB
:102AF00044275527C701B601621B730B840B950B46
:102B00002C2F30E050E040E00E944E4120932A57A5
:102B100030932B5740932C5750932D57CF910F91B3
:102B2000FF90EF90DF90CF90BF90AF909F908F90ED
:102B30000895DC01ED91FC91F170FC5E80810895B7
:102B4000CF92DF92EF92FF920F931F93CF93DF9379
:102B500000D0CDB7DEB76C017C0103E010E0098343
:102B60001A83CE010196E5DFF70181937F010F5FA4
:102B70001F4F0730110599F7C6010F900F90DF9195
:102B8000CF911F910F91FF90EF90DF90CF9008951C
:102B90000F931F93CF93DF9300D000D0CDB7DEB754
:102BA0008C0119821A82CE010196C3DF8F34F9F4A9
:102BB00081E090E089839A83CE010196BADF853463
:102BC000B1F482E090E089839A83CE010196B1DF6F
:102BD0008D3469F481E00115110551F0CE010196A3
:102BE000AFDF81E02B813C812017310709F080E0C5
:102BF0002496CDBFDEBFDF91CF911F910F91089535
:102C00001F93CF93DF93EC01162F93DF8117B1F061
:102C10009FB780910210282F227081FDFACFF8947F
:102C20008DE984BF2093001023E184BF209300101E
:102C3000E881F981F170FC5E10839FBFCE01DF91C6
:102C4000CF911F910895CF92DF92EF92FF920F9351
:102C50001F93CF93DF9300D0CDB7DEB76C017C011B
:102C600003E010E009831A83F70161917F01CE012F
:102C70000196C6DF0F5F1F4F0730110599F7C60198
:102C80000F900F90DF91CF911F910F91FF90EF90D8
:102C9000DF90CF9008950F931F93CF93DF9300D0D1
:102CA000CDB7DEB70091645E1091655E8091665E7F
:102CB0009091675E081719079CF4C8019571898384
:102CC0009A836FEFCE0101969BDF1092605E1092A7
:102CD000615E80915E5E90915F5E080F191FE6CF86
:102CE0000F900F90DF91CF911F910F910895CF9387
:102CF000DF93EC018D85882329F081508D87DF914A
:102D0000CF9108959C818E819817C8F7888968278C
:102D1000E881F9810084F185E02D42E0CE0109953A
:102D20008C818F5F8C83EBCFDC01ED91FC91008473
:102D3000F185E02D40E009940F931F93CF938C0110
:102D4000FC016483C085C60F6C2F6F70EDDF6C2FA4
:102D500062956F706061C801CF911F910F91E4CFB0
:102D6000FC012781269526952695621730F4658308
:102D70002385620F6770606BD7CF08951F93CF9341
:102D8000DF93EC01142F8E81681710F4CE01D4DF8D
:102D9000612FCE01DF91CF911F91E2CFCF92DF92D1
:102DA000EF92FF920F931F93CF93DF93EC01F62ED8
:102DB000C42ED22E1D868F818695869586950817FE
:102DC00010F00FEF080F1D2D011770F0412F6F2D20
:102DD000CE01D4DFEF2CCE1428F06889CE0187DF36
:102DE000E394F9CF1F5FF0CF4D2D6F2DCE01DF9112
:102DF000CF911F910F91FF90EF90DF90CF90BECFBA
:102E00000F93CF93DF93CDEED0E61B861A8660E456
:102E1000CE018ADF0F8106950695069501504E81F9
:102E2000415020E060E0CE01B9DFDF91CF910F91FA
:102E300008952F923F924F925F926F927F928F925E
:102E40009F92AF92BF92CF92DF92EF92FF920F9339
:102E50001F93CF93DF93CDB7DEB72697CDBFDEBFED
:102E6000DC011E962D913C912115310509F46CC1B0
:102E70008D839E83F9013296649031964491E42EBD
:102E8000F12CB7E0EB0EF11C53E0F594E7945A9562
:102E9000E1F7E982319654913196E4916D3009F56C
:102EA000FC018681811118C081E090E02696CDBF9B
:102EB000DEBFDF91CF911F910F91FF90EF90DF90D8
:102EC000CF90BF90AF909F908F907F906F905F90CA
:102ED0004F903F902F90089560E08D819E812CDF70
:102EE000E3CF6A3009F063C0AD81BE8116968C9144
:102EF0001697882319F060E0CD011EDFED81FE8179
:102F000001890E9DE02C112465816E0D8485882336
:102F100049F027812695269526958E2D821B860FB2
:102F2000181624F08D819E811BDFBECFAD81BE813E
:102F30001B969C911B97890F87701B968C931B97F0
:102F40002E1915962C9315971E96ED91FC9130979E
:102F500061F13396E491F0E0379633E0F595E7952B
:102F60003A95E1F70E9F002D1124EFEFE20F0E0FBF
:102F7000ED81FE81468141506481CF010FDFAD813B
:102F8000BE811C968C911C97813009F08DCF1B96C9
:102F90006C911B97660F660F660F6F731A966C9392
:102FA0001A976064CD01C0DE7FCF00E0DECF6517E9
:102FB00008F4CAC08E2F90E0FC01E50FF11D6E17DA
:102FC0001F060CF0C1C089010A5F1F4F651BED8110
:102FD000FE8171855189759F502D11245C83F90103
:102FE00054912F5F3F4FF9012491352F2230310545
:102FF00008F06DC06E9CC0016F9C900D1124689FFD
:10300000F001699FF00D11240E0F1F1F512CAD818F
:10301000BE811496BC91BA83ED81FE812580F58531
:10302000FB83862C912CAA24A394B12C312C89816A
:10303000381608F087C0412CAD81BE8151968C9125
:103040005197481608F077C0EB811D96EC9331102C
:1030500002C0442049F0AD81BE8115964C91159770
:103060004F5F6A81CD018ADED12CC12CC61408F0D5
:1030700056C0F801EC0DFD1D7490552061F0EA1466
:10308000FB0449F4E72DF0E0052C02C0F595E79527
:103090000A94E2F77E2EED81FE818189823079F4F7
:1030A000442009F438C072948FE07822E72DF0E0D4
:1030B000EA51FC4F7490672D8D819E8118DE672D3B
:1030C0008D819E8114DE8FEFC81AD80ACFCF47704A
:1030D00028E0522E541A411101C0512CF801612CE4
:1030E00030E020E0661631F04491240F311D6394E6
:1030F0003196F8CF600E712E711CF3016490E29E40
:10310000F001E39EF00DF29EF00D11248E0F9F1F33
:10311000080F191F7CCFF72DFF707F2EC7CFD12C42
:10312000AC81DA1631F060E08D819E81E0DDD394D0
:10313000F7CF439481CF3394080D191DBFEFAB1A1D
:10314000BB0A75CF622DEECE90E080E0AFCEDC0101
:103150001C96ED91FC919381818513821186938356
:1031600091E09583818708959C0126563F4FDC01AD
:103170005296EC91529751968C91E81730F4E20FE9
:10318000F32FF11D808190E008958FEF9FEF089558
:10319000FC01DC01A656BF4F92898189981740F443
:1031A000A90FB11D2C919F5F928B822F90E0089503
:1031B0008FEF9FEF0895FC0181899289891B990BFC
:1031C0000895CF92DF92EF92FF920F931F93CF93C8
:1031D0006C014338510510F042E850E0C42F7B01E8
:1031E00010E000E00C1780F4D7016D917D01D6014D
:1031F000ED91FC910190F081E02DC60109959801B7
:103200002F5F3F4F892B49F4C801CF911F910F9138
:10321000FF90EF90DF90CF9008958901E3CFFC01FC
:10322000A089A23858F4A80FB92FB11D58966C93F5
:1032300080898F5F808B81E090E0089590E080E04E
:103240000895DC011A96ED91FC911B97309731F0AF
:1032500015968C91882311F090E009940895CF93EE
:10326000DF93FC01A081B1811B968C911B97982F55
:103270009C7029F01D968C911582148229C086FFBE
:103280002AC0EF0180FF1DC081FF11C01D968C91E7
:103290008383CF01D6DF1C821F82E885F9853097B2
:1032A00009F00995E881F98183E0828711C01D96B4
:1032B0008C911D9783831582168283E01A968C93D6
:1032C00007C080E41B968C93CF01BBDF1D821E825A
:1032D000DF91CF91089587FFFBCF81FF22C084FF4C
:1032E00009C0828187FF06C08F77828382E01A96A9
:1032F0008C93C3CF828180688283C7818481C81701
:1033000070F4CE0FDF2FD11D8C851D968C931D97E9
:1033100083E01A968C9387818F5F8783D9CF82E071
:10332000CDCF1D969C911D978581823868F4DF0171
:10333000A80FB11DA257BF4F9C9385818F5F8583D6
:103340000190F081E02DB0CF86E01A968C93158223
:103350001682BECFDC01ED91FC910088F189E02D51
:1033600023E030E00994089590E080E008950F9301
:103370001F93CF93DF938091BE57803109F067C0D0
:1033800088E249D882FF3CC084E051D82DD880E043
:1033900014D880E012D8D82FC82F833408F0C2E4A4
:1033A000C093785780E009D8082F80E006D8182FFE
:1033B00080E003D8282F30E0A90196E0440F551F84
:1033C0009A95E1F744275370402B409379575093D7
:1033D0007A57322F222722273370212B20937B57B5
:1033E00030937C579091E6609417150611F0452BA9
:1033F00011F4D330A8F4109278570E94D31156D804
:103400008091BE57803119F580917857882301F15A
:1034100084E00DD881E0DF91CF911F910F91089545
:10342000C350C0937D57807880937757D0E0DC17E6
:1034300028F480E00E94DD11DF5FF9CF0E94D311F4
:1034400080E10E94171284E20E940B12D9CF2ED87D
:1034500080E0E1CF94E081111BC0909346049091ED
:10346000400492FD0AC09FB7F894811114C0809166
:103470005204877F809352049FBF8091E605877036
:10348000823029F48091010A8B7F8093010A08958C
:1034900090934504E4CF809152048860EBCF0F9362
:1034A0001F93CF93DF93EC01062F142F8B8981316B
:1034B00020F4882329F0411103C00E9486111B8A41
:1034C0008B8981110DC08A89880F8093775E109255
:1034D000785E60E4111101C060E088E69EE59FDE41
:1034E000602F88E69EE59BDE123041F48B898F5F6A
:1034F0008B8BDF91CF911F910F9108950E948611C0
:103500001B8AF7CF0F931F93CF93DF93CDB7DEB70F
:103510002C97CDBFDEBF681BF1F0062F10E0682F9F
:1035200070E06258784AA801CE0101960E94944347
:10353000E1E0F0E0EC0FFD1FE00FF11F1082CE0183
:1035400001960E946C3E2C96CDBFDEBFDF91CF91DD
:103550001F910F91089590E080E0F5CF0F931F9396
:10356000CF93DF93CDB7DEB72C97CDBFDEBF681BFF
:10357000F1F0062F10E0682F70E06258784AA80139
:10358000CE0101960E949443E1E0F0E0EC0FFD1FB4
:10359000E00FF11F1082CE0101960E94693E2C9629
:1035A000CDBFDEBFDF91CF911F910F91089560E0F5
:1035B00070E0CB01F4CFFB0101900020E9F73197D7
:1035C000AF01461B570BDC01ED91FC910280F381AA
:1035D000E02D099466E071E4EECF0F931F93CF9333
:1035E000DF93EC017BD98C01CE01F4DF800F911FBA
:1035F000DF91CF911F910F9108956115710509F029
:10360000DACF90E080E008958F929F92AF92BF92C0
:10361000EF92FF920F931F93CF93DF93CDB7DEB757
:10362000A197CDBFDEBF7C01FA01CB0119A22230E8
:1036300008F42AE08E010F5D1F4F822E912CB12CD1
:10364000A12CBF01A50194010E944E41F901CA01BC
:103650006A30CCF4605DD8016E938D01232B242B4E
:10366000252B79F7BD01C701C8DFA196CDBFDEBF0D
:10367000DF91CF911F910F91FF90EF90BF90AF908E
:103680009F908F900895695CE6CFCF92DF92EF9282
:10369000FF920F931F93CF93DF9377FF1BC06A01B5
:1036A0007B01EC016DE238D98C0144275527BA0122
:1036B0004C195D096E097F092AE0CE01A5DF800F54
:1036C000911FDF91CF911F910F91FF90EF90DF90AD
:1036D000CF9008952AE0DF91CF911F910F91FF9035
:1036E000EF90DF90CF9090CFAB01770F660B770B09
:1036F000CCCFCF93DF93BC018FEB97E5F5DFEC01E7
:103700008FEB97E567DF8C0F9D1FDF91CF910895B9
:1037100074CFAF92BF92CF92DF92EF92FF920F934E
:103720001F93CF93DF9300D0CDB7DEB76C015B0161
:1037300010E000E00A151B050CF039C07801EC0C14
:10374000FD1C85E1F822E982FA82CE010196F1D9C9
:10375000803120F460E38FEB97E5DED80F5F1F4FD9
:10376000E982FA82CE010196E4D9482F50E070E058
:1037700060E020E18FEB97E547DF67E171E48FEBD5
:1037800097E5C6DFC80187709927892B29F467E17F
:1037900071E48FEB97E5BCDFC8018F709927892B07
:1037A00049F667EA72E28FEB97E598D8C3CF0F909E
:1037B0000F90DF91CF911F910F91FF90EF90DF90CD
:1037C000CF90BF90AF9008954F925F926F927F928B
:1037D0008F929F92AF92BF92CF92DF92EF92FF9221
:1037E0000F931F93CF936B017C01742EAC019B014F
:1037F0000E94684369E071E4811126C046015701C7
:10380000E894B7F82FEF3FEF4FE75FE7C501B4014A
:103810000E94684381110CC02FEF3FEF4FE75FE735
:10382000C501B4010E9406406DE071E4181664F011
:103830002FEF3FEF4FE75FE4C701B6010E9422433D
:103840001816A4F461E171E48FEB97E5CF911F9115
:103850000F91FF90EF90DF90CF90BF90AF909F902F
:103860008F907F906F905F904F90A5CE2FEF3FEF9E
:103870004FE75FECC701B6010E94064087FDE2CF2B
:1038800020E030E0A901C701B6010E94064010E027
:1038900000E087FF09C06DE28FEB97E53DD88C0112
:1038A000F7FAF094F7F8F094C0E060E070E080E0A0
:1038B0009FE37C1641F020E030E040E251E40E94BA
:1038C000E441CF5FF6CFA70196010E9480412B0112
:1038D0003C010E9451424B015C012AE0BC01A40161
:1038E0008FEB97E591DE7C01E00EF11ECC23C9F150
:1038F000C501B4010E940A409B01AC01C301B201A1
:103900000E947F414B015C016BE271E48FEB97E514
:1039100052DEE80EF91EC15020F120E030E040E216
:1039200051E4C501B4010E946B402B013C010E948F
:1039300051424B01B12CA12C2AE0B501A4018FEB1F
:1039400097E562DEE80EF91EC501B4010E940A4047
:103950009B01AC01C301B2010E947F414B015C019C
:10396000DACFC701CF911F910F91FF90EF90DF90B9
:10397000CF90BF90AF909F908F907F906F905F900F
:103980004F900895CF93DF931FDFEC018FEB97E506
:1039900021DE8C0F9D1FDF91CF9108950F931F9310
:1039A000CF93DF936CED73E08FEB97E516DE66ED5A
:1039B00073E08FEB97E50E946E148091A06061EB3D
:1039C00071E08B3251F064E673E0863531F070E0DF
:1039D00060E08B3511F463E973E08FEB97E584DEEB
:1039E00069EC73E08FEB97E50E946E144091A16043
:1039F00050E070E060E02AE08FEB97E505DE61ECD7
:103A000073E08FEB97E50E946E146091A2606F7374
:103A100070E08FEB97E568DE6EEB73E08FEB97E578
:103A20000E946E146091A4606251770B8FEB97E552
:103A30005BDE69EB73E08FEB97E5CFDD6CEA73E05B
:103A40008FEB97E5CADD64EA73E08FEB97E50E94A0
:103A50006E146091A5607091A6608091A7609091AE
:103A6000A86042E050E08EDF0DEA10E6C1E0D0E051
:103A70006FE973E08FEB97E50E946E14BE018FEB48
:103A800097E532DE65E171E48FEB97E541DEF80101
:103A900061917191819191918F0142E050E072DFCB
:103AA00069E973E08FEB97E50E946E14BE018FEB1E
:103AB00097E51ADE65E171E48FEB97E529DEF80101
:103AC000648975898689978942E050E05BDF219699
:103AD000C730D10569F66EE873E08FEB97E50E9479
:103AE0006E146091DD607091DE608091DF60909176
:103AF000E06042E050E046DF64E873E08FEB97E57A
:103B00000E946E148091E16090E0F3DD64E773E061
:103B10008FEB97E50E946E148091E2609091E360D4
:103B2000E8DD8091A36067E673E0882311F06EE61C
:103B300073E08FEB97E551DD8091E56068E473E019
:103B4000882311F068E573E08FEB97E5DF91CF9163
:103B50001F910F9142CD0E9485432F923F924F9229
:103B60005F926F927F928F929F92AF92BF92CF920D
:103B7000DF92EF92FF920F931F93CF93DF93CDB716
:103B8000DEB72A97CDBFDEBF89879A87162F7A01C5
:103B9000222E312CB101032C000C880B990B0E94B2
:103BA0000C404B015C01612F70E090E080E00E94CE
:103BB0000C4020E030E044EB53E40E946B402B01CA
:103BC0003C01B70190E080E00E940A409B01AC01FB
:103BD000C301B2010E946B40A50194010E946B4099
:103BE00020E836E948E15BE40E94E4412B013C0116
:103BF000E985FA8505818081081B110B21813281BD
:103C00004381548166817781808591850E947F41BF
:103C1000A30192010E94E4416B017C01B801012ED5
:103C2000000C880B990B0E940C40A50194010E9486
:103C3000E4419B01AC01C701B6010E9480416D8344
:103C40007E838F8398870E94BF4269837A838B83A8
:103C50009C8320E030E040E85FE30E9480416B01FC
:103C60007C0120E030E0A90169817A818B819C810F
:103C70000E94224387FDA2C0A7019601C501B4019D
:103C80000E946B400E944C42E985FA8562877387E7
:103C900016861786E985FA8526853785020F131F54
:103CA00006871787020D131D0487158720E030E073
:103CB00044EB53E4C301B2010E94E4412BED3FE029
:103CC00049EC50E40E946B406B017C0129813A81F0
:103CD0004B815C816D817E818F8198850E947F41BF
:103CE000A30192010E946B4020E030E044EB53E4DA
:103CF0000E94E4412BED3FE049EC50E40E946B4010
:103D00004B015C01A70196010E94E4412B013C019B
:103D1000E985FA85448A558A668A778AA5019401DD
:103D2000C501B4010E946B4020E030E040E05FE359
:103D30000E946B409B01AC0160E070E080E89FE373
:103D40000E947F414B015C01A7019601C701B601AA
:103D50000E946B4020E030E040E05FE30E946B4057
:103D60009B01AC0160E070E080E89FE30E947F412E
:103D7000A30192010E946B409B01AC01C501B401FB
:103D80000E947F41E985FA85608B718B828B938BD2
:103D90002A96CDBFDEBFDF91CF911F910F91FF908B
:103DA000EF90DF90CF90BF90AF909F908F907F90DB
:103DB0006F905F904F903F902F900895E985FA851E
:103DC00012861386C701B6019058A50194010E947E
:103DD0006B400E944C42E985FA85668777875ACF07
:103DE000CF92DF92FF920F931F93CF93DF930FE554
:103DF000089FF0011124EF01C257D74AAA81BB8165
:103E00001F962C911F972A8B16964D915D916D915F
:103E10007C9119974B8B5C8B6D8B7E8BA881B981C4
:103E20001F962C911F972F8B16964D915D916D913A
:103E30007C911997488F598F6A8F7B8F20913957C2
:103E4000C0903757D0903857F0904A408F01A60164
:103E50006F2DCF018056974A80DEEC81FD818A81EB
:103E60009B818E179F0729F187858AA78681978175
:103E7000A085B1858BA79CA7ADA7BEA7E881F981D6
:103E800087858FA786819781A085B18588AB99ABFF
:103E9000AAABBBAB20913957A6016F2DC80188543E
:103EA000974ADF91CF911F910F91FF90DF90CF90B4
:103EB00054CEDF91CF911F910F91FF90DF90CF9063
:103EC0000895EF93FF93EFEBF7E508C0EF93FF93AF
:103ED000EFEBF7E532C0EF93E0E653C02F932FB737
:103EE0002F938F939F93AF93BF936894CF93DF9358
:103EF00020E0C485D8E09689DF01A90FB21FA95A36
:103F0000BF4F8C9120E42C838A839F5F9F738D81A8
:103F10002589291302C08F7D8D83968BDF91CF91E8
:103F200016F00C942114BF91AF919F918F912F9116
:103F30002FBF2F91FF91EF9118952F932FB72F93AC
:103F40008F939F93CF93DF93C485D8E08981988125
:103F500081FD0DC0C38981E08C0F8F7324892817E0
:103F600031F0CE0FDF2F20E0D21F9F8B838BDF91AC
:103F7000CF919F918F912F912FBF2F91FF91EF9113
:103F80001895FF938F938FB78F93F8E0808184818A
:103F900087FFFCCF85818F7B806885838F918FBF62
:103FA0008F91FF91EF9118951F920F920FB60F927C
:103FB00011248F939F93AF93BF9380912657909135
:103FC0002757A0912857B09129570196A11DB11DDF
:103FD0008093265790932757A0932857B09329573B
:103FE00081E08093260BBF91AF919F918F910F90AD
:103FF0000FBE0F901F9018951F920F920FB60F9241
:1040000011248F9388E08093A90481E08093345732
:104010008F910F900FBE0F901F9018951F920F92C7
:104020000FB60F9211248F939F9380910904809370
:10403000090486FF03C091E09093365787FF03C0C1
:1040400081E0809335579F918F910F900FBE0F9015
:104050001F9018951F920F920FB60F9211240BB656
:104060000F922F923F924F925F926F927F928F9218
:104070009F92AF92BF92CF92DF92EF92FF920F93F7
:104080001F932F933F934F935F936F937F938F93E0
:104090009F93AF93BF93EF93FF93CF93DF93CDB7EE
:1040A000DEB72A97CDBFDEBF81E080930D068091F9
:1040B0001006909111068D839E83809125578E5F07
:1040C00090913957891718F090913957891B90E0D2
:1040D000FC01EE0FFF1FE80FF91FE75EFF4B808129
:1040E000809308068D819E812091585830915958AF
:1040F00036952795821B930B8D839E838D819E81A0
:10410000E0912357F0912457EE0FFF1FED5DF04B28
:104110008083918319821A821B821C822D813E81A9
:104120000D811E8122241302B001029FA0011203FF
:104130007209500D611D721D30037209500D611D11
:10414000721D112449835A836B837C8389809A80F2
:10415000AB80BC80A0910140B0910240E091255716
:1041600008E0E09FF0011124EA0FFB1FE058FF4F29
:104170002080318042805380648075800681178161
:104180009401A50160E070E080E090E051016201DF
:1041900073010E947C432083318342835383648371
:1041A0007583868397834D815E81E091255718E062
:1041B000E19FF0011124EA0FFB1FA084B184C284A7
:1041C000D384E484F58406851785952F990F990B80
:1041D0009A01492F592F692F792F892F0E947C43EB
:1041E00020873187428753876487758786879787BB
:1041F000E09125578E2F90E0FC01EE0FFF1FE80F96
:10420000F91FE75EFF4B80818111CFC08091214F64
:104210009091224F9C013695279536952795AC01B4
:10422000421B530B9A018D819E81181619060CF4BE
:1042300078C08D819E81919581959109820F931F00
:104240008093214F9093224F21E0409156585091F6
:1042500057584817590708F020E02093135E8D81C6
:104260009E81181619060CF05FC081E090E08093E3
:104270001F4F9093204F20911F4F3091204F8091DE
:104280001B4F90911C4F2817390709F452C0809199
:10429000184F8F5F8093184F8091184F882351F0EB
:1042A0001092184F80911F4F9091204F80931D4F77
:1042B00090931E4F80911D4F90911E4F019709F0D2
:1042C00016C380911B4F90911C4F019709F465C054
:1042D0008091194F90911A4F01968093194F9093A6
:1042E0001A4F20910440222339F1209103402817CE
:1042F000190609F008F5109204401092194F109217
:104300001A4F14961D921D921D921C921797CD0163
:1043100088529D4FFD01E817F90771F01082319620
:10432000FACF8D819E818ACF10921F4F1092204F1D
:10433000A2CF1092184FB0CF14964D915D916D9110
:104340007C9117974F5F5F4F6F4F7F4F14964D9340
:104350005D936D937C9317970D911D912D913C91D9
:10436000139740912A5750912B5760912C57709179
:104370002D57041715072607370778F080914B4013
:1043800090914C40A0934B40B0934C40809301409F
:104390009093024081E080933C5780911D4F909113
:1043A0001E4F80931B4F90931C4F909125578091E7
:1043B0003B57981708F445C2809023579090245794
:1043C000E09125578E2F90E0FC01EE0FFF1FE80FC4
:1043D000F91FE75EFF4B0180F281E02D848D958D02
:1043E000881A990A53E09522E0912357F0912457B7
:1043F000A09125578A2F90E0DC01AA0FBB1FA80FC0
:10440000B91FA75EBF4B11960D90BC91A02D5E9673
:104410008D919C91E81BF90BF370209123573091FB
:104420002457A09125578A2F90E0DC01AA0FBB1FCB
:10443000A80FB91FA75EBF4B11960D90BC91A02D80
:1044400090968D919C91281B390BD901B370AF8345
:10445000B887880C991C84010D5D104B4801D80168
:104460006D917C91EE0FFF1FED5DF04B408151810E
:10447000222457029001469F800156033209100DF5
:10448000211D321D74033209100D211D321D11240E
:1044900028013901E0910140F0910240A091255797
:1044A00018E0A19FD0011124AE0FBF1FA850BF4F2D
:1044B000AC901196BC90119712962C90129713966F
:1044C0003C90139714960C911497098715961C919C
:1044D00015971A8716960C91169717961C91179791
:1044E00073016201FF0CCC08DC2C76019201A30160
:1044F0006C2D7C2D8C2D9C2D6101E984FA840E9409
:104500007C432C9311963C93119712964C931297DF
:1045100013965C93139714966C93149715967C934B
:10452000159716968C93169717969C93D4016D91B8
:104530007C91AF81B885AA0FBB1FAD5DB04B4D918B
:104540005C91222457029001469F80015603320954
:10455000100D211D321D74033209100D211D321D55
:10456000112448015901A091255718E0A19FD001BD
:104570001124AE0FBF1FA059BE4F2C9011963C9036
:1045800011971296CC9012971396DC90139714966D
:10459000EC9014971596FC90159716960C9116971B
:1045A00017961C91179724013501770C4408542C59
:1045B00032019401A501642D742D842D942D510197
:1045C0000E947C432C9311963C93119712964C9326
:1045D000129713965C93139714966C9314971596F1
:1045E0007C93159716968C93169717969C93A0918B
:1045F0002557809125572A2F30E0D901AA0FBB1FDC
:10460000A20FB31FA75EBF4B11962D913C9190E076
:10461000DC01AA0FBB1FA80FB91FA75EBF4B1196E5
:104620008D919C91D90112962D913C91DC011496AB
:104630008D919C912817390709F403C18090235765
:1046400090902457A09125578A2F90E0DC01AA0F63
:10465000BB1FA80FB91FA75EBF4B11960D90BC9151
:10466000A02DD4968D919C91881A990AB3E09B2233
:1046700020912357309124578091255790E0DC01F9
:10468000AA0FBB1FA80FB91FA75EBF4B11960D90B5
:10469000BC91A02DD6968D919C91D901A81BB90BE8
:1046A000BD01737040912357509124578091255735
:1046B000282F30E0C901880F991F820F931F875E52
:1046C0009F4BDC0111968D919C91DC01D8968D91C8
:1046D0009C91481B590BDA01B370AF83B887880CE3
:1046E000991C84010D5D104B4801D8018D919C915E
:1046F000DB01AA0FBB1FAD5DB04B4D915C91BC01BE
:10470000222457029001469F800156033209100D62
:10471000211D321D74033209100D211D321D11247B
:1047200028013901A091255778E0A79FD0011124D5
:10473000AE0FBF1FA851BE4FAC901196BC90119701
:1047400012962C90129713963C90139714960C91F6
:104750001497098715961C9115971A8716960C9130
:10476000169717961C91179779016201FF0CCC08D8
:10477000DC2C76019201A3016C2D7C2D8C2D9C2DBF
:104780006101E984FA840E947C432C9311963C9346
:10479000119712964C93129713965C931397149655
:1047A0006C93149715967C93159716968C93169781
:1047B00017969C93D4016D917C91AF81B885AA0F17
:1047C000BB1FAD5DB04B4D915C912224570290010F
:1047D000469F800156033209100D211D321D7403BE
:1047E0003209100D211D321D11242801390180913B
:1047F000255718E0819FC0011124E80FF91FE05AE6
:10480000FD4FB081A181C280D380E480F580068114
:10481000178153014201BB0C8808982C5401920166
:10482000A301682D782D882D982DAB2EBA2E0E94CD
:104830007C432083318342835383648375838683DF
:104840009783809125578F5F8093255780912357B9
:1048500090912457019680932357909324579091D9
:10486000255780913957981788F010922557E09175
:104870000140F091024080819181A281B381019633
:10488000A11DB11D80839183A283B383809123579F
:1048900090912457937080932357909324572A968E
:1048A000CDBFDEBFDF91CF91FF91EF91BF91AF916F
:1048B0009F918F917F916F915F914F913F912F9138
:1048C0001F910F91FF90EF90DF90CF90BF90AF902E
:1048D0009F908F907F906F905F904F903F902F9020
:1048E0000F900BBE0F900FBE0F901F9018958091E8
:1048F0001B4F90911C4F51CD1F920F920FB60F92EC
:1049000011240BB60F922F933F934F935F936F93A6
:104910007F938F939F93AF93BF93EF93FF9384E71E
:104920009EE50E942F19FF91EF91BF91AF919F914A
:104930008F917F916F915F914F913F912F910F9048
:104940000BBE0F900FBE0F901F9018951F920F92E5
:104950000FB60F9211240BB60F922F933F934F93E4
:104960005F936F937F938F939F93AF93BF93EF93D7
:10497000FF9380E99FE50E942F19FF91EF91BF916E
:10498000AF919F918F917F916F915F914F913F91E7
:104990002F910F900BBE0F900FBE0F901F90189588
:1049A000EF92FF920F931F93CF93DF9300D0CDB779
:1049B000DEB71092C1571092C25788EE93E0A0E084
:1049C000B0E08093C3579093C457A093C557B0935A
:1049D000C65780ED90E48093BF579093C05780E610
:1049E00098E08093CB579093CC5789EA92E28093DA
:1049F000CD579093CE5782E08093CF571092D057E7
:104A00001092D15780E090E0A8ECB2E48093FF5D73
:104A10009093005EA093015EB093025E1092125ECE
:104A20001092135E8093155E9093165EA093175EAE
:104A3000B093185E1092285E1092295E80932B5ED0
:104A400090932C5EA0932D5EB0932E5E10923E5EEE
:104A500010923F5EE2E0FDE581839283A383B483FD
:104A6000148A75962DE5EE3FF207B1F78EE898E5CA
:104A7000FC01E25AFF4F1082815A9F4F4DE5823070
:104A80009407B1F7EEE5F8E524E130E092E081E04B
:104A900020833183928313821482158216821782B7
:104AA0001086118682871386709648E5EE38F407E3
:104AB00079F710925A5810925B5810925C5880E027
:104AC00090E1809358589093595880E091E08093FA
:104AD0005658909357588EEF90E08093625E909373
:104AE000635E8DE190E080935E5E90935F5E8DE00B
:104AF00090E080935C5E90935D5E84E890E08093AC
:104B0000645E9093655E8DEF91E08093665E909316
:104B1000675E1092605E1092615E04E810E00983A7
:104B20001A83CE0101960E94991578019DE1E90E44
:104B3000F11C8F3F09F4B6C00093605E1093615E74
:104B40002DEFE21621E0F2065CF4E982FA82CE0152
:104B500001960E9499158F3F09F4A0C00E944B1640
:104B60001092865F1092875F48EE53E060E070E03D
:104B70004093885F5093895F60938A5F70938B5FE7
:104B80008AEE90E48093845F9093855F20E039E023
:104B90002093905F3093915F10926A5E10926B5EEB
:104BA00040936C5E50936D5E60936E5E70936F5E2B
:104BB0008093685E9093695E80E299E08093745E72
:104BC0009093755E1092EF601092F0601092F96011
:104BD0001092FA601092FB601092FC601092FD60DF
:104BE00081E08093FE602CEF30E42093ED60309301
:104BF000EE609AE09093E8609BE09093E9609CE01F
:104C00009093EA609DE09093EB601092EC609BE2E1
:104C10009093A06092ED9093A1609BE19093A2602D
:104C20001092A36099E19093A4604AE959E96AEC73
:104C300072E44093A5605093A6606093A760709360
:104C4000A86040E050E068E472E44093A9605093AB
:104C5000AA606093AB607093AC604DEC5CEC6CE16F
:104C600071E44093DD605093DE606093DF60709389
:104C7000E0608093E16084E690E08093E26090934E
:104C8000E3601092E4601092E5600F900F90DF9166
:104C9000CF911F910F91FF90EF9008954DE1E40E99
:104CA000F11C4ECF87018DEFE81681E0F80609F080
:104CB00036CF56CFCF93DF93CDB7DEB7C657D109E6
:104CC000CDBFDEBF88ED94E284BF9093680021E001
:104CD0002093030A8EEF8093260A8093270A9BE095
:104CE0009093000A32E03093E6052093430A8093C4
:104CF000660A8093670A9093400A9093E705E0E084
:104D0000FBE027E09EEF85E0218394871586808372
:104D10007096E0340BE0F007B9F72FEF3FE02093F7
:104D2000AA0B3093AB0B90E89093820B1092810BFF
:104D30002BEF33E02093AE0B3093AF0B91E79093C2
:104D4000800B809302069EE09093050690E6909378
:104D50000306809300068091B000887F8560809371
:104D6000B0008091B200887F85608093B2008FEDA3
:104D70009EE280932C0B90932D0B81E08093250B6A
:104D80001092210B83E08093200B789468EE73E0FF
:104D900080E090E00E94E814E091745EF091755E0E
:104DA000E11519E0F10709F073C08091E5058C7FEA
:104DB00082608093E5058091765E807641F5E1150D
:104DC00039E0F30709F071C08091E5058370823006
:104DD00009F067C08CE0809346048091765E806223
:104DE0008093765E81E0838385839091765E95FFE4
:104DF00021C096819C3679F0238113829CE69683AC
:104E000090819D7F9083238320FF05C085838091BF
:104E1000765E85FF0FC08681853161F093811382B4
:104E200085E1868380818D7F8083938390FF02C09C
:104E300081E08583109200618CE38093FF60109283
:104E4000F1601092F260E8E9FAE185919491E82E20
:104E5000EAE9FAE1F490EBE9FAE1E491E093F36036
:104E6000ECE9FAE1E491E093F460EDE9FAE1E49130
:104E7000E093F5608C01802F8E198F1540F5F801B5
:104E800064918DEE90E60E9494160F5F1F4FF3CF52
:104E9000E03229E0F20709F08ECF8091E50588E045
:104EA00088CF8CE08093060498CFE03249E0F40785
:104EB00009F093CF8091E5058C70883021F48CE067
:104EC000809326048ACF8CE08093A60486CF0E942C
:104ED0000017E2E6F9E0E093FB60F093FC60E491F8
:104EE000E3E6F9E0E49182E08093F6600E94001727
:104EF00041E06FE08DEE90E60E94BE1669E171E43C
:104F00008DEE90E60E94881BEEEAF4E0E093FB60F1
:104F1000F093FC608491EFEAF4E0E491F82F31978C
:104F200009F012C21092F66046E068E28DEE90E65B
:104F30000E94BE1661E271E48DEE90E60E94881B2D
:104F40008091765E85FF0CC0E091745EF091755E95
:104F500086FF138216828091765E8F7D8093765EC7
:104F60008091765E86FF0FC0E091745EF091755E71
:104F700085FF13821486118616868091765E8F7B5C
:104F80008093765E11822FB7F89494E09093220478
:104F900080913204877F809332042FBF2FB7F8941B
:104FA00088E08093220480913304877F80933304C8
:104FB0002FBF9093410481E00E942A1A40E052ECF6
:104FC00061E070E08FEB97E50E94AA196BE874E04E
:104FD0008FEB97E50E946E146DE271E48FEB97E51D
:104FE0000E94FD1A65E774E08FEB97E50E94ED1AC9
:104FF0000DEA10E60BAB1CAB85EC90E6F80100E087
:1050000010E020EA31E44DEC5CEC6CE470E40193D8
:10501000119321933193448B558B668B778B8E172D
:105020009F07A9F780E190E00E94C815882341F10D
:10503000CE0101960E94A01509811A8117FD20C09A
:10504000680123E0C20ED11CF0EAEF2EF0E6FF2E3D
:1050500087E090E05C013FEFA31AB30A8FA798ABFB
:10506000CE018F960E949915D7018D937D01C501C0
:10507000AC14BD0478F367E074E00430110511F45A
:1050800066EF73E08FEB97E50E94ED1A0E94CE1C4D
:105090008091A360882309F45AC06CE674E08FEB1A
:1050A00097E50E946E1464E674E08FEB97E50E942A
:1050B0006E148091A0608B3231F46DE574E08FEB5B
:1050C00097E50E946E148091A060863531F466E504
:1050D00074E08FEB97E50E946E148091A0608B3591
:1050E00031F46FE474E08FEB97E50E946E1466E490
:1050F00074E08FEB97E50E946E144091A16050E040
:1051000070E060E02AE08FEB97E50E94041B6EE3FD
:1051100074E08FEB97E50E946E144091A26050E01E
:1051200070E060E02AE08FEB97E50E94041B6CE3DF
:1051300074E08FEB97E50E94ED1A65E371E48FEB65
:1051400097E50E94DB1A8FEB97E50E94EA1A80919F
:10515000A360882309F447C187E08093E86084E076
:105160008093E96085E08093EA6086E08093EB605D
:105170001092EC601091A1608091A2608093E66033
:105180001092E76080E88093010480E1809301043D
:105190009FB7F89480E28093020480911504877F82
:1051A000809315049FBF2091EB60822F90E02932FD
:1051B00080F4FC01EF5AFF4B20812F3F51F08658BD
:1051C0009F4BDC01EC91B0E2EB9FF0011124FC5FFE
:1051D00021830E94D3118091EC608111B9C080912C
:1051E000E4058C7F8093E40580914109846080937D
:1051F0004109809140098162809340090E941915FC
:105200006B017C016AEA8FE20E94FE118FE20E942C
:105210000B128A3A59F00E9419156C197D098E09F2
:105220009F09623371058105910560F30E9419158C
:105230006C197D098E099F096233710581059105FD
:1052400008F0B7C00E9419156B017C0165E58FE27B
:105250000E94FE118FE20E940B12853559F00E94C8
:1052600019156C197D098E099F0962337105810535
:10527000910560F30E9419156C197D098E099F092B
:10528000623371058105910508F093C0FE013396E4
:105290008BE2DF011D928A95E9F781E0898384E042
:1052A0008A8322E02B8393E09D832E838F8380E487
:1052B000888725E029879A8796E09B8793E39C87D8
:1052C00097E09D8728E02F8729E0298B29E12B8B08
:1052D00032E43C8B25E22D8B8E8B26E22F8B988F30
:1052E00098E2998F20E12A8F99E29B8F9CED9C8F09
:1052F0009EE29D8F98E89E8F9FE29F8F9DE298A3EC
:1053000090E399A347E34BA340E94CA348E34DA3A3
:105310003EA33CE33FA33FE838A73DE339A72AA7D4
:105320002FE62BA79CA79CE69E87888B1AA38E014D
:105330000F5F1F4FF80180818823D1F061810E94A7
:10534000FE110E5F1F4FF6CF81E08093F660ECCD2B
:105350008091E405837F8093E405809161098460F6
:10536000809361098091600981628093600946CFD2
:1053700090E080E00E94301269E981E10E94FE1114
:1053800084E00E9417120E9419156B017C0187E2CC
:105390000E940B1287FD0BC00E9419156C197D0924
:1053A0008E099F09623371058105910580F30E9482
:1053B00019158FE491E40E9430128091A260F4E10B
:1053C0008F9FC00111246C01092E000CEE08FF080C
:1053D000892B09F46DC10E94143EA70196010E9419
:1053E00022410E94E8148EE0809305068091030616
:1053F000809303061092B00086E08093020681E05D
:1054000080930006809100068093000687E08093D9
:10541000080660E070E0CB0150E040E0E1E0E0939E
:105420000A0620910D0620FFFCCF4A30510544F0BA
:105430002091100630911106620F731F811D911D7E
:105440004F5F5F4F4A3107E2500749F70E940A4019
:1054500020E030E44CE156E40E94E44120E030EFEB
:105460004FE755E40E94E4419B01AC0166E676E615
:1054700086E69FE30E94E4416B017C016CE174E0ED
:105480008FEB97E50E946E1444E050E0C701B6012F
:105490000E94C21C4090A5605090A6606090A760DA
:1054A0007090A8601092FE5D8090464090904740BA
:1054B000A0904840B09049408FAA98AEA9AEBAAE2D
:1054C000609158587091595890E080E00E940A40CD
:1054D0004B015C0123EA33E240E051E4C301B20135
:1054E0000E946B402FA938AD49AD5AAD0E946B4068
:1054F000A50194010E94E4416093FF5D7093005EFA
:105500008093015E9093025E1092035E8AE097EDB5
:10551000A3E2BEE38093045E9093055EA093065ED3
:10552000B093075E1092085E1092095E10920A5EB8
:1055300010920B5E10920C5E02E01DE520E0ABA91C
:10554000BCA958962D903D904D905C905B976D91C5
:105550007D918D919D91ABABBCAB77247394720E12
:10556000F801208320E030E040E450E40E946B40EA
:105570002FA938AD49AD5AAD0E946B40A5019401E9
:105580000E94E441D80111966D937D938D939C9375
:10559000149715961C921597F8012682378240863B
:1055A000518612861B961D921D921D921C921E976B
:1055B0000B5E1F4F272D263011F650913A57ADE361
:1055C000B7E582E09DE540E07FE52EEF3DE511E0A7
:1055D000652F640F4F5F769FF0011124E257F74A61
:1055E000808391832283338324833583E25AFF4F60
:1055F00010836D934596463059F7E6E03E2E350E02
:1056000030923A5782E380934A408AE08093034085
:105610006091DD607091DE608091DF609091E0606C
:105620000E942515C0924640D0924740E0924840E3
:10563000F09249401093675889E08093160484E102
:1056400090E080935E5890935F5882E0809360581A
:105650001093685810927758109217041092875838
:105660001092B304E090605EF090615EE114F1048A
:1056700009F47BC187010F5F1F4F70E4C72E7EE5E1
:10568000D72E80915E5E90915F5E8E0D9F1D0817F4
:10569000190794F4C801957189839A83CE01019604
:1056A0000E949915F60181936F010F5F1F4FE9CF9B
:1056B00060E070E0CB0195CE4090405E5090415E3E
:1056C0006090425E7090435E8090445E9090455E34
:1056D000A090465EB090475EC090485ED090495E14
:1056E000E0904A5EF0904B5E00914C5E10914D5EF2
:1056F00020914E5E30914F5E4091505E5091515ED0
:105700006091525E7091535E8091545E9091555EAF
:10571000A091565EB091575E8BAB9CABADABBEAB70
:105720008091585E9091595EA0915A5EB0915B5EF7
:10573000409285B7509286B7609287B7709288B7CB
:105740008092E4589092E558A092E658B092E758BB
:10575000C0924359D0924459E0924559F09246592B
:105760000093A2591093A3592093A4593093A5599B
:105770004093015A5093025A6093035A7093045A0B
:105780008BA89CA8ADA8BEA88092605A9092615A3E
:10579000A092625AB092635A809361589093625873
:1057A000A0936358B093645885E18093325788E0A2
:1057B00090E0809330579093315788EE91E080933A
:1057C00037579093385710922F5790913B5742E09C
:1057D0005DE5EEE8F8E580E011E0DF01A25ABF4F99
:1057E0002C91222309F453C0A82FB0E09D01220F71
:1057F000331FA20FB31F9D01275E3F4B7901D901D3
:105800002C912F3FC1F422813381D90154966C91A0
:105810005497611110C01F968C931F9754961C9338
:1058200054972C9130E0275F3F4BD9012C91D70141
:105830002C938F5F9F5F248135816281738126174E
:10584000370729F1682F70E0DB01AA0FBB1FA60FF5
:10585000B71FBD01675E7F4B7B01DB016C916F3F22
:10586000B1F4D90154966C915497611110C01F96F0
:105870008C931F9754961C9354972C9130E0275F7C
:105880003F4BD9012C918F5FD7012C939F5FE15A39
:10589000FF4F4E175F0709F0A0CF90933B578093BF
:1058A0002F5790912E572EE838E561E0D901A25A82
:1058B000BF4F4C91442359F1A82FB0E0AD01440FE4
:1058C000551FA40FB51F8D01075E1F4BD8014C91CA
:1058D0004F3FE9F4D9014D915C91DA0154967C91E6
:1058E0005497711114C01F968C931F9754966C9304
:1058F00054974C9150E0445F5F4BDA014C91D801D2
:105900004C938F5F11962D933C9312979F5F215A72
:105910003F4FE217F30751F680932F5790932E577E
:1059200090915A589923A9F080935D58209118407E
:1059300091E0980F90932F5790E0FC01EE0FFF1F1E
:10594000E80FF91FE75EFF4B208310925B5810921F
:105950005C5880912F578093395710E01315E0F46D
:10596000812F0E94F01E1F5FF9CF80E090E0DC01E4
:105970001BAA1CAA1DAA1EAA40E050E0BA0100E022
:1059800010E09801C12CD12C7601812C912C54016E
:10599000412C512C3201CCCE1091395720E836E9F8
:1059A00048E15BE4609105407091064080910740BA
:1059B000909108400E946B4020E030E044EF53E4B7
:1059C0000E94E4410E945142695971408109910944
:1059D000212F30E050E040E00E944E4120932A57B2
:1059E00030932B5740932C5750932D5710923C5780
:1059F00081E08093044095E1909305069091030621
:105A0000909303061092B000909130579093020645
:105A100080930006909100069093000690910006F6
:105A20009260909300061092080690910C06916087
:105A300090930C0680930A0678941092495710921E
:105A40004A5710924B5710924C5760E070E080E03C
:105A500090E40E9425158E01015D1F4F09AB1AAB22
:105A60008FEB97E50E94CE12892B09F49AC08FEB39
:105A700097E50E94AC12F09033578A3009F04AC57E
:105A8000AF2DB0E0A258B84A1C92E0917E57EF5378
:105A9000EC3308F07EC00E2E000CFF0BEE5AF24DD8
:105AA0000C9473436D32C92DC92DC92DC92DC92D33
:105AB000C92DC92DC92DC92DC92DC92DC92DC92D36
:105AC000C92DC92DC92DC92DC92DC92DC92DC92D26
:105AD000C92DC92DC92DC92DC92DC92DC92DC92D16
:105AE000C92DC92DC92DC92DC92D8E2DBC2D852E91
:105AF000992EA22EBA2EC92DE730752ED52E7B30C9
:105B00008230E730C92D0131C92D19314831C92DF5
:105B1000C92D1C322C324232C92D493212E0F11209
:105B200038C08FE797E50E946C3E8430F9F08830EA
:105B3000B9F0893079F01092A06070E060E08FEBEE
:105B400097E50E94741B65E672E28FEB97E50E9471
:105B5000ED1A1FC08BE58093A06063E973E0EFCF7F
:105B600086E58093A06064E673E0E9CF8BE28093E2
:105B7000A06061EB71E0E3CF22E0F2120AC08FE790
:105B800097E50E946C3E019709F0ACC081E08093DC
:105B9000E46080E4AEE7B7E51D928A95E9F71092DC
:105BA00033578091365790916758992389F088230D
:105BB00079F081E0809369580E94191560936A58C2
:105BC00070936B5880936C5890936D581092365721
:105BD0008091355790917758992389F0882379F0EF
:105BE00081E0809379580E94191560937A587093D8
:105BF0007B5880937C5890937D58109235578091B4
:105C0000345790918758992389F0882379F081E05F
:105C1000809389580E94191560938A5870938B5805
:105C200080938C5890938D58109234579EE5E92EAE
:105C300098E5F92E8701D12CC12C560184E0AA0CDD
:105C4000BB1C8A95E1F7F501E25AF74A4F018385BB
:105C5000D80119969C91992309F47BC4882309F4EF
:105C600078C40E941915F401248535854685578529
:105C70001B012C01221A330A440A550AB201A10160
:105C8000D8018D919C91B0E0A0E084179507A607FC
:105C9000B70708F05EC4B1E0CB1609F448C4E2E0EF
:105CA000CE1609F44AC48091080486FB882780F93F
:105CB000F501E25AF74A1386D8011A969C911A9771
:105CC000981709F446C412969C9181113CC49230F5
:105CD00009F03CC4F801278130852F5F3F4F2783AF
