:100200004DC5000075C5000073C500000C94BD10FD
:100210006FC500006DC500006BC5000069C500001A
:100220000C94FE1065C5000063C5000061C50000A8
:100230005FC500005DC500005BC5000059C500003A
:1002400057C5000055C5000053C5000051C500004A
:100250004FC500004DC500004BC5000049C500005A
:1002600047C5000045C500000C941A1141C50000A7
:100270003FC500003DC500003BC500000C94C41004
:1002800037C5000035C5000033C500000C94EC10E4
:100290002FC500002DC500002BC5000029C500009A
:1002A00027C5000025C5000023C5000021C50000AA
:1002B0001FC500001DC500001BC5000019C50000BA
:1002C00017C5000015C5000013C5000011C50000CA
:1002D0000FC500000C9450100C944B100C9455104A
:1002E00007C5000005C5000003C5000001C50000EA
:1002F000FFC400004E414E494E495459494E46CD27
:10030000CCCC3D0AD7233C17B7D13877CC2B3295CC
:1003100095E6241FB14F0A000020410000C84200AA
:10032000401C4620BCBE4CCA1B0E5AAEC59D744A2A
:10033000534F4E20466F726D6174204F6666004ABF
:10034000534F4E20466F726D6174206F6E0052469F
:10035000206F6666005246206F6E0070756C736584
:1003600020706572696F64203D200070756C736544
:1003700073203D2000646174616C6F67203D200034
:10038000694C656164006943616C007643616C206F
:100390003D200043616C6962726174696F6E3A005E
:1003A0002064426D002C20002C204E6F64652000DC
:1003B000204D487A2C2047726F7570200042616E84
:1003C00064200053657474696E67733A004E6F2041
:1003D000454550524F4D20636F6E666967004C6F04
:1003E0006164656420454550524F4D20636F6E66D1
:1003F0006967005265666572656E636520766F6C2D
:10040000746167652063616C6962726174696F6EA3
:100410003A20002000204E6F64653A200020477289
:100420006F75703A20003931354D487A00383638CA
:100430004D487A003433334D487A00204672657156
:100440003A200052464D3639435720004F70656EB2
:10045000456E657267794D6F6E69746F722E6F723B
:100460006700656D6F6E50693220444220436F6EA5
:1004700074696E756F7573204D6F6E69746F7269F4
:100480006E672056000A00202868696464656E293A
:100490002E00206279746573002C20446174612001
:1004A00073697A653A2000205369676E61747572CA
:1004B000653A20004E6F206461746120626C6F6346
:1004C0006B20666F756E64202D20454550524F4D50
:1004D000206170706561727320746F2062652066A0
:1004E0006F726D617474656420746F204F454D2088
:1004F0005374616E646172642062757420756E75E8
:100500007365642E000A002062797465732C206E76
:100510006F7420666F726D617474656420746F20EF
:100520004F454D205374616E646172640053697A63
:10053000653A2000446F6E652E204E657720636F0C
:100540006E66696720736176656420746F20454527
:1005500050524F4D00536176696E672E2E2E005318
:100560006B657463682077696C6C206E6F7720729E
:10057000657374617274207573696E672064656653
:1005800061756C7420636F6E6669672E00526573C7
:10059000657474696E672E2E2E0020000A41766104
:1005A000696C61626C6520636F6D6D616E64733A36
:1005B0000A6C09092D206C697374207468652073B6
:1005C000657474696E67730A7209092D2072657308
:1005D000746F726520736B6574636820646566610F
:1005E000756C74730A7309092D2073617665207325
:1005F000657474696E677320746F20454550524F5F
:100600004D0A7609092D2073686F77206669726D2F
:10061000776172652076657273696F6E0A7A09096F
:100620002D207A65726F20656E657267792076611C
:100630006C7565730A7809092D20657869742C201A
:100640006C6F636B20616E6420636F6E74696E758E
:10065000650A3F09092D2073686F772074686973F4
:10066000207465787420616761696E0A0A773C7846
:100670003E09092D207475726E2052464D2057692F
:1006800072656C6573732064617461206F66663A8D
:100690002078203D2030206F72206F6E3A20782025
:1006A0003D20310A623C6E3E09092D20736574209D
:1006B000722E662E2062616E64206E203D206120C5
:1006C00073696E676C65206E756D6572616C3A203A
:1006D00034203D203433334D487A2C2038203D20BF
:1006E0003836384D487A2C2039203D203931354D67
:1006F000487A20286D61792072657175697265206C
:100700006861726477617265206368616E676529EC
:100710000A703C6E6E3E09092D2073657420746862
:100720006520722E662E20706F7765722E206E6E99
:10073000202D20616E20696E7465676572203020FF
:100740002D20333120726570726573656E74696E29
:1007500067202D31382064426D20746F202B313397
:100760002064426D2E2044656661756C743A2032B7
:100770003520282B372064426D290A673C6E6E6E47
:100780003E092D20736574204E6574776F726B205F
:1007900047726F757020206E6E6E202D20616E2066
:1007A000696E746567657220284F454D20646566E3
:1007B00061756C74203D20323130290A6E3C6E6EBA
:1007C0003E09092D20736574206E6F6465204944CD
:1007D000206E3D20616E20696E7465676572202809
:1007E0007374616E64617264206E6F646520696405
:1007F000732061726520312E2E3630290A0A643C3E
:1008000078782E783E092D2078782E78203D20614A
:1008100020666C6F6174696E6720706F696E7420FA
:100820006E756D62657220666F72207468652064F3
:100830006174616C6F6767696E6720706572696F5C
:10084000640A633C6E3E09092D206E203D20302055
:10085000666F72204F46462C206E203D2031206668
:100860006F72204F4E2C20656E61626C6520766F32
:100870006C746167652C2063757272656E742026D6
:1008800020706F77657220666163746F7220766185
:100890006C75657320746F2073657269616C206F6D
:1008A000757470757420666F722063616C69627212
:1008B0006174696F6E2E200A6A3C6E3E09092D2014
:1008C0007475726E204A534F4E2053657269616C85
:1008D00020666F726D6174206F6E20283129206F41
:1008E00072206F6666202830292E0A663C78783E92
:1008F00009092D207878203D20746865206C696E88
:1009000065206672657175656E637920696E204831
:100910007A3A206E6F726D616C6C792065697468CB
:100920006572203530206F722036300A6B3C783E7D
:10093000203C79792E793E203C7A7A2E7A3E0A093B
:10094000092D2043616C69627261746520616E20BB
:10095000616E616C6F67756520696E707574206378
:1009600068616E6E656C3A0A0909202078203D2086
:10097000612073696E676C65206E756D6572616C60
:100980003A2030203D20766F6C746167652063618A
:100990006C6962726174696F6E2C2031203D206336
:1009A00074312063616C6962726174696F6E2C20AE
:1009B00032203D206374322063616C69627261741D
:1009C000696F6E2C206574630A0909202079792EDD
:1009D00079203D206120666C6F6174696E672070BC
:1009E0006F696E74206E756D62657220666F72201D
:1009F00074686520766F6C746167652F63757272B9
:100A0000656E742063616C6962726174696F6E20D7
:100A1000636F6E7374616E740A090920207A7A2EEE
:100A20007A203D206120666C6F6174696E6720706A
:100A30006F696E74206E756D62657220666F7220CC
:100A40007468652070686173652063616C696272A7
:100A50006174696F6E20666F7220746869732063B9
:100A60002E742E20287A206973206E6F74206E6594
:100A7000656465642C206F722069676E6F726564AF
:100A800020696620737570706C6965642C207768C6
:100A9000656E2078203D2030290A09092020652E26
:100AA000672E206B30203235362E380A0909202077
:100AB00020202020206B312039302E3920322E305A
:100AC000300A613C78782E783E092D2078782E788F
:100AD000203D206120666C6F6174696E6720706FC5
:100AE000696E74206E756D62657220666F72207417
:100AF000686520617373756D656420766F6C7461D1
:100B00006765206966206E6F20612E632E206973F1
:100B10002064657465637465640A6D3C783E203CAE
:100B200079793E092D206D657465722070756C733E
:100B30006520636F756E74696E673A0A0909202033
:100B40002078203D203020666F72204F46462C20B2
:100B500078203D203120666F72204F4E2C203C794A
:100B6000793E203D20616E20696E74656765722054
:100B7000666F72207468652070756C7365206D698E
:100B80006E696D756D20706572696F6420696E2085
:100B90006D732E202879206973206E6F74206E6526
:100BA000656465642C206F722069676E6F7265647E
:100BB000207768656E2078203D2030290A00456E38
:100BC000657267792076616C756573207365742032
:100BD000746F207A65726F00436F6E74696E756909
:100BE0006E672E2E2E005246206F666600524620FB
:100BF0006F6E00456D6F6E54785634205600206439
:100C0000426D0070203D20004E6F646520006F66CD
:100C10006600206D730050756C7365733A20002078
:100C200000200043616C3A206B0047726F757020A2
:100C300000467265713A2000207300646174616C33
:100C40006F6720706572696F643A2000204D487AA2
:100C5000002C7066002C49002C70756C73653A008E
:100C60002C45002C50002C56004D53473A007D0077
:100C70002C2270756C7365223A002C2245002C22C0
:100C800050002C2256007B224D5347223A000A0086
:100C900000080A400CFFC000C0006C1511241FBEE4
:100CA000CFEFCDBFDFE7DEBF11E4A0E0B0E4ECE6BC
:100CB000F4E600E00BBF02C007900D92A233B1072B
:100CC000D9F72EE5A2E3B1E401C01D92A538B20721
:100CD000E1F716E0CEE4D6E004C02197FE010E94C1
:100CE0000832CD34D107C9F70E94AE160C943432C5
:100CF00087CA80917E5E8D3011F42D9A08958730D9
:100D000009F40F9A089500009091825E911109C034
:100D1000809344098091430987FFFCCF8091440967
:100D20000895809364098091630987FFFCCF8091C7
:100D30006409089580917E5E8D3011F42D98089598
:100D4000873009F40F980895CF93DF93D82FC62FDB
:100D5000F1DF8D2F8068D7DF8C2FD5DFDF91CF912A
:100D6000C8CFCF93C82FE6DF8C2FCDDF80E0CBDF5D
:100D7000C82FBFDF8C2FCF910895CF9390918C57C0
:100D8000981791F0C82F81E0ECDF837E682F6C2BE1
:100D900081E0DADF80918C57811104C087E2E1DFC6
:100DA00087FFF8CFC0938C57CF9108950F931F936F
:100DB000CF93DF93EC0184E0E0DF2097D9F08881C6
:100DC0008823C1F0B7DF8EEB9EDF8E01005F1F4FDF
:100DD000899199DFC017D107D9F78BDFC1E08DE387
:100DE000C0DF8E7F682F6C2B8DE3DF91CF911F9139
:100DF0000F91AACFC0E0F3CF10924B5710924957F2
:100E000010924A57109247571092485710924657DF
:100E10001092455788E2A5DF82FF06C08DE3A1DF6F
:100E2000682F64608DE390DF80E1A7CFAF92BF921F
:100E3000CF92DF92EF92FF920F931F93CF93DF93A6
:100E40006C017B018B01040F151FEB015E01AE18D5
:100E5000BF08C017D10759F06991D601ED91FC91F7
:100E60000190F081E02DC6010995892B79F7C50124
:100E7000DF91CF911F910F91FF90EF90DF90CF9076
:100E8000BF90AF900895FC0155894689252F30E029
:100E9000842F90E0821B930B541710F0CF96089587
:100EA00001970895FC0193898489981761F0A489BA
:100EB000AE0FBF2FB11D57968C9194899F5F9F7382
:100EC000948B90E008958FEF9FEF0895FC01938934
:100ED0008489981731F08489E80FF11D878990E0A3
:100EE00008958FEF9FEF0895FC0193892489892F3E
:100EF00090E0805C9F4F821B91098F739927089522
:100F0000CF93DF93EC01E881F9810680F781E02D32
:100F10000995EC85FD85868116828581158280E4A0
:100F200084838C898B8B1A8ADF91CF9108958F925D
:100F30009F92AF92BF92FF920F931F93CF93DF9335
:100F40008C014A015B01D22FC32FDC0152968C9198
:100F5000529780FF07C0ED91FC910288F389E02D44
:100F6000C8010995D11101C0D3E0FD2EE894F2F833
:100F7000DC2FD095D07CB1E68B16B3EE9B06B6E1A4
:100F8000AB06B10428F0D260B694A79497948794E6
:100F900060E078ED88EB95E0A50194010E94E32FD5
:100FA000C9012034310510F480E490E03C2F3B72FD
:100FB000D7FD30684D2F487C30FD41605FB7F89415
:100FC000D8011C96ED91FC911682F782808791875B
:100FD00035FF8FC04F7781E084878FEF85873F7D16
:100FE0003583D683F8012189C08986859785FC01E0
:100FF00033E0239FE00DF11D1124659174912C17AE
:1010000008F059C0272F46FF76C0793288F430E0C7
:10101000F901EF5AFF4BA081AF3F51F026583F4BEB
:10102000F901308120E2329FF0011124FC5FA1839D
:1010300047FF2AC021E0270F293230F530E0F901BF
:10104000EF5AFF4BD081DF3FF9F0F901E658FF4B33
:10105000A081F0E2AF9FD0011124BC5F2D553F4B22
:10106000F9011081F0E0E0E0183030F49D01205FDC
:101070003F4FF901E10FF11D3FB7F8941296DC9351
:101080002081286020833FBF40FF15C023E0270F49
:10109000293288F430E0F901EF5AFF4B40814F3F8D
:1010A00051F026583F4BD901EC91B0E2EB9FF00193
:1010B0001124FC5F4183FC0123E0C29FE00DF11D80
:1010C0001124319625913491F901FF27EE51FA4F01
:1010D0009081832F80958923682B60835FBFDF9188
:1010E000CF911F910F91FF90BF90AF909F908F90E5
:1010F0000895148674CF342F307509F499CF79325E
:1011000008F096CF30E0F901EF5AFF4BD081DF3F76
:1011100009F48ECFF901E658FF4BA081E0E2AE9FC3
:10112000D0011124BC5F2D553F4BF9011081F0E037
:10113000E0E0183030F49D01205F3F4FF901E10FEE
:10114000F11D3FB7F8941296DC932081286020832C
:101150003FBF6ECFFC010FB607FE04C080911101A6
:101160008823A1F0A485B58514968C91149785FFEA
:101170000DC095898689981739F015968C91159729
:101180008F7D15968C930895E8949AC708950F93D0
:101190001F93CF93DF93EC018A89982F91609A8BEC
:1011A0002D899E8929130AC0EC85FD85948195FFC0
:1011B00005C081FD0DC080E4848312C0062F1D8907
:1011C0001F5F1F738E89811315C0CE01C3DFFACF55
:1011D00085818F77806490E49483EC85FD85858399
:1011E000EC85FD85628381E090E0DF91CF911F91D6
:1011F0000F910895ED89EC0FFD2FF11DE95AFF4F76
:1012000000831D8BEC85FD858A8981FF09C085815E
:101210008F77806690E49483EC85FD858583E3CFAA
:1012200085818062FBCF0F931F93CF93DF938C0157
:10123000D0E0C0E0F801EC0FFD1F6491662339F0A7
:101240008DE897E5A4DF892B11F02196F3CFCE012D
:10125000DF91CF911F910F910895682F8DE897E549
:1012600096CFCF93DF93EC018A8980FF0BC0EC858A
:10127000FD85858185FD03C0848186FD03C0CE0187
:1012800069DFF5CFDF91CF91089581E008950F9840
:10129000079A20E533EC93E0179A44E1F90131977E
:1012A000F1F74150D9F7482F179AF9013197F1F723
:1012B000179A59E0F9013197F1F75150D9F7415098
:1012C00099F7915049F7E7CF9FB7F894E0912A0B2F
:1012D000F0912B0B8091260B2091F4563091F5560E
:1012E0004091F6565091F7569FBF80FF08C0EC3EE4
:1012F0008CE2F80720F42F5F3F4F4F4F5F4F0F01F5
:1013000016940794169407941694079416940794C9
:10131000F00116940794E00DF11D16940794102C1B
:10132000169401181694010C169401181694010CC9
:101330001694011816941694010C1124E019F10961
:10134000A8EEB3E00E94D32F6E0F7F1F811D911D69
:1013500008958F929F92AF92BF92CF92DF92EF92B9
:10136000FF926B017C01B0DF4B015C01C114D10421
:10137000E104F104B1F0A8DF681979098A099B0931
:10138000683E73408105910588F321E0C21AD108B7
:10139000E108F10888EE880E83E0981EA11CB11CBC
:1013A000E5CFFF90EF90DF90CF90BF90AF909F90F0
:1013B0008F9008952FB7F8946091F4567091F55678
:1013C0008091F6569091F7562FBF08958F929F9275
:1013D000AF92BF92CF92DF92EF92FF920F93CF9393
:1013E0006B017C0120E030E040E05FE30E949B2E37
:1013F00087FF05C0C12CD12CE12C8FE3F82EC092C1
:101400000540D0920640E0920740F092084080905C
:10141000055790900657C091075720E836E948E1F4
:101420005BE4C701B6010E94002F6B017C01B12C67
:10143000A12CC501B4010E949F2E9B01AC01C701E4
:10144000B6010E9479300E94E6306B017C0160E8B1
:1014500076E988E990E0A50194010E94E32FCA0192
:10146000B90100914A40202F30E050E040E00E9456
:10147000E32F44275527C701B601621B730B840B6A
:10148000950B2C2F30E050E040E00E94E32F20939A
:10149000F8563093F9564093FA565093FB56CF9135
:1014A0000F91FF90EF90DF90CF90BF90AF909F9003
:1014B0008F900895DC01ED91FC91F170FC5E8081CC
:1014C0000895CF92DF92EF92FF920F931F93CF93E5
:1014D000DF9300D0CDB7DEB76C017C0103E010E0F4
:1014E00009831A83CE010196E5DFF70181937F011D
:1014F0000F5F1F4F0730110599F7C6010F900F902E
:10150000DF91CF911F910F91FF90EF90DF90CF90DF
:1015100008950F931F93CF93DF9300D000D0CDB7E2
:10152000DEB78C0119821A82CE010196C3DF8F3497
:10153000F9F481E090E089839A83CE010196BADFC5
:101540008534B1F482E090E089839A83CE010196DC
:10155000B1DF8D3469F481E00115110551F0CE0140
:101560000196AFDF81E02B813C812017310709F024
:1015700080E02496CDBFDEBFDF91CF911F910F9108
:1015800008951F93CF93DF93EC01162F93DF8117FC
:10159000B1F09FB780910210282F227081FDFACF01
:1015A000F8948DE984BF2093001023E184BF209339
:1015B0000010E881F981F170FC5E10839FBFCE01BD
:1015C000DF91CF911F910895CF92DF92EF92FF921A
:1015D0000F931F93CF93DF9300D0CDB7DEB76C018D
:1015E0007C0103E010E009831A83F70161917F0118
:1015F000CE010196C6DF0F5F1F4F0730110599F727
:10160000C6010F900F90DF91CF911F910F91FF9026
:10161000EF90DF90CF9008950F931F93CF93DF93B8
:1016200000D0CDB7DEB70091325E1091335E80916D
:10163000345E9091355E081719079CF4C8019571C6
:1016400089839A836FEFCE0101969BDF10922E5E05
:1016500010922F5E80912C5E90912D5E080F191FC5
:10166000E6CF0F900F90DF91CF911F910F910895CA
:10167000DC01ED91FC910088F189E02D23E030E060
:101680000994FC0101900020E9F73197AF01481B54
:10169000590BBC018DE897E5C9CB86EE90E4F1CFFC
:1016A000CF93DF93C0DDEC01F8DF8C0F9D1FDF913E
:1016B000CF910895009709F0E4CF90E080E008957D
:1016C0008F929F92AF92BF920F931F93CF93DF930E
:1016D000CDB7DEB7A197CDBFDEBF19A2423008F467
:1016E0004AE08E010F5D1F4F842E912CB12CA12C4E
:1016F000A50194010E94E32FE62FB901CA01EA3047
:10170000B4F4E05DD801EE938D01232B242B252B1F
:1017100079F7CD01CFDFA196CDBFDEBFDF91CF91AD
:101720001F910F91BF90AF909F908F900895E95CAB
:10173000E9CFC0CFCF92DF92EF92FF92CF93DF93AA
:1017400097FF17C06B017C018DE287DDEC016627F6
:101750007727CB016C197D098E099F094AE0B0DF1C
:101760008C0F9D1FDF91CF91FF90EF90DF90CF9076
:1017700008954AE0DF91CF91FF90EF90DF90CF90F6
:101780009FCFBC01990F880B990BD4CFCF93DF93D8
:10179000F8DFEC0182DF8C0F9D1FDF91CF91089560
:1017A0004F925F926F927F928F929F92AF92BF9271
:1017B000CF92DF92EF92FF920F931F93CF936B0123
:1017C0007C01742EAC019B010E94FD31882391F0B5
:1017D00089EE90E4CF911F910F91FF90EF90DF90F1
:1017E000CF90BF90AF909F908F907F906F905F90C1
:1017F0004F9047CF46015701E894B7F82FEF3FEFDE
:101800004FE75FE7C501B4010E94FD3181110DC0B2
:101810002FEF3FEF4FE75FE7C501B4010E949B2E1A
:1018200018161CF48DEE90E4D5CF2FEF3FEF4FE765
:101830005FE4C701B6010E94B73118161CF481EFAE
:1018400090E4C8CF2FEF3FEF4FE75FECC701B60141
:101850000E949B2E87FDF3CF20E030E0A901C70155
:10186000B6010E949B2E10E000E087FF07C08DE2CA
:10187000F4DC8C01F7FAF094F7F8F094C0E060E043
:1018800070E080E09FE37C1641F020E030E040E231
:1018900051E40E947930CF5FF6CFA70196010E94F4
:1018A00015302B013C010E94E6304B015C014AE0FF
:1018B00007DF7C01E00EF11ECC23A9F1C501B401C4
:1018C0000E949F2E9B01AC01C301B2010E94143003
:1018D0004B015C0185EF90E4D4DEE80EF91EC150A7
:1018E00010F120E030E040E251E4C501B4010E9473
:1018F000002F2B013C010E94E6304B01B12CA12CA2
:101900004AE0C501B401DCDEE80EF91EC501B401F0
:101910000E949F2E9B01AC01C301B2010E941430B2
:101920004B015C01DCCFC701CF911F910F91FF905C
:10193000EF90DF90CF90BF90AF909F908F907F906F
:101940006F905F904F900895CF93DF9329DFEC0164
:10195000A4DE8C0F9D1FDF91CF910895AF92BF92AF
:10196000CF92DF92EF92FF920F931F93CF93DF936B
:1019700000D0CDB7DEB76C015B0110E000E00A15C6
:101980001B057CF57801EC0CFD1C85E1F822E98251
:10199000FA82CE0101968EDD803110F480E35DDCA9
:1019A0000F5F1F4FE982FA82CE01019683DD682F17
:1019B00070E090E080E040E183DE89EF90E4B9DE02
:1019C000C80187709927892B19F489EF90E4B1DE5B
:1019D000C8018F709927892B91F68EE89CE023DC53
:1019E000CECF0F900F90DF91CF911F910F91FF906D
:1019F000EF90DF90CF90BF90AF9008950F931F931B
:101A0000CF93DF9380918C57803109F062C088E2D8
:101A1000A8D982FF3BC084E0B0D98CD980E073D9CB
:101A200080E071D9D82FC82F833408F0C2E4C09366
:101A3000465780E068D9082F80E065D9182F80E0EC
:101A400062D9282F30E0A90196E0440F551F9A95DE
:101A5000E1F744275370402B409347575093485722
:101A6000322F222722273370212B2093495730937E
:101A70004A5790917C5E9417150611F0452B11F48E
:101A8000D330A0F41092465734D9B6D980918C57F0
:101A90008031F9F4809146578823E1F084E06DD9D4
:101AA00081E0DF91CF911F910F910895C350C093B2
:101AB0004B57807880934557D0E0DC1720F480E0C6
:101AC00022D9DF5FFACF15D980E157D984E249D90D
:101AD000DDCF92D980E0E5CF0F931F93CF93DF93B3
:101AE00083EC93E0DDDD8DEB93E09DDB8091365E52
:101AF0008B3209F48FC0863509F48FC08B3509F419
:101B00008FC090E080E03DDE80EB93E08CDB609165
:101B1000375E70E090E080E04AE0D2DD88EA93E052
:101B200082DB8091385E8F7390E02BDE85EA93E054
:101B30007ADB80913A5E8251990B23DE80EA93E052
:101B4000AFDD83E993E0ACDD8BE893E06CDB609183
:101B50003B5E70913C5E80913D5E90913E5E42E0C6
:101B600050E0F2DE03E41EE5C1E0D0E086E893E059
:101B70005ADBCE0106DE87EF90E4DBDDF8016191F0
:101B80007191819191918F0142E050E0DDDE80E81A
:101B900093E049DBCE01F5DD87EF90E4CADDF80183
:101BA000648975898689978942E050E0CDDE219667
:101BB000C730D105D9F685E793E035DB6091735ED8
:101BC0007091745E8091755E9091765E42E050E017
:101BD000BBDE8BE693E027DB8091775E90E0D6DD7D
:101BE0008BE593E020DB8091785E9091795ECEDD8D
:101BF0008091395E811117C08EE493E051DD8091B0
:101C00007B5E811113C08FE293E0DF91CF911F9132
:101C10000F9146CD81EB91E076CF84E693E073CFD0
:101C200083E993E070CF85E593E0E8CF8FE393E01D
:101C3000ECCF94E081111BC0909346049091400436
:101C400092FD0AC09FB7F894811114C0809152048C
:101C5000877F809352049FBF8091E6058770823012
:101C600029F48091010A8B7F8093010A0895909353
:101C70004504E4CF809152048860EBCF0F931F930B
:101C8000CF93DF93CDB7DEB72C97CDBFDEBF681BF8
:101C9000F1F0062F10E0682F70E0645B784AA8012D
:101CA000CE0101960E942532E1E0F0E0EC0FFD1F2D
:101CB000E00FF11F1082CE0101960E94012D2C969B
:101CC000CDBFDEBFDF91CF911F910F91089590E0BE
:101CD00080E0F5CF0F931F93CF93DF93CDB7DEB79F
:101CE0002C97CDBFDEBF681BF1F0062F10E0682FE8
:101CF00070E0645B784AA801CE0101960E9425320B
:101D0000E1E0F0E0EC0FFD1FE00FF11F1082CE01CB
:101D100001960E94FE2C2C96CDBFDEBFDF91CF91A5
:101D20001F910F91089560E070E0CB01F4CF2F92E6
:101D30003F924F925F926F927F928F929F92AF925B
:101D4000BF92CF92DF92EF92FF920F931F93CF93A8
:101D5000DF93CDB7DEB72A97CDBFDEBF89879A87DD
:101D6000162F7A01222E312CB101032C000C880B86
:101D7000990B0E94A12E4B015C01612F70E090E055
:101D800080E00E94A12E20E030E044EB53E40E946A
:101D9000002F2B013C01B70190E080E00E949F2EB4
:101DA0009B01AC01C301B2010E94002FA501940167
:101DB0000E94002F20E836E948E15BE40E94793078
:101DC0002B013C01E985FA8505818081081B110BF7
:101DD000218132814381548166817781808591851B
:101DE0000E941430A30192010E9479306B017C01A2
:101DF000B801012E000C880B990B0E94A12EA501A1
:101E000094010E9479309B01AC01C701B6010E9488
:101E100015306D837E838F8398870E945431698348
:101E20007A838B839C8320E030E040E85FE30E946C
:101E300015306B017C0120E030E0A90169817A81D5
:101E40008B819C810E94B73187FDA2C0A7019601BA
:101E5000C501B4010E94002F0E94E130E985FA8596
:101E60006287738716861786E985FA852685378502
:101E7000020F131F06871787020D131D048715878E
:101E800020E030E044EB53E4C301B2010E9479301A
:101E90002BED3FE049EC50E40E94002F6B017C01E8
:101EA00029813A814B815C816D817E818F8198850A
:101EB0000E941430A30192010E94002F20E030E024
:101EC00044EB53E40E9479302BED3FE049EC50E4C1
:101ED0000E94002F4B015C01A70196010E947930FE
:101EE0002B013C01E985FA85448A558A668A778AFE
:101EF000A5019401C501B4010E94002F20E030E04B
:101F000040E05FE30E94002F9B01AC0160E070E0C5
:101F100080E89FE30E9414304B015C01A701960109
:101F2000C701B6010E94002F20E030E040E05FE3EF
:101F30000E94002F9B01AC0160E070E080E89FE30D
:101F40000E941430A30192010E94002F9B01AC015A
:101F5000C501B4010E941430E985FA85608B718B4C
:101F6000828B938B2A96CDBFDEBFDF91CF911F91DD
:101F70000F91FF90EF90DF90CF90BF90AF909F9028
:101F80008F907F906F905F904F903F902F9008952B
:101F9000E985FA8512861386C701B6019058A50116
:101FA00094010E94002F0E94E130E985FA8566873E
:101FB00077875ACFCF92DF92FF920F931F93CF93E1
:101FC000DF930FE5089FF0011124EF01C45AD74AAF
:101FD000AA81BB811F962C911F972A8B16964D9133
:101FE0005D916D917C9119974B8B5C8B6D8B7E8B8A
:101FF000A881B9811F962C911F972F8B16964D9112
:102000005D916D917C911997488F598F6A8F7B8F65
:1020100020910757C0900557D0900657F0904A403E
:102020008F01A6016F2DCF018259974A80DEEC8186
:10203000FD818A819B818E179F0729F187858AA759
:1020400086819781A085B1858BA79CA7ADA7BEA7E8
:10205000E881F98187858FA786819781A085B185E1
:1020600088AB99ABAAABBBAB20910757A6016F2DEC
:10207000C8018A57974ADF91CF911F910F91FF9026
:10208000DF90CF9054CEDF91CF911F910F91FF90B1
:10209000DF90CF900895EF93FF93EDE8F7E508C048
:1020A000EF93FF93EDE8F7E531C0EF93E0E652C020
:1020B0002F932FB72F938F939F93AF93BF936894D2
:1020C000CF93DF9320E0C485D8E09689DF01A90F84
:1020D000B21FA95ABF4F8C9120E42C838A839F5F43
:1020E0009F738D812589291302C08F7D8D83968BE7
:1020F000DF91CF910EF04AC8BF91AF919F918F9120
:102100002F912FBF2F91FF91EF9118952F932FB7FC
:102110002F938F939F93CF93DF93C485D8E08981CA
:10212000988181FD0DC0C38981E08C0F8F73248954
:10213000281731F0CE0FDF2F20E0D21F9F8B838B2B
:10214000DF91CF919F918F912F912FBF2F91FF9171
:10215000EF911895FF938F938FB78F93F8E080815D
:10216000848187FFFCCF85818F7B806885838F91F9
:102170008FBF8F91FF91EF9118951F920F920FB61D
:102180000F92112484E083D81F920F920FB60F9202
:1021900011248F939F93AF93BF938091F4569091A6
:1021A000F556A091F656B091F7560196A11DB11DB6
:1021B0008093F4569093F556A093F656B093F75645
:1021C00081E08093260BBF91AF919F918F910F90EB
:1021D0000FBE0F901F9018951F920F920FB60F927F
:1021E00011248F9388E08093A90481E080930257A3
:1021F0008F910F900FBE0F901F9018951F920F9206
:102200000FB60F9211248F939F93809109048093AE
:10221000090486FF03C091E09093045787FF03C031
:1022200081E0809303579F918F910F900FBE0F9085
:102230001F9018951F920F920FB60F9211240BB694
:102240000F922F923F924F925F926F927F928F9256
:102250009F92AF92BF92CF92DF92EF92FF920F9335
:102260001F932F933F934F935F936F937F938F931E
:102270009F93AF93BF93EF93FF93CF93DF93CDB72C
:10228000DEB72A97CDBFDEBF81E080930D06809137
:102290001006909111068D839E838091F3568E5F78
:1022A00090910757891718F090910757891B90E074
:1022B000FC01EE0FFF1FE80FF91FE75EFF4B808167
:1022C000809308068D819E81209126583091275851
:1022D00036952795821B930B8D839E838D819E81DE
:1022E000E091F156F091F256EE0FFF1FEF50F14BD7
:1022F0008083918319821A821B821C822D813E81E8
:102300000D811E8122241302B001029FA00112033D
:102310007209500D611D721D30037209500D611D4F
:10232000721D112449835A836B837C8389809A8030
:10233000AB80BC80A0910140B0910240E091F35687
:1023400008E0E09FF0011124EA0FFB1FE058FF4F67
:10235000208031804280538064807580068117819F
:102360009401A50160E070E080E090E0510162011D
:1023700073010E941132208331834283538364832B
:102380007583868397834D815E81E091F35618E0D3
:10239000E19FF0011124EA0FFB1FA084B184C284E5
:1023A000D384E484F58406851785952F990F990BBE
:1023B0009A01492F592F692F792F892F0E941132A5
:1023C00020873187428753876487758786879787F9
:1023D000E091F3568E2F90E0FC01EE0FFF1FE80F07
:1023E000F91FE75EFF4B80818111CFC08091EF4ED6
:1023F0009091F04E9C013695279536952795AC0126
:10240000421B530B9A018D819E81181619060CF4FC
:1024100078C08D819E81919581959109820F931F3E
:102420008093EF4E9093F04E21E0409124585091CC
:1024300025584817590708F020E02093E15D8D8169
:102440009E81181619060CF05FC081E090E0809321
:10245000ED4E9093EE4E2091ED4E3091EE4E8091E8
:10246000E94E9091EA4E2817390709F452C080913D
:10247000E64E8F5F8093E64E8091E64E882351F0C2
:102480001092E64E8091ED4E9091EE4E8093EB4E81
:102490009093EC4E8091EB4E9091EC4E019709F0A9
:1024A00016C38091E94E9091EA4E019709F465C0F8
:1024B0008091E74E9091E84E01968093E74E90937D
:1024C000E84E20910440222339F12091034028173F
:1024D000190609F008F5109204401092E74E109288
:1024E000E84E14961D921D921D921C921797CD01D5
:1024F00088529D4FFD01E817F90771F0108231965F
:10250000FACF8D819E818ACF1092ED4E1092EE4EC1
:10251000A2CF1092E64EB0CF14964D915D916D9181
:102520007C9117974F5F5F4F6F4F7F4F14964D937E
:102530005D936D937C9317970D911D912D913C9117
:1025400013974091F8565091F9566091FA56709150
:10255000FB56041715072607370778F080914B4084
:1025600090914C40A0934B40B0934C4080930140DD
:102570009093024081E080930A578091EB4E9091B6
:10258000EC4E8093E94E9093EA4E9091F3568091F1
:102590000957981708F445C28090F1569090F2566A
:1025A000E091F3568E2F90E0FC01EE0FFF1FE80F35
:1025B000F91FE75EFF4B0180F281E02D848D958D40
:1025C000881A990A53E09522E091F156F091F2565B
:1025D000A091F3568A2F90E0DC01AA0FBB1FA80F31
:1025E000B91FA75EBF4B11960D90BC91A02D5E96B2
:1025F0008D919C91E81BF90BF3702091F15630916D
:10260000F256A091F3568A2F90E0DC01AA0FBB1F6F
:10261000A80FB91FA75EBF4B11960D90BC91A02DBE
:1026200090968D919C91281B390BD901B370AF8383
:10263000B887880C991C84010F50114B4801D801B0
:102640006D917C91EE0FFF1FEF50F14B4081518156
:10265000222457029001469F800156033209100D33
:10266000211D321D74033209100D211D321D11244C
:1026700028013901E0910140F0910240A091F35608
:1026800018E0A19FD0011124AE0FBF1FA850BF4F6B
:10269000AC901196BC90119712962C9012971396AD
:1026A0003C90139714960C911497098715961C91DA
:1026B00015971A8716960C91169717961C911797CF
:1026C00073016201FF0CCC08DC2C76019201A3019E
:1026D0006C2D7C2D8C2D9C2D6101E984FA840E9447
:1026E00011322C9311963C93119712964C9312979A
:1026F00013965C93139714966C93149715967C938A
:10270000159716968C93169717969C93D4016D91F6
:102710007C91AF81B885AA0FBB1FAF50B14B4D91D3
:102720005C91222457029001469F80015603320992
:10273000100D211D321D74033209100D211D321D93
:10274000112448015901A091F35618E0A19FD0012E
:102750001124AE0FBF1FA059BE4F2C9011963C9074
:1027600011971296CC9012971396DC9013971496AB
:10277000EC9014971596FC90159716960C91169759
:1027800017961C91179724013501770C4408542C97
:1027900032019401A501642D742D842D942D5101D5
:1027A0000E9411322C9311963C93119712964C93E0
:1027B000129713965C93139714966C93149715962F
:1027C0007C93159716968C93169717969C93A091C9
:1027D000F3568091F3562A2F30E0D901AA0FBB1F80
:1027E000A20FB31FA75EBF4B11962D913C9190E0B5
:1027F000DC01AA0FBB1FA80FB91FA75EBF4B119624
:102800008D919C91D90112962D913C91DC011496E9
:102810008D919C912817390709F403C18090F156D6
:102820009090F256A091F3568A2F90E0DC01AA0F07
:10283000BB1FA80FB91FA75EBF4B11960D90BC918F
:10284000A02DD4968D919C91881A990AB3E09B2271
:102850002091F1563091F2568091F35690E0DC01D0
:10286000AA0FBB1FA80FB91FA75EBF4B11960D90F3
:10287000BC91A02DD6968D919C91D901A81BB90B26
:10288000BD0173704091F1565091F2568091F3560C
:10289000282F30E0C901880F991F820F931F875E90
:1028A0009F4BDC0111968D919C91DC01D8968D9106
:1028B0009C91481B590BDA01B370AF83B887880C21
:1028C000991C84010F50114B4801D8018D919C91A6
:1028D000DB01AA0FBB1FAF50B14B4D915C91BC0106
:1028E000222457029001469F800156033209100DA1
:1028F000211D321D74033209100D211D321D1124BA
:1029000028013901A091F35678E0A79FD001112446
:10291000AE0FBF1FA851BE4FAC901196BC9011973F
:1029200012962C90129713963C90139714960C9134
:102930001497098715961C9115971A8716960C916E
:10294000169717961C91179779016201FF0CCC0816
:10295000DC2C76019201A3016C2D7C2D8C2D9C2DFD
:102960006101E984FA840E9411322C9311963C9300
:10297000119712964C93129713965C931397149693
:102980006C93149715967C93159716968C931697BF
:1029900017969C93D4016D917C91AF81B885AA0F55
:1029A000BB1FAF50B14B4D915C9122245702900157
:1029B000469F800156033209100D211D321D7403FC
:1029C0003209100D211D321D112428013901809179
:1029D000F35618E0819FC0011124E80FF91FE05A57
:1029E000FD4FB081A181C280D380E480F580068153
:1029F000178153014201BB0C8808982C54019201A5
:102A0000A301682D782D882D982DAB2EBA2E0E940B
:102A10001132208331834283538364837583868399
:102A200097838091F3568F5F8093F3568091F15690
:102A30009091F25601968093F1569093F2569091B0
:102A4000F35680910757981788F01092F356E0914B
:102A50000140F091024080819181A281B381019671
:102A6000A11DB11D80839183A283B3838091F15610
:102A70009091F25693708093F1569093F2562A9665
:102A8000CDBFDEBFDF91CF91FF91EF91BF91AF91AD
:102A90009F918F917F916F915F914F913F912F9176
:102AA0001F910F91FF90EF90DF90CF90BF90AF906C
:102AB0009F908F907F906F905F904F903F902F905E
:102AC0000F900BBE0F900FBE0F901F901895809126
:102AD000E94E9091EA4E51CDEF92FF920F931F93E2
:102AE000CF93DF9300D0CDB7DEB710928F571092FF
:102AF000905788EE93E0A0E0B0E0809391579093D8
:102B00009257A0939357B093945780ED90E480939D
:102B10008D5790938E5780E698E0809399579093C5
:102B20009A5780E99CE080939B5790939C5782E052
:102B300080939D5710929E5710929F5780E090E08F
:102B4000A8ECB2E48093CD5D9093CE5DA093CF5D71
:102B5000B093D05D1092E05D1092E15D8093E35DF3
:102B60009093E45DA093E55DB093E65D1092F65D11
:102B70001092F75D8093F95D9093FA5DA093FB5DF1
:102B8000B093FC5D10920C5E10920D5EE0EDFCE5E2
:102B900081839283A383B483148A75962DE5EC3CDC
:102BA000F207B1F78CE598E5FC01E25AFF4F10827D
:102BB000815A9F4F4CE5803D9407B1F7ECE2F8E570
:102BC00024E130E092E081E020833183928313821C
:102BD00014821582168217821086118682871386C8
:102BE000709648E5EC35F40779F710922858109262
:102BF000295810922A5880E090E1809326589093AB
:102C0000275880E091E080932458909325588EEFC8
:102C100090E08093305E9093315E8DE190E0809300
:102C20002C5E90932D5E8DE090E080932A5E9093D1
:102C30002B5E84E890E08093325E9093335E8DEF5C
:102C400091E08093345E9093355E10922E5E1092E8
:102C50002F5E04E810E009831A83CE0101960E94DA
:102C60005A0A78019DE1E90EF11C8F3F09F46EC00C
:102C700000932E5E10932F5E2DEFE21621E0F206F8
:102C80005CF4E982FA82CE0101960E945A0A8F3FD3
:102C900009F458C00E940C0B8AE080937E5E8BE0A2
:102CA00080937F5E8CE08093805E8DE08093815E78
:102CB0001092825E8BE28093365E82ED8093375E67
:102CC0008BE18093385E1092395E89E180933A5EA1
:102CD0008AE999E9AAECB2E480933B5E90933C5E6A
:102CE000A0933D5EB0933E5E80E090E0A8E4B2E445
:102CF00080933F5E9093405EA093415EB093425EAE
:102D00008DEC9CECACE1B1E48093735E9093745EC7
:102D1000A093755EB093765E81E08093775E84E6E3
:102D200090E08093785E9093795E10927A5E109234
:102D30007B5E0F900F90DF91CF911F910F91FF90CD
:102D4000EF9008954DE1E40EF11C96CF87018DEFD1
:102D5000E81681E0F80609F07ECF9ECFCF93DF938F
:102D6000CDB7DEB7C657D109CDBFDEBF88ED21E0B4
:102D700030E084BF2093620091E084BF90936300B1
:102D80009DE284BF9093800093E084BF90936000A5
:102D900080E090E22091650020FD0FC221E02093A9
:102DA000030A8EEF8093260A8093270A9BE0909374
:102DB000000A32E03093E6052093430A8093660AC6
:102DC0008093670A9093400A9093E705E0E0FBE068
:102DD00027E09EEF85E02183948715868083709697
:102DE000E0340BE0F007B9F72FEF3FE02093AA0B98
:102DF0003093AB0B90E89093820B1092810B2EEFE7
:102E000030E02093AE0B3093AF0B98ED24E194BFEC
:102E10002093680091E19093800B809302069EE0DE
:102E20009093050690E690930306809300068091A8
:102E3000B000887F85608093B0008091B200887F69
:102E400085608093B2008FED9EE280932C0B90936F
:102E50002D0B81E08093250B1092210B83E0809352
:102E6000200B789484E08093410481E00E94190E45
:102E700040E052EC61E070E08DE897E50E94380B8D
:102E800082E694E00E9413098BEF90E40E945A0BB3
:102E90008CE494E00E94500B03E41EE50BAB1CABEA
:102EA000F80140E050E060EA71E48DEC9CECACE4A9
:102EB000B0E44193519361937193848B958BA68B6E
:102EC000B78B1EE5EB35F107A1F780E190E00E949A
:102ED000890A882341F1CE0101960E94610A098185
:102EE0001A8117FD20C0680123E0C20ED11C26E321
:102EF000E22E2EE5F22E87E090E05C013FEFA31A70
:102F0000B30A8FA798ABCE018F960E945A0AD701B9
:102F10008D937D01C501AC14BD0478F38EED93E073
:102F20000430110511F48DEC93E00E94500B0E94C7
:102F30006C0D8091395E882309F442C083E494E0EB
:102F40000E9413098BE394E00E9413098091365E7E
:102F50008B3221F484E394E00E9413098091365E61
:102F6000863521F48DE294E00E9413098091365E4B
:102F70008B3521F486E294E00E9413098DE194E000
:102F80000E9413096091375E70E090E080E04AE0B3
:102F90000E94600B85E194E00E9413096091385E05
:102FA00070E090E080E04AE00E94600B83E194E0F2
:102FB0000E94500B83E091E40E94410B0E944D0B54
:102FC0008091395E882309F449C187E080937E5E51
:102FD00084E080937F5E85E08093805E86E08093CE
:102FE000815E1092825E1091375E8091385E809390
:102FF0007C5E10927D5E80E88093010480E1809386
:1030000001049FB7F89480E2809302048091150434
:10301000877F809315049FBF2091815E822F90E06F
:10302000293280F4FC01EF5AFF4B20812F3F51F0F1
:1030300086589F4BDC01EC91B0E2EB9FF00111242C
:10304000FC5F21830E9479068091825E8111BBC062
:103050008091E4058C7F8093E40580914109846030
:1030600080934109809140098162809340090E94C8
:10307000DA096B017C016AEA8FE20E94A4068FE202
:103080000E94B1068A3A59F00E94DA096C197D094A
:103090008E099F09623371058105910560F30E94D5
:1030A000DA096C197D098E099F0962337105810562
:1030B000910508F0B9C00E94DA096B017C0165E551
:1030C0008FE20E94A4068FE20E94B106853559F076
:1030D0000E94DA096C197D098E099F096233710516
:1030E0008105910560F30E94DA096C197D098E094A
:1030F0009F09623371058105910508F095C0FE01B5
:1031000033968BE2DF011D928A95E9F781E089838E
:1031100084E08A8322E02B8393E09D832E838F8338
:1031200080E4888725E029879A8796E09B8793E348
:103130009C8797E09D8728E02F8729E0298B29E14C
:103140002B8B32E43C8B25E22D8B8E8B26E22F8B52
:10315000988F98E2998F20E12A8F99E29B8F9CEDBE
:103160009C8F9EE29D8F98E89E8F9FE29F8F9DE2AD
:1031700098A390E399A347E34BA340E94CA348E30A
:103180004DA33EA33CE33FA33FE838A73DE339A767
:103190002AA72FE62BA79CA79CE69E87888B1AA3BD
:1031A0008E010F5F1F4FF80180818823E1F061815C
:1031B0000E94A4060E5F1F4FF6CF019709F0EACDDB
:1031C00083E00E9447098091E405837F8093E405B2
:1031D00080916109846080936109809160098162B6
:1031E0008093600944CF90E080E00E94D60669E9B0
:1031F00081E10E94A40684E00E94BD060E94DA09D3
:103200006B017C0187E20E94B10687FD0BC00E9422
:10321000DA096C197D098E099F09623371058105F0
:10322000910580F30E94DA098DE191E40E94D606AF
:103230008091385EF4E18F9FC00111246C01092E4A
:10324000000CEE08FF08892B09F46BC10E94A92C21
:10325000A70196010E94B72F0E94A9098EE08093D2
:10326000050680910306809303061092B00086E065
:103270008093020681E0809300068091000680938F
:10328000000687E08093080660E070E0CB0150E024
:1032900040E0E1E0E0930A0620910D0620FFFCCF1C
:1032A0004A30510544F02091100630911106620F0A
:1032B000731F811D911D4F5F5F4F4A3107E2500719
:1032C00049F70E949F2E20E030E44CE156E40E9432
:1032D000793020E030EF4FE755E40E9479309B01D0
:1032E000AC0166E676E686E69FE30E9479306B01E4
:1032F0007C0183EF93E00E94130944E050E0C70192
:10330000B6010E94A40C40903B5E50903C5E6090E1
:103310003D5E70903E5E1092CC5D809046409090F5
:103320004740A0904840B09049408FAA98AEA9AEBF
:10333000BAAE609126587091275890E080E00E94C4
:103340009F2E4B015C0123EA33E240E051E4C301CC
:10335000B2010E94002F2FA938AD49AD5AAD0E948D
:10336000002FA50194010E9479306093CD5D709388
:10337000CE5D8093CF5D9093D05D1092D15D8AE059
:1033800097EDA3E2BEE38093D25D9093D35DA093CB
:10339000D45DB093D55D1092D65D1092D75D10923A
:1033A000D85D1092D95D1092DA5D00ED1CE520E049
:1033B000ABA9BCA958962D903D904D905C905B9721
:1033C0006D917D918D919D91ABABBCAB7724739446
:1033D000720EF801208320E030E040E450E40E94C7
:1033E000002F2FA938AD49AD5AAD0E94002FA5017D
:1033F00094010E947930D80111966D937D938D933D
:103400009C93149715961C921597F8012682378283
:103410004086518612861B961D921D921D921C920B
:103420001E970B5E1F4F272D263011F6509108571F
:10343000ABE0B7E580ED9CE540E07FE52CEC3DE5B9
:1034400011E0642F650F4F5F769FF0011124E45A5D
:10345000F74A808391832283338324833583E25A1E
:10346000FF4F10836D934596463059F796E0392EFD
:10347000350E3092085782E380934A408AE0809369
:1034800003406091735E7091745E8091755E90915F
:10349000765E0E94E609C0924640D0924740E09294
:1034A0004840F09249401093355889E080931604C3
:1034B00084E190E080932C5890932D5882E0809383
:1034C0002E581093365810924558109217041092A7
:1034D00055581092B304E0902E5EF0902F5EE114E8
:1034E000F10409F478C187010F5F1F4F8EE0C82EE9
:1034F0008EE5D82E80912C5E90912D5E8E0D9F1DB5
:103500000817190794F4C801957189839A83CE012D
:1035100001960E945A0AF60181936F010F5F1F4FB7
:10352000E9CF60E070E0CB0197CE40900E5E509006
:103530000F5E6090105E7090115E8090125E9090B1
:10354000135EA090145EB090155EC090165ED09091
:10355000175EE090185EF090195E00911A5E10916F
:103560001B5E20911C5E30911D5E40911E5E50914D
:103570001F5E6091205E7091215E8091225E90912D
:10358000235EA091245EB091255E8BAB9CABADAB6E
:10359000BEAB8091265E9091275EA091285EB0918F
:1035A000295E409253B7509254B7609255B77092CB
:1035B00056B78092B2589092B358A092B458B09235
:1035C000B558C0921159D0921259E0921359F09205
:1035D0001459009370591093715920937259309374
:1035E00073594093CF595093D0596093D1597093E8
:1035F000D2598BA89CA8ADA8BEA880922E5A9092B2
:103600002F5AA092305AB092315A80932F589093EB
:103610003058A0933158B093325885E180930057C9
:1036200088E090E08093FE569093FF5688EE91E0FC
:1036300080930557909306571092FD569091095725
:10364000ECE5F8E580E041E0DF01A25ABF4F2C91A4
:10365000222309F451C0282F30E0D901AA0FBB1F43
:10366000A20FB31FBD01675E7F4BDB012C912F3F83
:10367000C1F422813381D90154965C915497511140
:1036800010C01F968C931F9754964C9354972C916F
:1036900030E0275F3F4BD9012C91DB012C938F5FEA
:1036A0009F5F24813581628173812617370721F15D
:1036B000A82FB0E0BD01660F771FA60FB71FBD0191
:1036C000675E7F4BDB015C915F3FB1F4D90154969B
:1036D0005C915497511110C01F968C931F9754966C
:1036E0004C9354972C9130E0275F3F4BD9012C919C
:1036F0008F5FDB012C939F5FE15AFF4FBCE5E03DFC
:10370000FB0709F0A1CF909309578093FD56909144
:10371000FC562CE538E561E0D901A25ABF4F4C9127
:10372000442359F1A82FB0E0AD01440F551FA40F59
:10373000B51F8D01075E1F4BD8014C914F3FE9F437
:10374000D9014D915C91DA0154967C915497711195
:1037500014C01F968C931F9754966C9354974C915A
:1037600050E0445F5F4BDA014C91D8014C938F5F7E
:1037700011962D933C9312979F5F215A3F4FE2176A
:10378000F30751F68093FD569093FC56909128587C
:103790009923A9F080932B582091184091E0980F1D
:1037A0009093FD5690E0FC01EE0FFF1FE80FF91F0C
:1037B000E75EFF4B20831092295810922A5880917F
:1037C000FD568093075710E01315E0F4812F0E94F7
:1037D000DA0F1F5FF9CF80E090E0DC011BAA1CAA82
:1037E0001DAA1EAA40E050E0BA0100E010E09801D6
:1037F000C12CD12C7601812C912C5401412C512CBF
:103800003201CFCE1091075720E836E948E15BE45A
:10381000609105407091064080910740909108406A
:103820000E94002F20E030E044EF53E40E94793002
:103830000E94E6306959714081099109212F30E0D9
:1038400050E040E00E94E32F2093F8563093F95661
:103850004093FA565093FB5610920A5781E080939A
:10386000044095E19093050690910306909303061A
:103870001092B0009091FE5690930206809300063D
:1038800090910006909300069091000692609093AC
:1038900000061092080690910C06916090930C0619
:1038A00080930A0678941092175710921857109226
:1038B000195710921A5760E070E080E090E40E947F
:1038C000E6098E01015D1F4F09AB1AAB8DE897E544
:1038D0000E947407892B09F496C08DE897E50E9431
:1038E0005207F09001578A3009F0FAC4AF2DB0E0CA
:1038F000A45BB84A1C92E0914C57EF53EC3308F0AC
:103900007AC00E2E000CFF0BE857F34E0C940832D1
:103910005821FB1CFB1CFB1CFB1CFB1CFB1CFB1C8D
:10392000FB1CFB1CFB1CFB1CFB1CFB1CFB1CFB1CDF
:10393000FB1CFB1CFB1CFB1CFB1CFB1CFB1CFB1CCF
:10394000FB1CFB1CFB1CFB1CFB1CFB1CFB1CFB1CBF
:10395000FB1CFB1CFB1CC41CEE1CB71DC91DD01D91
:10396000E61DFB1C0320A71DFB1D991FA01F0320A4
:10397000FB1C1B20FB1C2F205A20FB1CFB1C1221B4
:103980001E213421FB1C3A2112E0F11234C08DE4D7
:1039900097E50E94012D8430D9F0883099F0893064
:1039A00059F01092365E90E080E00E94C10B8CE4EA
:1039B0009CE00E94500B1FC08BE58093365E83E92C
:1039C00093E0F3CF86E58093365E84E693E0EDCF17
:1039D0008BE28093365E81EB91E0E7CF22E0F2123A
:1039E0000AC08DE497E50E94012D019709F0ACC053
:1039F00081E080937A5E80E4ACE4B7E51D928A951D
:103A0000E9F7109201578091045790913558992306
:103A100089F0882379F081E0809337580E94DA0991
:103A2000609338587093395880933A5890933B5824
:103A3000109204578091035790914558992389F02B
:103A4000882379F081E0809347580E94DA096093D7
:103A500048587093495880934A5890934B58109205
:103A600003578091025790915558992389F08823E4
:103A700079F081E0809357580E94DA096093585892
:103A80007093595880935A5890935B5810920257EC
:103A90009CE2E92E98E5F92E8701D12CC12C560124
:103AA00084E0AA0CBB1C8A95E1F7F501E45DF74AB6
:103AB0004F018385D80119969C91992309F42FC44D
:103AC000882309F42CC40E94DA09F4012485358581
:103AD000468557851B012C01221A330A440A550AD0
:103AE000B201A101D8018D919C91B0E0A0E08417B2
:103AF0009507A607B70708F012C4B1E0CB1609F482
:103B0000FCC3E2E0CE1609F4FEC38091080486FBF4
:103B1000882780F9F501E45DF74A1386D8011A96E3
:103B20009C911A97981709F4FAC312969C918111E7
:103B3000F0C3923009F0F0C3F801278130852F5F80
:103B40003F4F27833087E8C310927A5E54CF32E02C
:103B5000F31251CF8DE497E50E94012D019721F4D6
:103B600081E080937B5E47CF10927B5E44CF8DE4F3
:103B700097E50E94FE2C6B017C018BE39CE00E9488
:103B8000130942E0C701B6010E94D00B88E39CE014
:103B900010CF8AE08C938DE497E50E94990B2BCF90
:103BA00043E0F41228CF8DE497E50E94FE2C0E949A
:103BB000E130162F072F60934A4081E39CE00E947A
:103BC0001309812F902F0E94C60B15CF8DE497E526
:103BD0000E94012D8093375E8AE29CE00E941309C7
:103BE0006091375E70E090E080E04AE00E94600BF8
:103BF0000E944D0B00CF60E270E08CE497E50E94DC
:103C00001A32009711F40C94482C8C010C5417456F
:103C1000C801992760E270E0835B984A0E941A32DB
:103C2000EE24E394E00E009711F40C944F2CDC0189
:103C3000AC54B7455D01602F81E00E943E0E6C01DF
:103C40006A2D8E2D0E946A0E25966CAF7DAF8EAFC9
:103C50009FAF25976F2D81E08A0D0E946A0E6E96A8
:103C60006CAF7DAF8EAF9FAF6E97C114D10409F0DA
:103C70009FC023EA33E240E051E425966CAD7DAD70
:103C80008EAD9FAD25970E94002F20914640309128
:103C9000474040914840509149400E94002F4B01BD
:103CA0005C01609126587091275890E080E00E9456
:103CB0009F2E9B01AC01C501B4010E947930609335
:103CC000CD5D7093CE5D8093CF5D9093D05D2AE003
:103CD00037ED43E25EE36091D25D7091D35D8091F8
:103CE000D45D9091D55D0E949B2E882381F1109226
:103CF000D15D8AE097EDA3E2BEE38093D25D90931D
:103D0000D35DA093D45DB093D55D1092D65D109233
:103D1000D75D1092D85D1092D95D1092DA5D10E0F7
:103D200080910857181798F480915E5890915F58C9
:103D30008C5C9D4539F080916058909161588C5C05
:103D40009D4519F4812F0E94DA0F1F5FE9CF259658
:103D50002CAC3DAC4EAC5FAC259720923B5E3092D4
:103D60003C5E40923D5E50923E5E83E29CE00E944B
:103D70001309C6010E94C10B81E29CE00E94130955
:103D800042E025966CAD7DAD8EAD9FAD25970E942E
:103D9000D00B8FE19CE00E94130942E050E06E9648
:103DA0006CAD7DAD8EAD9FAD6E970E94A40C23CE01
:103DB000EE24EA94EC0C3BE0332E3E1408F49DC054
:103DC000AE2CB12C25E1E29E800111240053134A50
:103DD00020E030E040E450E425966CAD7DAD8EAD42
:103DE0009FAD25970E94002F20914640309147407B
:103DF00040914840509149400E94002F2B013C01C6
:103E0000609126587091275890E080E00E949F2E84
:103E10009B01AC01C301B2010E947930D801119617
:103E20006D937D938D939C93149716962D913D9150
:103E30004D915C9119976E966CAD7DAD8EAD9FAD39
:103E40006E970E949B2E882309F457C0F8011582B3
:103E50006E962CAC3DAC4EAC5FAC6E972682378232
:103E600040865186128613861486158616868FE53F
:103E70008A9D80018B9D100D1124045A174AD80188
:103E8000ED91FC914681578160857185F801408FE5
:103E9000518F628F738F20910757A0900557B09074
:103EA000065790904A40E89E70011124A501692DA3
:103EB000C7018259974A0E94970ED80112962D91F8
:103EC0003C91139714968D919C911597281739075B
:103ED000A1F0ED91FC9186819781A085B185F801D3
:103EE00080AB91ABA2ABB3AB20910757A501692D75
:103EF000C7018A57974A0E94970EF601EE0FFF1FDF
:103F0000EE0FFF1FEE5CF14A25962CAC3DAC4EAC9B
:103F10005FAC2597258636864786508A6E968CAC90
:103F20009DACAEACBFAC6E9785A296A2A7A2B0A680
:103F30001CCF99249394F9105ECD0E946C0D5BCD3B
:103F400060E270E08CE497E50E941A32009701F578
:103F50006F2D81E00E943E0E8C010115110599F133
:103F600001301105B9F186E19CE00E9413098EE051
:103F70009CE0012B09F41DCD42E025966CAD7DAD92
:103F80008EAD9FAD25970E94D00B82E19CE011CDB4
:103F90008C010C5417456801602F81E00E943E0E91
:103FA0008C016F2D81E08C0D0E943E0EBC01990F9B
:103FB000880B990B0E94A12E25966CAF7DAF8EAF1A
:103FC0009FAF2597CACF10923558109216041092C1
:103FD000775EC9CF82E080932E5881E08093365877
:103FE00000932C5810932D588093775E25966CADD6
:103FF0007DAD8EAD9FAD25970E94E1306093785ED8
:104000007093795EB0CF8DE497E50E94012D8823EF
:1040100079F099278034910514F08FE390E0809334
:10402000385E88E09CE00E9413096091385EDACD2A
:1040300081E090E0F4CF8DE497E50E94012D8F712F
:1040400080933A5E83E09CE00E94130980913A5E7F
:104050008251990B0E94C10B8EEF9BE0AACC11E01C
:10406000F112C9CC8DE895E00E94500B80E190E000
:104070000E94890A882389F0CE0101960E94610A74
:1040800089819A8197FD09C09195819591098983CC
:104090009A83CE0101960E94E40A8FE595E00E9482
:1040A000500B68EC70E080E090E00E94A9090C944D
:1040B0000000A1CC21E0F2129ECC85E595E00E94A3
:1040C000500B80E190E00E94890A811128C019827A
:1040D0001A826FE4CE0101960E94C10A41E050E0CD
:1040E00049835A8365E4CE0101960E94C10A82E0A9
:1040F00090E089839A836DE4CE0101960E94C10A03
:1041000003E010E009831A836FEFCE0101960E944D
:10411000C10A0F5F1F4F011592E0190799F7AAE432
:10412000B0E0A983BA8380E190E08B839C83CE01C9
:1041300001960E94E40A06E31EE587E090E0F8019C
:1041400061918F017C01FFEFEF1AFF0A8FA798ABF7
:10415000CE018F960E94C10AC7018D34910579F76F
:1041600090E080E00E94890A81111AC08DE295E0FA
:104170000E9413094AE060E072E080E090E00E9453
:10418000600B87E095E00E94500B60E072E090E0E9
:1041900080E00E94AE0C85E095E00E9413090CC0FF
:1041A000CE0101960E94610A8B819C81019649F49F
:1041B00084EB94E00E94500B0E944D0B84E395E049
:1041C000F8CB87EA94E00E9413096B817C8190E030
:1041D00080E04AE00E94600B09811A8117FF03C04A
:1041E0001195019511090450110989E994E00E9483
:1041F0001309C8010E94C10B82E994E00E941309CF
:1042000089819A8197FF04C087E894E00E9413098E
:104210000E944D0BB80187E090E00E94AE0C85E84B
:1042200094E0BBCF11E0F112E6CB83EF9BE00E945C
:1042300013098BEF90E40E945A0BDDCB22E0F212BF
:10424000DACB1092395E80914D57813319F481E0B9
:104250008093395E8091395E882319F08DEE9BE062
:10426000A8CB86EE9BE0A5CB31E088ED9BE0F31276
:10427000C2CB9FCB41E0F412BECB8EEB9BE00E9401
:10428000500B0E940C0BE2EBF8E5108211821282B7
:104290001382E15AFF4F5AE5EC3EF507B1F7109251
:1042A0002F58109230581092315810923258A3CB98
:1042B00081E0F812A0CB0CE915E0F801F490FF20A2
:1042C00061F0FAE0FF1203C08DE00E942D098F2DEE
:1042D0000E942D090F5F1F4FF0CF8AE995E069CB4F
:1042E000BFE3BF1508F48FCBEF2DF0E0E45BF84A95
:1042F0008083F394F092015786CB80910804881F45
:104300008827881F07CC8091A80483FB882780F921
:1043100001CC933009F410CCD8011A968C93BFEFDE
:10432000CB1ADB0A005F1F4FE3E0CE16D10409F081
:10433000B6CB80910A57882311F40C94492B109224
:104340000A57209009572FAA822D90E006E1209E5F
:10435000F0011124E453F24A26E1833098F43489C1
:1043600031110DC0289FD001299FB00D1124A453F5
:10437000B24A50961D921D921D921C9253977696AA
:104380000196EBCF109108576F961FAF6F97812F53
:1043900090E02FE5129FD0011124A255B74A25E1E4
:1043A0008C30B8F51C963C911C9731112EC0289F7B
:1043B000F001299FF00D1124E053F34A108A118A6D
:1043C000128A138AFD01EC54F109108211821282C3
:1043D0001382349610821182128213821482158203
:1043E000168217821D921C92119712961D921C9292
:1043F000139714961D921D921D921C921797189652
:104400001D921D921D921C921B970196A15ABF4F9F
:10441000C7CF2CE538E5D70117964D915C911897D9
:104420004115510589F013968D919D910D90BC9188
:10443000A02D840F951FA11DB11DF70183839483C7
:10444000A583B68317821086F0E1EF0EF11C2E15BE
:104450003F0509F720904B4030904C400CEC1DE597
:104460000BAF1CAF10E000E04FA8041508F0EAC045
:104470007801B3E0EE0CFF1CBA95E1F7E20CF31CF7
:10448000F701E058FF4F20813181428153816481DF
:10449000758186819781D1014D905D906D907C9062
:1044A0000E9416314B015C01C301B2010E949F2E94
:1044B0009B01AC01C501B4010E947930B6E1B09F07
:1044C0009001B19F300D1124F901E453F24AEBAB96
:1044D000FCAB608B718B828B938BF70120853185D0
:1044E000428553856485758586859785D1014D9074
:1044F0005D906D907C90139780848DAE91846996C9
:104500009FAE6997A2842A96AFAE2A97B3842E965F
:10451000BFAE2E97C4846296CFAE6297D58466965E
:10452000DFAE6697868467968FAE679797846896A6
:104530009FAE6897CD90DD90ED90FC90ABA9BCA9A3
:1045400050968D909D90AD90BC90539729968CAECF
:104550009DAEAEAEBFAE29970E9412314B015C01F9
:10456000C301B2010E949F2E9B01AC01C501B401A1
:104570000E9479304B015C012DAD69963FAD699782
:104580002A964FAD2A972E965FAD2E9762966FAD05
:10459000629766967FAD669767968FAD67976896C8
:1045A0009FAD68970E9412319B01AC01C501B40117
:1045B0000E94002F4B015C01C701B6010E949F2E93
:1045C0009B01AC01C501B4010E9479309B01AC0193
:1045D00029966CAD7DAD8EAD9FAD29970E941430AC
:1045E000EBA9FCA9608B718B828B938B608971899D
:1045F000828993890E94BF31ABA9BCA950966D9363
:104600007D938D939C93539750966D917D918D9151
:104610009C915397EBADFCAD218132814381548154
:104620000E94002FABA9BCA950966D937D938D93EA
:104630009C9353970F5F1F4FEBADFCAD7696EBAF9E
:10464000FCAF12CFF10184819581A681B781808171
:104650009181A281B38180910757809105579091F4
:1046600006570EEA18E50BAF1CAF0CE518E50BABCF
:104670001CAB69961FAE69974C01B12CA12CE79633
:104680008CAE9DAEAEAEBFAEE7976F969FAC6F9708
:104690006996AFAC69979A1409F499C4ABA9BCA9FF
:1046A0000D90BC91A02DAFABB8AF1F968C91B8E028
:1046B0008B9F80011124020D131DF801E058FF4F5C
:1046C0002081318142815381648175818681978106
:1046D000F10180809180A280B3800E9416316B012D
:1046E0007C01C501B4010E949F2E9B01AC01C70152
:1046F000B6010E947930AFA9B8AD50966D937D9305
:104700008D939C935397F80120853185428553857D
:104710006485758586859785D1014D905D906D90F6
:104720007C90139780848DAE91842A969FAE2A97B1
:10473000A2842E96AFAE2E97B3846296BFAE6297D8
:10474000C4846696CFAE6697D5846796DFAE6797CA
:10475000E6846896EFAE6897F7846A96FFAE6A972C
:10476000CD90DD90ED90FC90AFA9B8AD50968D90B6
:104770009D90AD90BC90539729968CAE9DAEAEAEF9
:10478000BFAE29970E9412314B015C01C301B201F7
:104790000E949F2E9B01AC01C501B4010E9479309B
:1047A0004B015C012DAD2A963FAD2A972E964FAD59
:1047B0002E9762965FAD629766966FAD6697679625
:1047C0007FAD679768968FAD68976A969FAD6A9739
:1047D0000E9412319B01AC01C501B4010E94002F5F
:1047E0004B015C01C701B6010E949F2E9B01AC01E9
:1047F000C501B4010E9479309B01AC0129966CADD2
:104800007DAD8EAD9FAD29970E941430EFA9F8AD14
:10481000608B718B828B938B60897189828993897C
:104820000E94BF31AFA9B8AD50966D937D938D9323
:104830009C93539750966D917D918D919C91539738
:1048400011968D909D90AD90BC9014972D968CAE46
:104850009DAEAEAEBFAE2D97A50194010E94002F74
:10486000EFA9F8AD608B718B828B938BF801E850C8
:10487000FF4F20813181428153816481758186811E
:104880009781E858FF4F40802E964FAE2E9751806B
:1048900062965FAE6297828066968FAE66979380CF
:1048A00067969FAE6797A4806896AFAE6897B5800D
:1048B0006A96BFAE6A97C680A096CFAEA097D78003
:1048C000A196DFAEA197D1018D909D90AD90BC9047
:1048D000F801F085A296FFAFA297D8011996BC9176
:1048E000A396BFAFA397F801F285A496FFAFA49754
:1048F000D8011B96BC91A596BFAFA597F801F4858A
:10490000A696FFAFA697D8011D96BC91A796BFAFFC
:10491000A797F801F685A896FFAFA897D8011F962C
:10492000BC91A996BFAFA997F101408051806280E8
:104930007380ABA9BCA912960D90BC91A02D2796AF
:10494000AEAFBFAF27971F96EC91F0E03196A3E092
:10495000EE0FFF1FAA95E1F7E20DF31DC080AA96A6
:10496000CFAEAA97D180AB96DFAEAB97E280AC9684
:10497000EFAEAC97F380AD96FFAEAD97C480AE9628
:10498000CFAEAE97D580AF96DFAEAF97E680E0961C
:10499000EFAEE097F780E196FFAEE197D101CD90C1
:1049A000DD90ED90FC902196CCAEDDAEEEAEFFAE8C
:1049B00021970E941231EBA9FCA922A133A144A1A5
:1049C00055A10E94002F6B017C012E962FAD2E97D2
:1049D00062963FAD629766964FAD669767965FADFC
:1049E000679768966FAD68976A967FAD6A97A0964D
:1049F0008FADA097A1969FADA1970E941231ABA950
:104A0000BCA996962D913D914D915C9199970E94EC
:104A1000002F9B01AC01C701B6010E9415306B014C
:104A20007C01C501B4010E949F2E9B01AC01C7010E
:104A3000B6010E9479306B017C01A2962FADA2973E
:104A4000A3963FADA397A4964FADA497A5965FAD4F
:104A5000A597A6966FADA697A7967FADA797A896A0
:104A60008FADA897A9969FADA9970E9412314B01CF
:104A70005C01C301B2010E949F2E9B01AC01C501E4
:104A8000B4010E9479304B015C01AA962FADAA9720
:104A9000AB963FADAB97AC964FADAC97AD965FADD7
:104AA000AD97AE966FADAE97AF967FADAF97E096F0
:104AB0008FADE097E1969FADE1970E9412319B0187
:104AC000AC01C501B4010E94002F4B015C0121968D
:104AD0006CAD7DAD8EAD9FAD21970E949F2E9B0149
:104AE000AC01C501B4010E9479309B01AC01C70142
:104AF000B6010E9414306B017C012796EEADFFAD2C
:104B0000279721813281438154812D966CAD7DADF3
:104B10008EAD9FAD2D970E94002FA70196010E9498
:104B2000002F61966CAF7DAF8EAF9FAF6197ABA941
:104B3000BCA914960D90BC91A02DADAFBEAF279629
:104B40004EAC5FAC279720E030E0A9014A165B0627
:104B500009F452C1F801E851FE4F508066965FAEED
:104B60006697818067968FAE6797928068969FAEB2
:104B70006897A3806A96AFAE6A97B480A096BFAEDE
:104B8000A097C580A196CFAEA197D680A296DFAEA2
:104B9000A297E780A396EFAEA397E858FF4F208136
:104BA0003181428153816481758186819781D101F0
:104BB0008D909D90AD90BC90F801F085A496FFAFCC
:104BC000A497D8011996BC91A596BFAFA597F801F7
:104BD000F285A696FFAFA697D8011B96BC91A79623
:104BE000BFAFA797F801F485A896FFAFA897D801A3
:104BF0001D96BC91A996BFAFA997F801F685AA9614
:104C0000FFAFAA97D8011F96BC91AB96BFAFAB97E9
:104C1000F1014080518062807380ADADBEAD1F96C2
:104C2000EC91F0E0319603E0EE0FFF1F0A95E1F7FB
:104C3000E20DF31DC080AC96CFAEAC97D180AD969F
:104C4000DFAEAD97E280AE96EFAEAE97F380AF9653
:104C5000FFAEAF970481E0960FAFE0971581E19624
:104C60001FAFE197C680E296CFAEE297D780E3967A
:104C7000DFAEE397D101ED90FD900D911C9165960B
:104C8000ECAEFDAE0EAF1FAF65970E941231EBA9DF
:104C9000FCA9FE9620813181428153810E94002F20
:104CA0006B017C0166962FAD669767963FAD67975F
:104CB00068964FAD68976A965FAD6A97A0966FAD9C
:104CC000A097A1967FADA197A2968FADA297A3962C
:104CD0009FADA3970E941231EBA9FCA922AD33AD81
:104CE00044AD55AD0E94002F9B01AC01C701B60138
:104CF0000E9415306B017C01C501B4010E949F2EFA
:104D00009B01AC01C701B6010E9479306B017C01A7
:104D1000A4962FADA497A5963FADA597A6964FADA7
:104D2000A697A7965FADA797A8966FADA897A996E7
:104D30007FADA997AA968FADAA97AB969FADAB977B
:104D40000E9412314B015C01C301B201F8D79B01F3
:104D5000AC01C501B4010E9479304B015C01AC96F5
:104D60002FADAC97AD963FADAD97AE964FADAE972C
:104D7000AF965FADAF97E0966FADE097E1967FADF0
:104D8000E197E2968FADE297E3969FADE3970E949D
:104D900012319B01AC01C501B4010E94002F4B01EF
:104DA0005C0165966CAD7DAD8EAD9FAD6597C7D747
:104DB0009B01AC01C501B4010E9479309B01AC019B
:104DC000C701B6010E9414306B017C01ADADBEADD0
:104DD00011962D913D914D915C9114972D966CAD4E
:104DE0007DAD8EAD9FAD2D970E94002FA70196013E
:104DF0000E94002F9B01AC0161966CAD7DAD8EAD24
:104E00009FAD61970E9414304B015C0127964EAC18
:104E10005FAC2797CDACDEAC20E030E0A9014C14AC
:104E20005D0439F4D20150962D913D914D915C91E4
:104E30005397EFA9F8AD6089718982899389E0D78A
:104E40002B013C01AC019B01C501B4010E947930EA
:104E50006B017C0126E636E646E85FE30E94B73147
:104E600018160CF4ADC026E636E646E85FEBC7013F
:104E7000B60161D787FDA4C0A7019601C701B6019D
:104E80000E94FD3181119CC0ABADBCAD1896CD9296
:104E9000DD92ED92FC921B9720E030E040E05FE372
:104EA000C501B4010E9415300E94E130ABADBCAD2C
:104EB0006D937C9320E030E040E05FE3C301B201FA
:104EC0000E9415300E94E130EBADFCAD628373832C
:104ED000D1016D917D918D919C91109107572FD7A4
:104EE000A50194018DD76B017C01E7966CAD7DAD7A
:104EF0008EAD9FADE79723D79B01AC01C701B601EB
:104F00007FD76B017C01612F70E090E080E019D7C2
:104F10009B01AC01C701B60173D720E836E948E12F
:104F20005BE40E947930EBA9FCA92681378140859A
:104F300051850E9415306B017C0120E030E041E694
:104F400055E40E9479300E94E130072E000C880B56
:104F5000990BABADBCAD14960D911D912D913C916B
:104F60001797060F171F281F391FFD01048315838C
:104F700026833783E6D620E030E041E655E440D78B
:104F80009B01AC01C701B6010E941430ABA9BCA9BA
:104F900016966D937D938D939C93199769960FAD9B
:104FA00069970F5F69960FAF6997A15ABF4FABAB77
:104FB000BCAB0BAD1CAD015A1F4F0BAF1CAF65CB8B
:104FC000EBADFCAD108611861286138665CF8091FD
:104FD0002858882309F44DC0E0912B58F0E0319611
:104FE000B3E0EE0FFF1FBA95E1F7E20DF31D20814C
:104FF0003181428153816481758186819781D1019C
:105000008D909D90AD90BC900E9412316B017C01FF
:10501000C501B40194D69B01AC01C701B6010E9441
:1050200079306B017C0160912658709127587695F4
:10503000679590E080E083D69B01AC01C701B60183
:10504000F4D720E030E040E05FE3EFD70E94E630A5
:105050006093295870932A58C10188529D4F821538
:10506000930561F0F101108281010F5F1F4F18015C
:10507000F6CF1092295810922A58EECF80911757E8
:1050800090911857A0911957B0911A57892B8A2BD4
:105090008B2B69F480E00E94190E6091735E709111
:1050A000745E8091755E9091765E0E94E60965E07F
:1050B00070E080E090E00E94A909809117579091DC
:1050C0001857A0911957B0911A570196A11DB11DFB
:1050D0008093175790931857A0931957B0931A5766
:1050E0006091DC5D7091DD5D8091DE5D9091DF5DB2
:1050F00020E030E048EC52E483D60E94E130609337
:105100001B5770931C57E9E2CE2EE7E5DE2EFDE13A
:10511000EF2EF7E5FF2EAEE4AA2EADE5BA2E8BE01A
:1051200097E5A7019601A0EDBCE51FE554960C910B
:10513000549770E060E0002349F0FC016081169F05
:10514000F0011124E255F74A60817181FA016193FF
:105150007193AF01412C512C3201002359F0FC0115
:105160006081169FF0011124EE54F74A408051806F
:1051700062807380F90141925192619271929F0114
:1051800055960196AA16BB0689F680912F589091E4
:105190003058A0913158B091325880934157909334
:1051A0004257A0934357B09344578091395E882368
:1051B00009F487C08EE2E7E1F7E5DE011196019080
:1051C0000D928A95E1F7B12CB0927D5E8DE30E943D
:1051D000B106682F64608DE30E94A4060E94DA097C
:1051E0002B013C0180918C57803109F05BC280918A
:1051F0004657811157C284E20E94B10690E0919512
:10520000819591098C349F4F0CF04CC284E00E9430
:10521000BD0684E00E94BD0687E20E94B10687FFBA
:10522000FBCF0E949A0680E80E94830681E30E94D9
:10523000830685E00E94830680917C5E0E9483063F
:1052400080E40E9483068E010F5F1F4FD8018D916D
:105250008D010E94830629A83AA820163106B1F7CD
:105260000E9479068CE00E94BD0688E20E94B10689
:1052700083FFFBCF84E00E94BD060E94DA092B0168
:105280003C010E94DA0964197509860997096E3193
:1052900071058105910508F014C20E94FE0C882357
:1052A00081F38091495790914A57059751F7809122
:1052B0004557882331F362E370E080E090E00E947C
:1052C000A9098090175790901857A0901957B0903F
:1052D0001A5780917B5E882309F4F9C186E89CE027
:1052E0000E9413094AE0C501B4010E94600B82E8E4
:1052F0009CE00E94130981E090E00E94C10B8EE2C5
:1053000091E40E94990B60911B5770911C57072ED6
:10531000000C880B990B15D52AE037ED43E25CE3CE
:105320006FD542E00E94D00B01E010E08EE79CE0D8
:105330000E941309C8010E94C10B8EE291E40E94F1
:10534000990BD7018D919D917D010E94C10B0F5F3B
:105350001F4F0730110551F701E010E08AE79CE08C
:105360000E941309C8010E94C10B8EE291E40E94C1
:10537000990BF60161917191819191916F010E9458
:105380009A0B0F5F1F4F0730110541F780E79CE034
:105390000E94130960914157709142578091435781
:1053A000909144574AE00E94600B8EE69CE00E9478
:1053B000500B6CE370E080E090E00E94A90981E06E
:1053C0000E94190E62E370E080E090E00E94A9095B
:1053D00080E00E94190E2090415730904257409033
:1053E0004357509044572BAA3CAA4DAA5EAA40901E
:1053F0003D5750903E5760903F5770904057809176
:10540000395790913A57A0913B57B0913C574091F2
:1054100035575091365760913757709138570091F2
:105420003157109132572091335730913457C090F3
:105430002D57D0902E57E0902F57F09030578090F6
:10544000295790902A57A0902B57B0902C57E09155
:105450000E5EF0910F5E14012E1A3F0AF10137FE25
:1054600003C0F195E195F109E83CF1050CF064C049
:10547000E091125EF091135E16012E1A3F0AF101BF
:1054800037FE03C0F195E195F109E83CF1050CF018
:1054900053C0E091165EF091175E18012E1A3F0A74
:1054A000F10137FE03C0F195E195F109E83CF10502
:1054B0000CF042C0E0911A5EF0911B5E1A012E1AA8
:1054C0003F0AF10137FE03C0F195E195F109E83C8F
:1054D000F10594F5E0911E5EF0911F5E1C012E1AFD
:1054E0003F0AF10137FE03C0F195E195F109E83C6F
:1054F000F10514F5E091225EF091235E12012E1A5F
:105500003F0AF10137FE03C0F195E195F109E83C4E
:10551000F10594F4E091265EF091275E2BA83CA85B
:105520002E1A3F0AF10137FE03C0F195E195F1090A
:10553000E83CF1050CF4ADC080920E5E90920F5ED7
:10554000A092105EB092115EC092125ED092135E75
:10555000E092145EF092155E0093165E1093175E53
:105560002093185E3093195E40931A5E50931B5E31
:1055700060931C5E70931D5E80931E5E90931F5E11
:10558000A093205EB093215E4092225E5092235EF3
:105590006092245E7092255E8BA89CA8ADA8BEA8E0
:1055A0008092265E9092275EA092285EB092295E3D
:1055B00000912E5E10912F5E0115110549F1C80171
:1055C000957189839A83CE0101960E945A0A90E0D0
:1055D0008093305E9093315E09831A836FEFCE0122
:1055E00001960E94C10A80912E5E90912F5E2091BB
:1055F0002C5E30912D5E820F931F80932E5E9093D0
:105600002F5E2091345E3091355E8217930744F00F
:105610008091325E9091335E80932E5E90932F5EE8
:105620008091305E9091315E880F991F992781603B
:105630008F3F910509F429C18093305E9093315ECC
:105640006091305E80912E5E90912F5E89839A8367
:10565000CE0101960E94C10A00912E5E10912F5E2C
:105660008AE2E82E8EE5F82E9EE0C92E9EE5D92E20
:105670000D501E45C8018C0D9D1D89839A83D6014E
:105680006D916D01CE0101960E94C10AEC14FD04DA
:1056900089F7A89564E170E080E090E00E94A90994
:1056A0000C94661C0E94DA09641975098609970929
:1056B000683E73408105910508F0ABCD0E94FE0C59
:1056C00091CDB39473E0372EB3107ECDF4CD89E63F
:1056D0009CE00E9413094AE0C501B4010E94600BDE
:1056E00086E69CE00E94130981E090E00E94C10BD5
:1056F0008FE291E40E94990B60911B5770911C57A7
:10570000072E000C880B990B1CD32AE037ED43E2DF
:105710005CE376D342E00E94D00B01E010E083E628
:105720009CE00E941309C8010E94C10B8FE291E422
:105730000E94990BD7018D919D917D010E94C10B13
:105740000F5F1F4F0730110551F701E010E080E6B1
:105750009CE00E941309C8010E94C10B8FE291E4F2
:105760000E94990BF60161917191819191916F0164
:105770000E949A0B0F5F1F4F0730110541F788E514
:105780009CE00E94130960914157709142578091AB
:105790004357909144574AE00E94600B80917A5E93
:1057A000811107C00E944D0B68E270E080E090E03C
:1057B00004CE50EDE52E5CE5F52E10E000E065E14D
:1057C000B62E85E59CE00E94130968010F5F1F4F0C
:1057D000C8010E94C10B8FE291E40E94990BD7018E
:1057E00054968C91882309F448C0BC9CF001BD9C60
:1057F000F00D1124E053F34A6089718982899389FD
:1058000043E00E94D00BB5E1EB0EF11C0630110510
:10581000C1F630EDE32E3CE5F32E01E010E04FE55C
:10582000D42E81E59CE00E941309C8010E94C10B9F
:105830008FE291E40E94990BF7018489882309F192
:10584000F801E65FF84AE081DE9EF0011124EA5497
:10585000F74A608171818281938144E00E94D00B7C
:105860000F5F1F4FF5E1EF0EF11C07301105C9F670
:1058700060E570E080E090E0A0CD60E070E0CB01FA
:10588000BFCF60E070E0CB01E8CF8EEF90E0D4CEE8
:105890006F2D81E00E943E0E6C010C94351E602F2E
:1058A00081E00E943E0E6C016F2D8E2D0E946A0ECB
:1058B00025966CAF7DAF8EAF9FAF25970C94351EAC
:1058C0008F929F92AF92BF92CF92DF92EF92FF9210
:1058D000CF93DF93EC01688179818A819B81611587
:1058E00071058105910521F464E279ED8BE597E07E
:1058F0002DE133EF41E050E03AD349015A019B01D9
:10590000AC01A7EAB1E44FD36B017C01ACEEB4EF7C
:10591000A501940154D3C60ED71EE81EF91EF7FE4A
:1059200006C081E0C81AD108E10880E8F80AC882F8
:10593000D982EA82FB82C701B6019F77DF91CF91BE
:10594000FF90EF90DF90CF90BF90AF909F908F909F
:1059500008958F929F92AF92BF92CF92DF92EF9273
:10596000FF9260914D4070914E4080914F409091D8
:105970005040611571058105910521F464E279EDCE
:105980008BE597E02DE133EF41E050E0F0D24901A3
:105990005A019B01AC01A7EAB1E405D36B017C017C
:1059A000ACEEB4EFA50194010AD3C60ED71EE81ED3
:1059B000F91EF7FE06C081E0C81AD108E10880E8A8
:1059C000F80AC0924D40D0924E40E0924F40F09283
:1059D0005040C701B6019F77FF90EF90DF90CF90C6
:1059E000BF90AF909F908F90089560934D407093BB
:1059F0004E4080934F4090935040089566277727FC
:105A000025C0FC0188279927E89421912032E9F3E9
:105A1000293010F02E30C8F32B3239F02D3231F40A
:105A2000689403C00BD0820F911D219120532A301E
:105A3000C8F31EF4909581959F4F08957AE0979F43
:105A4000902D879F802D910D112408958F929F9204
:105A5000AF92BF92CF92DF92EF92FF920F931F937C
:105A6000CF93DF935C017B016115710519F0DB01B8
:105A70008D939C9385010F5F1F4FF501D0818D2F72
:105A800090E039D16C01892BA9F5DD32A9F50F5FC2
:105A90001F4FD5011196DC91C1E05801F1E0AF1A1A
:105AA000B10843E050E06CEF72E0C5012CD1892BC6
:105AB00061F5680182E0C80ED11C45E050E067EF57
:105AC00072E0C60120D1892B21F4680197E0C90E4C
:105AD000D11CE114F10419F0D701CD92DC9260E001
:105AE00070E080E89FEFC111F9C060E070E080E8ED
:105AF0009FE7F4C05801BECFDB3229F485010E5F69
:105B00001F4FF501D181C0E0C8CF43E050E064EF02
:105B100072E0C501F8D0892BE9F0F80110E000E04F
:105B200020E030E0A9015F01B0ED8B2E8D0E89E001
:105B30008815C0F19C2E689491F88C2F8870C2FF54
:105B400016C0811102C00F5F1F4F3196D501DC9145
:105B5000C92DE9CFE114F10429F00E5F1F4FF701C1
:105B60000083118360E070E080EC9FE7B7C088237A
:105B700011F001501109A5E0B0E015D29B01AC0174
:105B8000220F331F441F551F280D311D411D511D6C
:105B9000283999E93907490799E15907B0F2C660F0
:105BA0009C2ED3CFAEEF8A1206C0C3FD3CC09C2E04
:105BB000689493F8CACFDF7DD534A9F580818D3202
:105BC00039F4C061DF011296818162E070E006C0A5
:105BD000DF018B32C1F3119661E070E080535D010B
:105BE000A61AB70A8A30F8F4E0E8CE16ECE0DE0632
:105BF0005CF4B601660F771F660F771FC60ED71EBF
:105C0000CC0CDD1CC80ED11C5D01FFEFAF1ABF0A22
:105C10008C9180538A3098F1C4FF03C0D194C19411
:105C2000D1080C0D1D1DC1FF09C0E114F10431F0B4
:105C300081E0A81AB108D701AD92BC92CA01B9019E
:105C40007ED0C370C33009F490584B015C0120E052
:105C500030E0A90170D0882309F43EC0CBE2D3E044
:105C600017FF05C0119501951109C3E1D3E06E013D
:105C7000B8E1CB1AD10880E2E82EF12C0EC0D50194
:105C8000B3CFFE0125913591459154910E191F090D
:105C9000C501B401B5D04B015C01D501C4010E159D
:105CA0001F057CF72497F594E794CC16DD06A9F739
:105CB0008A2F880F8B2F881F8F3F41F020E030E024
:105CC000A901C501B40137D0811106C082E290E07C
:105CD0008093835E9093845EC501B401DF91CF9180
