:1002000077C600009FC600009DC600009BC6000088
:1002100099C6000097C6000095C6000093C600006E
:100220000C94551F8FC600008DC600008BC60000C1
:1002300089C6000087C6000085C6000083C600008E
:1002400081C600007FC600000C94A31F7BC600007F
:1002500079C600000C94B61E0C94B11E0C94BB1E03
:100260000C944F1F6FC600000C9468206BC60000F2
:1002700069C6000067C600000C94521F0C94241F2E
:100280000C94A91E0C94A41E0C94AE1E0C944C1F2E
:1002900059C6000057C6000055C6000053C60000EE
:1002A00051C600004FC600000C9441204BC6000010
:1002B00005A84CCDB2D44EB93836A9020C50B9912C
:1002C0008688083CA6AAAA2ABE000000803FAED5B8
:1002D00080A81FD300408D142002A1C8DA02817FBC
:1002E000D9F1DB40A4A6AF005EBCE2613FDD83C272
:1002F0009C7E20A3FD1F41009D23BE46DB65F88C3C
:1003000011AF32CA57E97400030C0F30333C3FC0C1
:10031000C3CCCFF0F3FCFF7C4F70656E456E657209
:1003200067794D6F6E69746F722E6F7267007C65AE
:100330006D6F6E5069434D2056004F70656E456E6F
:10034000657267794D6F6E69746F7200656D6F6E5F
:1003500050692056000000050720600000000000E2
:1003600000005F00000007000700147F147F1424C2
:100370002A7F2A1223130864623649562050000847
:10038000070300001C2241000041221C002A1C7FA0
:100390001C2A08083E080800807030000808080879
:1003A00008000060600020100804023E5149453EEC
:1003B00000427F400072494949462141494D331866
:1003C00014127F1027454545393C4A49493141219E
:1003D0001109073649494936464949291E00001482
:1003E00000000040340000000814224114141414CA
:1003F00014004122140802015909063E415D594E7C
:100400007C1211127C7F494949363E414141227F8D
:100410004141413E7F494949417F090909013E4126
:100420004151737F0808087F00417F41002040410F
:100430003F017F081422417F404040407F021C0260
:100440007F7F0408107F3E4141413E7F0909090634
:100450003E4151215E7F0919294626494949320307
:10046000017F01033F4040403F1F2040201F3F408D
:1004700038403F6314081463030478040361594946
:100480004D43007F41414102040810200041414199
:100490007F0402010204404040404000030708007E
:1004A00020545478407F2844443838444444283801
:1004B0004444287F385454541800087E090218A474
:1004C000A49C787F0804047800447D4000204040CC
:1004D0003D007F1028440000417F40007C047804E8
:1004E000787C080404783844444438FC18242418E0
:1004F00018242418FC7C0804040848545454240488
:10050000043F44243C4040207C1C2040201C3C40B4
:1005100030403C44281028444C9090907C446454D3
:100520004C440008364100000077000000413608C6
:100530000002010204023C2623263CCE0219802040
:1005400000506C65617365207761697400506920A3
:10055000697320626F6F74696E672E2E2E0041439F
:10056000204E4F54204465746563746564004143B4
:10057000205761766520446574656374656400295D
:100580000028002000200020007C000A00202868AD
:10059000696464656E292E00206279746573002C8D
:1005A00020446174612073697A653A2000205369A0
:1005B000676E61747572653A20007C004E6F20642E
:1005C00061746120626C6F636B20666F756E64206E
:1005D0002D20454550524F4D2061707065617273FA
:1005E00020746F20626520666F726D61747465643B
:1005F00020746F204F454D205374616E64617264A6
:100600002062757420756E757365642E007C007CA5
:10061000000A002062797465732C206E6F74206666
:100620006F726D617474656420746F204F454D2046
:100630005374616E646172640053697A653A200094
:100640007C000D0A7C436F6E666967207361766576
:10065000640D0A7C007C536B65746368207265735B
:1006600074617274696E6720776974682064656666
:1006700061756C7420636F6E6669672E007C5265CD
:1006800073657474696E672E2E2E00200020002082
:1006900000206D002064002000206B33200020002B
:1006A000206B3220002000206B31200020302E30C3
:1006B0003000206B30200020660020616300206144
:1006C00000206900206700207000390038003400E5
:1006D00020620020720053657474696E67733A007B
:1006E0002C20706572696F643A20007C70756C73A1
:1006F0006573323A20002C20706572696F643A206D
:10070000007C70756C736573313A20007C64617491
:10071000616C6F673A20002C204C6561643A2000C0
:100720007C693343616C3A20002C204C6561643A4B
:1007300020007C693243616C3A20002C204C6561BA
:10074000643A20007C693143616C3A20007C764336
:10075000616C3A20007C667265713A20007C4143EE
:100760002044657465637465643A20007C6173732A
:10077000756D6564563A20007C43616C69627261F4
:1007800074696F6E007C4E6F64652049443A2000A6
:100790007C47726F75703A20002064426D007C5077
:1007A0006F7765723A20003931354D487A00383616
:1007B000384D487A003433334D487A007C52462015
:1007C00042616E643A20007C526164696F3A200095
:1007D0007C53657474696E6773007C0A7C41766132
:1007E000696C61626C6520636F6D6D616E64733AF4
:1007F0000A7C206C09092D206C69737420636F6E6C
:1008000066696720287465727365290A7C204C0923
:10081000092D206C69737420636F6E6669672028E8
:10082000766572626F7365290A7C207209092D2032
:10083000726573746F72652064656661756C74733C
:10084000202620726573746172740A7C2073090912
:100850002D207361766520746F20454550524F4DB1
:100860000A7C207609092D2073686F7720766572DF
:1008700073696F6E0A7C20563C6E3E09092D207606
:100880006572626F7365206D6F64652C2031203E48
:10089000204F4E2C2030203E204F46460A7C2062BE
:1008A0003C6E3E09092D2073657420722E662E2041
:1008B00062616E64206E203D2034203E203433334C
:1008C0004D487A2C2038203E203836384D487A2C36
:1008D0002039203E203931354D487A20286D617904
:1008E00020726571756972652068617264776172E2
:1008F00065206368616E6765290A7C20703C6E6EB6
:100900003E09092D2073657420722E662E20706FAB
:100910007765722E206E6E202830202D20333129ED
:10092000203D202D31382064426D20746F202B3102
:10093000332064426D2E2044656661756C743A20E4
:10094000323520282B372064426D290A7C20673CF1
:100950006E6E6E3E092D207365742047726F757040
:1009600020284F454D2064656661756C74203D20DC
:10097000323130290A7C206E3C6E6E3E09092D20F2
:10098000736574206E6F64652049442028312E2ED3
:100990003630290A7C20633C6E3E09092D20656EA5
:1009A00061626C65206F757470757420666F72205B
:1009B00063616C6962726174696F6E2E206E203D96
:1009C00020307C31200A7C20643C78782E783E09E7
:1009D0002D20646174616C6F6767696E6720706554
:1009E00072696F64202873290A7C206B3C783E2052
:1009F0003C79792E793E203C7A7A2E7A3E0A7C091F
:100A0000092D2043616C69627261746520696E70A2
:100A100075743A0A7C09090978203D2030203E206F
:100A2000766F6C746167652C2031203E20637431D1
:100A30002C2032203E206374322C206574630A7CA3
:100A400009090979792E79203D20766F6C746167E8
:100A5000652F63757272656E742063616C69627272
:100A60006174696F6E0A7C0909097A7A2E7A203DD1
:100A70002070686173652063616C6962726174697A
:100A80006F6E2E20286374206F6E6C79290A7C09A2
:100A90000909652E672E206B30203235362E380A34
:100AA0007C0909096B312039302E3920322E303043
:100AB0000A7C20663C78783E09092D2066726571B3
:100AC00075656E637920283530206F7220363029A5
:100AD0000A7C20613C78782E783E092D2061737362
:100AE000756D656420766F6C74616765206966203A
:100AF0006E6F20612E632E2070726573656E740AAE
:100B00007C206D3C783E203C79793E092D206D6536
:100B10007465722070756C736520636F756E74698F
:100B20006E673A0A7C09090978203D2030203E2072
:100B3000616C6C204F46462C2078203D2031203EB1
:100B400020636F756E742031204F4E2C2078203D2D
:100B50002032203E20636F756E742032204F4E2C61
:100B6000203C79793E203D2070756C7365206D695D
:100B70006E696D756D20706572696F6420286D7384
:100B800029202879206973206E6F74206E65656452
:100B90006564207768656E2078203D2030290A7CC6
:100BA000207430203C793E092D2074656D7065728B
:100BB00061747572653A0A7C09090979203D203013
:100BC000203E204F46462C2079203D2031203E20DB
:100BD0004F4E2C2059203D2032203E20536561721B
:100BE00063680A7C20743C783E203C79793E203C46
:100BF00079793E203C79793E203C79793E203C79D8
:100C0000793E203C79793E203C79793E203C7979C7
:100C10003E0A7C0909096368616E67652073656E29
:100C2000736F7227732061646472657373206F72CF
:100C300020706F736974696F6E3A0A7C09090978CC
:100C4000203D207468652073656E736F7220706F2D
:100C5000736974696F6E20696E20746865206C69B1
:100C600073742028312D6261736564290A7C090937
:100C7000097979203D20382068657820627974658B
:100C800073202D207468652073656E736F722773EF
:100C900020616464726573730A7C090909652E67B3
:100CA0002E20203238203831203433203331203088
:100CB000372030302030302044390A7C0909094E71
:100CC0002E422E2053656E736F72732043414E4E39
:100CD0004F54206265206164646564206265796FA9
:100CE0006E64207468652061727261792073697A1C
:100CF000652E0A7C20543C6363633E5C6E092D20A4
:100D00007472616E736D6974206120737472696EA0
:100D1000672E0A7C20773C6E3E09092D206E203D0F
:100D20002030203E20726164696F204F46462C209F
:100D30006E203D203120666F7220526563656976B2
:100D400065204F4E2C206E203D203220666F722091
:100D50005472616E736D6974204F4E2C206E203D6D
:100D6000203320666F7220626F7468204F4E0A7CB9
:100D7000207A09092D207365742074686520656EDA
:100D8000657267792076616C75657320616E642089
:100D900070756C736520636F756E74287329207489
:100DA0006F207A65726F0A7C203F09092D207368D5
:100DB0006F77207468697320616761696E0A7C00CF
:100DC0007C526164696F20006F6666006F6E007C04
:100DD000566572626F7365206D6F646520007C6577
:100DE0006D6F6E506920434D2056002064426D00A7
:100DF0007C703A20007C4E6F64652000206D73008B
:100E0000436820323A2000206D7300436820313A55
:100E100020006F6666007C50756C7365733A200025
:100E2000200020007C6B007C47726F757020007C76
:100E30006672657120002073007C646174616C6F60
:100E40006720706572696F6420003931354D487ACA
:100E5000003836384D487A003433334D487A007CB8
:100E600052462042616E64203D20007C41737375C0
:100E70006D656420563A20002C45333A002C4532EB
:100E80003A002C45313A002C50333A002C50323A7B
:100E9000002C50313A0056726D733A002000322017
:100EA0000020003120002C20663A002C2070663291
:100EB0003A002C2049323A002C207066313A002C3E
:100EC0002049313A007C56726D733A0020620A0064
:100ED000202D3E20004F4B007C000A007C000008C3
:100EE0000A0C000C00000201040603000300CF25D9
:100EF00011241FBECFEFCDBFDFE7DEBF27E4ACE795
:100F0000B1E401C01D92A635B207E1F711E4A0E0FB
:100F1000B0E4EAEFF7E700E00BBF02C007900D92E4
:100F2000AC37B107D9F717E0C8E7D7E004C021977D
:100F3000FE010E94D33BC737D107C9F70E9446275D
:100F40000C94FB3B5DC90000E091F746F091F84638
:100F50008483838187FFFDCF84810895E091C74515
:100F6000F091C8458581837009F443C0838180FF77
:100F700040C05091CA455E7F30E020E090E045815E
:100F8000842F83702F5F3F4F213C6DE5360740F083
:100F9000823049F1813049F184E093E094830895EF
:100FA000642F6C7021F08CE0858382E1F6CF813074
:100FB00021F4578330E020E0E2CF823001F746FF92
:100FC000DECF44FF04C0992341F383E0E6CF809154
:100FD000CB45981760F4A92FB0E0AD52BA4B8C9175
:100FE00080879F5FE7CF85E0D8CF81E1D6CF80E0D3
:100FF000D4CF80E1089580910447E0910547F091B6
:101000000647F8949081282F209592239083789416
:101010003DE7315059F190E19A95F1F7928198238B
:10102000C1F3F8949181922391839081982B9083BE
:101030007894AFE3BBE01197F1F700C00000F8949B
:10104000908192239083A3EAB1E01197F1F700C059
:1010500000009281982381E009F080E07894EBE928
:10106000F9E03197F1F700C00000089580E008959D
:1010700028E030E041E090910447E0910547F0918D
:101080000647792F7095582F542389F1F894518190
:10109000572351835081592B508350E55A95F1F7CE
:1010A0005181952B91837894A9E4B1E01197F1F7E0
:1010B00000C00000440F21503109E9F6611116C04B
:1010C000F894E0910547F09106479081809104479C
:1010D000809589238083E0910547F09106479181AF
:1010E0008091044780958923818378940895F894AA
:1010F0005181572351835081592B5083A5E8B1E08A
:101100001197F1F700C000005181952B91837894DD
:10111000B8E2BA95F1F7CECF8B3160F590E0FC01E3
:10112000E455FF4BE081EF3F29F189539F4BDC01F0
:101130008C9190E0DC01AA0FBB1FA058BF4B2D91F2
:101140003C9121153105B1F04E2F50E0440F551F51
:10115000240F351FD9016D937C93E05FA5E0880FC4
:10116000991FAA95E1F7E80FF0E0FC5F8081887F86
:10117000826080830895CF93DF93282F30E09FEF24
:101180008B3120F5E901CE51DF4B98819F3FE9F08B
:10119000F901E953FF4BA08140E2A49FD001112443
:1011A000BC5FF901E455FF4BE081E830C0F5AD01CB
:1011B000405F5F4FE40FF52FF11D4FB7F894129683
:1011C0009C939081977F90834FBF98819093044721
:1011D0008B3140F529533F4BF9018081F4E08F9F1B
:1011E000C0011124809305479093064710920F4742
:1011F000109211471092104710920E4710920D470F
:1012000010920C4710920B4710920A471092094710
:101210001092084710920747DF91CF910895F0E0B0
:10122000E0E0CBCF8CEF93E0DDCFE091D145F091C2
:10123000D245309731F08091CC45882311F090E071
:1012400009940895DC01ED91FC910190F081E02D6D
:101250000994EF92FF920F931F93CF93DF938C012A
:101260007B01D0E0C0E0F701EC0FFD1F6491662325
:1012700061F0D801ED91FC910190F081E02DC80161
:101280000995892B11F02196EECFCE01DF91CF91F8
:101290001F910F91FF90EF900895AF92BF92CF9260
:1012A000DF92EF92FF920F931F93CF93DF936C0126
:1012B0007B018B01040F151FEB015E01AE18BF0807
:1012C000C017D10759F06991D601ED91FC910190B9
:1012D000F081E02DC6010995892B79F7C501DF91D1
:1012E000CF911F910F91FF90EF90DF90CF90BF9023
:1012F000AF900895FC0155894689252F30E0842F51
:1013000090E0821B930B541710F0CF96089501972D
:101310000895FC0193898489981761F0A489AE0F20
:10132000BF2FB11D57968C9194899F5F9F73948BAB
:1013300090E008958FEF9FEF0895FC0193898489D1
:10134000981731F08489E80FF11D878990E008959E
:101350008FEF9FEF0895FC0193892489892F90E0F6
:10136000805C9F4F821B91098F7399270895CF93BB
:10137000DF93EC01E881F9810680F781E02D099582
:10138000EC85FD85868116828581158280E48483C3
:101390008C898B8B1A8ADF91CF9108958F929F92BF
:1013A000AF92BF92FF920F931F93CF93DF938C0165
:1013B0004A015B01D22FC32FDC0152968C915297C8
:1013C00080FF07C0ED91FC910288F389E02DC801F0
:1013D0000995D11101C0D3E0FD2EE894F2F8DC2F7D
:1013E000D095D07CB1E68B16B3EE9B06B6E1AB068A
:1013F000B10428F0D260B694A7949794879460E0E3
:1014000078ED88EB95E0A50194010E94953BC90118
:101410002034310510F480E490E03C2F3B72D7FD7E
:1014200030684D2F487C30FD41605FB7F894D8019B
:101430001C96ED91FC911682F7828087918735FF8B
:101440008BC04F7781E084878FEF85873F7D358321
:10145000D683F8012189C08986859785FC0133E010
:10146000239FE00DF11D1124659174912C1708F054
:1014700059C0272F46FF72C07B3188F430E0F90154
:10148000EE51FF4BA081AF3F51F029533F4BF90183
:10149000308120E2329FF0011124FC5FA18347FFDD
:1014A0002AC021E0270F2B3130F530E0F901EE5151
:1014B000FF4BD081DF3FF9F0F901E953FF4BA081E9
:1014C000F0E2AF9FD0011124BC5F24553F4BF901DE
:1014D0001081F0E0E0E0183030F49D01205F3F4FD4
:1014E000F901E10FF11D3FB7F8941296DC932081CA
:1014F000286020833FBF40FF15C023E0270F2B311A
:1015000088F430E0F901EE51FF4B40814F3F51F03C
:1015100029533F4BD901EC91B0E2EB9FF00111242C
:10152000FC5F4183FC0123E0C29FE00DF11D11240B
:101530003296E4918091E205E095E823E62BE09372
:10154000E2055FBFDF91CF911F910F91FF90BF9098
:10155000AF909F908F900895148678CF342F307578
:1015600009F49DCF7B3108F09ACF30E0F901EE51BC
:10157000FF4BD081DF3F09F492CFF901E953FF4BD4
:10158000A081E0E2AE9FD0011124BC5F24553F4B07
:10159000F9011081F0E0E0E0183030F49D01205FA7
:1015A0003F4FF901E10FF11D3FB7F8941296DC931C
:1015B0002081286020833FBF72CFFC010FB607FE59
:1015C00004C0809111018823A9F0A485B5851496E3
:1015D0008C91149785FF0EC095898689981739F0EC
:1015E00015968C9115978F7D15968C930895E89498
:1015F0000C94C61E08950F931F93CF93DF93EC01B5
:101600008A89982F91609A8B2D899E8929130AC007
:10161000EC85FD85948195FF05C081FD0DC080E4BA
:10162000848312C0062F1D891F5F1F738E8981134B
:1016300015C0CE01C2DFFACF85818F77806490E438
:101640009483EC85FD858583EC85FD85628381E04F
:1016500090E0DF91CF911F910F910895ED89EC0FEC
:10166000FD2FF11DE95AFF4F00831D8BEC85FD8591
:101670008A8981FF09C085818F77806690E4948391
:10168000EC85FD858583E3CF85818062FBCFCF9399
:10169000DF93EC018A8980FF0BC0EC85FD85858195
:1016A00085FD03C0848186FD03C0CE0186DFF5CFB2
:1016B000DF91CF91089581E008959FB7F894E0916C
:1016C0002A0BF0912B0B8091260B209159433091DE
:1016D0005A4340915B4350915C439FBF80FF08C0D9
:1016E000EC3E8CE2F80720F42F5F3F4F4F4F5F4FE7
:1016F0000F01169407941694079416940794169461
:101700000794F00116940794E00DF11D16940794C8
:10171000102C169401181694010C169401181694A6
:10172000010C1694011816941694010C1124E0195A
:10173000F109A8EEB3E00E9455396E0F7F1F811D9D
:10174000911D08958F929F92AF92BF92CF92DF9298
:10175000EF92FF924B015C01B0DF6B017C01ADDFCA
:101760006C197D098E099F09683E734081059105BA
:10177000B0F321E0821A9108A108B10888EEC80EE2
:1017800083E0D81EE11CF11C81149104A104B10472
:1017900031F7FF90EF90DF90CF90BF90AF909F9088
:1017A0008F9008952FB7F8946091594370915A43E0
:1017B00080915B4390915C432FBF08950F931F93DB
:1017C000F1DF60939544709396448093974490938F
:1017D00098448DE894E4B1DD97FF1CC0E3DF0091ED
:1017E0009544109196442091974430919844601B01
:1017F000710B820B930B00919144109192442091B4
:10180000934430919444601771078207930708F35B
:101810008FEF9FEF1F910F9108958F929F92AF923C
:10182000BF92CF92DF92EF92FF92CF93DF93C6DF0A
:10183000FC0197FD85C08D32910509F04AC0812CCD
:10184000912C80E8A82E8FE3B82EC12CD12C7601E4
:10185000C0E0D0E0E130F10559F1ED32F10509F4D5
:1018600044C0EE32F10509F442C0CF01C0970A9797
:10187000F8F4AAE0B0E0A70196010E9455396F0183
:10188000FF0FEE08FF08C60ED71EE81EF91E80E304
:10189000C81AD108E108F108CC2351F02DEC3CEC3A
:1018A0004CEC5DE3C501B4010E94A1384B015C0121
:1018B0008DE894E42EDD82DFFC01C0970A9750F298
:1018C000EE32F105B1F4CC2329F2CD2FD11117C09E
:1018D00024C0C0970A9708F4B2CFEE32F10509F49C
:1018E000AECF8DE894E415DDA2CFD1E0E1CFC1E029
:1018F000DFCFE130F10509F4ADCFDD2341F0F09405
:10190000E094D094C094C11CD11CE11CF11CC7010F
:10191000B6010E944238CC2341F0C701B6010E94B3
:101920004238A50194010E94A138DF91CF91FF9028
:10193000EF90DF90CF90BF90AF909F908F900895E1
:1019400060E070E0CB01F1CFCF92DF92EF92FF9297
:10195000CF9334DFFC0197FD4BC08D32910521F010
:10196000C0970A9708F03EC0C12CD12C7601C0E088
:10197000E130F105D1F0ED32F105C1F1CF01C097B1
:101980000A9798F4AAE0B0E0A70196010E945539A1
:101990006F01FF0FEE08FF08C60ED71EE81EF91EE6
:1019A00080E3C81AD108E108F1088DE894E4B1DCBD
:1019B00005DFFC01C0970A97D8F2E130F105C1F2CA
:1019C000CC2341F0F094E094D094C094C11CD11C7D
:1019D000E11CF11CC701B601CF91FF90EF90DF90A1
:1019E000CF9008958DE894E494DCB3CFC1E0DDCFCF
:1019F000C12CD12C7601EECFCF93DF93EC018D85F6
:101A0000882329F081508D87DF91CF9108959C81A3
:101A10008E819817C8F788896827E881F981008442
:101A2000F185E02D42E0CE0109958C818F5F8C839A
:101A3000EBCFDC01ED91FC910084F185E02D40E0DD
:101A400009940F931F93CF938C01FC016483C0858D
:101A5000C60F6C2F6F70EDDF6C2F62956F70606139
:101A6000C801CF911F910F91E4CFFC0127812695EA
:101A700026952695621730F465832385620F67707B
:101A8000606BD7CF08951F93CF93DF93EC01142F92
:101A90008E81681710F4CE01D4DF612FCE01DF9163
:101AA000CF911F91E2CFCF92DF92EF92FF920F93EF
:101AB0001F93CF93DF93EC01F62EC42ED22E1D86FA
:101AC0008F81869586958695081710F00FEF080F81
:101AD0001D2D011770F0412F6F2DCE01D4DFEF2C9B
:101AE000CE1428F06889CE0187DFE394F9CF1F5F19
:101AF000F0CF4D2D6F2DCE01DF91CF911F910F9122
:101B0000FF90EF90DF90CF90BECF0F93CF93DF93F6
:101B1000C2E4D7E41B861A8660E4CE018ADF0F8117
:101B200006950695069501504E81415020E060E0F3
:101B3000CE01B9DFDF91CF910F9108952F923F929F
:101B40004F925F926F927F928F929F92AF92BF92CD
:101B5000CF92DF92EF92FF920F931F93CF93DF9379
:101B6000CDB7DEB72697CDBFDEBFDC011E962D9127
:101B70003C912115310509F46CC18D839E83F901D7
:101B80003296649031964491E42EF12CB7E0EB0E3E
:101B9000F11C53E0F594E7945A95E1F7E982319608
:101BA00054913196E4916D3009F5FC0186818111E3
:101BB00018C081E090E02696CDBFDEBFDF91CF91C7
:101BC0001F910F91FF90EF90DF90CF90BF90AF905B
:101BD0009F908F907F906F905F904F903F902F904D
:101BE000089560E08D819E812CDFE3CF6A3009F09B
:101BF00063C0AD81BE8116968C911697882319F02B
:101C000060E0CD011EDFED81FE8101890E9DE02C9B
:101C1000112465816E0D8485882349F027812695DE
:101C2000269526958E2D821B860F181624F08D8101
:101C30009E811BDFBECFAD81BE811B969C911B9701
:101C4000890F87701B968C931B972E1915962C93D2
:101C500015971E96ED91FC91309761F13396E491C2
:101C6000F0E0379633E0F595E7953A95E1F70E9F6A
:101C7000002D1124EFEFE20F0E0FED81FE81468162
:101C800041506481CF010FDFAD81BE811C968C91E4
:101C90001C97813009F08DCF1B966C911B97660FB6
:101CA000660F660F6F731A966C931A976064CD0176
:101CB000C0DE7FCF00E0DECF651708F4CAC08E2FEC
:101CC00090E0FC01E50FF11D6E171F060CF0C1C07E
:101CD00089010A5F1F4F651BED81FE817185518966
:101CE000759F502D11245C83F90154912F5F3F4F54
:101CF000F9012491352F2230310508F06DC06E9C1A
:101D0000C0016F9C900D1124689FF001699FF00D38
:101D100011240E0F1F1F512CAD81BE811496BC9152
:101D2000BA83ED81FE812580F585FB83862C912C7D
:101D3000AA24A394B12C312C8981381608F087C0CD
:101D4000412CAD81BE8151968C915197481608F077
:101D500077C0EB811D96EC93311002C0442049F00E
:101D6000AD81BE8115964C9115974F5F6A81CD016B
:101D70008ADED12CC12CC61408F056C0F801EC0D37
:101D8000FD1D7490552061F0EA14FB0449F4E72D21
:101D9000F0E0052C02C0F595E7950A94E2F77E2E57
:101DA000ED81FE818189823079F4442009F438C0C4
:101DB00072948FE07822E72DF0E0E95FFC4F749099
:101DC000672D8D819E8118DE672D8D819E8114DEA9
:101DD0008FEFC81AD80ACFCF477028E0522E541A76
:101DE000411101C0512CF801612C30E020E0661651
:101DF00031F04491240F311D63943196F8CF600E79
:101E0000712E711CF3016490E29EF001E39EF00DCF
:101E1000F29EF00D11248E0F9F1F080F191F7CCF0B
:101E2000F72DFF707F2EC7CFD12CAC81DA1631F0A1
:101E300060E08D819E81E0DDD394F7CF439481CF24
:101E40003394080D191DBFEFAB1ABB0A75CF622D75
:101E5000EECE90E080E0AFCEDC011C96ED91FC91DF
:101E60009381818513821186938391E09583818785
:101E700008959C0126563F4FDC015296EC915297F3
:101E800051968C91E81730F4E20FF32FF11D808109
:101E900090E008958FEF9FEF0895FC01DC01A656B6
:101EA000BF4F92898189981740F4A90FB11D2C91D9
:101EB0009F5F928B822F90E008958FEF9FEF0895A0
:101EC000FC0181899289891B990B0895CF92DF9239
:101ED000EF92FF920F931F93CF936C0143385105FC
:101EE00010F042E850E0C42F7B0110E000E00C1736
:101EF00080F4D7016D917D01D601ED91FC910190A7
:101F0000F081E02DC601099598012F5F3F4F892B85
:101F100049F4C801CF911F910F91FF90EF90DF908E
:101F2000CF9008958901E3CFFC01A089A23858F42D
:101F3000A80FB92FB11D58966C9380898F5F808B45
:101F400081E090E0089590E080E00895DC01ED915B
:101F5000FC91F170FC5E80810895CF92DF92EF9248
:101F6000FF920F931F93CF93DF9300D0CDB7DEB7CF
:101F70006C017C0103E010E009831A83CE01019615
:101F8000E5DFF70181937F010F5F1F4F07301105D8
:101F900099F7C6010F900F90DF91CF911F910F918C
:101FA000FF90EF90DF90CF9008950F931F93CF9302
:101FB000DF9300D000D0CDB7DEB78C0119821A8232
:101FC000CE010196C3DF8F34F9F481E090E089837C
:101FD0009A83CE010196BADF8534B1F482E090E0B5
:101FE00089839A83CE010196B1DF8D3469F481E053
:101FF0000115110551F0CE010196AFDF81E02B8173
:102000003C812017310709F080E02496CDBFDEBF68
:10201000DF91CF911F910F9108951F93CF93DF937D
:10202000EC01162F93DF8117B1F09FB7809102105A
:10203000282F227081FDFACFF8948DE984BF209378
:10204000001023E184BF20930010E881F981F17032
:10205000FC5E10839FBFCE01DF91CF911F91089549
:10206000CF92DF92EF92FF920F931F93CF93DF9364
:1020700000D0CDB7DEB76C017C0103E010E009832E
:102080001A83F70161917F01CE010196C6DF0F5FD0
:102090001F4F0730110599F7C6010F900F90DF9180
:1020A000CF911F910F91FF90EF90DF90CF90089507
:1020B0000F931F93CF93DF9300D0CDB7DEB700917E
:1020C000F3461091F4468091F5469091F646081734
:1020D00019079CF4C801957189839A836FEFCE012B
:1020E00001969BDF1092EF461092F0468091ED46EC
:1020F0009091EE46080F191FE6CF0F900F90DF91D9
:10210000CF911F910F910895CF92DF92EF92FF929E
:102110000F931F93CF93DF93082F10E096E1899FD1
:10212000E0011124CA5ED84B8E819F81A885B985B4
:10213000892B8A2B8B2B99F135DBCA88DB88EC88BD
:10214000FD886C197D098E099F09CE80DF80E884A7
:10215000F984C616D706E806F90658F48E859F85D9
:10216000A889B9890196A11DB11D8E879F87A88B6B
:10217000B98B18DB26E1209FF001219FF00D11247F
:10218000EA5EF84B628B738B848B958BDF91CF91DA
:102190001F910F91FF90EF90DF90CF9008958E8563
:1021A0009F85A889B9890196A11DB11D8E879F873A
:1021B000A88BB98BEBCF80E0A7CF81E0A5CFCF92E2
:1021C000DF92EF92FF920F931F93CF93DF93809153
:1021D0001A4090E025E0959587952A95E1F780953E
:1021E000909583709927C0EFD2E002C0D595C7952E
:1021F0008A95E2F72091244030912540DE010E942B
:10220000E23B28E13CEF4FEF5FEF0E94B73B80914C
:102210006E4390916F430197280F391F20939F427F
:102220003093A04220E030E04AE754E4609120403F
:102230007091214080912240909123400E94A138CA
:102240000E94433A8E01DD0F220B330B6B017C01A0
:10225000C01AD10AE20AF30AA7019601A8EEB3E078
:102260000E945539685873418109910920911E4097
:1022700030911F40032E000C440B550B0E94953BE0
:102280002093E6413093E7414093E8415093E94180
:10229000DF91CF911F910F91FF90EF90DF90CF9042
:1022A0000895CF92DF92EF92FF926B017C01C09272
:1022B0002040D0922140E0922240F0922340609151
:1022C00024407091254090E080E00E944038A701B2
:1022D00096010E94A1380E94433A60936E43709326
:1022E0006F4320E034E244E759E4C701B6010E949D
:1022F000A1386B017C0160911E4070911F40072E38
:10230000000C880B990B0E9442389B01AC01C7015D
:10231000B6010E94D6390E94433A60936943709394
:102320006A4380936B4390936C43FF90EF90DF90F0
:10233000CF9045CF1F93CF93DF93EC01FE01149113
:10234000112371F01A3029F46DE08DE894E40E94B5
:102350002209612F8DE894E40E9422092196EECF94
:10236000DF91CF911F910895DC01ED91FC910088E0
:10237000F189E02D23E030E00994089590E080E0B9
:1023800008950F931F93CF93DF938B3108F065C0AF
:1023900090E0DC01AE51BF4B2C912F3F09F45DC0A2
:1023A0008C0109531F4BE801E881D0E2ED9FF00159
:1023B0001124FC5F611131C0268330812323AC01DD
:1023C00044555F4B211111C0EA012881309739F142
:1023D000283028F57096E20FF11D3FB7F894208160
:1023E000611120C0277F20833FBFFA0130813F3F2A
:1023F000A1F1E80128813630B8F43091E605377054
:10240000231312C0EC91E53008F0EE0F8091010A21
:10241000E095E823E093010A20C02583CECFF0E0C9
:10242000E0E0DBCF2860DFCF80579F4BFC0180814D
:1024300085FF11C030E1839FF0011124F75F918186
:102440009770973051F4EC91853260F4803288F4C3
:102450008031C9F202C08111F6CFDF91CF911F9177
:102460000F910895803471F08038B9F71092A0066A
:10247000F4CF90E1899FF0011124F75F81818F7E75
:102480008183EBCF8091920B8E2339F3C0E22C9F96
:10249000900111243C5FE83030F5205F3F4FE20FA0
:1024A000F32FF11D4FB7F8949091800B9E7F90937E
:1024B000800B90918E0B90FFFCCF2091920B90E0BF
:1024C0008095909530E08223932328ED24BF80935C
:1024D000920B8091800B81608093800B80818F773D
:1024E00080834FBFBACFF0E0E0E0DCCFF894E7EFB5
:1024F000F6E4A081B18111968C9111978C7F119691
:102500008C93A081B1818C918F7B8C930190F08111
:10251000E02D8081808360E087E033CFCF93C82FA8
:10252000E5DF8C2F0E94A30780E00E94A307C82F3D
:1025300061E087E026DF78948C2FCF910895CF93C8
:10254000DF93D82FC62FD2DF8D2F80680E94A3077C
:102550008C2F0E94A30761E087E013DF7894DF915E
:10256000CF910895CF93C82F80938C4481E0D6DF1C
:10257000837E682F6C2B81E0E2DF87E2CFDF87FF6D
:10258000FCCFCF910895CF92DF92EF92FF921F93ED
:10259000CF93DF93162FEA0180938A4420E1629F54
:1025A000C0011124862794E0899F9001112482277D
:1025B000807C80938B4461E087E0E3DE80E8809359
:1025C00001049091FE46911117C01092FD4694E0CF
:1025D0009093FA4696E09093FB4620E439E02093EE
:1025E000F7463093F8461092FF46109201478093C9
:1025F000004781E08093FE46A091F746B091F846EF
:102600009091FD468091E405A034E9E0BE0709F011
:1026100079C08C7F892B8093E4058091FB468B31B8
:1026200088F490E0FC01EE51FF4B20812F3F51F0E8
:1026300089539F4BFC01908180E2989FF001112407
:10264000FC5F21838091FA468B3188F490E0FC0195
:10265000EE51FF4B20812F3F51F089539F4BFC01DE
:10266000908180E2989FF0011124FC5F21831196F4
:102670008C911197846011968C93E091F746F091BC
:10268000F846808181628083909102478091034760
:10269000E091F746F091F8469083E091F746F0918B
:1026A000F8468183E091F746F091F84680818F7B70
:1026B0008083E091F746F091F84681818C7F818399
:1026C000E091F746F091F846808180836AEA8FE2D4
:1026D00036DF8FE223DF8A3AC9F765E58FE22FDF25
:1026E0008FE21CDF8535C9F76DEFE62E60E4F62E2C
:1026F000F7018081882341F0618121DFF2E0EF0E54
:10270000F11CF6CF837F86CF5DEFE52E50E4F52EEA
:10271000F7018081882331F0618111DFF2E0EF0E53
:10272000F11CF6CFBE01DD0F880B990BAAE0B0E0DB
:102730009B01AC010E945539611521EE720725EF0E
:10274000820725E0920790F322E0660F771F881F2B
:10275000991F2A95D1F729E03DE340E050E00E941F
:10276000953B69017A01CA01B9013AE096958795CE
:10277000779567953A95D1F787E0E1DEC701B60115
:1027800042E096958795779567954A95D1F788E0C9
:10279000D6DE6C2D6295660F660F607C89E0CFDE19
:1027A000612F80E3DF91CF911F91FF90EF90DF9039
:1027B000CF90C5CE61E083E0E4DD64E170E080E0CD
:1027C00090E00E94A20B60E083E0DBDD6CE370E050
:1027D00080E090E00E94A20B61E083E0D2DD64E142
:1027E00070E080E090E00E94A20B60E083E0C9CD41
:1027F0000F931F93CF93DF93EC01062F142F8B8938
:10280000813120F4882329F0411103C00E94AE07D2
:102810001B8A8B8981110DC08A89880F8093CA45D4
:102820001092CB4560E4111101C060E08BEB95E4A0
:102830007BDB602F8BEB95E477DB123041F48B89E7
:102840008F5F8B8BDF91CF911F910F9108950E9425
:10285000AE071B8AF7CFFB0101900020E9F7319703
:10286000AF01461B570BDC01ED91FC910280F38117
:10287000E02D09948F929F92AF92BF92EF92FF92B8
:102880000F931F93CF93DF93CDB7DEB7A197CDBF43
:10289000DEBF7C01FA01CB0119A2223008F42AE044
:1028A0008E010F5D1F4F822E912CB12CA12CBF01E8
:1028B000A50194010E94953BF901CA016A30ECF42C
:1028C000605DD8016E938D01232B242B252B79F786
:1028D00090E080E0109719F0BD01C701BCDFA19620
:1028E000CDBFDEBFDF91CF911F910F91FF90EF9091
:1028F000BF90AF909F908F900895695CE2CFCF9288
:10290000DF92EF92FF920F931F93CF93DF9377FFA6
:102910001CC06A017B01EC016DE20E9422098C015E
:1029200044275527BA014C195D096E097F092AE031
:10293000CE01A0DF800F911FDF91CF911F910F91EA
:10294000FF90EF90DF90CF9008952AE0DF91CF9134
:102950001F910F91FF90EF90DF90CF908BCFAB0145
:10296000770F660B770BCBCF242F462F50E070E00C
:1029700060E080CFAF92BF92CF92DF92EF92FF9252
:102980000F931F93CF93DF9300D0CDB7DEB76C01C9
:102990005B016CED7EE084E295E40E94290910E081
:1029A00000E00A151B050CF03FC07801EC0CFD1C83
:1029B00085E1F822E982FA82CE010196C7DA8031F8
:1029C00028F460E384E295E40E9422090F5F1F4F20
:1029D000E982FA82CE010196B9DA40E150E0682F2F
:1029E00084E295E4C1DF62E671E484E295E433DFDA
:1029F000C80187709927892B29F462E671E484E283
:102A000095E429DFC8018F709927892B51F66AED6B
:102A10007EE084E295E40E94290968ED7EE084E28C
:102A200095E40E942909BDCF0F900F90DF91CF91BF
:102A30001F910F91FF90EF90DF90CF90BF90AF90DC
:102A400008952F923F924F925F926F927F928F9252
:102A50009F92AF92BF92CF92DF92EF92FF921F931D
:102A6000CF93DF93EC016A017B01722EAB019601DB
:102A7000CB01B6010E94463B64E671E4811126C099
:102A800046015701E894B7F82FEF3FEF4FE75FE7B4
:102A9000C501B4010E94463B81110CC02FEF3FEFEE
:102AA0004FE75FE7C501B4010E943C3868E671E476
:102AB000181664F02FEF3FEF4FE75FE4C701B60150
:102AC0000E94FA3A1816ACF46CE671E4CE01DF917C
:102AD000CF911F91FF90EF90DF90CF90BF90AF907C
:102AE0009F908F907F906F905F904F903F902F902E
:102AF000B2CE2FEF3FEF4FE75FECC701B6010E9468
:102B00003C3887FDE1CF20E030E0A901C701B601E4
:102B10000E943C38312C212C87FF09C06DE2CE0188
:102B20000E9422091C01F7FAF094F7F8F09410E0E3
:102B300060E070E080E09FE3711641F020E030E05B
:102B400040E251E40E94D6391F5FF6CFA7019601FB
:102B50000E946F392B013C010E94433A4B015C01FA
:102B60002AE0BC01A401CE0185DE7C01E20CF31C4D
:102B70001123B9F1C501B4010E9440389B01AC0199
:102B8000C301B2010E946E394B015C0160E771E440
:102B9000CE0161DEE80EF91E115018F120E030E0A0
:102BA00040E251E4C501B4010E94A1382B013C016F
:102BB0000E94433A4B01B12CA12C2AE0B501A4019B
:102BC000CE0158DEE80EF91EC501B4010E9440385E
:102BD0009B01AC01C301B2010E946E394B015C0143
:102BE000DBCFC701DF91CF911F91FF90EF90DF9076
:102BF000CF90BF90AF909F908F907F906F905F909D
:102C00004F903F902F9008951CCF62E771E423CE40
:102C1000CF93DF93AB01BC0122E08DE894E411DF98
:102C2000EC018DE894E4F1DF8C0F9D1FDF91CF91D3
:102C300008950F931F93CF93DF93EC014AE050E088
:102C400093DE8C01CE01E1DF800F911FDF91CF91E8
:102C50001F910F9108950F931F93CF93DF93EC0172
:102C60000E9429098C01CE01D0DF800F911FDF91D6
:102C7000CF911F910F9108954AE050E061E08DE8F7
:102C800094E472DE60E771E48DE894E4E4DD4AE008
:102C900050E060E08DE894E467DE60E771E48DE881
:102CA00094E4D9DD60E08DE894E4C3CF0E94F73B63
:102CB0004F925F926F927F928F929F92AF92BF924C
:102CC000CF92DF92EF92FF92CF93DF93C82FE090E5
:102CD0001E40F0901F40609124407091254090E08C
:102CE00080E00E9440382B013C0180913A40909155
:102CF0003B4001968E9DB0018F9D700D9E9D700D85
:102D00001124072E000C880B990B0E9442382BEDE2
:102D10003FE049EC50E40E94A138A30192010E94D7
:102D2000A13820E034E244E759E40E94D6394B014F
:102D30005C01D0E0CE0101968E9DB0018F9D700D9B
:102D40009E9D700D1124072E000C880B990B0E947C
:102D50004238A30192010E94A13820E034E244E706
:102D600059E40E94D6396B017C01CC0FDD1FCC0FDA
:102D7000DD1FFE01EA5FFF4B20E030E044EB53E44F
:102D800060817181828193810E94D6399B01AC015F
:102D9000C701B6010E946F392BED3FE049EC50E4CA
:102DA0000E94A1382B013C010E94FE3A6B017C017C
:102DB000C501B4010E94FE3A9B01AC01C701B601F6
:102DC0000E94D6396B017C01FE01E053FE4BC082AC
:102DD000D182E282F382C301B2010E94D3392B0176
:102DE0003C01C501B4010E94D3399B01AC01C4541C
:102DF000DE4BC701B6010E94A1389B01AC01C301A3
:102E0000B2010E946E39688379838A839B83DF9144
:102E1000CF91FF90EF90DF90CF90BF90AF909F90B9
:102E20008F907F906F905F904F9008954F925F9238
:102E30006F927F92AF92BF92CF92DF92EF92FF920A
:102E40000F931F93CF93DF93E82FCB01BA01680153
:102E50007901F0E0E35AFC4B108124E0129FE0017D
:102E60001124FE01EA5DFF4B5F012091404030914B
:102E7000414040914240509143400E94A1382B0173
:102E80003C01609114477091154790E080E00E94EA
:102E900040389B01AC01C301B2010E94D639F50153
:102EA0006083718382839383CA5FDF4BC882D98238
:102EB000EA82FB82812FDF91CF911F910F91FF90CA
:102EC000EF90DF90CF90BF90AF907F906F905F902A
:102ED0004F90EECE2F923F924F925F926F927F92E1
:102EE0008F929F92AF92BF92CF92DF92EF92FF921A
:102EF0000F931F93CF93DF93CDB7DEB7CD57D10993
:102F0000CDBFDEBF80919E42882381F010929E4209
:102F100080916443882351F00E94FB0760E08CECB1
:102F20000E94380861E084E40E943808C0906D4334
:102F3000CAAACC2009F4F0C610926D43F8942091EF
:102F40003A4030913B4090E080E0821793070CF0CC
:102F500060C0FC01EC57FC4B4081411158C0FC01A2
:102F600043E0EE0FFF1F4A95E1F7DF01AA58BD4B82
:102F70001C9211961C92119712961C9212971396FE
:102F80001C92139714961C92149715961C921597E1
:102F900016961C92169717961C92DF01A25BBD4BEA
:102FA0001C9211961C92119712961C9212971396CE
:102FB0001C92139714961C92149715961C921597B1
:102FC00016961C92169717961C92DF01AA5DBD4BB0
:102FD0001C9211961C92119712961C92129713969E
:102FE0001C92139714961C92149715961C92159781
:102FF00016961C92169717961C92E250FE4B108262
:10300000118212821382148215821682178201960F
:103010009CCF06E117E4F12CE12CCC24C394D12CF5
:1030200036E1B32ED80111968C911197882309F4BB
:103030007BC08C918823E9F114968C918B3120F51B
:1030400090E0FC01EE51FF4B40814F3FE9F0FC0165
:10305000E953FF4B2081B0E22B9F900111243C5F8C
:1030600084559F4BDC01EC91E83000F5C901409696
:10307000E80FF92FF11D9FB7F894D90112964C93E0
:103080008081886080839FBF6BED70E180911B47DA
:10309000E114F10421F06DED70E1809131470E945F
:1030A0008C0842C0EE24E394F12CBCCFF0E0E0E0C9
:1030B000E2CFF80185818B31A0F590E0FC01E45569
:1030C000FF4B20812F3F69F189539F4BDC018C918D
:1030D000E82FE295EE0FE07EE20FF0E0E05FFB4FBD
:1030E0009081917F908390E0FC01A4E0EE0FFF1FA0
:1030F000AA95E1F7422F50E0B60102C0660F771F94
:103100002A95E2F76383880F991FFC01E058FF4B73
:10311000440F551F0190F081E02DE40FF51F108240
:103120001182D80111961C92BE9CF001BF9CF00D3B
:103130001124EA5EF84B86859785A089B189892B91
:103140008A2B8B2BC9F04685578560897189D801F8
:103150001A964D905D906D907C901D97440D551D75
:10316000661D771D1A964D935D936D937C931D9705
:1031700016861786108A118A0A5E1F4FEA94EF2876
:1031800009F090CF78942091EE413091EF41409139
:10319000F0415091F1416091F2417091F341809181
:1031A000F4419091F5414090EA415090EB4160909C
:1031B000EC417090ED411091F6410091F741309053
:1031C000F8412090F941C090FA41CA8AD090FB4161
:1031D000DC8AE090FC41E88EF090FD41FA8EC090D0
:1031E000F641CE8ED090F741DAA2E090F841ECA201
:1031F000F090F941F8A6C090FA41CCA6D090FB41DE
:10320000DEA6E090FC41E8AAF090FD41FE86C09069
:10321000EA41D090EB41E090EC41F090ED41CA865C
:10322000DB86EC86FD868090EA419090EB41A09091
:10323000EC41B090ED410E94733A6B017C01C301F7
:10324000B2010E9442389B01AC01C701B6010E9445
:10325000D6396B017C01212F302F432D522D6A89E5
:103260007C89888D9A8D0E946F3A2B013C012E8DAE
:103270003AA14CA158A56CA57EA588A99E850E945F
:103280006F3A9B01AC01C301B2010E94A1382B012E
:103290003C016A857B858C859D850E9442389B0117
:1032A000AC01C301B2010E94D6392B013C01C5011A
:1032B000B4010E9442389B01AC01C301B2010E94DB
:1032C000D6399B01AC01C701B6010E946E390E943C
:1032D000083BC0903C40D0903D40E0903E40F09094
:1032E0003F40CA8EDB8EEC8EFD8EA70196010E94B8
:1032F000A1386E8F7F8F88A399A36093AF4370939B
:10330000B0438093B1439093B243E0903A40F09041
:103310003B40EAA2FBA28090EA419090EB41A09052
:10332000EC41B090ED416091694370916A438091A6
:103330006B4390916C430E9440386B017C01AAA1C1
:10334000BBA11196A50194010E94E83B0E9442385E
:103350009B01AC01C701B6010E94D6396C8B7D8BF5
:103360008E8B9F8B609124407091254090E080E08F
:103370000E9440382C893D894E895F890E94A1387E
:103380006093B3437093B4438093B5439093B64333
:10339000F090B7432A96FFAE2A97C0904440D09051
:1033A0004540E0904640F09047402E96CCAEDDAED2
:1033B000EEAEFFAE2E97C0902040D0902140E0901E
:1033C0002240F0902340C8A6D9A6EAA6FBA62BE986
:1033D00033E42A8B3B8B40E753E4488F598F61E9F4
:1033E00073E46A877B8708EB13E48CEB91E48EA788
:1033F0009FA7A0EDB1E4A8ABB9ABE6E2F0E4ECA77F
:10340000FDA72CEC33E42BAB3CAB312C212CCAA018
:10341000DBA02C143D040CF099C3B101F3E0660F5E
:10342000771FFA95E1F7FB01EA58FD4BD0802F9604
:10343000DFAE2F97E1806096EFAE6097F2806196E5
:10344000FFAE6197C3806296CFAE6297D4806396D9
:10345000DFAE6397E5806496EFAE6497F68065967D
:10346000FFAE6597C7806696CFAE6697AEA5BFA53F
:10347000CD90DD90ED90FD90AEA7BFA7CDAADEAABE
:10348000EFAAF8AEFB01E25BFD4BC0806796CFAEC2
:103490006797D1806896DFAE6897E2806996EFAE55
:1034A0006997F3806A96FFAE6A97C4806B96CFAE39
:1034B0006B97D5806C96DFAE6C97E6806D96EFAE1D
:1034C0006D97F7806E96FFAE6E97A8A9B9A9CD90BB
:1034D000DD90ED90FD90A8ABB9ABC9AEDAAEEBAE26
:1034E000FCAEC090EA41D090EB41E090EC41F0900E
:1034F000ED412196CCAEDDAEEEAEFFAE2197D09081
:10350000F6416F96DFAE6F97E090F741A096EFAE71
:10351000A097F090F841A196FFAEA197C090F94115
:10352000A296CFAEA297D090FA41A396DFAEA39712
:10353000E090FB41A496EFAEA497F090FC41A596D5
:10354000FFAEA597C090FD41A696CFAEA6979B0172
:1035500022503E4B7901D901BC91A796BFAFA797E6
:10356000F901F181A896FFAFA897D9011296BC91F5
:10357000A996BFAFA997F901F381AA96FFAFAA97C1
:10358000D9011496BC91AB96BFAFAB97F901F58109
:10359000AC96FFAFAC97D9011696BC91AD96BFAF74
:1035A000AD97F901F781AE96FFAFAE972091EA4152
:1035B0003091EB414091EC415091ED4125962CAF7B
:1035C0003DAF4EAF5FAF25978091EA419091EB41BF
:1035D000A091EC41B091ED4129968CAF9DAFAEAF7B
:1035E000BFAF2997ACA5BDA52D913D914D915D91A2
:1035F000ACA7BDA72CA33DA34EA35FA3DB01AA5D8F
:10360000BD4B2C9111963C91119712964C911297AB
:1036100013965C91139714966C91149715967C9160
:10362000159716968C91169717969C918090EA4163
:103630009090EB41A090EC41B090ED41F701F0810A
:10364000AF96FFAFAF97D7011196BC91E096BFAF91
:10365000E097F701F281E196FFAFE197D70113966A
:10366000BC91E296BFAFE297F701F481E396FFAF1A
:10367000E397D7011596BC91E496BFAFE497F701A5
:10368000F681E596FFAFE597D7011796BC91E696D0
:10369000BFAFE697F701F081E796FFAFE797D70155
:1036A0001196BC91E896BFAFE897F701F281E996D1
:1036B000FFAFE997D7011396BC91EA96BFAFEA979F
:1036C000F701F481EB96FFAFEB97D7011596BC910C
:1036D000EC96BFAFEC97F701F681ED96FFAFED9753
:1036E000D7011796BC91EE96BFAFEE974090EA4196
:1036F0005090EB416090EC417090ED41C090EA41F8
:10370000D090EB41E090EC41F090ED41CE86DF8629
:10371000E88AF98A0E94733A6B017C01C501B40101
:103720000E9442389B01AC01C701B6010E94D63904
:103730006B017C01AF962FADAF97E0963FADE09760
:10374000E1964FADE197E2965FADE297E3966FADFC
:10375000E397E4967FADE497E5968FADE597E6961F
:103760009FADE6970E946F3A4B015C01E7962FAD43
:10377000E797E8963FADE897E9964FADE997EA9667
:103780005FADEA97EB966FADEB97EC967FADEC975C
:10379000ED968FADED97EE969FADEE970E946F3A46
:1037A0009B01AC01C501B4010E94A1384B015C0131
:1037B000C301B2010E9442389B01AC01C501B401B2
:1037C0000E94D6394B015C016E857F858889998975
:1037D0000E9442389B01AC01C501B4010E94D63958
:1037E0009B01AC01C701B6010E946E390E94083BE3
:1037F0009B01AC016CA17DA18EA19FA10E94A1386B
:103800006B017C01ABA9BCA9CD92DD92ED92FD923A
:10381000ABABBCABA88DB98D2D913D914D915C9119
:103820002E873F87488B598B2A96BFAD2A97BB239B
:1038300009F469C12F962FAD2F9760963FAD609721
:1038400061964FAD619762965FAD629763966FAD7B
:10385000639764967FAD649765968FAD659766961E
:103860009FAD66970E946F3A2DA93EA94FA958AD0A
:103870000E94A1384B015C0167962FAD679768964F
:103880003FAD689769964FAD69976A965FAD6A9745
:103890006B966FAD6B976C967FAD6C976D968FAD99
:1038A0006D976E969FAD6E970E946F3A29AD3AADB7
:1038B0004BAD5CAD0E94A1389B01AC01C501B401C8
:1038C0000E946F394B015C0121966CAD7DAD8EADD0
:1038D0009FAD21970E9442389B01AC01C501B40104
:1038E0000E94D6394B015C016F962FAD6F97A09661
:1038F0003FADA097A1964FADA197A2965FADA297BD
:10390000A3966FADA397A4967FADA497A5968FAD10
:10391000A597A6969FADA6970E946F3A2B013C01F2
:10392000A7962FADA797A8963FADA897A9964FAD9C
:10393000A997AA965FADAA97AB966FADAB97AC96D9
:103940007FADAC97AD968FADAD97AE969FADAE9770
:103950000E946F3A9B01AC01C301B2010E94A138E1
:103960002B013C0125966CAD7DAD8EAD9FAD2597AD
:103970000E9442389B01AC01C301B2010E94D639BA
:103980002B013C0129966CAD7DAD8EAD9FAD299785
:103990000E9442389B01AC01C301B2010E94D6399A
:1039A0009B01AC01C501B4010E946E392A8D3B8D8B
:1039B0004C8D5D8D0E94A1382CA13DA14EA15FA12F
:1039C0000E94A1384B015C01A70196016E8D7F8D8D
:1039D00088A199A10E94A1389B01AC01C501B40145
:1039E0000E94D6396B017C0126E636E646E85FE3A5
:1039F0000E94FA3A18160CF47FC026E636E646E82E
:103A00005FEBC701B6010E943C3887FD75C0A70176
:103A10009601C701B6010E94463B81116DC0F801B5
:103A2000C082D182E282F38220E030E040E05FE3B6
:103A3000C501B4010E946F390E943E3AEA85FB85B8
:103A40006083718328A539A54AA55BA5C501B4018A
:103A50000E94A1382C893D894E895F890E94D63900
:103A60002E853F85488959890E946F396B017C01F9
:103A700020E030E041E655E40E94D6390E943E3A0B
:103A8000AA89BB898D909D90AD90BD90AA8BBB8B70
:103A9000FD013497AB01770F660B770BDB01CA0191
:103AA000880D991DAA1DBB1D80839183A283B383BA
:103AB000CB01BA010E94423820E030E041E655E4F3
:103AC0000E94A1389B01AC01C701B6010E946E396A
:103AD000E88DF98D6193719381939193E88FF98FBC
:103AE000FFEF2F1A3F0A2A853B852E5F3F4F2A871B
:103AF0003B870C5F1F4F8BCCD8011D921D921D92EE
:103B00001C92139791CF2E962CAD3DAD4EAD5FAD6F
:103B10002E970E94A1386B017C01D8011D921D9245
:103B20001D921C92139720E030E040E05FE30E947A
:103B30006F390E943E3AEA85FB856083718328A530
:103B400039A54AA55BA5C701B60182CF6090644341
:103B5000662009F4E1C0712C6E013AE0C30ED11C5D
:103B600070ECA72E76E7B72EE6E05E2E80916343D9
:103B7000781608F0C4C02DEC3CEC4CE45EE3609198
:103B800020407091214080912240909123400E94DA
:103B90003C38072D10E087FF07C0F801EE0FFF1F2C
:103BA000A082B1827394E2CF0E94FB078823A9F31D
:103BB000780153E0EE0CFF1C5A95E1F7D7018C9188
:103BC000882359F360E085E50E9438084701B8E092
:103BD0008B0E911C60E0F70181917F010E943808F3
:103BE000E814F904B9F760E08EEB0E943808DE01B2
:103BF00011964D0128E030E0F12CEE24E394809101
:103C000004474091054750910647F894FA01908186
:103C1000982B90836181782F709567236183F8E1F9
:103C2000FA95F1F7FA01908197239083F0E5FA95E0
:103C3000F1F7FA0192817894EDE3F1E03197F1F731
:103C400000C00000892309F0FE28EE0C2150310944
:103C5000B1F6F401F1924F01CE16DF0659F629E0D4
:103C6000E0E0215089F08D918E27E82FEF70F0E091
:103C7000E951FD4F9491E82FE295EF70F0E0E950A3
:103C8000FD4FE491E927EDCF89858E132FC029815F
:103C90003A81529EC001539E900D1124359527956F
:103CA00035952795820F931F2D81211102C080EC3D
:103CB00096E72F812C3021F48433F1E29F07C9F07D
:103CC000803C26E7920731F09C0124583A4E21357A
:103CD000364490F4F801EE0FFF1F8083918361E07A
:103CE00070E080E090E00E94A20B5CCF80EC96E751
:103CF000DBCF80EC96E7EECF88EF95E7EBCF811135
:103D000004C080E395E780B991B960E08FEF0E942D
:103D1000C1111092E5416AAA8AA9C358DF4FCDBFED
:103D2000DEBFDF91CF911F910F91FF90EF90DF9059
:103D3000CF90BF90AF909F908F907F906F905F904B
:103D40004F903F902F900895EF93FF93EDE8F4E4A8
:103D500015C0EF93FF93EDE8F4E43FC0EF93E0E28A
:103D600060C0EF93FF93E4E2F5E408C0EF93FF93A4
:103D7000E4E2F5E432C0EF93E0E053C02F932FB7B5
:103D80002F938F939F93AF93BF936894CF93DF93B9
:103D900020E0C485D8E09689DF01A90FB21FA95A97
:103DA000BF4F8C9120E42C838A839F5F9F738D810A
:103DB0002589291302C08F7D8D83968BDF91CF914A
:103DC00016F00C94FA0ABF91AF919F918F912F91A9
:103DD0002FBF2F91FF91EF9118952F932FB72F930E
:103DE0008F939F93CF93DF93C485D8E08981988187
:103DF00081FD0DC0C38981E08C0F8F732489281742
:103E000031F0CE0FDF2F20E0D21F9F8B838BDF910D
:103E1000CF919F918F912F912FBF2F91FF91EF9174
:103E20001895FF938F938FB78F93F8E080818481EB
:103E300087FFFCCF85818F7B806885838F918FBFC3
:103E40008F91FF91EF9118951F920F920FB60F92DD
:103E500011248F939F93AF93BF9380915943909177
:103E60005A43A0915B43B0915C430196A11DB11DE3
:103E70008093594390935A43A0935B43B0935C4320
:103E800081E08093260BBF91AF919F918F910F900E
:103E90000FBE0F901F9018950F930AE009C00F9363
:103EA00006E006C00F9304E003C00F9300E000C0DB
:103EB0000F920FB60F920BB60F921F921124FF9222
:103EC0001F932F933F934F935F936F937F938F93A2
:103ED0009F93AF93BF93CF93DF93EF93FF93A0E8AC
:103EE000B0E4A00FB11DCD91DC91000F0D5FA02FAC
:103EF000B0E0FC90109761F01F2D169518F041F07E
:103F00002296FBCFE991F9913097B9F30995F5CF56
:103F1000A02FB0E0FC92FF91EF91DF91CF91BF9184
:103F2000AF919F918F917F916F915F914F913F9151
:103F30002F911F91FF901F900F900BBE0F900FBEFF
:103F40000F900F9118951F920F920FB60F92112498
:103F50000BB60F922F933F934F935F936F937F9383
:103F60008F939F93AF93BF93EF93FF93E091C745D8
:103F7000F091C8458385982F9C70C1F0858510927B
:103F8000CC451092CB45FF91EF91BF91AF919F919E
:103F90008F917F916F915F914F913F912F910F90F2
:103FA0000BBE0F900FBE0F901F90189586FF2BC071
:103FB00080FF20C081FF15C085858093CA450E947F
:103FC00015091092CB451092CE45E091CF45F09166
:103FD000D045309709F00995E091C745F091C84563
:103FE00007C085858093CA451092CC451092CD4577
:103FF00083E032C080E483870E9415091092CC458B
:104000001092CD45C0CF87FFBECF81FF27C084FF70
:104010000AC08091C94587FF06C08F778093C94544
:1040200082E08287AECF8091C94580688093C94580
:10403000A091CE458091CB45A81768F4B0E0AD5271
:10404000BA4B8C91858783E082878091CE458F5FC4
:104050008093CE4598CF82E0828795CF95858091D9
:10406000CC45823858F4E82FF0E0EB5AF94B9083B6
:104070008091CC458F5F8093CC45AECF86E0828720
:10408000BDCF1F920F920FB60F9211240BB60F9255
:104090002F933F934F935F936F937F938F939F9350
:1040A000AF93BF93EF93FF934EDFFF91EF91BF91DB
:1040B000AF919F918F917F916F915F914F913F91C0
:1040C0002F910F900BBE0F900FBE0F901F90189561
:1040D0001F920F920FB60F9211240BB60F922F92D0
:1040E0003F924F925F926F927F928F929F92AF9288
:1040F000BF92CF92DF92EF92FF920F931F932F9375
:104100003F934F935F936F937F938F939F93AF935F
:10411000BF93CF93DF93EF93FF9381E080930D06DE
:1041200080910404806880930404409010065090AD
:104130001106C0915843E2E0EC0F20913A403091D3
:104140003B40E217130621F01CF0E1E0EC0FE21B0C
:10415000F0E0E050F04C80818093080680910404E8
:104160008F77809304048091654390916643A0917A
:104170006743B09168430196A11DB11D80936543CB
:1041800090936643A0936743B0936843C1114CC4B6
:104190008091040480688093040480915643909138
:1041A0005743809354439093554380911447909183
:1041B000154796958795481A590A4092564350924A
:1041C00057438091524390915343AC015695479584
:1041D00056954795841B950BA20157FE04C04427B2
:1041E000552744195509840F951F80935243909386
:1041F0005343E0911247F091134741E0E817F90764
:1042000008F040E04093B743141415040CF093C039
:1042100041E050E04093504350935143A0915043AC
:10422000B091514340913A4350913B43A417B50795
:1042300009F486C06091E4416F5F6093E44160914E
:10424000E441633030F01092E441A0933C43B093DA
:104250003D436091A34261111092A34260903C43A0
:1042600070903D43E817F90708F075C281E06816C1
:10427000710409F0C7C14130510509F4C9C18091E9
:10428000A1429091A24201968093A1429093A242B2
:1042900040911D40442309F476C040911B40509149
:1042A0001C408417950708F46EC010921D401092B0
:1042B000A1421092A242C8E0D3E4A0EEB2E468EBBF
:1042C00072E444EA52E490E080E082179307DCF560
:1042D000188219821A821B821C821D821E821F82F2
:1042E00028961C9211961C92119712961C92129766
:1042F00013961C92139714961C92149715961C9261
:10430000159716961C92169717961C921797189643
:10431000FB0110821182128213821482158216828E
:104320001782685F7F4FFA011192119211921192D8
:10433000AF010196CACF10925043109251436ECFF5
:104340001092E4417CCF109242431092434310926A
:1043500044431092454310924643109247431092B3
:1043600048431092494310923E4310923F431092AB
:1043700040431092414310924C4310924D4310928F
:104380004E4310924F438091A1429091A24240919E
:104390009F425091A0428417950739F440911D40E7
:1043A000411103C041E040939E4240916E435091C1
:1043B0006F438417950708F42BC180911D4081112C
:1043C00027C11092A1421092A242C8E0D3E4A0EE0D
:1043D000B2E418EB212E12E4312E64EA72E450E0CC
:1043E00040E0421753070CF09BC088809980AA8058
:1043F000BB80CC80DD80EE80FF802896CA01E3E0A0
:10440000880F991FEA95E1F78C010A581D4BF801B6
:1044100080829182A282B382C482D582E682F782B0
:104420008C9011969C9011971296AC9012971396BF
:10443000BC9013971496CC9014971596DC90159712
:104440001696EC9016971796FC90179718968C0175
:10445000025B1D4BF80180829182A282B382C482EA
:10446000D582E682F7828E0108501109F801108288
:1044700011821282138214821582168217828D0194
:1044800008501109F80110821182128213821482DD
:10449000158216821782F10180809180A280B380FC
:1044A000C480D580E680F780F8E02F0E311C8C01A7
:1044B0000A5D1D4BF80180829182A282B382C48280
:1044C000D582E682F782810108501109F801108235
:1044D0001182128213821482158216821782FB01C6
:1044E00081909190A190B190BF0175016401FF0C82
:1044F000CC08DC2C760182509E4BFC01808291829C
:10450000A282B382C482C582C682C782CB010497CD
:10451000FC0110821182128213824F5F5F4F61CFC4
:1045200080913E4390913F43A0914043B0914143DD
:10453000AC01BD01770F440B542FBA018093F641B3
:104540009093F741A093F841B093F9414093FA4119
:104550004093FB414093FC414093FD4170914243A5
:1045600060914343509144434091454330914643C9
:104570002091474390914843809149437093EE4185
:104580006093EF415093F0414093F1413093F241F9
:104590002093F3419093F4418093F541109242436C
:1045A0001092434310924443109245431092464365
:1045B00010924743109248431092494310923E4351
:1045C00010923F43109240431092414380914C43DC
:1045D00090914D43A0914E43B0914F438093EA4157
:1045E0009093EB41A093EC41B093ED4110924C437A
:1045F00010924D4310924E4310924F4381E08093AE
:104600006D4306C0452B21F010924A4310924B4354
:1046100080914C4390914D43A0914E43B0914F43B4
:104620000196A11DB11D80934C4390934D43A093DF
:104630004E43B0934F4380914A4390914B43019630
:1046400080934A4390934B439201D2010E94DC3BFA
:104650006B017C01FF0CCC08DC2C76019B01AC01CA
:104660006C2D7C2D8C2D9C2DA0904243B09043430B
:10467000C0904443D0904543E0904643F090474378
:1046800000914843109149430E94EE3B20934243DE
:104690003093434340934443509345436093464390
:1046A000709347438093484390934943C201550C0C
:1046B000AA0BBB0B40913E4350913F436091404356
:1046C00070914143840F951FA61FB71F80933E43EF
:1046D00090933F43A0934043B093414360923A4349
:1046E00070923B43809104048F77809304048091FF
:1046F00058438F5F8093584320913A4030913B401C
:104700008217130619F014F010925843FF91EF919D
:10471000DF91CF91BF91AF919F918F917F916F91D9
:104720005F914F913F912F911F910F91FF90EF90CB
:10473000DF90CF90BF90AF909F908F907F906F90C1
:104740005F904F903F902F900F900BBE0F900FBE39
:104750000F901F901895409165435091664360916A
:104760006743709168438091E6419091E741A09141
:10477000E841B091E94184179507A607B70748F4C7
:104780008091E541811105C081E080939E42809334
:10479000E541409165435091664360916743709154
:1047A00068438091694390916A43A0916B43B091B3
:1047B0006C4384179507A607B70708F029CF109216
:1047C000654310926643109267431092684381E0FC
:1047D00080931D401092A1421092A242C8E0D3E4FF
:1047E00010EE212E12E4312EE8EBF2E464EA72E4DA
:1047F00050E040E0421753070CF0C5C0CA01A3E0E7
:10480000880F991FAA95E1F78C010A581D4BD80112
:104810001C9211961C92119712961C921297139645
:104820001C92139714961C92149715961C92159728
:1048300016961C92169717961C928C01025B1D4BC4
:10484000D8011C9211961C92119712961C921297E5
:1048500013961C92139714961C92149715961C92FB
:10486000159716961C92169717961C921882198205
:104870001A821B821C821D821E821F822896D101F1
:104880001C9211961C92119712961C9212971396D5
:104890001C92139714961C92149715961C921597B8
:1048A00016961C92169717961C92B8E02B0E311C88
:1048B00080809180A280B380C480D580E680F7801C
:1048C00038968C010A5D1D4BD8018C9211969C92F2
:1048D00011971296AC9212971396BC921397149656
:1048E000CC9214971596DC9215971696EC92169723
:1048F0001796FC927F01B8E0EB1AF108D7011C92E1
:1049000011961C92119712961C92129713961C9254
:10491000139714961C92149715961C921597169639
:104920001C92169717961C92DB018D909D90AD906E
:10493000BD90BD0175016401FF0CCC08DC2C760133
:1049400082509E4BDC018C9211969C92119712968C
:10495000AC9212971396BC9213971496CC9214971C
:104960001596CC9215971696CC9216971796CC92D0
:10497000CB010497DC011D921D921D921C9213978E
:104980004F5F5F4F37CF70914243609143435091E7
:104990004443409145433091464320914743909191
:1049A0004843809149437093EE416093EF415093A7
:1049B000F0414093F1413093F2412093F3419093C1
:1049C000F4418093F5411092424310924343109278
:1049D000444310924543109246431092474310922D
:1049E00048431092494380913E4390913F43A091A8
:1049F0004043B0914143AC01BD01770F440B542FAC
:104A0000BA018093F6419093F741A093F841B09397
:104A1000F9414093FA414093FB414093FC4140935C
:104A2000FD41CCCD1082B5C0D0E02C173D070CF471
:104A30005ECE809104048068809304042197FE0177
:104A4000EC57FC4B1E01220C331CB6E04B165104F4
:104A50004CF381E08083809114479091154796959F
:104A60008795F101E05DFC4B60807180681A790ADE
:104A70004E0133E0880C991C3A95E1F7F401E85FA8
:104A8000FC4BA0915443B091554393010E94DC3BF1
:104A90006B017C01FF0CCC08DC2C76019B01AC0186
:104AA0006C2D7C2D8C2D9C2DA080B180C280D3805C
:104AB000E480F580068117810E94EE3B20833183DC
:104AC000428353836483758386839783F401E05222
:104AD000FD4BA0915643B091574393010E94DC3B9C
:104AE0006B017C01FF0CCC08DC2C76019B01AC0136
:104AF0006C2D7C2D8C2D9C2DA080B180C280D3800C
:104B0000E480F580068117810E94EE3B208331838B
:104B1000428353836483758386839783F401E854C7
:104B2000FD4B9301D3010E94DC3B6B017C01FF0C28
:104B3000CC08DC2C76019B01AC016C2D7C2D8C2DDE
:104B40009C2DA080B180C280D380E480F580068156
:104B500017810E94EE3B2083318342835383648319
:104B6000758386839783CC0FDD1FCC0FDD1FCC555B
:104B7000DD4BC301770CAA0BBB0B488159816A81BD
:104B80007B81840F951FA61FB71F88839983AA83F3
:104B9000BB83F101E05DFC4B40825182A3CDCF92FB
:104BA000DF92EF92FF920F931F93CF93DF9300D08A
:104BB000CDB7DEB710928F441092904488EE93E008
:104BC000A0E0B0E08093914490939244A0939344EA
:104BD000B09394442CE231E420938D4430938E447E
:104BE00040E258E04093994450939A444EED5EE081
:104BF00040939B4450939C4441E040939D441092C9
:104C00009E4410929F44109226451092274580930F
:104C1000284590932945A0932A45B0932B4520938E
:104C200024453093254520E038E0209330453093EB
:104C3000314524EE3EE0209332453093334522E067
:104C40002093344510923545109236451092BD455B
:104C50001092BE458093BF459093C045A093C14537
:104C6000B093C24586E491E48093BB459093BC45E4
:104C700080E099E08093C7459093C8458EEF90E01F
:104C80008093F1469093F24685E190E08093ED4663
:104C90009093EE4689EC90E08093EB469093EC463F
:104CA00082E895E08093F3469093F4468FEF95E188
:104CB0008093F5469093F6461092EF461092F04698
:104CC00002E815E0C801957189839A83CE010196A7
:104CD0000E94A60F780195E1E90EF11C8F3F19F1B2
:104CE0000093EF461093F0468FEFE81685E1F80643
:104CF00064F4C701957189839A83CE0101960E945D
:104D0000A60F8F3F61F00E94581040E05BE167EB17
:104D100070E080E08F5F863069F487E016C095E12F
:104D2000E90EF11CE1CF87018FEFE81685E1F80667
:104D300049F6EBCF7695679557954795413099E0C1
:104D400059079DE36907710528F794E0909303479D
:104D5000282F209520FBCC24C0F8D12C24E0CC0CAB
:104D6000DD1C2A95E1F711E081628C2980930247CE
:104D700020E439E02093F7463093F8469093FA46C2
:104D800086E08093FB461092FD461092FE461092FC
:104D900016471092174723E020931A4710931B479A
:104DA0008EE690E0A0E0B0E080931C4790931D4712
:104DB000A0931E47B0931F4710922047109221479F
:104DC00010922247109223471092244710922547B1
:104DD000109226471092274710922C4710922D4789
:104DE0002093304710933147809332479093334755
:104DF000A0933447B0933547109236471092374707
:104E0000109238471092394710923A4710923B4718
:104E100010923C4710923D4781E090E000908E4018
:104E200002C0880F991F0A94E2F780931447909369
:104E3000154735E0969587953A95E1F780931247A7
:104E40009093134785E00E94BB081092444710924C
:104E5000454710924E4710924F471092504710927C
:104E60005147109252471093534788E591E480933D
:104E70004247909343470F900F90DF91CF911F913E
:104E80000F91FF90EF90DF90CF900895CF93DF9335
:104E9000CDB7DEB76097CDBFDEBF88ED94E284BFAB
:104EA0009093680031E03093030A9EEF9093260AB6
:104EB0009093270A8BE08093000A23E02093E60575
:104EC0001092E70547E04093010B90930C0B109272
:104ED0000D0B85E08093000B4093110B90931C0BFE
:104EE00010921D0B8093100B4FEF5FE04093AA0BC5
:104EF0005093AB0B90E89093820B1092810B4BEF89
:104F000053E04093AE0B5093AF0B91E79093800B1F
:104F1000809302069EE09093050690E69093030628
:104F2000809300068091B000887F85608093B000F8
:104F30008091B200887F85608093B2008FED9EE201
:104F400080932C0B90932D0B3093250B1092210BFB
:104F50002093200B789488E08093010461E083E043
:104F60000E94C11140E052EC61E070E08DE894E4F1
:104F70000E94B4116EE273E08DE894E40E94290966
:104F80000E943C1667E173E08DE894E40E942B16C2
:104F900080E190E00E94D50F882309F1CE010196AF
:104FA0000E94AD0F09811A8117FD19C00D5F1F4FB7
:104FB0008CE4E82E80E4F82E87E090E06C012FEF7F
:104FC000C21AD20A8D839E83CE0105960E94A60F37
:104FD000D7018D937D01C601C016D10678F364E632
:104FE00070E080E090E00E94A20BE091C745F09154
:104FF000C845E115B9E0FB0709F073C08091E505EC
:105000008C7F82608093E5058091C945807641F56B
:10501000E11519E0F10709F072C08091E505837090
:10502000823009F068C08CE0809346048091C945C5
:1050300080628093C94581E0838385839091C945CF
:1050400095FF21C096819C3679F0238113829CE6DE
:10505000968390819D7F9083238320FF05C0858365
:105060008091C94585FF0FC08681853161F09381AC
:10507000138285E1868380818D7F8083938390FF77
:1050800002C081E08583109255478CE3809354479A
:105090001092464710924747EBE3F5E085919491D3
:1050A000E82EEDE3F5E0F490EEE3F5E0E491E09333
:1050B0004847EFE3F5E0E491E0934947E0E4F5E0A9
:1050C000E491E0934A478C01802F8E198F1500F5EB
:1050D000F801649182E497E40E94190D0F5F1F4F5D
:1050E000F3CFE03209E0F00709F08ECF8091E505BB
:1050F0001092E50589CF8CE08093060497CFE032CB
:1051000029E0F20709F092CF8CE08093A6048ECFBD
:105110000E94850DE5E5F3E0E0935047F093514799
:105120008491E6E5F3E0E491F82F319709F03DC171
:1051300010924B470E94850DFF24F394F092534741
:105140006CE473E082E497E40E9429094AE050E0AD
:1051500061E082E497E40E94B41460E771E482E4C1
:1051600097E40E942B144AE050E060E082E497E468
:105170000E94B41460E771E482E497E40E942B1467
:1051800060E082E497E40E9419166AE373E082E427
:1051900097E40E94290968EE73E080E090E00E94A5
:1051A000A20B8CE090E080938E4090938F408DE135
:1051B00090E080931E4090931F4080E090E18093A8
:1051C00014479093154780E890E08093124790939E
:1051D00013478FE692E1A3E8BFE3809340409093AA
:1051E0004140A0934240B093434080905040909003
:1051F0005140A0905240B090534086E080930040D0
:1052000080923C4090923D40A0923E40B0923F4000
:105210004091604050916140609162407091634064
:10522000009189430C87802F90E09C01220F331F4F
:10523000220F331FF901EA5DFF4B40905C40509014
:105240005D4060905E4070905F404082518262821B
:1052500073822A5F3F4BD9014D935D936D937C938D
:1052600013978C579C4BFC01F08200936043A02F56
:10527000AF5F8A2F90E0FC01E050F04C23E02083E8
:10528000409068405090694060906A4070906B40D8
:105290009C01220F331F220F331FF901EA5DFF4BE0
:1052A00040916440509165406091664070916740C4
:1052B00040835183628373832A5F3F4BF9014082AD
:1052C0005182628273828C579C4BFC01F082A093C6
:1052D0005F43AF5F8A2F90E0FC01E050F04C22E08A
:1052E0002083409070405090714060907240709068
:1052F00073409C01220F331F220F331FF901EA5D17
:10530000FF4B40916C4050916D4060916E407091A8
:105310006F4040835183628373832A5F3F4BF9015F
:1053200040825182628273828C579C4BFC01F082D6
:10533000A0935E430D5F0B8700938943202E312C91
:10534000F101E050F04CF08260915840709159406A
:1053500080915A4090915B400E94433A6093244070
:105360007093254090E080E00E94403820912040DA
:105370003091214040912240509123400E94A13819
:105380000E94433A60936E4370936F430E94DF1014
:10539000F12C80913A4090913B40F81619064CF45C
:1053A0008F2D0E945816F394F4CF81E080934B47E1
:1053B000C1CE8091544090915540A0915640B091FB
:1053C00057408093444090934540A0934640B0930B
:1053D0004740809178408093164721E020931747FB
:1053E00087E180931A4780931B4780917940909181
:1053F0007A40092E000CAA0BBB0B80931C4790939C
:105400001D47A0931E47B0931F4730917B403093B8
:105410002C4720932D4733E030933047209331477A
:105420008093324790933347A0933447B0933547E6
:10543000C090EF46D090F046C114D10409F49BC04F
:105440007601FFEFEF1AFF0A17ED612E16E4712EB9
:105450008091ED469091EE468C0D9D1DE816F90663
:105460007CF4C701957189839A83CE0101960E94CD
:10547000A60FD3018D933D01BFEFEB1AFB0AE8CFD6
:105480000091D7461091D8462091D9463091DA46FE
:105490000F83188729873A874090DB465090DC4677
:1054A0006090DD467090DE46C090DF46D090E046CA
:1054B000E090E146F090E2464091E3465091E446A8
:1054C0006091E5467091E6468091E7469091E84606
:1054D000A091E946B091EA460F81188529853A8561
:1054E00000939B4310939C4320939D4330939E4392
:1054F00040929F435092A0436092A1437092A24376
:10550000C092A343D092A443E092A543F092A64355
:10551000409320475093214760932247709323473D
:105520008093364790933747A0933847B0933947D5
:1055300010926443109263438AE090E080931B4092
:1055400090931C4060E070E080E09FE30E94511166
:105550001B85112309F120923A4030923B401C8573
:105560001C5F812F90E08530B8F4FC01EC57FC4BB8
:1055700010820196F8CF80E090E0DC0140E050E03E
:10558000BA01C12CD12C7601412C512C32011F8241
:10559000188619861A86A0CF2FE632E143E85FE32A
:1055A000C501B4010E94A13820E030E040E859E391
:1055B0000E94A13860933C4070933D4080933E40F0
:1055C00090933F40A6E2EA2EA0E4FA2EB0E7CB2E5D
:1055D000B3E4DB2E10E000E080913A4090913B4034
:1055E000081719071CF52FE632E143E85FE3D701FE
:1055F0006D917D918D919C910E94A13820E030E0C9
:1056000040E859E30E94A138F701619371938193B7
:1056100091937F01802F0E945816D6011D921D92F2
:105620001D921D926D010F5F1F4FD6CF8BED90E144
:1056300080931847909319478DED90E180932E4702
:1056400090932F4781E080931D4010926543109204
:10565000664310926743109268439EE0909305065C
:1056600090910306909303061092B00096E09093F9
:105670000206809300069091000690930006909198
:1056800000069260909300061092080690910C0616
:10569000916090930C0680930A067894C090204005
:1056A000D0902140E0902240F0902340609124402F
:1056B0007091254090E080E00E944038A70196015B
:1056C0000E94A1380E94433A60936E4370936F43E7
:1056D00010926D4320E034E244E759E4C701B6017B
:1056E0000E94A1386B017C0160911E4070911F40A7
:1056F000072E000C880B990B0E9442389B01AC01CD
:10570000C701B6010E94D6390E94433A60936943AB
:1057100070936A4380936B4390936C4380E88093CB
:10572000010460E087E00E94C11106E117E4F12C5A
:10573000F80180818823A9F12481822F90E02B3108
:1057400020F5FC01EE51FF4B20812F3FF1F0FC01D1
:10575000E953FF4BA081F0E2AF9FD0011124BC5F61
:1057600084559F4BFC013081F0E0E0E0383028F4B4
:10577000CD014096FC01E30FF11D9FB7F8941296FE
:105780002C938081886080839FBF6DED70E1809154
:105790003147F11004C06BED70E180911B470E940E
:1057A0008C080A5E1F4FF1E0FF125BC00E946A176F
:1057B0008823E1F360917440709175408091764048
:1057C000909177400E9451110E94850D8091B743BE
:1057D0006EE675E0811102C06EE575E082E497E443
:1057E0000E94290960EA7FE080E090E00E94A20B1D
:1057F0000E94850D6DE475E082E497E40E9429091A
:1058000041E060E082E497E40E94430D61E475E0CA
:1058100082E497E40E94290964E170E080E090E06E
:105820000E94A20B80914C4043E953E0833031F059
:1058300044E653E0823011F042EB51E060914E407B
:1058400080914F400E94C312F2E02F2E312C8091A4
:105850008C44803149F080E10E94B2120FEF1FEFBB
:105860006AC0FF24F39464CF87E20E948E12909165
:105870008A438074891751F180E4892780938A4391
:10588000903421F188E10E948E1290E0E3E095953A
:105890008795EA95E1F787708093894484E20E94B6
:1058A0008E12809388448FE10E948E12109286445B
:1058B0008093874480E20E948E122091864430912A
:1058C0008744282B209386443093874488E20E94A3
:1058D0008E1282FFC3CF80E00E948E12082F10E04C
:1058E000F12CE12CE016F1067CF480E00E948E128F
:1058F00022E4E216F10424F4F701EC5BFB4B808315
:105900003FEFE31AF30AEECF84E20E948E128093F7
:10591000884480914444282F207C90918B44291303
:105920009DCF8F7390918A44891729F0882319F0AD
:105930009F3309F093CF80917F4080FF68C0023091
:1059400011050CF464C081E080934B400093494002
:1059500080914544809348408091884490E095959B
:10596000879591958195910980934A4065ED7EE0F8
:105970008DE894E40E9429090091494067E875E0A8
:105980008DE894E40E9429094AE050E06091484083
:105990008DE894E40E94B41465E875E08DE894E421
:1059A0000E94290976E4E72E74E4F72E12E010171E
:1059B00098F4D7014D917D0150E070E060E02AE05D
:1059C0008DE894E40E943A1463E875E08DE894E46D
:1059D0000E9429091F5FEBCF61E875E08DE894E430
:1059E0000E94290960914A40062E000C770B8DE831
:1059F00094E40E94AF146FE775E08DE894E40E9490
:105A000029098DE894E40E9405160E94DA1380911A
:105A10007F4081FF57C080914344882309F452C0DE
:105A200061E083E00E94C11168EC70E080E090E0EA
:105A30000E94A20B60E083E00E94C11180ED9EE015
:105A40000E949A114091434450E070E060E02AE0E7
:105A50008DE894E40E943A148CEC9EE00E949A1126
:105A600010914344E12EF12C80E00E94B21262E0DA
:105A7000610F80E00E949F1260918B4480E00E9441
:105A80009F1260918A4480E00E949F1201E014E41A
:105A9000C801815094448E159F053CF4F801619132
:105AA0008F0180E00E949F12F3CF8CE00E94B2121F
:105AB00088E20E948E1283FFFBCF84E00E94B21224
:105AC000109243448DE894E40E94AB09892B09F4B9
:105AD000A1C78DE894E40E94AB09892B09F480C723
:105AE0008DE894E40E949D09182F80ED810F8A3083
:105AF000C8F481E080938F430E94D20B60938B4364
:105B000070938C4380938D4390938E438DE894E4FF
:105B10000E94AB09892B09F4C7C08DE894E40E9468
:105B20008909F4CF0E94D20BC0908B43D0908C4354
:105B3000E0908D43F0908E436C197D098E099F098A
:105B4000613D77408105910510F010928F4380915F
:105B50008F438111A9C0E1ECE10FEC3308F0A4C040
:105B60000E2E000CFF0BE954F24D0C94D33BE7349E
:105B7000542E542E542E542E542E542E542E542E15
:105B8000542E542E542E542EA72F542E542E542EB1
:105B9000542E542E542E542E6C34542E9534542E90
:105BA000542E542E542E542E542E542E542E542EE5
:105BB000542EF32D1B2E602E6C2E542EA42ECA2E86
:105BC000542E1D33542EE02E0C3180321D33542EB2
:105BD0003A33542E56338433542E542E8C34AE34F0
:105BE000542E542EC4340E940D0C60935440709374
:105BF0005540809356409093574060934440709333
:105C0000454080934640909347408091904388233D
:105C100009F44AC06BE67EE08DE894E40E9429090D
:105C200060915440709155408091564090915740FA
:105C30000E94081639C00E94A40C81E0643039F03B
:105C400082E0683021F083E0693009F080E08093E1
:105C50004C4080919043882321F16FE57EE08DE8F0
:105C600094E40E94290980914C40813031F468E528
:105C70007EE08DE894E40E942B1680914C408230A7
:105C800031F461E57EE08DE894E40E942B1680916A
:105C90004C40833031F46AE47EE08DE894E40E9465
:105CA0002B1681E0809300448DE894E40E94AB09B8
:105CB000892B09F495C68DE894E40E948909F4CFF4
:105CC0000E94A40C6130710521F481E080937E4034
:105CD000EBCF10927E40E8CF0E940D0C6B017C014F
